{
	".learneth/Solidity Beginner Course/3. Primitive Data Types/primitiveDataTypes_answer.sol": {
		"Primitives": {
			"abi": [
				{
					"inputs": [],
					"name": "addr",
					"outputs": [
						{
							"internalType": "address",
							"name": "",
							"type": "address"
						}
					],
					"stateMutability": "view",
					"type": "function"
				},
				{
					"inputs": [],
					"name": "boo",
					"outputs": [
						{
							"internalType": "bool",
							"name": "",
							"type": "bool"
						}
					],
					"stateMutability": "view",
					"type": "function"
				},
				{
					"inputs": [],
					"name": "defaultAddr",
					"outputs": [
						{
							"internalType": "address",
							"name": "",
							"type": "address"
						}
					],
					"stateMutability": "view",
					"type": "function"
				},
				{
					"inputs": [],
					"name": "defaultBoo",
					"outputs": [
						{
							"internalType": "bool",
							"name": "",
							"type": "bool"
						}
					],
					"stateMutability": "view",
					"type": "function"
				},
				{
					"inputs": [],
					"name": "defaultInt",
					"outputs": [
						{
							"internalType": "int256",
							"name": "",
							"type": "int256"
						}
					],
					"stateMutability": "view",
					"type": "function"
				},
				{
					"inputs": [],
					"name": "defaultUint",
					"outputs": [
						{
							"internalType": "uint256",
							"name": "",
							"type": "uint256"
						}
					],
					"stateMutability": "view",
					"type": "function"
				},
				{
					"inputs": [],
					"name": "i",
					"outputs": [
						{
							"internalType": "int256",
							"name": "",
							"type": "int256"
						}
					],
					"stateMutability": "view",
					"type": "function"
				},
				{
					"inputs": [],
					"name": "i256",
					"outputs": [
						{
							"internalType": "int256",
							"name": "",
							"type": "int256"
						}
					],
					"stateMutability": "view",
					"type": "function"
				},
				{
					"inputs": [],
					"name": "i8",
					"outputs": [
						{
							"internalType": "int8",
							"name": "",
							"type": "int8"
						}
					],
					"stateMutability": "view",
					"type": "function"
				},
				{
					"inputs": [],
					"name": "neg",
					"outputs": [
						{
							"internalType": "int256",
							"name": "",
							"type": "int256"
						}
					],
					"stateMutability": "view",
					"type": "function"
				},
				{
					"inputs": [],
					"name": "newAddr",
					"outputs": [
						{
							"internalType": "address",
							"name": "",
							"type": "address"
						}
					],
					"stateMutability": "view",
					"type": "function"
				},
				{
					"inputs": [],
					"name": "newU",
					"outputs": [
						{
							"internalType": "uint8",
							"name": "",
							"type": "uint8"
						}
					],
					"stateMutability": "view",
					"type": "function"
				},
				{
					"inputs": [],
					"name": "u",
					"outputs": [
						{
							"internalType": "uint256",
							"name": "",
							"type": "uint256"
						}
					],
					"stateMutability": "view",
					"type": "function"
				},
				{
					"inputs": [],
					"name": "u256",
					"outputs": [
						{
							"internalType": "uint256",
							"name": "",
							"type": "uint256"
						}
					],
					"stateMutability": "view",
					"type": "function"
				},
				{
					"inputs": [],
					"name": "u8",
					"outputs": [
						{
							"internalType": "uint8",
							"name": "",
							"type": "uint8"
						}
					],
					"stateMutability": "view",
					"type": "function"
				}
			],
			"devdoc": {
				"kind": "dev",
				"methods": {},
				"version": 1
			},
			"evm": {
				"assembly": "    /* \".learneth/Solidity Beginner Course/3. Primitive Data Types/primitiveDataTypes_answer.sol\":57:1186  contract Primitives {... */\n  mstore(0x40, 0x80)\n    /* \".learneth/Solidity Beginner Course/3. Primitive Data Types/primitiveDataTypes_answer.sol\":101:105  true */\n  0x01\n    /* \".learneth/Solidity Beginner Course/3. Primitive Data Types/primitiveDataTypes_answer.sol\":83:105  bool public boo = true */\n  0x00\n  dup1\n  0x0100\n  exp\n  dup2\n  sload\n  dup2\n  0xff\n  mul\n  not\n  and\n  swap1\n  dup4\n  iszero\n  iszero\n  mul\n  or\n  swap1\n  sstore\n  pop\n    /* \".learneth/Solidity Beginner Course/3. Primitive Data Types/primitiveDataTypes_answer.sol\":393:394  1 */\n  0x01\n    /* \".learneth/Solidity Beginner Course/3. Primitive Data Types/primitiveDataTypes_answer.sol\":375:394  uint8 public u8 = 1 */\n  0x00\n  exp(0x0100, 0x01)\n  dup2\n  sload\n  dup2\n  0xff\n  mul\n  not\n  and\n  swap1\n  dup4\n  0xff\n  and\n  mul\n  or\n  swap1\n  sstore\n  pop\n    /* \".learneth/Solidity Beginner Course/3. Primitive Data Types/primitiveDataTypes_answer.sol\":419:422  456 */\n  0x01c8\n    /* \".learneth/Solidity Beginner Course/3. Primitive Data Types/primitiveDataTypes_answer.sol\":400:422  uint public u256 = 456 */\n  0x01\n  sstore\n    /* \".learneth/Solidity Beginner Course/3. Primitive Data Types/primitiveDataTypes_answer.sol\":444:447  123 */\n  0x7b\n    /* \".learneth/Solidity Beginner Course/3. Primitive Data Types/primitiveDataTypes_answer.sol\":428:447  uint public u = 123 */\n  0x02\n  sstore\n    /* \".learneth/Solidity Beginner Course/3. Primitive Data Types/primitiveDataTypes_answer.sol\":631:633  -1 */\n  0xffffffffffffffffffffffffffffffffffffffffffffffffffffffffffffffff\n    /* \".learneth/Solidity Beginner Course/3. Primitive Data Types/primitiveDataTypes_answer.sol\":614:633  int8 public i8 = -1 */\n  0x03\n  exp(0x0100, 0x00)\n  dup2\n  sload\n  dup2\n  0xff\n  mul\n  not\n  and\n  swap1\n  dup4\n  0x00\n  signextend\n  0xff\n  and\n  mul\n  or\n  swap1\n  sstore\n  pop\n    /* \".learneth/Solidity Beginner Course/3. Primitive Data Types/primitiveDataTypes_answer.sol\":657:660  456 */\n  0x01c8\n    /* \".learneth/Solidity Beginner Course/3. Primitive Data Types/primitiveDataTypes_answer.sol\":639:660  int public i256 = 456 */\n  0x04\n  sstore\n    /* \".learneth/Solidity Beginner Course/3. Primitive Data Types/primitiveDataTypes_answer.sol\":681:685  -123 */\n  0xffffffffffffffffffffffffffffffffffffffffffffffffffffffffffffff85\n    /* \".learneth/Solidity Beginner Course/3. Primitive Data Types/primitiveDataTypes_answer.sol\":666:685  int public i = -123 */\n  0x05\n  sstore\n    /* \".learneth/Solidity Beginner Course/3. Primitive Data Types/primitiveDataTypes_answer.sol\":739:781  0xCA35b7d915458EF540aDe6068dFe2F44E8fa733c */\n  0xca35b7d915458ef540ade6068dfe2f44e8fa733c\n    /* \".learneth/Solidity Beginner Course/3. Primitive Data Types/primitiveDataTypes_answer.sol\":717:781  address public addr = 0xCA35b7d915458EF540aDe6068dFe2F44E8fa733c */\n  0x06\n  exp(0x0100, 0x00)\n  dup2\n  sload\n  dup2\n  0xffffffffffffffffffffffffffffffffffffffff\n  mul\n  not\n  and\n  swap1\n  dup4\n  0xffffffffffffffffffffffffffffffffffffffff\n  and\n  mul\n  or\n  swap1\n  sstore\n  pop\n    /* \".learneth/Solidity Beginner Course/3. Primitive Data Types/primitiveDataTypes_answer.sol\":1088:1130  0x0000000000000000000000000000000000000000 */\n  0x00\n    /* \".learneth/Solidity Beginner Course/3. Primitive Data Types/primitiveDataTypes_answer.sol\":1063:1130  address public newAddr = 0x0000000000000000000000000000000000000000 */\n  0x0a\n  exp(0x0100, 0x00)\n  dup2\n  sload\n  dup2\n  0xffffffffffffffffffffffffffffffffffffffff\n  mul\n  not\n  and\n  swap1\n  dup4\n  0xffffffffffffffffffffffffffffffffffffffff\n  and\n  mul\n  or\n  swap1\n  sstore\n  pop\n    /* \".learneth/Solidity Beginner Course/3. Primitive Data Types/primitiveDataTypes_answer.sol\":1153:1156  -12 */\n  0xfffffffffffffffffffffffffffffffffffffffffffffffffffffffffffffff4\n    /* \".learneth/Solidity Beginner Course/3. Primitive Data Types/primitiveDataTypes_answer.sol\":1136:1156  int public neg = -12 */\n  0x0b\n  sstore\n    /* \".learneth/Solidity Beginner Course/3. Primitive Data Types/primitiveDataTypes_answer.sol\":1182:1183  0 */\n  0x00\n    /* \".learneth/Solidity Beginner Course/3. Primitive Data Types/primitiveDataTypes_answer.sol\":1162:1183  uint8 public newU = 0 */\n  0x0c\n  exp(0x0100, 0x00)\n  dup2\n  sload\n  dup2\n  0xff\n  mul\n  not\n  and\n  swap1\n  dup4\n  0xff\n  and\n  mul\n  or\n  swap1\n  sstore\n  pop\n    /* \".learneth/Solidity Beginner Course/3. Primitive Data Types/primitiveDataTypes_answer.sol\":57:1186  contract Primitives {... */\n  callvalue\n  dup1\n  iszero\n  tag_1\n  jumpi\n  0x00\n  dup1\n  revert\ntag_1:\n  pop\n  dataSize(sub_0)\n  dup1\n  dataOffset(sub_0)\n  0x00\n  codecopy\n  0x00\n  return\nstop\n\nsub_0: assembly {\n        /* \".learneth/Solidity Beginner Course/3. Primitive Data Types/primitiveDataTypes_answer.sol\":57:1186  contract Primitives {... */\n      mstore(0x40, 0x80)\n      callvalue\n      dup1\n      iszero\n      tag_1\n      jumpi\n      0x00\n      dup1\n      revert\n    tag_1:\n      pop\n      jumpi(tag_2, lt(calldatasize, 0x04))\n      shr(0xe0, calldataload(0x00))\n      dup1\n      0x6a76e307\n      gt\n      tag_18\n      jumpi\n      dup1\n      0xab3a58a3\n      gt\n      tag_19\n      jumpi\n      dup1\n      0xab3a58a3\n      eq\n      tag_14\n      jumpi\n      dup1\n      0xc6a898c5\n      eq\n      tag_15\n      jumpi\n      dup1\n      0xe5aa3d58\n      eq\n      tag_16\n      jumpi\n      dup1\n      0xf2427d37\n      eq\n      tag_17\n      jumpi\n      jump(tag_2)\n    tag_19:\n      dup1\n      0x6a76e307\n      eq\n      tag_10\n      jumpi\n      dup1\n      0x767800de\n      eq\n      tag_11\n      jumpi\n      dup1\n      0x78063b1f\n      eq\n      tag_12\n      jumpi\n      dup1\n      0x921cda74\n      eq\n      tag_13\n      jumpi\n      jump(tag_2)\n    tag_18:\n      dup1\n      0x459b1acf\n      gt\n      tag_20\n      jumpi\n      dup1\n      0x459b1acf\n      eq\n      tag_6\n      jumpi\n      dup1\n      0x4b3df200\n      eq\n      tag_7\n      jumpi\n      dup1\n      0x4c27fd62\n      eq\n      tag_8\n      jumpi\n      dup1\n      0x5abe622b\n      eq\n      tag_9\n      jumpi\n      jump(tag_2)\n    tag_20:\n      dup1\n      0x074eef3f\n      eq\n      tag_3\n      jumpi\n      dup1\n      0x149d8ffc\n      eq\n      tag_4\n      jumpi\n      dup1\n      0x1570c2cb\n      eq\n      tag_5\n      jumpi\n    tag_2:\n      0x00\n      dup1\n      revert\n        /* \".learneth/Solidity Beginner Course/3. Primitive Data Types/primitiveDataTypes_answer.sol\":859:881  bool public defaultBoo */\n    tag_3:\n      tag_21\n      tag_22\n      jump\t// in\n    tag_21:\n      mload(0x40)\n      tag_23\n      swap2\n      swap1\n      tag_24\n      jump\t// in\n    tag_23:\n      mload(0x40)\n      dup1\n      swap2\n      sub\n      swap1\n      return\n        /* \".learneth/Solidity Beginner Course/3. Primitive Data Types/primitiveDataTypes_answer.sol\":1162:1183  uint8 public newU = 0 */\n    tag_4:\n      tag_25\n      tag_26\n      jump\t// in\n    tag_25:\n      mload(0x40)\n      tag_27\n      swap2\n      swap1\n      tag_28\n      jump\t// in\n    tag_27:\n      mload(0x40)\n      dup1\n      swap2\n      sub\n      swap1\n      return\n        /* \".learneth/Solidity Beginner Course/3. Primitive Data Types/primitiveDataTypes_answer.sol\":896:919  uint public defaultUint */\n    tag_5:\n      tag_29\n      tag_30\n      jump\t// in\n    tag_29:\n      mload(0x40)\n      tag_31\n      swap2\n      swap1\n      tag_32\n      jump\t// in\n    tag_31:\n      mload(0x40)\n      dup1\n      swap2\n      sub\n      swap1\n      return\n        /* \".learneth/Solidity Beginner Course/3. Primitive Data Types/primitiveDataTypes_answer.sol\":400:422  uint public u256 = 456 */\n    tag_6:\n      tag_33\n      tag_34\n      jump\t// in\n    tag_33:\n      mload(0x40)\n      tag_35\n      swap2\n      swap1\n      tag_32\n      jump\t// in\n    tag_35:\n      mload(0x40)\n      dup1\n      swap2\n      sub\n      swap1\n      return\n        /* \".learneth/Solidity Beginner Course/3. Primitive Data Types/primitiveDataTypes_answer.sol\":83:105  bool public boo = true */\n    tag_7:\n      tag_36\n      tag_37\n      jump\t// in\n    tag_36:\n      mload(0x40)\n      tag_38\n      swap2\n      swap1\n      tag_24\n      jump\t// in\n    tag_38:\n      mload(0x40)\n      dup1\n      swap2\n      sub\n      swap1\n      return\n        /* \".learneth/Solidity Beginner Course/3. Primitive Data Types/primitiveDataTypes_answer.sol\":639:660  int public i256 = 456 */\n    tag_8:\n      tag_39\n      tag_40\n      jump\t// in\n    tag_39:\n      mload(0x40)\n      tag_41\n      swap2\n      swap1\n      tag_42\n      jump\t// in\n    tag_41:\n      mload(0x40)\n      dup1\n      swap2\n      sub\n      swap1\n      return\n        /* \".learneth/Solidity Beginner Course/3. Primitive Data Types/primitiveDataTypes_answer.sol\":930:951  int public defaultInt */\n    tag_9:\n      tag_43\n      tag_44\n      jump\t// in\n    tag_43:\n      mload(0x40)\n      tag_45\n      swap2\n      swap1\n      tag_42\n      jump\t// in\n    tag_45:\n      mload(0x40)\n      dup1\n      swap2\n      sub\n      swap1\n      return\n        /* \".learneth/Solidity Beginner Course/3. Primitive Data Types/primitiveDataTypes_answer.sol\":1063:1130  address public newAddr = 0x0000000000000000000000000000000000000000 */\n    tag_10:\n      tag_46\n      tag_47\n      jump\t// in\n    tag_46:\n      mload(0x40)\n      tag_48\n      swap2\n      swap1\n      tag_49\n      jump\t// in\n    tag_48:\n      mload(0x40)\n      dup1\n      swap2\n      sub\n      swap1\n      return\n        /* \".learneth/Solidity Beginner Course/3. Primitive Data Types/primitiveDataTypes_answer.sol\":717:781  address public addr = 0xCA35b7d915458EF540aDe6068dFe2F44E8fa733c */\n    tag_11:\n      tag_50\n      tag_51\n      jump\t// in\n    tag_50:\n      mload(0x40)\n      tag_52\n      swap2\n      swap1\n      tag_49\n      jump\t// in\n    tag_52:\n      mload(0x40)\n      dup1\n      swap2\n      sub\n      swap1\n      return\n        /* \".learneth/Solidity Beginner Course/3. Primitive Data Types/primitiveDataTypes_answer.sol\":1136:1156  int public neg = -12 */\n    tag_12:\n      tag_53\n      tag_54\n      jump\t// in\n    tag_53:\n      mload(0x40)\n      tag_55\n      swap2\n      swap1\n      tag_42\n      jump\t// in\n    tag_55:\n      mload(0x40)\n      dup1\n      swap2\n      sub\n      swap1\n      return\n        /* \".learneth/Solidity Beginner Course/3. Primitive Data Types/primitiveDataTypes_answer.sol\":614:633  int8 public i8 = -1 */\n    tag_13:\n      tag_56\n      tag_57\n      jump\t// in\n    tag_56:\n      mload(0x40)\n      tag_58\n      swap2\n      swap1\n      tag_59\n      jump\t// in\n    tag_58:\n      mload(0x40)\n      dup1\n      swap2\n      sub\n      swap1\n      return\n        /* \".learneth/Solidity Beginner Course/3. Primitive Data Types/primitiveDataTypes_answer.sol\":375:394  uint8 public u8 = 1 */\n    tag_14:\n      tag_60\n      tag_61\n      jump\t// in\n    tag_60:\n      mload(0x40)\n      tag_62\n      swap2\n      swap1\n      tag_28\n      jump\t// in\n    tag_62:\n      mload(0x40)\n      dup1\n      swap2\n      sub\n      swap1\n      return\n        /* \".learneth/Solidity Beginner Course/3. Primitive Data Types/primitiveDataTypes_answer.sol\":428:447  uint public u = 123 */\n    tag_15:\n      tag_63\n      tag_64\n      jump\t// in\n    tag_63:\n      mload(0x40)\n      tag_65\n      swap2\n      swap1\n      tag_32\n      jump\t// in\n    tag_65:\n      mload(0x40)\n      dup1\n      swap2\n      sub\n      swap1\n      return\n        /* \".learneth/Solidity Beginner Course/3. Primitive Data Types/primitiveDataTypes_answer.sol\":666:685  int public i = -123 */\n    tag_16:\n      tag_66\n      tag_67\n      jump\t// in\n    tag_66:\n      mload(0x40)\n      tag_68\n      swap2\n      swap1\n      tag_42\n      jump\t// in\n    tag_68:\n      mload(0x40)\n      dup1\n      swap2\n      sub\n      swap1\n      return\n        /* \".learneth/Solidity Beginner Course/3. Primitive Data Types/primitiveDataTypes_answer.sol\":962:988  address public defaultAddr */\n    tag_17:\n      tag_69\n      tag_70\n      jump\t// in\n    tag_69:\n      mload(0x40)\n      tag_71\n      swap2\n      swap1\n      tag_49\n      jump\t// in\n    tag_71:\n      mload(0x40)\n      dup1\n      swap2\n      sub\n      swap1\n      return\n        /* \".learneth/Solidity Beginner Course/3. Primitive Data Types/primitiveDataTypes_answer.sol\":859:881  bool public defaultBoo */\n    tag_22:\n      0x06\n      0x14\n      swap1\n      sload\n      swap1\n      0x0100\n      exp\n      swap1\n      div\n      0xff\n      and\n      dup2\n      jump\t// out\n        /* \".learneth/Solidity Beginner Course/3. Primitive Data Types/primitiveDataTypes_answer.sol\":1162:1183  uint8 public newU = 0 */\n    tag_26:\n      0x0c\n      0x00\n      swap1\n      sload\n      swap1\n      0x0100\n      exp\n      swap1\n      div\n      0xff\n      and\n      dup2\n      jump\t// out\n        /* \".learneth/Solidity Beginner Course/3. Primitive Data Types/primitiveDataTypes_answer.sol\":896:919  uint public defaultUint */\n    tag_30:\n      sload(0x07)\n      dup2\n      jump\t// out\n        /* \".learneth/Solidity Beginner Course/3. Primitive Data Types/primitiveDataTypes_answer.sol\":400:422  uint public u256 = 456 */\n    tag_34:\n      sload(0x01)\n      dup2\n      jump\t// out\n        /* \".learneth/Solidity Beginner Course/3. Primitive Data Types/primitiveDataTypes_answer.sol\":83:105  bool public boo = true */\n    tag_37:\n      0x00\n      dup1\n      sload\n      swap1\n      0x0100\n      exp\n      swap1\n      div\n      0xff\n      and\n      dup2\n      jump\t// out\n        /* \".learneth/Solidity Beginner Course/3. Primitive Data Types/primitiveDataTypes_answer.sol\":639:660  int public i256 = 456 */\n    tag_40:\n      sload(0x04)\n      dup2\n      jump\t// out\n        /* \".learneth/Solidity Beginner Course/3. Primitive Data Types/primitiveDataTypes_answer.sol\":930:951  int public defaultInt */\n    tag_44:\n      sload(0x08)\n      dup2\n      jump\t// out\n        /* \".learneth/Solidity Beginner Course/3. Primitive Data Types/primitiveDataTypes_answer.sol\":1063:1130  address public newAddr = 0x0000000000000000000000000000000000000000 */\n    tag_47:\n      0x0a\n      0x00\n      swap1\n      sload\n      swap1\n      0x0100\n      exp\n      swap1\n      div\n      0xffffffffffffffffffffffffffffffffffffffff\n      and\n      dup2\n      jump\t// out\n        /* \".learneth/Solidity Beginner Course/3. Primitive Data Types/primitiveDataTypes_answer.sol\":717:781  address public addr = 0xCA35b7d915458EF540aDe6068dFe2F44E8fa733c */\n    tag_51:\n      0x06\n      0x00\n      swap1\n      sload\n      swap1\n      0x0100\n      exp\n      swap1\n      div\n      0xffffffffffffffffffffffffffffffffffffffff\n      and\n      dup2\n      jump\t// out\n        /* \".learneth/Solidity Beginner Course/3. Primitive Data Types/primitiveDataTypes_answer.sol\":1136:1156  int public neg = -12 */\n    tag_54:\n      sload(0x0b)\n      dup2\n      jump\t// out\n        /* \".learneth/Solidity Beginner Course/3. Primitive Data Types/primitiveDataTypes_answer.sol\":614:633  int8 public i8 = -1 */\n    tag_57:\n      0x03\n      0x00\n      swap1\n      sload\n      swap1\n      0x0100\n      exp\n      swap1\n      div\n      0x00\n      signextend\n      dup2\n      jump\t// out\n        /* \".learneth/Solidity Beginner Course/3. Primitive Data Types/primitiveDataTypes_answer.sol\":375:394  uint8 public u8 = 1 */\n    tag_61:\n      0x00\n      0x01\n      swap1\n      sload\n      swap1\n      0x0100\n      exp\n      swap1\n      div\n      0xff\n      and\n      dup2\n      jump\t// out\n        /* \".learneth/Solidity Beginner Course/3. Primitive Data Types/primitiveDataTypes_answer.sol\":428:447  uint public u = 123 */\n    tag_64:\n      sload(0x02)\n      dup2\n      jump\t// out\n        /* \".learneth/Solidity Beginner Course/3. Primitive Data Types/primitiveDataTypes_answer.sol\":666:685  int public i = -123 */\n    tag_67:\n      sload(0x05)\n      dup2\n      jump\t// out\n        /* \".learneth/Solidity Beginner Course/3. Primitive Data Types/primitiveDataTypes_answer.sol\":962:988  address public defaultAddr */\n    tag_70:\n      0x09\n      0x00\n      swap1\n      sload\n      swap1\n      0x0100\n      exp\n      swap1\n      div\n      0xffffffffffffffffffffffffffffffffffffffff\n      and\n      dup2\n      jump\t// out\n        /* \"#utility.yul\":7:125   */\n    tag_73:\n        /* \"#utility.yul\":94:118   */\n      tag_75\n        /* \"#utility.yul\":112:117   */\n      dup2\n        /* \"#utility.yul\":94:118   */\n      tag_76\n      jump\t// in\n    tag_75:\n        /* \"#utility.yul\":89:92   */\n      dup3\n        /* \"#utility.yul\":82:119   */\n      mstore\n        /* \"#utility.yul\":72:125   */\n      pop\n      pop\n      jump\t// out\n        /* \"#utility.yul\":131:240   */\n    tag_77:\n        /* \"#utility.yul\":212:233   */\n      tag_79\n        /* \"#utility.yul\":227:232   */\n      dup2\n        /* \"#utility.yul\":212:233   */\n      tag_80\n      jump\t// in\n    tag_79:\n        /* \"#utility.yul\":207:210   */\n      dup3\n        /* \"#utility.yul\":200:234   */\n      mstore\n        /* \"#utility.yul\":190:240   */\n      pop\n      pop\n      jump\t// out\n        /* \"#utility.yul\":246:361   */\n    tag_81:\n        /* \"#utility.yul\":331:354   */\n      tag_83\n        /* \"#utility.yul\":348:353   */\n      dup2\n        /* \"#utility.yul\":331:354   */\n      tag_84\n      jump\t// in\n    tag_83:\n        /* \"#utility.yul\":326:329   */\n      dup3\n        /* \"#utility.yul\":319:355   */\n      mstore\n        /* \"#utility.yul\":309:361   */\n      pop\n      pop\n      jump\t// out\n        /* \"#utility.yul\":367:476   */\n    tag_85:\n        /* \"#utility.yul\":448:469   */\n      tag_87\n        /* \"#utility.yul\":463:468   */\n      dup2\n        /* \"#utility.yul\":448:469   */\n      tag_88\n      jump\t// in\n    tag_87:\n        /* \"#utility.yul\":443:446   */\n      dup3\n        /* \"#utility.yul\":436:470   */\n      mstore\n        /* \"#utility.yul\":426:476   */\n      pop\n      pop\n      jump\t// out\n        /* \"#utility.yul\":482:600   */\n    tag_89:\n        /* \"#utility.yul\":569:593   */\n      tag_91\n        /* \"#utility.yul\":587:592   */\n      dup2\n        /* \"#utility.yul\":569:593   */\n      tag_92\n      jump\t// in\n    tag_91:\n        /* \"#utility.yul\":564:567   */\n      dup3\n        /* \"#utility.yul\":557:594   */\n      mstore\n        /* \"#utility.yul\":547:600   */\n      pop\n      pop\n      jump\t// out\n        /* \"#utility.yul\":606:718   */\n    tag_93:\n        /* \"#utility.yul\":689:711   */\n      tag_95\n        /* \"#utility.yul\":705:710   */\n      dup2\n        /* \"#utility.yul\":689:711   */\n      tag_96\n      jump\t// in\n    tag_95:\n        /* \"#utility.yul\":684:687   */\n      dup3\n        /* \"#utility.yul\":677:712   */\n      mstore\n        /* \"#utility.yul\":667:718   */\n      pop\n      pop\n      jump\t// out\n        /* \"#utility.yul\":724:946   */\n    tag_49:\n        /* \"#utility.yul\":817:821   */\n      0x00\n        /* \"#utility.yul\":855:857   */\n      0x20\n        /* \"#utility.yul\":844:853   */\n      dup3\n        /* \"#utility.yul\":840:858   */\n      add\n        /* \"#utility.yul\":832:858   */\n      swap1\n      pop\n        /* \"#utility.yul\":868:939   */\n      tag_98\n        /* \"#utility.yul\":936:937   */\n      0x00\n        /* \"#utility.yul\":925:934   */\n      dup4\n        /* \"#utility.yul\":921:938   */\n      add\n        /* \"#utility.yul\":912:918   */\n      dup5\n        /* \"#utility.yul\":868:939   */\n      tag_73\n      jump\t// in\n    tag_98:\n        /* \"#utility.yul\":822:946   */\n      swap3\n      swap2\n      pop\n      pop\n      jump\t// out\n        /* \"#utility.yul\":952:1162   */\n    tag_24:\n        /* \"#utility.yul\":1039:1043   */\n      0x00\n        /* \"#utility.yul\":1077:1079   */\n      0x20\n        /* \"#utility.yul\":1066:1075   */\n      dup3\n        /* \"#utility.yul\":1062:1080   */\n      add\n        /* \"#utility.yul\":1054:1080   */\n      swap1\n      pop\n        /* \"#utility.yul\":1090:1155   */\n      tag_100\n        /* \"#utility.yul\":1152:1153   */\n      0x00\n        /* \"#utility.yul\":1141:1150   */\n      dup4\n        /* \"#utility.yul\":1137:1154   */\n      add\n        /* \"#utility.yul\":1128:1134   */\n      dup5\n        /* \"#utility.yul\":1090:1155   */\n      tag_77\n      jump\t// in\n    tag_100:\n        /* \"#utility.yul\":1044:1162   */\n      swap3\n      swap2\n      pop\n      pop\n      jump\t// out\n        /* \"#utility.yul\":1168:1386   */\n    tag_42:\n        /* \"#utility.yul\":1259:1263   */\n      0x00\n        /* \"#utility.yul\":1297:1299   */\n      0x20\n        /* \"#utility.yul\":1286:1295   */\n      dup3\n        /* \"#utility.yul\":1282:1300   */\n      add\n        /* \"#utility.yul\":1274:1300   */\n      swap1\n      pop\n        /* \"#utility.yul\":1310:1379   */\n      tag_102\n        /* \"#utility.yul\":1376:1377   */\n      0x00\n        /* \"#utility.yul\":1365:1374   */\n      dup4\n        /* \"#utility.yul\":1361:1378   */\n      add\n        /* \"#utility.yul\":1352:1358   */\n      dup5\n        /* \"#utility.yul\":1310:1379   */\n      tag_81\n      jump\t// in\n    tag_102:\n        /* \"#utility.yul\":1264:1386   */\n      swap3\n      swap2\n      pop\n      pop\n      jump\t// out\n        /* \"#utility.yul\":1392:1602   */\n    tag_59:\n        /* \"#utility.yul\":1479:1483   */\n      0x00\n        /* \"#utility.yul\":1517:1519   */\n      0x20\n        /* \"#utility.yul\":1506:1515   */\n      dup3\n        /* \"#utility.yul\":1502:1520   */\n      add\n        /* \"#utility.yul\":1494:1520   */\n      swap1\n      pop\n        /* \"#utility.yul\":1530:1595   */\n      tag_104\n        /* \"#utility.yul\":1592:1593   */\n      0x00\n        /* \"#utility.yul\":1581:1590   */\n      dup4\n        /* \"#utility.yul\":1577:1594   */\n      add\n        /* \"#utility.yul\":1568:1574   */\n      dup5\n        /* \"#utility.yul\":1530:1595   */\n      tag_85\n      jump\t// in\n    tag_104:\n        /* \"#utility.yul\":1484:1602   */\n      swap3\n      swap2\n      pop\n      pop\n      jump\t// out\n        /* \"#utility.yul\":1608:1830   */\n    tag_32:\n        /* \"#utility.yul\":1701:1705   */\n      0x00\n        /* \"#utility.yul\":1739:1741   */\n      0x20\n        /* \"#utility.yul\":1728:1737   */\n      dup3\n        /* \"#utility.yul\":1724:1742   */\n      add\n        /* \"#utility.yul\":1716:1742   */\n      swap1\n      pop\n        /* \"#utility.yul\":1752:1823   */\n      tag_106\n        /* \"#utility.yul\":1820:1821   */\n      0x00\n        /* \"#utility.yul\":1809:1818   */\n      dup4\n        /* \"#utility.yul\":1805:1822   */\n      add\n        /* \"#utility.yul\":1796:1802   */\n      dup5\n        /* \"#utility.yul\":1752:1823   */\n      tag_89\n      jump\t// in\n    tag_106:\n        /* \"#utility.yul\":1706:1830   */\n      swap3\n      swap2\n      pop\n      pop\n      jump\t// out\n        /* \"#utility.yul\":1836:2050   */\n    tag_28:\n        /* \"#utility.yul\":1925:1929   */\n      0x00\n        /* \"#utility.yul\":1963:1965   */\n      0x20\n        /* \"#utility.yul\":1952:1961   */\n      dup3\n        /* \"#utility.yul\":1948:1966   */\n      add\n        /* \"#utility.yul\":1940:1966   */\n      swap1\n      pop\n        /* \"#utility.yul\":1976:2043   */\n      tag_108\n        /* \"#utility.yul\":2040:2041   */\n      0x00\n        /* \"#utility.yul\":2029:2038   */\n      dup4\n        /* \"#utility.yul\":2025:2042   */\n      add\n        /* \"#utility.yul\":2016:2022   */\n      dup5\n        /* \"#utility.yul\":1976:2043   */\n      tag_93\n      jump\t// in\n    tag_108:\n        /* \"#utility.yul\":1930:2050   */\n      swap3\n      swap2\n      pop\n      pop\n      jump\t// out\n        /* \"#utility.yul\":2056:2152   */\n    tag_76:\n        /* \"#utility.yul\":2093:2100   */\n      0x00\n        /* \"#utility.yul\":2122:2146   */\n      tag_110\n        /* \"#utility.yul\":2140:2145   */\n      dup3\n        /* \"#utility.yul\":2122:2146   */\n      tag_111\n      jump\t// in\n    tag_110:\n        /* \"#utility.yul\":2111:2146   */\n      swap1\n      pop\n        /* \"#utility.yul\":2101:2152   */\n      swap2\n      swap1\n      pop\n      jump\t// out\n        /* \"#utility.yul\":2158:2248   */\n    tag_80:\n        /* \"#utility.yul\":2192:2199   */\n      0x00\n        /* \"#utility.yul\":2235:2240   */\n      dup2\n        /* \"#utility.yul\":2228:2241   */\n      iszero\n        /* \"#utility.yul\":2221:2242   */\n      iszero\n        /* \"#utility.yul\":2210:2242   */\n      swap1\n      pop\n        /* \"#utility.yul\":2200:2248   */\n      swap2\n      swap1\n      pop\n      jump\t// out\n        /* \"#utility.yul\":2254:2330   */\n    tag_84:\n        /* \"#utility.yul\":2290:2297   */\n      0x00\n        /* \"#utility.yul\":2319:2324   */\n      dup2\n        /* \"#utility.yul\":2308:2324   */\n      swap1\n      pop\n        /* \"#utility.yul\":2298:2330   */\n      swap2\n      swap1\n      pop\n      jump\t// out\n        /* \"#utility.yul\":2336:2425   */\n    tag_88:\n        /* \"#utility.yul\":2370:2377   */\n      0x00\n        /* \"#utility.yul\":2413:2418   */\n      dup2\n        /* \"#utility.yul\":2410:2411   */\n      0x00\n        /* \"#utility.yul\":2399:2419   */\n      signextend\n        /* \"#utility.yul\":2388:2419   */\n      swap1\n      pop\n        /* \"#utility.yul\":2378:2425   */\n      swap2\n      swap1\n      pop\n      jump\t// out\n        /* \"#utility.yul\":2431:2557   */\n    tag_111:\n        /* \"#utility.yul\":2468:2475   */\n      0x00\n        /* \"#utility.yul\":2508:2550   */\n      0xffffffffffffffffffffffffffffffffffffffff\n        /* \"#utility.yul\":2501:2506   */\n      dup3\n        /* \"#utility.yul\":2497:2551   */\n      and\n        /* \"#utility.yul\":2486:2551   */\n      swap1\n      pop\n        /* \"#utility.yul\":2476:2557   */\n      swap2\n      swap1\n      pop\n      jump\t// out\n        /* \"#utility.yul\":2563:2640   */\n    tag_92:\n        /* \"#utility.yul\":2600:2607   */\n      0x00\n        /* \"#utility.yul\":2629:2634   */\n      dup2\n        /* \"#utility.yul\":2618:2634   */\n      swap1\n      pop\n        /* \"#utility.yul\":2608:2640   */\n      swap2\n      swap1\n      pop\n      jump\t// out\n        /* \"#utility.yul\":2646:2732   */\n    tag_96:\n        /* \"#utility.yul\":2681:2688   */\n      0x00\n        /* \"#utility.yul\":2721:2725   */\n      0xff\n        /* \"#utility.yul\":2714:2719   */\n      dup3\n        /* \"#utility.yul\":2710:2726   */\n      and\n        /* \"#utility.yul\":2699:2726   */\n      swap1\n      pop\n        /* \"#utility.yul\":2689:2732   */\n      swap2\n      swap1\n      pop\n      jump\t// out\n\n    auxdata: 0xa26469706673582212209b5510c864f0d05dda08f7de100e83bf7ed9093779003eb6e3a88fa1c906ec7f64736f6c63430008040033\n}\n",
				"bytecode": {
					"linkReferences": {},
					"object": "608060405260016000806101000a81548160ff0219169083151502179055506001600060016101000a81548160ff021916908360ff1602179055506101c8600155607b6002557fffffffffffffffffffffffffffffffffffffffffffffffffffffffffffffffff600360006101000a81548160ff021916908360000b60ff1602179055506101c86004557fffffffffffffffffffffffffffffffffffffffffffffffffffffffffffffff8560055573ca35b7d915458ef540ade6068dfe2f44e8fa733c600660006101000a81548173ffffffffffffffffffffffffffffffffffffffff021916908373ffffffffffffffffffffffffffffffffffffffff1602179055506000600a60006101000a81548173ffffffffffffffffffffffffffffffffffffffff021916908373ffffffffffffffffffffffffffffffffffffffff1602179055507ffffffffffffffffffffffffffffffffffffffffffffffffffffffffffffffff4600b556000600c60006101000a81548160ff021916908360ff16021790555034801561019057600080fd5b50610553806101a06000396000f3fe608060405234801561001057600080fd5b50600436106100f55760003560e01c80636a76e30711610097578063ab3a58a311610066578063ab3a58a314610244578063c6a898c514610262578063e5aa3d5814610280578063f2427d371461029e576100f5565b80636a76e307146101cc578063767800de146101ea57806378063b1f14610208578063921cda7414610226576100f5565b8063459b1acf116100d3578063459b1acf146101545780634b3df200146101725780634c27fd62146101905780635abe622b146101ae576100f5565b8063074eef3f146100fa578063149d8ffc146101185780631570c2cb14610136575b600080fd5b6101026102bc565b60405161010f919061042a565b60405180910390f35b6101206102cf565b60405161012d9190610496565b60405180910390f35b61013e6102e2565b60405161014b919061047b565b60405180910390f35b61015c6102e8565b604051610169919061047b565b60405180910390f35b61017a6102ee565b604051610187919061042a565b60405180910390f35b6101986102ff565b6040516101a59190610445565b60405180910390f35b6101b6610305565b6040516101c39190610445565b60405180910390f35b6101d461030b565b6040516101e1919061040f565b60405180910390f35b6101f2610331565b6040516101ff919061040f565b60405180910390f35b610210610357565b60405161021d9190610445565b60405180910390f35b61022e61035d565b60405161023b9190610460565b60405180910390f35b61024c610370565b6040516102599190610496565b60405180910390f35b61026a610383565b604051610277919061047b565b60405180910390f35b610288610389565b6040516102959190610445565b60405180910390f35b6102a661038f565b6040516102b3919061040f565b60405180910390f35b600660149054906101000a900460ff1681565b600c60009054906101000a900460ff1681565b60075481565b60015481565b60008054906101000a900460ff1681565b60045481565b60085481565b600a60009054906101000a900473ffffffffffffffffffffffffffffffffffffffff1681565b600660009054906101000a900473ffffffffffffffffffffffffffffffffffffffff1681565b600b5481565b600360009054906101000a900460000b81565b600060019054906101000a900460ff1681565b60025481565b60055481565b600960009054906101000a900473ffffffffffffffffffffffffffffffffffffffff1681565b6103be816104b1565b82525050565b6103cd816104c3565b82525050565b6103dc816104cf565b82525050565b6103eb816104d9565b82525050565b6103fa81610506565b82525050565b61040981610510565b82525050565b600060208201905061042460008301846103b5565b92915050565b600060208201905061043f60008301846103c4565b92915050565b600060208201905061045a60008301846103d3565b92915050565b600060208201905061047560008301846103e2565b92915050565b600060208201905061049060008301846103f1565b92915050565b60006020820190506104ab6000830184610400565b92915050565b60006104bc826104e6565b9050919050565b60008115159050919050565b6000819050919050565b60008160000b9050919050565b600073ffffffffffffffffffffffffffffffffffffffff82169050919050565b6000819050919050565b600060ff8216905091905056fea26469706673582212209b5510c864f0d05dda08f7de100e83bf7ed9093779003eb6e3a88fa1c906ec7f64736f6c63430008040033",
					"opcodes": "PUSH1 0x80 PUSH1 0x40 MSTORE PUSH1 0x1 PUSH1 0x0 DUP1 PUSH2 0x100 EXP DUP2 SLOAD DUP2 PUSH1 0xFF MUL NOT AND SWAP1 DUP4 ISZERO ISZERO MUL OR SWAP1 SSTORE POP PUSH1 0x1 PUSH1 0x0 PUSH1 0x1 PUSH2 0x100 EXP DUP2 SLOAD DUP2 PUSH1 0xFF MUL NOT AND SWAP1 DUP4 PUSH1 0xFF AND MUL OR SWAP1 SSTORE POP PUSH2 0x1C8 PUSH1 0x1 SSTORE PUSH1 0x7B PUSH1 0x2 SSTORE PUSH32 0xFFFFFFFFFFFFFFFFFFFFFFFFFFFFFFFFFFFFFFFFFFFFFFFFFFFFFFFFFFFFFFFF PUSH1 0x3 PUSH1 0x0 PUSH2 0x100 EXP DUP2 SLOAD DUP2 PUSH1 0xFF MUL NOT AND SWAP1 DUP4 PUSH1 0x0 SIGNEXTEND PUSH1 0xFF AND MUL OR SWAP1 SSTORE POP PUSH2 0x1C8 PUSH1 0x4 SSTORE PUSH32 0xFFFFFFFFFFFFFFFFFFFFFFFFFFFFFFFFFFFFFFFFFFFFFFFFFFFFFFFFFFFFFF85 PUSH1 0x5 SSTORE PUSH20 0xCA35B7D915458EF540ADE6068DFE2F44E8FA733C PUSH1 0x6 PUSH1 0x0 PUSH2 0x100 EXP DUP2 SLOAD DUP2 PUSH20 0xFFFFFFFFFFFFFFFFFFFFFFFFFFFFFFFFFFFFFFFF MUL NOT AND SWAP1 DUP4 PUSH20 0xFFFFFFFFFFFFFFFFFFFFFFFFFFFFFFFFFFFFFFFF AND MUL OR SWAP1 SSTORE POP PUSH1 0x0 PUSH1 0xA PUSH1 0x0 PUSH2 0x100 EXP DUP2 SLOAD DUP2 PUSH20 0xFFFFFFFFFFFFFFFFFFFFFFFFFFFFFFFFFFFFFFFF MUL NOT AND SWAP1 DUP4 PUSH20 0xFFFFFFFFFFFFFFFFFFFFFFFFFFFFFFFFFFFFFFFF AND MUL OR SWAP1 SSTORE POP PUSH32 0xFFFFFFFFFFFFFFFFFFFFFFFFFFFFFFFFFFFFFFFFFFFFFFFFFFFFFFFFFFFFFFF4 PUSH1 0xB SSTORE PUSH1 0x0 PUSH1 0xC PUSH1 0x0 PUSH2 0x100 EXP DUP2 SLOAD DUP2 PUSH1 0xFF MUL NOT AND SWAP1 DUP4 PUSH1 0xFF AND MUL OR SWAP1 SSTORE POP CALLVALUE DUP1 ISZERO PUSH2 0x190 JUMPI PUSH1 0x0 DUP1 REVERT JUMPDEST POP PUSH2 0x553 DUP1 PUSH2 0x1A0 PUSH1 0x0 CODECOPY PUSH1 0x0 RETURN INVALID PUSH1 0x80 PUSH1 0x40 MSTORE CALLVALUE DUP1 ISZERO PUSH2 0x10 JUMPI PUSH1 0x0 DUP1 REVERT JUMPDEST POP PUSH1 0x4 CALLDATASIZE LT PUSH2 0xF5 JUMPI PUSH1 0x0 CALLDATALOAD PUSH1 0xE0 SHR DUP1 PUSH4 0x6A76E307 GT PUSH2 0x97 JUMPI DUP1 PUSH4 0xAB3A58A3 GT PUSH2 0x66 JUMPI DUP1 PUSH4 0xAB3A58A3 EQ PUSH2 0x244 JUMPI DUP1 PUSH4 0xC6A898C5 EQ PUSH2 0x262 JUMPI DUP1 PUSH4 0xE5AA3D58 EQ PUSH2 0x280 JUMPI DUP1 PUSH4 0xF2427D37 EQ PUSH2 0x29E JUMPI PUSH2 0xF5 JUMP JUMPDEST DUP1 PUSH4 0x6A76E307 EQ PUSH2 0x1CC JUMPI DUP1 PUSH4 0x767800DE EQ PUSH2 0x1EA JUMPI DUP1 PUSH4 0x78063B1F EQ PUSH2 0x208 JUMPI DUP1 PUSH4 0x921CDA74 EQ PUSH2 0x226 JUMPI PUSH2 0xF5 JUMP JUMPDEST DUP1 PUSH4 0x459B1ACF GT PUSH2 0xD3 JUMPI DUP1 PUSH4 0x459B1ACF EQ PUSH2 0x154 JUMPI DUP1 PUSH4 0x4B3DF200 EQ PUSH2 0x172 JUMPI DUP1 PUSH4 0x4C27FD62 EQ PUSH2 0x190 JUMPI DUP1 PUSH4 0x5ABE622B EQ PUSH2 0x1AE JUMPI PUSH2 0xF5 JUMP JUMPDEST DUP1 PUSH4 0x74EEF3F EQ PUSH2 0xFA JUMPI DUP1 PUSH4 0x149D8FFC EQ PUSH2 0x118 JUMPI DUP1 PUSH4 0x1570C2CB EQ PUSH2 0x136 JUMPI JUMPDEST PUSH1 0x0 DUP1 REVERT JUMPDEST PUSH2 0x102 PUSH2 0x2BC JUMP JUMPDEST PUSH1 0x40 MLOAD PUSH2 0x10F SWAP2 SWAP1 PUSH2 0x42A JUMP JUMPDEST PUSH1 0x40 MLOAD DUP1 SWAP2 SUB SWAP1 RETURN JUMPDEST PUSH2 0x120 PUSH2 0x2CF JUMP JUMPDEST PUSH1 0x40 MLOAD PUSH2 0x12D SWAP2 SWAP1 PUSH2 0x496 JUMP JUMPDEST PUSH1 0x40 MLOAD DUP1 SWAP2 SUB SWAP1 RETURN JUMPDEST PUSH2 0x13E PUSH2 0x2E2 JUMP JUMPDEST PUSH1 0x40 MLOAD PUSH2 0x14B SWAP2 SWAP1 PUSH2 0x47B JUMP JUMPDEST PUSH1 0x40 MLOAD DUP1 SWAP2 SUB SWAP1 RETURN JUMPDEST PUSH2 0x15C PUSH2 0x2E8 JUMP JUMPDEST PUSH1 0x40 MLOAD PUSH2 0x169 SWAP2 SWAP1 PUSH2 0x47B JUMP JUMPDEST PUSH1 0x40 MLOAD DUP1 SWAP2 SUB SWAP1 RETURN JUMPDEST PUSH2 0x17A PUSH2 0x2EE JUMP JUMPDEST PUSH1 0x40 MLOAD PUSH2 0x187 SWAP2 SWAP1 PUSH2 0x42A JUMP JUMPDEST PUSH1 0x40 MLOAD DUP1 SWAP2 SUB SWAP1 RETURN JUMPDEST PUSH2 0x198 PUSH2 0x2FF JUMP JUMPDEST PUSH1 0x40 MLOAD PUSH2 0x1A5 SWAP2 SWAP1 PUSH2 0x445 JUMP JUMPDEST PUSH1 0x40 MLOAD DUP1 SWAP2 SUB SWAP1 RETURN JUMPDEST PUSH2 0x1B6 PUSH2 0x305 JUMP JUMPDEST PUSH1 0x40 MLOAD PUSH2 0x1C3 SWAP2 SWAP1 PUSH2 0x445 JUMP JUMPDEST PUSH1 0x40 MLOAD DUP1 SWAP2 SUB SWAP1 RETURN JUMPDEST PUSH2 0x1D4 PUSH2 0x30B JUMP JUMPDEST PUSH1 0x40 MLOAD PUSH2 0x1E1 SWAP2 SWAP1 PUSH2 0x40F JUMP JUMPDEST PUSH1 0x40 MLOAD DUP1 SWAP2 SUB SWAP1 RETURN JUMPDEST PUSH2 0x1F2 PUSH2 0x331 JUMP JUMPDEST PUSH1 0x40 MLOAD PUSH2 0x1FF SWAP2 SWAP1 PUSH2 0x40F JUMP JUMPDEST PUSH1 0x40 MLOAD DUP1 SWAP2 SUB SWAP1 RETURN JUMPDEST PUSH2 0x210 PUSH2 0x357 JUMP JUMPDEST PUSH1 0x40 MLOAD PUSH2 0x21D SWAP2 SWAP1 PUSH2 0x445 JUMP JUMPDEST PUSH1 0x40 MLOAD DUP1 SWAP2 SUB SWAP1 RETURN JUMPDEST PUSH2 0x22E PUSH2 0x35D JUMP JUMPDEST PUSH1 0x40 MLOAD PUSH2 0x23B SWAP2 SWAP1 PUSH2 0x460 JUMP JUMPDEST PUSH1 0x40 MLOAD DUP1 SWAP2 SUB SWAP1 RETURN JUMPDEST PUSH2 0x24C PUSH2 0x370 JUMP JUMPDEST PUSH1 0x40 MLOAD PUSH2 0x259 SWAP2 SWAP1 PUSH2 0x496 JUMP JUMPDEST PUSH1 0x40 MLOAD DUP1 SWAP2 SUB SWAP1 RETURN JUMPDEST PUSH2 0x26A PUSH2 0x383 JUMP JUMPDEST PUSH1 0x40 MLOAD PUSH2 0x277 SWAP2 SWAP1 PUSH2 0x47B JUMP JUMPDEST PUSH1 0x40 MLOAD DUP1 SWAP2 SUB SWAP1 RETURN JUMPDEST PUSH2 0x288 PUSH2 0x389 JUMP JUMPDEST PUSH1 0x40 MLOAD PUSH2 0x295 SWAP2 SWAP1 PUSH2 0x445 JUMP JUMPDEST PUSH1 0x40 MLOAD DUP1 SWAP2 SUB SWAP1 RETURN JUMPDEST PUSH2 0x2A6 PUSH2 0x38F JUMP JUMPDEST PUSH1 0x40 MLOAD PUSH2 0x2B3 SWAP2 SWAP1 PUSH2 0x40F JUMP JUMPDEST PUSH1 0x40 MLOAD DUP1 SWAP2 SUB SWAP1 RETURN JUMPDEST PUSH1 0x6 PUSH1 0x14 SWAP1 SLOAD SWAP1 PUSH2 0x100 EXP SWAP1 DIV PUSH1 0xFF AND DUP2 JUMP JUMPDEST PUSH1 0xC PUSH1 0x0 SWAP1 SLOAD SWAP1 PUSH2 0x100 EXP SWAP1 DIV PUSH1 0xFF AND DUP2 JUMP JUMPDEST PUSH1 0x7 SLOAD DUP2 JUMP JUMPDEST PUSH1 0x1 SLOAD DUP2 JUMP JUMPDEST PUSH1 0x0 DUP1 SLOAD SWAP1 PUSH2 0x100 EXP SWAP1 DIV PUSH1 0xFF AND DUP2 JUMP JUMPDEST PUSH1 0x4 SLOAD DUP2 JUMP JUMPDEST PUSH1 0x8 SLOAD DUP2 JUMP JUMPDEST PUSH1 0xA PUSH1 0x0 SWAP1 SLOAD SWAP1 PUSH2 0x100 EXP SWAP1 DIV PUSH20 0xFFFFFFFFFFFFFFFFFFFFFFFFFFFFFFFFFFFFFFFF AND DUP2 JUMP JUMPDEST PUSH1 0x6 PUSH1 0x0 SWAP1 SLOAD SWAP1 PUSH2 0x100 EXP SWAP1 DIV PUSH20 0xFFFFFFFFFFFFFFFFFFFFFFFFFFFFFFFFFFFFFFFF AND DUP2 JUMP JUMPDEST PUSH1 0xB SLOAD DUP2 JUMP JUMPDEST PUSH1 0x3 PUSH1 0x0 SWAP1 SLOAD SWAP1 PUSH2 0x100 EXP SWAP1 DIV PUSH1 0x0 SIGNEXTEND DUP2 JUMP JUMPDEST PUSH1 0x0 PUSH1 0x1 SWAP1 SLOAD SWAP1 PUSH2 0x100 EXP SWAP1 DIV PUSH1 0xFF AND DUP2 JUMP JUMPDEST PUSH1 0x2 SLOAD DUP2 JUMP JUMPDEST PUSH1 0x5 SLOAD DUP2 JUMP JUMPDEST PUSH1 0x9 PUSH1 0x0 SWAP1 SLOAD SWAP1 PUSH2 0x100 EXP SWAP1 DIV PUSH20 0xFFFFFFFFFFFFFFFFFFFFFFFFFFFFFFFFFFFFFFFF AND DUP2 JUMP JUMPDEST PUSH2 0x3BE DUP2 PUSH2 0x4B1 JUMP JUMPDEST DUP3 MSTORE POP POP JUMP JUMPDEST PUSH2 0x3CD DUP2 PUSH2 0x4C3 JUMP JUMPDEST DUP3 MSTORE POP POP JUMP JUMPDEST PUSH2 0x3DC DUP2 PUSH2 0x4CF JUMP JUMPDEST DUP3 MSTORE POP POP JUMP JUMPDEST PUSH2 0x3EB DUP2 PUSH2 0x4D9 JUMP JUMPDEST DUP3 MSTORE POP POP JUMP JUMPDEST PUSH2 0x3FA DUP2 PUSH2 0x506 JUMP JUMPDEST DUP3 MSTORE POP POP JUMP JUMPDEST PUSH2 0x409 DUP2 PUSH2 0x510 JUMP JUMPDEST DUP3 MSTORE POP POP JUMP JUMPDEST PUSH1 0x0 PUSH1 0x20 DUP3 ADD SWAP1 POP PUSH2 0x424 PUSH1 0x0 DUP4 ADD DUP5 PUSH2 0x3B5 JUMP JUMPDEST SWAP3 SWAP2 POP POP JUMP JUMPDEST PUSH1 0x0 PUSH1 0x20 DUP3 ADD SWAP1 POP PUSH2 0x43F PUSH1 0x0 DUP4 ADD DUP5 PUSH2 0x3C4 JUMP JUMPDEST SWAP3 SWAP2 POP POP JUMP JUMPDEST PUSH1 0x0 PUSH1 0x20 DUP3 ADD SWAP1 POP PUSH2 0x45A PUSH1 0x0 DUP4 ADD DUP5 PUSH2 0x3D3 JUMP JUMPDEST SWAP3 SWAP2 POP POP JUMP JUMPDEST PUSH1 0x0 PUSH1 0x20 DUP3 ADD SWAP1 POP PUSH2 0x475 PUSH1 0x0 DUP4 ADD DUP5 PUSH2 0x3E2 JUMP JUMPDEST SWAP3 SWAP2 POP POP JUMP JUMPDEST PUSH1 0x0 PUSH1 0x20 DUP3 ADD SWAP1 POP PUSH2 0x490 PUSH1 0x0 DUP4 ADD DUP5 PUSH2 0x3F1 JUMP JUMPDEST SWAP3 SWAP2 POP POP JUMP JUMPDEST PUSH1 0x0 PUSH1 0x20 DUP3 ADD SWAP1 POP PUSH2 0x4AB PUSH1 0x0 DUP4 ADD DUP5 PUSH2 0x400 JUMP JUMPDEST SWAP3 SWAP2 POP POP JUMP JUMPDEST PUSH1 0x0 PUSH2 0x4BC DUP3 PUSH2 0x4E6 JUMP JUMPDEST SWAP1 POP SWAP2 SWAP1 POP JUMP JUMPDEST PUSH1 0x0 DUP2 ISZERO ISZERO SWAP1 POP SWAP2 SWAP1 POP JUMP JUMPDEST PUSH1 0x0 DUP2 SWAP1 POP SWAP2 SWAP1 POP JUMP JUMPDEST PUSH1 0x0 DUP2 PUSH1 0x0 SIGNEXTEND SWAP1 POP SWAP2 SWAP1 POP JUMP JUMPDEST PUSH1 0x0 PUSH20 0xFFFFFFFFFFFFFFFFFFFFFFFFFFFFFFFFFFFFFFFF DUP3 AND SWAP1 POP SWAP2 SWAP1 POP JUMP JUMPDEST PUSH1 0x0 DUP2 SWAP1 POP SWAP2 SWAP1 POP JUMP JUMPDEST PUSH1 0x0 PUSH1 0xFF DUP3 AND SWAP1 POP SWAP2 SWAP1 POP JUMP INVALID LOG2 PUSH5 0x6970667358 0x22 SLT KECCAK256 SWAP12 SSTORE LT 0xC8 PUSH5 0xF0D05DDA08 0xF7 0xDE LT 0xE DUP4 0xBF PUSH31 0xD9093779003EB6E3A88FA1C906EC7F64736F6C634300080400330000000000 "
				},
				"gasEstimates": {
					"creation": {
						"codeDepositCost": "272600",
						"executionCost": "225602",
						"totalCost": "498202"
					},
					"external": {
						"addr()": "1259",
						"boo()": "1213",
						"defaultAddr()": "1302",
						"defaultBoo()": "1245",
						"defaultInt()": "1218",
						"defaultUint()": "1197",
						"i()": "1195",
						"i256()": "1196",
						"i8()": "1264",
						"neg()": "1196",
						"newAddr()": "1237",
						"newU()": "1217",
						"u()": "1173",
						"u256()": "1152",
						"u8()": "1243"
					}
				},
				"methodIdentifiers": {
					"addr()": "767800de",
					"boo()": "4b3df200",
					"defaultAddr()": "f2427d37",
					"defaultBoo()": "074eef3f",
					"defaultInt()": "5abe622b",
					"defaultUint()": "1570c2cb",
					"i()": "e5aa3d58",
					"i256()": "4c27fd62",
					"i8()": "921cda74",
					"neg()": "78063b1f",
					"newAddr()": "6a76e307",
					"newU()": "149d8ffc",
					"u()": "c6a898c5",
					"u256()": "459b1acf",
					"u8()": "ab3a58a3"
				}
			},
			"userdoc": {
				"kind": "user",
				"methods": {},
				"version": 1
			}
		}
	}
}