{
	".learneth/Solidity Beginner Course/8.1 Data Structures - Arrays/arrays.sol": {
		"Array": {
			"abi": [
				{
					"inputs": [
						{
							"internalType": "uint256",
							"name": "",
							"type": "uint256"
						}
					],
					"name": "arr",
					"outputs": [
						{
							"internalType": "uint256",
							"name": "",
							"type": "uint256"
						}
					],
					"stateMutability": "view",
					"type": "function"
				},
				{
					"inputs": [
						{
							"internalType": "uint256",
							"name": "",
							"type": "uint256"
						}
					],
					"name": "arr2",
					"outputs": [
						{
							"internalType": "uint256",
							"name": "",
							"type": "uint256"
						}
					],
					"stateMutability": "view",
					"type": "function"
				},
				{
					"inputs": [
						{
							"internalType": "uint256",
							"name": "i",
							"type": "uint256"
						}
					],
					"name": "get",
					"outputs": [
						{
							"internalType": "uint256",
							"name": "",
							"type": "uint256"
						}
					],
					"stateMutability": "view",
					"type": "function"
				},
				{
					"inputs": [],
					"name": "getArr",
					"outputs": [
						{
							"internalType": "uint256[]",
							"name": "",
							"type": "uint256[]"
						}
					],
					"stateMutability": "view",
					"type": "function"
				},
				{
					"inputs": [],
					"name": "getLength",
					"outputs": [
						{
							"internalType": "uint256",
							"name": "",
							"type": "uint256"
						}
					],
					"stateMutability": "view",
					"type": "function"
				},
				{
					"inputs": [
						{
							"internalType": "uint256",
							"name": "",
							"type": "uint256"
						}
					],
					"name": "myFixedSizeArr",
					"outputs": [
						{
							"internalType": "uint256",
							"name": "",
							"type": "uint256"
						}
					],
					"stateMutability": "view",
					"type": "function"
				},
				{
					"inputs": [],
					"name": "pop",
					"outputs": [],
					"stateMutability": "nonpayable",
					"type": "function"
				},
				{
					"inputs": [
						{
							"internalType": "uint256",
							"name": "i",
							"type": "uint256"
						}
					],
					"name": "push",
					"outputs": [],
					"stateMutability": "nonpayable",
					"type": "function"
				},
				{
					"inputs": [
						{
							"internalType": "uint256",
							"name": "index",
							"type": "uint256"
						}
					],
					"name": "remove",
					"outputs": [],
					"stateMutability": "nonpayable",
					"type": "function"
				}
			],
			"devdoc": {
				"kind": "dev",
				"methods": {},
				"version": 1
			},
			"evm": {
				"assembly": "    /* \".learneth/Solidity Beginner Course/8.1 Data Structures - Arrays/arrays.sol\":57:1178  contract Array {... */\n  mstore(0x40, 0x80)\n    /* \".learneth/Solidity Beginner Course/8.1 Data Structures - Arrays/arrays.sol\":144:174  uint[] public arr2 = [1, 2, 3] */\n  mload(0x40)\n  dup1\n  0x60\n  add\n  0x40\n  mstore\n  dup1\n    /* \".learneth/Solidity Beginner Course/8.1 Data Structures - Arrays/arrays.sol\":166:167  1 */\n  0x01\n    /* \".learneth/Solidity Beginner Course/8.1 Data Structures - Arrays/arrays.sol\":144:174  uint[] public arr2 = [1, 2, 3] */\n  0xff\n  and\n  dup2\n  mstore\n  0x20\n  add\n    /* \".learneth/Solidity Beginner Course/8.1 Data Structures - Arrays/arrays.sol\":169:170  2 */\n  0x02\n    /* \".learneth/Solidity Beginner Course/8.1 Data Structures - Arrays/arrays.sol\":144:174  uint[] public arr2 = [1, 2, 3] */\n  0xff\n  and\n  dup2\n  mstore\n  0x20\n  add\n    /* \".learneth/Solidity Beginner Course/8.1 Data Structures - Arrays/arrays.sol\":172:173  3 */\n  0x03\n    /* \".learneth/Solidity Beginner Course/8.1 Data Structures - Arrays/arrays.sol\":144:174  uint[] public arr2 = [1, 2, 3] */\n  0xff\n  and\n  dup2\n  mstore\n  pop\n  0x01\n  swap1\n  0x03\n  tag_1\n  swap3\n  swap2\n  swap1\n  tag_2\n  jump\t// in\ntag_1:\n  pop\n    /* \".learneth/Solidity Beginner Course/8.1 Data Structures - Arrays/arrays.sol\":57:1178  contract Array {... */\n  callvalue\n  dup1\n  iszero\n  tag_3\n  jumpi\n  0x00\n  dup1\n  revert\ntag_3:\n  pop\n  jump(tag_4)\ntag_2:\n  dup3\n  dup1\n  sload\n  dup3\n  dup3\n  sstore\n  swap1\n  0x00\n  mstore\n  keccak256(0x00, 0x20)\n  swap1\n  dup2\n  add\n  swap3\n  dup3\n  iszero\n  tag_5\n  jumpi\n  swap2\n  0x20\n  mul\n  dup3\n  add\ntag_6:\n  dup3\n  dup2\n  gt\n  iszero\n  tag_7\n  jumpi\n  dup3\n  mload\n  dup3\n  swap1\n  0xff\n  and\n  swap1\n  sstore\n  swap2\n  0x20\n  add\n  swap2\n  swap1\n  0x01\n  add\n  swap1\n  jump(tag_6)\ntag_7:\ntag_5:\n  pop\n  swap1\n  pop\n  tag_8\n  swap2\n  swap1\n  tag_9\n  jump\t// in\ntag_8:\n  pop\n  swap1\n  jump\t// out\ntag_9:\ntag_10:\n  dup1\n  dup3\n  gt\n  iszero\n  tag_11\n  jumpi\n  0x00\n  dup2\n  0x00\n  swap1\n  sstore\n  pop\n  0x01\n  add\n  jump(tag_10)\ntag_11:\n  pop\n  swap1\n  jump\t// out\ntag_4:\n  dataSize(sub_0)\n  dup1\n  dataOffset(sub_0)\n  0x00\n  codecopy\n  0x00\n  return\nstop\n\nsub_0: assembly {\n        /* \".learneth/Solidity Beginner Course/8.1 Data Structures - Arrays/arrays.sol\":57:1178  contract Array {... */\n      mstore(0x40, 0x80)\n      callvalue\n      dup1\n      iszero\n      tag_1\n      jumpi\n      0x00\n      dup1\n      revert\n    tag_1:\n      pop\n      jumpi(tag_2, lt(calldatasize, 0x04))\n      shr(0xe0, calldataload(0x00))\n      dup1\n      0x959ac484\n      gt\n      tag_12\n      jumpi\n      dup1\n      0x959ac484\n      eq\n      tag_7\n      jumpi\n      dup1\n      0xa4ece52c\n      eq\n      tag_8\n      jumpi\n      dup1\n      0xbe1c766b\n      eq\n      tag_9\n      jumpi\n      dup1\n      0xedf0099b\n      eq\n      tag_10\n      jumpi\n      dup1\n      0xfb8cbced\n      eq\n      tag_11\n      jumpi\n      jump(tag_2)\n    tag_12:\n      dup1\n      0x38a067ce\n      eq\n      tag_3\n      jumpi\n      dup1\n      0x4cc82215\n      eq\n      tag_4\n      jumpi\n      dup1\n      0x71e5ee5f\n      eq\n      tag_5\n      jumpi\n      dup1\n      0x9507d39a\n      eq\n      tag_6\n      jumpi\n    tag_2:\n      0x00\n      dup1\n      revert\n        /* \".learneth/Solidity Beginner Course/8.1 Data Structures - Arrays/arrays.sol\":235:265  uint[10] public myFixedSizeArr */\n    tag_3:\n      tag_13\n      0x04\n      dup1\n      calldatasize\n      sub\n      dup2\n      add\n      swap1\n      tag_14\n      swap2\n      swap1\n      tag_15\n      jump\t// in\n    tag_14:\n      tag_16\n      jump\t// in\n    tag_13:\n      mload(0x40)\n      tag_17\n      swap2\n      swap1\n      tag_18\n      jump\t// in\n    tag_17:\n      mload(0x40)\n      dup1\n      swap2\n      sub\n      swap1\n      return\n        /* \".learneth/Solidity Beginner Course/8.1 Data Structures - Arrays/arrays.sol\":966:1176  function remove(uint index) public {... */\n    tag_4:\n      tag_19\n      0x04\n      dup1\n      calldatasize\n      sub\n      dup2\n      add\n      swap1\n      tag_20\n      swap2\n      swap1\n      tag_15\n      jump\t// in\n    tag_20:\n      tag_21\n      jump\t// in\n    tag_19:\n      stop\n        /* \".learneth/Solidity Beginner Course/8.1 Data Structures - Arrays/arrays.sol\":121:138  uint[] public arr */\n    tag_5:\n      tag_22\n      0x04\n      dup1\n      calldatasize\n      sub\n      dup2\n      add\n      swap1\n      tag_23\n      swap2\n      swap1\n      tag_15\n      jump\t// in\n    tag_23:\n      tag_24\n      jump\t// in\n    tag_22:\n      mload(0x40)\n      tag_25\n      swap2\n      swap1\n      tag_18\n      jump\t// in\n    tag_25:\n      mload(0x40)\n      dup1\n      swap2\n      sub\n      swap1\n      return\n        /* \".learneth/Solidity Beginner Course/8.1 Data Structures - Arrays/arrays.sol\":272:350  function get(uint i) public view returns (uint) {... */\n    tag_6:\n      tag_26\n      0x04\n      dup1\n      calldatasize\n      sub\n      dup2\n      add\n      swap1\n      tag_27\n      swap2\n      swap1\n      tag_15\n      jump\t// in\n    tag_27:\n      tag_28\n      jump\t// in\n    tag_26:\n      mload(0x40)\n      tag_29\n      swap2\n      swap1\n      tag_18\n      jump\t// in\n    tag_29:\n      mload(0x40)\n      dup1\n      swap2\n      sub\n      swap1\n      return\n        /* \".learneth/Solidity Beginner Course/8.1 Data Structures - Arrays/arrays.sol\":587:724  function push(uint i) public {... */\n    tag_7:\n      tag_30\n      0x04\n      dup1\n      calldatasize\n      sub\n      dup2\n      add\n      swap1\n      tag_31\n      swap2\n      swap1\n      tag_15\n      jump\t// in\n    tag_31:\n      tag_32\n      jump\t// in\n    tag_30:\n      stop\n        /* \".learneth/Solidity Beginner Course/8.1 Data Structures - Arrays/arrays.sol\":730:872  function pop() public {... */\n    tag_8:\n      tag_33\n      tag_34\n      jump\t// in\n    tag_33:\n      stop\n        /* \".learneth/Solidity Beginner Course/8.1 Data Structures - Arrays/arrays.sol\":878:960  function getLength() public view returns (uint) {... */\n    tag_9:\n      tag_35\n      tag_36\n      jump\t// in\n    tag_35:\n      mload(0x40)\n      tag_37\n      swap2\n      swap1\n      tag_18\n      jump\t// in\n    tag_37:\n      mload(0x40)\n      dup1\n      swap2\n      sub\n      swap1\n      return\n        /* \".learneth/Solidity Beginner Course/8.1 Data Structures - Arrays/arrays.sol\":144:174  uint[] public arr2 = [1, 2, 3] */\n    tag_10:\n      tag_38\n      0x04\n      dup1\n      calldatasize\n      sub\n      dup2\n      add\n      swap1\n      tag_39\n      swap2\n      swap1\n      tag_15\n      jump\t// in\n    tag_39:\n      tag_40\n      jump\t// in\n    tag_38:\n      mload(0x40)\n      tag_41\n      swap2\n      swap1\n      tag_18\n      jump\t// in\n    tag_41:\n      mload(0x40)\n      dup1\n      swap2\n      sub\n      swap1\n      return\n        /* \".learneth/Solidity Beginner Course/8.1 Data Structures - Arrays/arrays.sol\":500:581  function getArr() public view returns (uint[] memory) {... */\n    tag_11:\n      tag_42\n      tag_43\n      jump\t// in\n    tag_42:\n      mload(0x40)\n      tag_44\n      swap2\n      swap1\n      tag_45\n      jump\t// in\n    tag_44:\n      mload(0x40)\n      dup1\n      swap2\n      sub\n      swap1\n      return\n        /* \".learneth/Solidity Beginner Course/8.1 Data Structures - Arrays/arrays.sol\":235:265  uint[10] public myFixedSizeArr */\n    tag_16:\n      0x02\n      dup2\n      0x0a\n      dup2\n      lt\n      tag_46\n      jumpi\n      0x00\n      dup1\n      revert\n    tag_46:\n      add\n      0x00\n      swap2\n      pop\n      swap1\n      pop\n      sload\n      dup2\n      jump\t// out\n        /* \".learneth/Solidity Beginner Course/8.1 Data Structures - Arrays/arrays.sol\":966:1176  function remove(uint index) public {... */\n    tag_21:\n        /* \".learneth/Solidity Beginner Course/8.1 Data Structures - Arrays/arrays.sol\":1159:1162  arr */\n      0x00\n        /* \".learneth/Solidity Beginner Course/8.1 Data Structures - Arrays/arrays.sol\":1163:1168  index */\n      dup2\n        /* \".learneth/Solidity Beginner Course/8.1 Data Structures - Arrays/arrays.sol\":1159:1169  arr[index] */\n      dup2\n      sload\n      dup2\n      lt\n      tag_49\n      jumpi\n      mstore(0x00, 0x4e487b7100000000000000000000000000000000000000000000000000000000)\n      mstore(0x04, 0x32)\n      revert(0x00, 0x24)\n    tag_49:\n      swap1\n      0x00\n      mstore\n      keccak256(0x00, 0x20)\n      add\n        /* \".learneth/Solidity Beginner Course/8.1 Data Structures - Arrays/arrays.sol\":1152:1169  delete arr[index] */\n      0x00\n      swap1\n      sstore\n        /* \".learneth/Solidity Beginner Course/8.1 Data Structures - Arrays/arrays.sol\":966:1176  function remove(uint index) public {... */\n      pop\n      jump\t// out\n        /* \".learneth/Solidity Beginner Course/8.1 Data Structures - Arrays/arrays.sol\":121:138  uint[] public arr */\n    tag_24:\n      0x00\n      dup2\n      dup2\n      sload\n      dup2\n      lt\n      tag_51\n      jumpi\n      0x00\n      dup1\n      revert\n    tag_51:\n      swap1\n      0x00\n      mstore\n      keccak256(0x00, 0x20)\n      add\n      0x00\n      swap2\n      pop\n      swap1\n      pop\n      sload\n      dup2\n      jump\t// out\n        /* \".learneth/Solidity Beginner Course/8.1 Data Structures - Arrays/arrays.sol\":272:350  function get(uint i) public view returns (uint) {... */\n    tag_28:\n        /* \".learneth/Solidity Beginner Course/8.1 Data Structures - Arrays/arrays.sol\":314:318  uint */\n      0x00\n        /* \".learneth/Solidity Beginner Course/8.1 Data Structures - Arrays/arrays.sol\":337:340  arr */\n      dup1\n        /* \".learneth/Solidity Beginner Course/8.1 Data Structures - Arrays/arrays.sol\":341:342  i */\n      dup3\n        /* \".learneth/Solidity Beginner Course/8.1 Data Structures - Arrays/arrays.sol\":337:343  arr[i] */\n      dup2\n      sload\n      dup2\n      lt\n      tag_54\n      jumpi\n      mstore(0x00, 0x4e487b7100000000000000000000000000000000000000000000000000000000)\n      mstore(0x04, 0x32)\n      revert(0x00, 0x24)\n    tag_54:\n      swap1\n      0x00\n      mstore\n      keccak256(0x00, 0x20)\n      add\n      sload\n        /* \".learneth/Solidity Beginner Course/8.1 Data Structures - Arrays/arrays.sol\":330:343  return arr[i] */\n      swap1\n      pop\n        /* \".learneth/Solidity Beginner Course/8.1 Data Structures - Arrays/arrays.sol\":272:350  function get(uint i) public view returns (uint) {... */\n      swap2\n      swap1\n      pop\n      jump\t// out\n        /* \".learneth/Solidity Beginner Course/8.1 Data Structures - Arrays/arrays.sol\":587:724  function push(uint i) public {... */\n    tag_32:\n        /* \".learneth/Solidity Beginner Course/8.1 Data Structures - Arrays/arrays.sol\":706:709  arr */\n      0x00\n        /* \".learneth/Solidity Beginner Course/8.1 Data Structures - Arrays/arrays.sol\":715:716  i */\n      dup2\n        /* \".learneth/Solidity Beginner Course/8.1 Data Structures - Arrays/arrays.sol\":706:717  arr.push(i) */\n      swap1\n      dup1\n      0x01\n      dup2\n      sload\n      add\n      dup1\n      dup3\n      sstore\n      dup1\n      swap2\n      pop\n      pop\n      0x01\n      swap1\n      sub\n      swap1\n      0x00\n      mstore\n      keccak256(0x00, 0x20)\n      add\n      0x00\n      swap1\n      swap2\n      swap1\n      swap2\n      swap1\n      swap2\n      pop\n      sstore\n        /* \".learneth/Solidity Beginner Course/8.1 Data Structures - Arrays/arrays.sol\":587:724  function push(uint i) public {... */\n      pop\n      jump\t// out\n        /* \".learneth/Solidity Beginner Course/8.1 Data Structures - Arrays/arrays.sol\":730:872  function pop() public {... */\n    tag_34:\n        /* \".learneth/Solidity Beginner Course/8.1 Data Structures - Arrays/arrays.sol\":856:859  arr */\n      0x00\n        /* \".learneth/Solidity Beginner Course/8.1 Data Structures - Arrays/arrays.sol\":856:865  arr.pop() */\n      dup1\n      sload\n      dup1\n      tag_59\n      jumpi\n      mstore(0x00, 0x4e487b7100000000000000000000000000000000000000000000000000000000)\n      mstore(0x04, 0x31)\n      revert(0x00, 0x24)\n    tag_59:\n      0x01\n      swap1\n      sub\n      dup2\n      dup2\n      swap1\n      0x00\n      mstore\n      keccak256(0x00, 0x20)\n      add\n      0x00\n      swap1\n      sstore\n      swap1\n      sstore\n        /* \".learneth/Solidity Beginner Course/8.1 Data Structures - Arrays/arrays.sol\":730:872  function pop() public {... */\n      jump\t// out\n        /* \".learneth/Solidity Beginner Course/8.1 Data Structures - Arrays/arrays.sol\":878:960  function getLength() public view returns (uint) {... */\n    tag_36:\n        /* \".learneth/Solidity Beginner Course/8.1 Data Structures - Arrays/arrays.sol\":920:924  uint */\n      0x00\n        /* \".learneth/Solidity Beginner Course/8.1 Data Structures - Arrays/arrays.sol\":943:946  arr */\n      dup1\n        /* \".learneth/Solidity Beginner Course/8.1 Data Structures - Arrays/arrays.sol\":943:953  arr.length */\n      dup1\n      sload\n      swap1\n      pop\n        /* \".learneth/Solidity Beginner Course/8.1 Data Structures - Arrays/arrays.sol\":936:953  return arr.length */\n      swap1\n      pop\n        /* \".learneth/Solidity Beginner Course/8.1 Data Structures - Arrays/arrays.sol\":878:960  function getLength() public view returns (uint) {... */\n      swap1\n      jump\t// out\n        /* \".learneth/Solidity Beginner Course/8.1 Data Structures - Arrays/arrays.sol\":144:174  uint[] public arr2 = [1, 2, 3] */\n    tag_40:\n      0x01\n      dup2\n      dup2\n      sload\n      dup2\n      lt\n      tag_62\n      jumpi\n      0x00\n      dup1\n      revert\n    tag_62:\n      swap1\n      0x00\n      mstore\n      keccak256(0x00, 0x20)\n      add\n      0x00\n      swap2\n      pop\n      swap1\n      pop\n      sload\n      dup2\n      jump\t// out\n        /* \".learneth/Solidity Beginner Course/8.1 Data Structures - Arrays/arrays.sol\":500:581  function getArr() public view returns (uint[] memory) {... */\n    tag_43:\n        /* \".learneth/Solidity Beginner Course/8.1 Data Structures - Arrays/arrays.sol\":539:552  uint[] memory */\n      0x60\n        /* \".learneth/Solidity Beginner Course/8.1 Data Structures - Arrays/arrays.sol\":571:574  arr */\n      0x00\n        /* \".learneth/Solidity Beginner Course/8.1 Data Structures - Arrays/arrays.sol\":564:574  return arr */\n      dup1\n      sload\n      dup1\n      0x20\n      mul\n      0x20\n      add\n      mload(0x40)\n      swap1\n      dup2\n      add\n      0x40\n      mstore\n      dup1\n      swap3\n      swap2\n      swap1\n      dup2\n      dup2\n      mstore\n      0x20\n      add\n      dup3\n      dup1\n      sload\n      dup1\n      iszero\n      tag_65\n      jumpi\n      0x20\n      mul\n      dup3\n      add\n      swap2\n      swap1\n      0x00\n      mstore\n      keccak256(0x00, 0x20)\n      swap1\n    tag_66:\n      dup2\n      sload\n      dup2\n      mstore\n      0x20\n      add\n      swap1\n      0x01\n      add\n      swap1\n      dup1\n      dup4\n      gt\n      tag_66\n      jumpi\n    tag_65:\n      pop\n      pop\n      pop\n      pop\n      pop\n      swap1\n      pop\n        /* \".learneth/Solidity Beginner Course/8.1 Data Structures - Arrays/arrays.sol\":500:581  function getArr() public view returns (uint[] memory) {... */\n      swap1\n      jump\t// out\n        /* \"#utility.yul\":7:146   */\n    tag_68:\n        /* \"#utility.yul\":53:58   */\n      0x00\n        /* \"#utility.yul\":91:97   */\n      dup2\n        /* \"#utility.yul\":78:98   */\n      calldataload\n        /* \"#utility.yul\":69:98   */\n      swap1\n      pop\n        /* \"#utility.yul\":107:140   */\n      tag_70\n        /* \"#utility.yul\":134:139   */\n      dup2\n        /* \"#utility.yul\":107:140   */\n      tag_71\n      jump\t// in\n    tag_70:\n        /* \"#utility.yul\":59:146   */\n      swap3\n      swap2\n      pop\n      pop\n      jump\t// out\n        /* \"#utility.yul\":152:414   */\n    tag_15:\n        /* \"#utility.yul\":211:217   */\n      0x00\n        /* \"#utility.yul\":260:262   */\n      0x20\n        /* \"#utility.yul\":248:257   */\n      dup3\n        /* \"#utility.yul\":239:246   */\n      dup5\n        /* \"#utility.yul\":235:258   */\n      sub\n        /* \"#utility.yul\":231:263   */\n      slt\n        /* \"#utility.yul\":228:230   */\n      iszero\n      tag_73\n      jumpi\n        /* \"#utility.yul\":276:277   */\n      0x00\n        /* \"#utility.yul\":273:274   */\n      dup1\n        /* \"#utility.yul\":266:278   */\n      revert\n        /* \"#utility.yul\":228:230   */\n    tag_73:\n        /* \"#utility.yul\":319:320   */\n      0x00\n        /* \"#utility.yul\":344:397   */\n      tag_74\n        /* \"#utility.yul\":389:396   */\n      dup5\n        /* \"#utility.yul\":380:386   */\n      dup3\n        /* \"#utility.yul\":369:378   */\n      dup6\n        /* \"#utility.yul\":365:387   */\n      add\n        /* \"#utility.yul\":344:397   */\n      tag_68\n      jump\t// in\n    tag_74:\n        /* \"#utility.yul\":334:397   */\n      swap2\n      pop\n        /* \"#utility.yul\":290:407   */\n      pop\n        /* \"#utility.yul\":218:414   */\n      swap3\n      swap2\n      pop\n      pop\n      jump\t// out\n        /* \"#utility.yul\":420:599   */\n    tag_75:\n        /* \"#utility.yul\":489:499   */\n      0x00\n        /* \"#utility.yul\":510:556   */\n      tag_77\n        /* \"#utility.yul\":552:555   */\n      dup4\n        /* \"#utility.yul\":544:550   */\n      dup4\n        /* \"#utility.yul\":510:556   */\n      tag_78\n      jump\t// in\n    tag_77:\n        /* \"#utility.yul\":588:592   */\n      0x20\n        /* \"#utility.yul\":583:586   */\n      dup4\n        /* \"#utility.yul\":579:593   */\n      add\n        /* \"#utility.yul\":565:593   */\n      swap1\n      pop\n        /* \"#utility.yul\":500:599   */\n      swap3\n      swap2\n      pop\n      pop\n      jump\t// out\n        /* \"#utility.yul\":635:1367   */\n    tag_79:\n        /* \"#utility.yul\":754:757   */\n      0x00\n        /* \"#utility.yul\":783:837   */\n      tag_81\n        /* \"#utility.yul\":831:836   */\n      dup3\n        /* \"#utility.yul\":783:837   */\n      tag_82\n      jump\t// in\n    tag_81:\n        /* \"#utility.yul\":853:939   */\n      tag_83\n        /* \"#utility.yul\":932:938   */\n      dup2\n        /* \"#utility.yul\":927:930   */\n      dup6\n        /* \"#utility.yul\":853:939   */\n      tag_84\n      jump\t// in\n    tag_83:\n        /* \"#utility.yul\":846:939   */\n      swap4\n      pop\n        /* \"#utility.yul\":963:1019   */\n      tag_85\n        /* \"#utility.yul\":1013:1018   */\n      dup4\n        /* \"#utility.yul\":963:1019   */\n      tag_86\n      jump\t// in\n    tag_85:\n        /* \"#utility.yul\":1042:1049   */\n      dup1\n        /* \"#utility.yul\":1073:1074   */\n      0x00\n        /* \"#utility.yul\":1058:1342   */\n    tag_87:\n        /* \"#utility.yul\":1083:1089   */\n      dup4\n        /* \"#utility.yul\":1080:1081   */\n      dup2\n        /* \"#utility.yul\":1077:1090   */\n      lt\n        /* \"#utility.yul\":1058:1342   */\n      iszero\n      tag_89\n      jumpi\n        /* \"#utility.yul\":1159:1165   */\n      dup2\n        /* \"#utility.yul\":1153:1166   */\n      mload\n        /* \"#utility.yul\":1186:1249   */\n      tag_90\n        /* \"#utility.yul\":1245:1248   */\n      dup9\n        /* \"#utility.yul\":1230:1243   */\n      dup3\n        /* \"#utility.yul\":1186:1249   */\n      tag_75\n      jump\t// in\n    tag_90:\n        /* \"#utility.yul\":1179:1249   */\n      swap8\n      pop\n        /* \"#utility.yul\":1272:1332   */\n      tag_91\n        /* \"#utility.yul\":1325:1331   */\n      dup4\n        /* \"#utility.yul\":1272:1332   */\n      tag_92\n      jump\t// in\n    tag_91:\n        /* \"#utility.yul\":1262:1332   */\n      swap3\n      pop\n        /* \"#utility.yul\":1118:1342   */\n      pop\n        /* \"#utility.yul\":1105:1106   */\n      0x01\n        /* \"#utility.yul\":1102:1103   */\n      dup2\n        /* \"#utility.yul\":1098:1107   */\n      add\n        /* \"#utility.yul\":1093:1107   */\n      swap1\n      pop\n        /* \"#utility.yul\":1058:1342   */\n      jump(tag_87)\n    tag_89:\n        /* \"#utility.yul\":1062:1076   */\n      pop\n        /* \"#utility.yul\":1358:1361   */\n      dup6\n        /* \"#utility.yul\":1351:1361   */\n      swap4\n      pop\n        /* \"#utility.yul\":759:1367   */\n      pop\n      pop\n      pop\n      swap3\n      swap2\n      pop\n      pop\n      jump\t// out\n        /* \"#utility.yul\":1373:1481   */\n    tag_78:\n        /* \"#utility.yul\":1450:1474   */\n      tag_94\n        /* \"#utility.yul\":1468:1473   */\n      dup2\n        /* \"#utility.yul\":1450:1474   */\n      tag_95\n      jump\t// in\n    tag_94:\n        /* \"#utility.yul\":1445:1448   */\n      dup3\n        /* \"#utility.yul\":1438:1475   */\n      mstore\n        /* \"#utility.yul\":1428:1481   */\n      pop\n      pop\n      jump\t// out\n        /* \"#utility.yul\":1487:1605   */\n    tag_96:\n        /* \"#utility.yul\":1574:1598   */\n      tag_98\n        /* \"#utility.yul\":1592:1597   */\n      dup2\n        /* \"#utility.yul\":1574:1598   */\n      tag_95\n      jump\t// in\n    tag_98:\n        /* \"#utility.yul\":1569:1572   */\n      dup3\n        /* \"#utility.yul\":1562:1599   */\n      mstore\n        /* \"#utility.yul\":1552:1605   */\n      pop\n      pop\n      jump\t// out\n        /* \"#utility.yul\":1611:1984   */\n    tag_45:\n        /* \"#utility.yul\":1754:1758   */\n      0x00\n        /* \"#utility.yul\":1792:1794   */\n      0x20\n        /* \"#utility.yul\":1781:1790   */\n      dup3\n        /* \"#utility.yul\":1777:1795   */\n      add\n        /* \"#utility.yul\":1769:1795   */\n      swap1\n      pop\n        /* \"#utility.yul\":1841:1850   */\n      dup2\n        /* \"#utility.yul\":1835:1839   */\n      dup2\n        /* \"#utility.yul\":1831:1851   */\n      sub\n        /* \"#utility.yul\":1827:1828   */\n      0x00\n        /* \"#utility.yul\":1816:1825   */\n      dup4\n        /* \"#utility.yul\":1812:1829   */\n      add\n        /* \"#utility.yul\":1805:1852   */\n      mstore\n        /* \"#utility.yul\":1869:1977   */\n      tag_100\n        /* \"#utility.yul\":1972:1976   */\n      dup2\n        /* \"#utility.yul\":1963:1969   */\n      dup5\n        /* \"#utility.yul\":1869:1977   */\n      tag_79\n      jump\t// in\n    tag_100:\n        /* \"#utility.yul\":1861:1977   */\n      swap1\n      pop\n        /* \"#utility.yul\":1759:1984   */\n      swap3\n      swap2\n      pop\n      pop\n      jump\t// out\n        /* \"#utility.yul\":1990:2212   */\n    tag_18:\n        /* \"#utility.yul\":2083:2087   */\n      0x00\n        /* \"#utility.yul\":2121:2123   */\n      0x20\n        /* \"#utility.yul\":2110:2119   */\n      dup3\n        /* \"#utility.yul\":2106:2124   */\n      add\n        /* \"#utility.yul\":2098:2124   */\n      swap1\n      pop\n        /* \"#utility.yul\":2134:2205   */\n      tag_102\n        /* \"#utility.yul\":2202:2203   */\n      0x00\n        /* \"#utility.yul\":2191:2200   */\n      dup4\n        /* \"#utility.yul\":2187:2204   */\n      add\n        /* \"#utility.yul\":2178:2184   */\n      dup5\n        /* \"#utility.yul\":2134:2205   */\n      tag_96\n      jump\t// in\n    tag_102:\n        /* \"#utility.yul\":2088:2212   */\n      swap3\n      swap2\n      pop\n      pop\n      jump\t// out\n        /* \"#utility.yul\":2218:2350   */\n    tag_86:\n        /* \"#utility.yul\":2285:2289   */\n      0x00\n        /* \"#utility.yul\":2308:2311   */\n      dup2\n        /* \"#utility.yul\":2300:2311   */\n      swap1\n      pop\n        /* \"#utility.yul\":2338:2342   */\n      0x20\n        /* \"#utility.yul\":2333:2336   */\n      dup3\n        /* \"#utility.yul\":2329:2343   */\n      add\n        /* \"#utility.yul\":2321:2343   */\n      swap1\n      pop\n        /* \"#utility.yul\":2290:2350   */\n      swap2\n      swap1\n      pop\n      jump\t// out\n        /* \"#utility.yul\":2356:2470   */\n    tag_82:\n        /* \"#utility.yul\":2423:2429   */\n      0x00\n        /* \"#utility.yul\":2457:2462   */\n      dup2\n        /* \"#utility.yul\":2451:2463   */\n      mload\n        /* \"#utility.yul\":2441:2463   */\n      swap1\n      pop\n        /* \"#utility.yul\":2430:2470   */\n      swap2\n      swap1\n      pop\n      jump\t// out\n        /* \"#utility.yul\":2476:2589   */\n    tag_92:\n        /* \"#utility.yul\":2546:2550   */\n      0x00\n        /* \"#utility.yul\":2578:2582   */\n      0x20\n        /* \"#utility.yul\":2573:2576   */\n      dup3\n        /* \"#utility.yul\":2569:2583   */\n      add\n        /* \"#utility.yul\":2561:2583   */\n      swap1\n      pop\n        /* \"#utility.yul\":2551:2589   */\n      swap2\n      swap1\n      pop\n      jump\t// out\n        /* \"#utility.yul\":2595:2779   */\n    tag_84:\n        /* \"#utility.yul\":2694:2705   */\n      0x00\n        /* \"#utility.yul\":2728:2734   */\n      dup3\n        /* \"#utility.yul\":2723:2726   */\n      dup3\n        /* \"#utility.yul\":2716:2735   */\n      mstore\n        /* \"#utility.yul\":2768:2772   */\n      0x20\n        /* \"#utility.yul\":2763:2766   */\n      dup3\n        /* \"#utility.yul\":2759:2773   */\n      add\n        /* \"#utility.yul\":2744:2773   */\n      swap1\n      pop\n        /* \"#utility.yul\":2706:2779   */\n      swap3\n      swap2\n      pop\n      pop\n      jump\t// out\n        /* \"#utility.yul\":2785:2862   */\n    tag_95:\n        /* \"#utility.yul\":2822:2829   */\n      0x00\n        /* \"#utility.yul\":2851:2856   */\n      dup2\n        /* \"#utility.yul\":2840:2856   */\n      swap1\n      pop\n        /* \"#utility.yul\":2830:2862   */\n      swap2\n      swap1\n      pop\n      jump\t// out\n        /* \"#utility.yul\":2868:2990   */\n    tag_71:\n        /* \"#utility.yul\":2941:2965   */\n      tag_109\n        /* \"#utility.yul\":2959:2964   */\n      dup2\n        /* \"#utility.yul\":2941:2965   */\n      tag_95\n      jump\t// in\n    tag_109:\n        /* \"#utility.yul\":2934:2939   */\n      dup2\n        /* \"#utility.yul\":2931:2966   */\n      eq\n        /* \"#utility.yul\":2921:2923   */\n      tag_110\n      jumpi\n        /* \"#utility.yul\":2980:2981   */\n      0x00\n        /* \"#utility.yul\":2977:2978   */\n      dup1\n        /* \"#utility.yul\":2970:2982   */\n      revert\n        /* \"#utility.yul\":2921:2923   */\n    tag_110:\n        /* \"#utility.yul\":2911:2990   */\n      pop\n      jump\t// out\n\n    auxdata: 0xa26469706673582212209c30fb5c51d18813a9bf92b2dd86e7f1f49f7df789718c92e0ddafe08e608de064736f6c63430008040033\n}\n",
				"bytecode": {
					"linkReferences": {},
					"object": "60806040526040518060600160405280600160ff168152602001600260ff168152602001600360ff16815250600190600361003b92919061004e565b5034801561004857600080fd5b506100bd565b82805482825590600052602060002090810192821561008f579160200282015b8281111561008e578251829060ff1690559160200191906001019061006e565b5b50905061009c91906100a0565b5090565b5b808211156100b95760008160009055506001016100a1565b5090565b610550806100cc6000396000f3fe608060405234801561001057600080fd5b50600436106100935760003560e01c8063959ac48411610066578063959ac48414610144578063a4ece52c14610160578063be1c766b1461016a578063edf0099b14610188578063fb8cbced146101b857610093565b806338a067ce146100985780634cc82215146100c857806371e5ee5f146100e45780639507d39a14610114575b600080fd5b6100b260048036038101906100ad91906103c6565b6101d6565b6040516100bf91906104a5565b60405180910390f35b6100e260048036038101906100dd91906103c6565b6101f1565b005b6100fe60048036038101906100f991906103c6565b61023c565b60405161010b91906104a5565b60405180910390f35b61012e600480360381019061012991906103c6565b610260565b60405161013b91906104a5565b60405180910390f35b61015e600480360381019061015991906103c6565b6102ad565b005b6101686102d9565b005b610172610329565b60405161017f91906104a5565b60405180910390f35b6101a2600480360381019061019d91906103c6565b610335565b6040516101af91906104a5565b60405180910390f35b6101c0610359565b6040516101cd9190610483565b60405180910390f35b600281600a81106101e657600080fd5b016000915090505481565b6000818154811061022b577f4e487b7100000000000000000000000000000000000000000000000000000000600052603260045260246000fd5b906000526020600020016000905550565b6000818154811061024c57600080fd5b906000526020600020016000915090505481565b600080828154811061029b577f4e487b7100000000000000000000000000000000000000000000000000000000600052603260045260246000fd5b90600052602060002001549050919050565b600081908060018154018082558091505060019003906000526020600020016000909190919091505550565b6000805480610311577f4e487b7100000000000000000000000000000000000000000000000000000000600052603160045260246000fd5b60019003818190600052602060002001600090559055565b60008080549050905090565b6001818154811061034557600080fd5b906000526020600020016000915090505481565b606060008054806020026020016040519081016040528092919081815260200182805480156103a757602002820191906000526020600020905b815481526020019060010190808311610393575b5050505050905090565b6000813590506103c081610503565b92915050565b6000602082840312156103d857600080fd5b60006103e6848285016103b1565b91505092915050565b60006103fb8383610465565b60208301905092915050565b6000610412826104d0565b61041c81856104e8565b9350610427836104c0565b8060005b8381101561045857815161043f88826103ef565b975061044a836104db565b92505060018101905061042b565b5085935050505092915050565b61046e816104f9565b82525050565b61047d816104f9565b82525050565b6000602082019050818103600083015261049d8184610407565b905092915050565b60006020820190506104ba6000830184610474565b92915050565b6000819050602082019050919050565b600081519050919050565b6000602082019050919050565b600082825260208201905092915050565b6000819050919050565b61050c816104f9565b811461051757600080fd5b5056fea26469706673582212209c30fb5c51d18813a9bf92b2dd86e7f1f49f7df789718c92e0ddafe08e608de064736f6c63430008040033",
					"opcodes": "PUSH1 0x80 PUSH1 0x40 MSTORE PUSH1 0x40 MLOAD DUP1 PUSH1 0x60 ADD PUSH1 0x40 MSTORE DUP1 PUSH1 0x1 PUSH1 0xFF AND DUP2 MSTORE PUSH1 0x20 ADD PUSH1 0x2 PUSH1 0xFF AND DUP2 MSTORE PUSH1 0x20 ADD PUSH1 0x3 PUSH1 0xFF AND DUP2 MSTORE POP PUSH1 0x1 SWAP1 PUSH1 0x3 PUSH2 0x3B SWAP3 SWAP2 SWAP1 PUSH2 0x4E JUMP JUMPDEST POP CALLVALUE DUP1 ISZERO PUSH2 0x48 JUMPI PUSH1 0x0 DUP1 REVERT JUMPDEST POP PUSH2 0xBD JUMP JUMPDEST DUP3 DUP1 SLOAD DUP3 DUP3 SSTORE SWAP1 PUSH1 0x0 MSTORE PUSH1 0x20 PUSH1 0x0 KECCAK256 SWAP1 DUP2 ADD SWAP3 DUP3 ISZERO PUSH2 0x8F JUMPI SWAP2 PUSH1 0x20 MUL DUP3 ADD JUMPDEST DUP3 DUP2 GT ISZERO PUSH2 0x8E JUMPI DUP3 MLOAD DUP3 SWAP1 PUSH1 0xFF AND SWAP1 SSTORE SWAP2 PUSH1 0x20 ADD SWAP2 SWAP1 PUSH1 0x1 ADD SWAP1 PUSH2 0x6E JUMP JUMPDEST JUMPDEST POP SWAP1 POP PUSH2 0x9C SWAP2 SWAP1 PUSH2 0xA0 JUMP JUMPDEST POP SWAP1 JUMP JUMPDEST JUMPDEST DUP1 DUP3 GT ISZERO PUSH2 0xB9 JUMPI PUSH1 0x0 DUP2 PUSH1 0x0 SWAP1 SSTORE POP PUSH1 0x1 ADD PUSH2 0xA1 JUMP JUMPDEST POP SWAP1 JUMP JUMPDEST PUSH2 0x550 DUP1 PUSH2 0xCC PUSH1 0x0 CODECOPY PUSH1 0x0 RETURN INVALID PUSH1 0x80 PUSH1 0x40 MSTORE CALLVALUE DUP1 ISZERO PUSH2 0x10 JUMPI PUSH1 0x0 DUP1 REVERT JUMPDEST POP PUSH1 0x4 CALLDATASIZE LT PUSH2 0x93 JUMPI PUSH1 0x0 CALLDATALOAD PUSH1 0xE0 SHR DUP1 PUSH4 0x959AC484 GT PUSH2 0x66 JUMPI DUP1 PUSH4 0x959AC484 EQ PUSH2 0x144 JUMPI DUP1 PUSH4 0xA4ECE52C EQ PUSH2 0x160 JUMPI DUP1 PUSH4 0xBE1C766B EQ PUSH2 0x16A JUMPI DUP1 PUSH4 0xEDF0099B EQ PUSH2 0x188 JUMPI DUP1 PUSH4 0xFB8CBCED EQ PUSH2 0x1B8 JUMPI PUSH2 0x93 JUMP JUMPDEST DUP1 PUSH4 0x38A067CE EQ PUSH2 0x98 JUMPI DUP1 PUSH4 0x4CC82215 EQ PUSH2 0xC8 JUMPI DUP1 PUSH4 0x71E5EE5F EQ PUSH2 0xE4 JUMPI DUP1 PUSH4 0x9507D39A EQ PUSH2 0x114 JUMPI JUMPDEST PUSH1 0x0 DUP1 REVERT JUMPDEST PUSH2 0xB2 PUSH1 0x4 DUP1 CALLDATASIZE SUB DUP2 ADD SWAP1 PUSH2 0xAD SWAP2 SWAP1 PUSH2 0x3C6 JUMP JUMPDEST PUSH2 0x1D6 JUMP JUMPDEST PUSH1 0x40 MLOAD PUSH2 0xBF SWAP2 SWAP1 PUSH2 0x4A5 JUMP JUMPDEST PUSH1 0x40 MLOAD DUP1 SWAP2 SUB SWAP1 RETURN JUMPDEST PUSH2 0xE2 PUSH1 0x4 DUP1 CALLDATASIZE SUB DUP2 ADD SWAP1 PUSH2 0xDD SWAP2 SWAP1 PUSH2 0x3C6 JUMP JUMPDEST PUSH2 0x1F1 JUMP JUMPDEST STOP JUMPDEST PUSH2 0xFE PUSH1 0x4 DUP1 CALLDATASIZE SUB DUP2 ADD SWAP1 PUSH2 0xF9 SWAP2 SWAP1 PUSH2 0x3C6 JUMP JUMPDEST PUSH2 0x23C JUMP JUMPDEST PUSH1 0x40 MLOAD PUSH2 0x10B SWAP2 SWAP1 PUSH2 0x4A5 JUMP JUMPDEST PUSH1 0x40 MLOAD DUP1 SWAP2 SUB SWAP1 RETURN JUMPDEST PUSH2 0x12E PUSH1 0x4 DUP1 CALLDATASIZE SUB DUP2 ADD SWAP1 PUSH2 0x129 SWAP2 SWAP1 PUSH2 0x3C6 JUMP JUMPDEST PUSH2 0x260 JUMP JUMPDEST PUSH1 0x40 MLOAD PUSH2 0x13B SWAP2 SWAP1 PUSH2 0x4A5 JUMP JUMPDEST PUSH1 0x40 MLOAD DUP1 SWAP2 SUB SWAP1 RETURN JUMPDEST PUSH2 0x15E PUSH1 0x4 DUP1 CALLDATASIZE SUB DUP2 ADD SWAP1 PUSH2 0x159 SWAP2 SWAP1 PUSH2 0x3C6 JUMP JUMPDEST PUSH2 0x2AD JUMP JUMPDEST STOP JUMPDEST PUSH2 0x168 PUSH2 0x2D9 JUMP JUMPDEST STOP JUMPDEST PUSH2 0x172 PUSH2 0x329 JUMP JUMPDEST PUSH1 0x40 MLOAD PUSH2 0x17F SWAP2 SWAP1 PUSH2 0x4A5 JUMP JUMPDEST PUSH1 0x40 MLOAD DUP1 SWAP2 SUB SWAP1 RETURN JUMPDEST PUSH2 0x1A2 PUSH1 0x4 DUP1 CALLDATASIZE SUB DUP2 ADD SWAP1 PUSH2 0x19D SWAP2 SWAP1 PUSH2 0x3C6 JUMP JUMPDEST PUSH2 0x335 JUMP JUMPDEST PUSH1 0x40 MLOAD PUSH2 0x1AF SWAP2 SWAP1 PUSH2 0x4A5 JUMP JUMPDEST PUSH1 0x40 MLOAD DUP1 SWAP2 SUB SWAP1 RETURN JUMPDEST PUSH2 0x1C0 PUSH2 0x359 JUMP JUMPDEST PUSH1 0x40 MLOAD PUSH2 0x1CD SWAP2 SWAP1 PUSH2 0x483 JUMP JUMPDEST PUSH1 0x40 MLOAD DUP1 SWAP2 SUB SWAP1 RETURN JUMPDEST PUSH1 0x2 DUP2 PUSH1 0xA DUP2 LT PUSH2 0x1E6 JUMPI PUSH1 0x0 DUP1 REVERT JUMPDEST ADD PUSH1 0x0 SWAP2 POP SWAP1 POP SLOAD DUP2 JUMP JUMPDEST PUSH1 0x0 DUP2 DUP2 SLOAD DUP2 LT PUSH2 0x22B JUMPI PUSH32 0x4E487B7100000000000000000000000000000000000000000000000000000000 PUSH1 0x0 MSTORE PUSH1 0x32 PUSH1 0x4 MSTORE PUSH1 0x24 PUSH1 0x0 REVERT JUMPDEST SWAP1 PUSH1 0x0 MSTORE PUSH1 0x20 PUSH1 0x0 KECCAK256 ADD PUSH1 0x0 SWAP1 SSTORE POP JUMP JUMPDEST PUSH1 0x0 DUP2 DUP2 SLOAD DUP2 LT PUSH2 0x24C JUMPI PUSH1 0x0 DUP1 REVERT JUMPDEST SWAP1 PUSH1 0x0 MSTORE PUSH1 0x20 PUSH1 0x0 KECCAK256 ADD PUSH1 0x0 SWAP2 POP SWAP1 POP SLOAD DUP2 JUMP JUMPDEST PUSH1 0x0 DUP1 DUP3 DUP2 SLOAD DUP2 LT PUSH2 0x29B JUMPI PUSH32 0x4E487B7100000000000000000000000000000000000000000000000000000000 PUSH1 0x0 MSTORE PUSH1 0x32 PUSH1 0x4 MSTORE PUSH1 0x24 PUSH1 0x0 REVERT JUMPDEST SWAP1 PUSH1 0x0 MSTORE PUSH1 0x20 PUSH1 0x0 KECCAK256 ADD SLOAD SWAP1 POP SWAP2 SWAP1 POP JUMP JUMPDEST PUSH1 0x0 DUP2 SWAP1 DUP1 PUSH1 0x1 DUP2 SLOAD ADD DUP1 DUP3 SSTORE DUP1 SWAP2 POP POP PUSH1 0x1 SWAP1 SUB SWAP1 PUSH1 0x0 MSTORE PUSH1 0x20 PUSH1 0x0 KECCAK256 ADD PUSH1 0x0 SWAP1 SWAP2 SWAP1 SWAP2 SWAP1 SWAP2 POP SSTORE POP JUMP JUMPDEST PUSH1 0x0 DUP1 SLOAD DUP1 PUSH2 0x311 JUMPI PUSH32 0x4E487B7100000000000000000000000000000000000000000000000000000000 PUSH1 0x0 MSTORE PUSH1 0x31 PUSH1 0x4 MSTORE PUSH1 0x24 PUSH1 0x0 REVERT JUMPDEST PUSH1 0x1 SWAP1 SUB DUP2 DUP2 SWAP1 PUSH1 0x0 MSTORE PUSH1 0x20 PUSH1 0x0 KECCAK256 ADD PUSH1 0x0 SWAP1 SSTORE SWAP1 SSTORE JUMP JUMPDEST PUSH1 0x0 DUP1 DUP1 SLOAD SWAP1 POP SWAP1 POP SWAP1 JUMP JUMPDEST PUSH1 0x1 DUP2 DUP2 SLOAD DUP2 LT PUSH2 0x345 JUMPI PUSH1 0x0 DUP1 REVERT JUMPDEST SWAP1 PUSH1 0x0 MSTORE PUSH1 0x20 PUSH1 0x0 KECCAK256 ADD PUSH1 0x0 SWAP2 POP SWAP1 POP SLOAD DUP2 JUMP JUMPDEST PUSH1 0x60 PUSH1 0x0 DUP1 SLOAD DUP1 PUSH1 0x20 MUL PUSH1 0x20 ADD PUSH1 0x40 MLOAD SWAP1 DUP2 ADD PUSH1 0x40 MSTORE DUP1 SWAP3 SWAP2 SWAP1 DUP2 DUP2 MSTORE PUSH1 0x20 ADD DUP3 DUP1 SLOAD DUP1 ISZERO PUSH2 0x3A7 JUMPI PUSH1 0x20 MUL DUP3 ADD SWAP2 SWAP1 PUSH1 0x0 MSTORE PUSH1 0x20 PUSH1 0x0 KECCAK256 SWAP1 JUMPDEST DUP2 SLOAD DUP2 MSTORE PUSH1 0x20 ADD SWAP1 PUSH1 0x1 ADD SWAP1 DUP1 DUP4 GT PUSH2 0x393 JUMPI JUMPDEST POP POP POP POP POP SWAP1 POP SWAP1 JUMP JUMPDEST PUSH1 0x0 DUP2 CALLDATALOAD SWAP1 POP PUSH2 0x3C0 DUP2 PUSH2 0x503 JUMP JUMPDEST SWAP3 SWAP2 POP POP JUMP JUMPDEST PUSH1 0x0 PUSH1 0x20 DUP3 DUP5 SUB SLT ISZERO PUSH2 0x3D8 JUMPI PUSH1 0x0 DUP1 REVERT JUMPDEST PUSH1 0x0 PUSH2 0x3E6 DUP5 DUP3 DUP6 ADD PUSH2 0x3B1 JUMP JUMPDEST SWAP2 POP POP SWAP3 SWAP2 POP POP JUMP JUMPDEST PUSH1 0x0 PUSH2 0x3FB DUP4 DUP4 PUSH2 0x465 JUMP JUMPDEST PUSH1 0x20 DUP4 ADD SWAP1 POP SWAP3 SWAP2 POP POP JUMP JUMPDEST PUSH1 0x0 PUSH2 0x412 DUP3 PUSH2 0x4D0 JUMP JUMPDEST PUSH2 0x41C DUP2 DUP6 PUSH2 0x4E8 JUMP JUMPDEST SWAP4 POP PUSH2 0x427 DUP4 PUSH2 0x4C0 JUMP JUMPDEST DUP1 PUSH1 0x0 JUMPDEST DUP4 DUP2 LT ISZERO PUSH2 0x458 JUMPI DUP2 MLOAD PUSH2 0x43F DUP9 DUP3 PUSH2 0x3EF JUMP JUMPDEST SWAP8 POP PUSH2 0x44A DUP4 PUSH2 0x4DB JUMP JUMPDEST SWAP3 POP POP PUSH1 0x1 DUP2 ADD SWAP1 POP PUSH2 0x42B JUMP JUMPDEST POP DUP6 SWAP4 POP POP POP POP SWAP3 SWAP2 POP POP JUMP JUMPDEST PUSH2 0x46E DUP2 PUSH2 0x4F9 JUMP JUMPDEST DUP3 MSTORE POP POP JUMP JUMPDEST PUSH2 0x47D DUP2 PUSH2 0x4F9 JUMP JUMPDEST DUP3 MSTORE POP POP JUMP JUMPDEST PUSH1 0x0 PUSH1 0x20 DUP3 ADD SWAP1 POP DUP2 DUP2 SUB PUSH1 0x0 DUP4 ADD MSTORE PUSH2 0x49D DUP2 DUP5 PUSH2 0x407 JUMP JUMPDEST SWAP1 POP SWAP3 SWAP2 POP POP JUMP JUMPDEST PUSH1 0x0 PUSH1 0x20 DUP3 ADD SWAP1 POP PUSH2 0x4BA PUSH1 0x0 DUP4 ADD DUP5 PUSH2 0x474 JUMP JUMPDEST SWAP3 SWAP2 POP POP JUMP JUMPDEST PUSH1 0x0 DUP2 SWAP1 POP PUSH1 0x20 DUP3 ADD SWAP1 POP SWAP2 SWAP1 POP JUMP JUMPDEST PUSH1 0x0 DUP2 MLOAD SWAP1 POP SWAP2 SWAP1 POP JUMP JUMPDEST PUSH1 0x0 PUSH1 0x20 DUP3 ADD SWAP1 POP SWAP2 SWAP1 POP JUMP JUMPDEST PUSH1 0x0 DUP3 DUP3 MSTORE PUSH1 0x20 DUP3 ADD SWAP1 POP SWAP3 SWAP2 POP POP JUMP JUMPDEST PUSH1 0x0 DUP2 SWAP1 POP SWAP2 SWAP1 POP JUMP JUMPDEST PUSH2 0x50C DUP2 PUSH2 0x4F9 JUMP JUMPDEST DUP2 EQ PUSH2 0x517 JUMPI PUSH1 0x0 DUP1 REVERT JUMPDEST POP JUMP INVALID LOG2 PUSH5 0x6970667358 0x22 SLT KECCAK256 SWAP13 ADDRESS 0xFB 0x5C MLOAD 0xD1 DUP9 SGT 0xA9 0xBF SWAP3 0xB2 0xDD DUP7 0xE7 CALL DELEGATECALL SWAP16 PUSH30 0xF789718C92E0DDAFE08E608DE064736F6C63430008040033000000000000 "
				},
				"gasEstimates": {
					"creation": {
						"codeDepositCost": "272000",
						"executionCost": "infinite",
						"totalCost": "infinite"
					},
					"external": {
						"arr(uint256)": "infinite",
						"arr2(uint256)": "infinite",
						"get(uint256)": "infinite",
						"getArr()": "infinite",
						"getLength()": "1189",
						"myFixedSizeArr(uint256)": "infinite",
						"pop()": "26067",
						"push(uint256)": "41329",
						"remove(uint256)": "6318"
					}
				},
				"methodIdentifiers": {
					"arr(uint256)": "71e5ee5f",
					"arr2(uint256)": "edf0099b",
					"get(uint256)": "9507d39a",
					"getArr()": "fb8cbced",
					"getLength()": "be1c766b",
					"myFixedSizeArr(uint256)": "38a067ce",
					"pop()": "a4ece52c",
					"push(uint256)": "959ac484",
					"remove(uint256)": "4cc82215"
				}
			},
			"userdoc": {
				"kind": "user",
				"methods": {},
				"version": 1
			}
		}
	}
}