{
	".learneth/Solidity Beginner Course/8.4 Data Structures - Enums/enums_answer.sol": {
		"Enum": {
			"abi": [
				{
					"inputs": [],
					"name": "cancel",
					"outputs": [],
					"stateMutability": "nonpayable",
					"type": "function"
				},
				{
					"inputs": [],
					"name": "get",
					"outputs": [
						{
							"internalType": "enum Enum.Status",
							"name": "",
							"type": "uint8"
						}
					],
					"stateMutability": "view",
					"type": "function"
				},
				{
					"inputs": [],
					"name": "getSize",
					"outputs": [
						{
							"internalType": "enum Enum.Size",
							"name": "",
							"type": "uint8"
						}
					],
					"stateMutability": "view",
					"type": "function"
				},
				{
					"inputs": [],
					"name": "reset",
					"outputs": [],
					"stateMutability": "nonpayable",
					"type": "function"
				},
				{
					"inputs": [
						{
							"internalType": "enum Enum.Status",
							"name": "_status",
							"type": "uint8"
						}
					],
					"name": "set",
					"outputs": [],
					"stateMutability": "nonpayable",
					"type": "function"
				},
				{
					"inputs": [],
					"name": "sizes",
					"outputs": [
						{
							"internalType": "enum Enum.Size",
							"name": "",
							"type": "uint8"
						}
					],
					"stateMutability": "view",
					"type": "function"
				},
				{
					"inputs": [],
					"name": "status",
					"outputs": [
						{
							"internalType": "enum Enum.Status",
							"name": "",
							"type": "uint8"
						}
					],
					"stateMutability": "view",
					"type": "function"
				}
			],
			"devdoc": {
				"kind": "dev",
				"methods": {},
				"version": 1
			},
			"evm": {
				"assembly": "    /* \".learneth/Solidity Beginner Course/8.4 Data Structures - Enums/enums_answer.sol\":57:964  contract Enum {... */\n  mstore(0x40, 0x80)\n  callvalue\n  dup1\n  iszero\n  tag_1\n  jumpi\n  0x00\n  dup1\n  revert\ntag_1:\n  pop\n  dataSize(sub_0)\n  dup1\n  dataOffset(sub_0)\n  0x00\n  codecopy\n  0x00\n  return\nstop\n\nsub_0: assembly {\n        /* \".learneth/Solidity Beginner Course/8.4 Data Structures - Enums/enums_answer.sol\":57:964  contract Enum {... */\n      mstore(0x40, 0x80)\n      callvalue\n      dup1\n      iszero\n      tag_1\n      jumpi\n      0x00\n      dup1\n      revert\n    tag_1:\n      pop\n      jumpi(tag_2, lt(calldatasize, 0x04))\n      shr(0xe0, calldataload(0x00))\n      dup1\n      0xd826f88f\n      gt\n      tag_10\n      jumpi\n      dup1\n      0xd826f88f\n      eq\n      tag_6\n      jumpi\n      dup1\n      0xde8fa431\n      eq\n      tag_7\n      jumpi\n      dup1\n      0xe4da41a7\n      eq\n      tag_8\n      jumpi\n      dup1\n      0xea8a1af0\n      eq\n      tag_9\n      jumpi\n      jump(tag_2)\n    tag_10:\n      dup1\n      0x200d2ed2\n      eq\n      tag_3\n      jumpi\n      dup1\n      0x24b8ba5f\n      eq\n      tag_4\n      jumpi\n      dup1\n      0x6d4ce63c\n      eq\n      tag_5\n      jumpi\n    tag_2:\n      0x00\n      dup1\n      revert\n        /* \".learneth/Solidity Beginner Course/8.4 Data Structures - Enums/enums_answer.sol\":395:415  Status public status */\n    tag_3:\n      tag_11\n      tag_12\n      jump\t// in\n    tag_11:\n      mload(0x40)\n      tag_13\n      swap2\n      swap1\n      tag_14\n      jump\t// in\n    tag_13:\n      mload(0x40)\n      dup1\n      swap2\n      sub\n      swap1\n      return\n        /* \".learneth/Solidity Beginner Course/8.4 Data Structures - Enums/enums_answer.sol\":658:727  function set(Status _status) public {... */\n    tag_4:\n      tag_15\n      0x04\n      dup1\n      calldatasize\n      sub\n      dup2\n      add\n      swap1\n      tag_16\n      swap2\n      swap1\n      tag_17\n      jump\t// in\n    tag_16:\n      tag_18\n      jump\t// in\n    tag_15:\n      stop\n        /* \".learneth/Solidity Beginner Course/8.4 Data Structures - Enums/enums_answer.sol\":445:519  function get() public view returns (Status) {... */\n    tag_5:\n      tag_19\n      tag_20\n      jump\t// in\n    tag_19:\n      mload(0x40)\n      tag_21\n      swap2\n      swap1\n      tag_14\n      jump\t// in\n    tag_21:\n      mload(0x40)\n      dup1\n      swap2\n      sub\n      swap1\n      return\n        /* \".learneth/Solidity Beginner Course/8.4 Data Structures - Enums/enums_answer.sol\":908:962  function reset() public {... */\n    tag_6:\n      tag_22\n      tag_23\n      jump\t// in\n    tag_22:\n      stop\n        /* \".learneth/Solidity Beginner Course/8.4 Data Structures - Enums/enums_answer.sol\":529:604  function getSize() public view returns (Size) {... */\n    tag_7:\n      tag_24\n      tag_25\n      jump\t// in\n    tag_24:\n      mload(0x40)\n      tag_26\n      swap2\n      swap1\n      tag_27\n      jump\t// in\n    tag_26:\n      mload(0x40)\n      dup1\n      swap2\n      sub\n      swap1\n      return\n        /* \".learneth/Solidity Beginner Course/8.4 Data Structures - Enums/enums_answer.sol\":421:438  Size public sizes */\n    tag_8:\n      tag_28\n      tag_29\n      jump\t// in\n    tag_28:\n      mload(0x40)\n      tag_30\n      swap2\n      swap1\n      tag_27\n      jump\t// in\n    tag_30:\n      mload(0x40)\n      dup1\n      swap2\n      sub\n      swap1\n      return\n        /* \".learneth/Solidity Beginner Course/8.4 Data Structures - Enums/enums_answer.sol\":784:850  function cancel() public {... */\n    tag_9:\n      tag_31\n      tag_32\n      jump\t// in\n    tag_31:\n      stop\n        /* \".learneth/Solidity Beginner Course/8.4 Data Structures - Enums/enums_answer.sol\":395:415  Status public status */\n    tag_12:\n      0x00\n      dup1\n      sload\n      swap1\n      0x0100\n      exp\n      swap1\n      div\n      0xff\n      and\n      dup2\n      jump\t// out\n        /* \".learneth/Solidity Beginner Course/8.4 Data Structures - Enums/enums_answer.sol\":658:727  function set(Status _status) public {... */\n    tag_18:\n        /* \".learneth/Solidity Beginner Course/8.4 Data Structures - Enums/enums_answer.sol\":713:720  _status */\n      dup1\n        /* \".learneth/Solidity Beginner Course/8.4 Data Structures - Enums/enums_answer.sol\":704:710  status */\n      0x00\n      dup1\n        /* \".learneth/Solidity Beginner Course/8.4 Data Structures - Enums/enums_answer.sol\":704:720  status = _status */\n      0x0100\n      exp\n      dup2\n      sload\n      dup2\n      0xff\n      mul\n      not\n      and\n      swap1\n      dup4\n      0x04\n      dup2\n      gt\n      iszero\n      tag_34\n      jumpi\n      mstore(0x00, 0x4e487b7100000000000000000000000000000000000000000000000000000000)\n      mstore(0x04, 0x21)\n      revert(0x00, 0x24)\n    tag_34:\n      mul\n      or\n      swap1\n      sstore\n      pop\n        /* \".learneth/Solidity Beginner Course/8.4 Data Structures - Enums/enums_answer.sol\":658:727  function set(Status _status) public {... */\n      pop\n      jump\t// out\n        /* \".learneth/Solidity Beginner Course/8.4 Data Structures - Enums/enums_answer.sol\":445:519  function get() public view returns (Status) {... */\n    tag_20:\n        /* \".learneth/Solidity Beginner Course/8.4 Data Structures - Enums/enums_answer.sol\":481:487  Status */\n      0x00\n        /* \".learneth/Solidity Beginner Course/8.4 Data Structures - Enums/enums_answer.sol\":506:512  status */\n      dup1\n      0x00\n      swap1\n      sload\n      swap1\n      0x0100\n      exp\n      swap1\n      div\n      0xff\n      and\n        /* \".learneth/Solidity Beginner Course/8.4 Data Structures - Enums/enums_answer.sol\":499:512  return status */\n      swap1\n      pop\n        /* \".learneth/Solidity Beginner Course/8.4 Data Structures - Enums/enums_answer.sol\":445:519  function get() public view returns (Status) {... */\n      swap1\n      jump\t// out\n        /* \".learneth/Solidity Beginner Course/8.4 Data Structures - Enums/enums_answer.sol\":908:962  function reset() public {... */\n    tag_23:\n        /* \".learneth/Solidity Beginner Course/8.4 Data Structures - Enums/enums_answer.sol\":949:955  status */\n      0x00\n      dup1\n        /* \".learneth/Solidity Beginner Course/8.4 Data Structures - Enums/enums_answer.sol\":942:955  delete status */\n      0x0100\n      exp\n      dup2\n      sload\n      swap1\n      0xff\n      mul\n      not\n      and\n      swap1\n      sstore\n        /* \".learneth/Solidity Beginner Course/8.4 Data Structures - Enums/enums_answer.sol\":908:962  function reset() public {... */\n      jump\t// out\n        /* \".learneth/Solidity Beginner Course/8.4 Data Structures - Enums/enums_answer.sol\":529:604  function getSize() public view returns (Size) {... */\n    tag_25:\n        /* \".learneth/Solidity Beginner Course/8.4 Data Structures - Enums/enums_answer.sol\":569:573  Size */\n      0x00\n        /* \".learneth/Solidity Beginner Course/8.4 Data Structures - Enums/enums_answer.sol\":592:597  sizes */\n      dup1\n      0x01\n      swap1\n      sload\n      swap1\n      0x0100\n      exp\n      swap1\n      div\n      0xff\n      and\n        /* \".learneth/Solidity Beginner Course/8.4 Data Structures - Enums/enums_answer.sol\":585:597  return sizes */\n      swap1\n      pop\n        /* \".learneth/Solidity Beginner Course/8.4 Data Structures - Enums/enums_answer.sol\":529:604  function getSize() public view returns (Size) {... */\n      swap1\n      jump\t// out\n        /* \".learneth/Solidity Beginner Course/8.4 Data Structures - Enums/enums_answer.sol\":421:438  Size public sizes */\n    tag_29:\n      0x00\n      0x01\n      swap1\n      sload\n      swap1\n      0x0100\n      exp\n      swap1\n      div\n      0xff\n      and\n      dup2\n      jump\t// out\n        /* \".learneth/Solidity Beginner Course/8.4 Data Structures - Enums/enums_answer.sol\":784:850  function cancel() public {... */\n    tag_32:\n        /* \".learneth/Solidity Beginner Course/8.4 Data Structures - Enums/enums_answer.sol\":828:843  Status.Canceled */\n      0x04\n        /* \".learneth/Solidity Beginner Course/8.4 Data Structures - Enums/enums_answer.sol\":819:825  status */\n      0x00\n      dup1\n        /* \".learneth/Solidity Beginner Course/8.4 Data Structures - Enums/enums_answer.sol\":819:843  status = Status.Canceled */\n      0x0100\n      exp\n      dup2\n      sload\n      dup2\n      0xff\n      mul\n      not\n      and\n      swap1\n      dup4\n      0x04\n      dup2\n      gt\n      iszero\n      tag_39\n      jumpi\n      mstore(0x00, 0x4e487b7100000000000000000000000000000000000000000000000000000000)\n      mstore(0x04, 0x21)\n      revert(0x00, 0x24)\n    tag_39:\n      mul\n      or\n      swap1\n      sstore\n      pop\n        /* \".learneth/Solidity Beginner Course/8.4 Data Structures - Enums/enums_answer.sol\":784:850  function cancel() public {... */\n      jump\t// out\n        /* \"#utility.yul\":7:162   */\n    tag_41:\n        /* \"#utility.yul\":61:66   */\n      0x00\n        /* \"#utility.yul\":99:105   */\n      dup2\n        /* \"#utility.yul\":86:106   */\n      calldataload\n        /* \"#utility.yul\":77:106   */\n      swap1\n      pop\n        /* \"#utility.yul\":115:156   */\n      tag_43\n        /* \"#utility.yul\":150:155   */\n      dup2\n        /* \"#utility.yul\":115:156   */\n      tag_44\n      jump\t// in\n    tag_43:\n        /* \"#utility.yul\":67:162   */\n      swap3\n      swap2\n      pop\n      pop\n      jump\t// out\n        /* \"#utility.yul\":168:446   */\n    tag_17:\n        /* \"#utility.yul\":235:241   */\n      0x00\n        /* \"#utility.yul\":284:286   */\n      0x20\n        /* \"#utility.yul\":272:281   */\n      dup3\n        /* \"#utility.yul\":263:270   */\n      dup5\n        /* \"#utility.yul\":259:282   */\n      sub\n        /* \"#utility.yul\":255:287   */\n      slt\n        /* \"#utility.yul\":252:254   */\n      iszero\n      tag_46\n      jumpi\n        /* \"#utility.yul\":300:301   */\n      0x00\n        /* \"#utility.yul\":297:298   */\n      dup1\n        /* \"#utility.yul\":290:302   */\n      revert\n        /* \"#utility.yul\":252:254   */\n    tag_46:\n        /* \"#utility.yul\":343:344   */\n      0x00\n        /* \"#utility.yul\":368:429   */\n      tag_47\n        /* \"#utility.yul\":421:428   */\n      dup5\n        /* \"#utility.yul\":412:418   */\n      dup3\n        /* \"#utility.yul\":401:410   */\n      dup6\n        /* \"#utility.yul\":397:419   */\n      add\n        /* \"#utility.yul\":368:429   */\n      tag_41\n      jump\t// in\n    tag_47:\n        /* \"#utility.yul\":358:429   */\n      swap2\n      pop\n        /* \"#utility.yul\":314:439   */\n      pop\n        /* \"#utility.yul\":242:446   */\n      swap3\n      swap2\n      pop\n      pop\n      jump\t// out\n        /* \"#utility.yul\":452:593   */\n    tag_48:\n        /* \"#utility.yul\":544:586   */\n      tag_50\n        /* \"#utility.yul\":580:585   */\n      dup2\n        /* \"#utility.yul\":544:586   */\n      tag_51\n      jump\t// in\n    tag_50:\n        /* \"#utility.yul\":539:542   */\n      dup3\n        /* \"#utility.yul\":532:587   */\n      mstore\n        /* \"#utility.yul\":522:593   */\n      pop\n      pop\n      jump\t// out\n        /* \"#utility.yul\":599:742   */\n    tag_52:\n        /* \"#utility.yul\":692:735   */\n      tag_54\n        /* \"#utility.yul\":729:734   */\n      dup2\n        /* \"#utility.yul\":692:735   */\n      tag_55\n      jump\t// in\n    tag_54:\n        /* \"#utility.yul\":687:690   */\n      dup3\n        /* \"#utility.yul\":680:736   */\n      mstore\n        /* \"#utility.yul\":670:742   */\n      pop\n      pop\n      jump\t// out\n        /* \"#utility.yul\":748:980   */\n    tag_27:\n        /* \"#utility.yul\":846:850   */\n      0x00\n        /* \"#utility.yul\":884:886   */\n      0x20\n        /* \"#utility.yul\":873:882   */\n      dup3\n        /* \"#utility.yul\":869:887   */\n      add\n        /* \"#utility.yul\":861:887   */\n      swap1\n      pop\n        /* \"#utility.yul\":897:973   */\n      tag_57\n        /* \"#utility.yul\":970:971   */\n      0x00\n        /* \"#utility.yul\":959:968   */\n      dup4\n        /* \"#utility.yul\":955:972   */\n      add\n        /* \"#utility.yul\":946:952   */\n      dup5\n        /* \"#utility.yul\":897:973   */\n      tag_48\n      jump\t// in\n    tag_57:\n        /* \"#utility.yul\":851:980   */\n      swap3\n      swap2\n      pop\n      pop\n      jump\t// out\n        /* \"#utility.yul\":986:1220   */\n    tag_14:\n        /* \"#utility.yul\":1085:1089   */\n      0x00\n        /* \"#utility.yul\":1123:1125   */\n      0x20\n        /* \"#utility.yul\":1112:1121   */\n      dup3\n        /* \"#utility.yul\":1108:1126   */\n      add\n        /* \"#utility.yul\":1100:1126   */\n      swap1\n      pop\n        /* \"#utility.yul\":1136:1213   */\n      tag_59\n        /* \"#utility.yul\":1210:1211   */\n      0x00\n        /* \"#utility.yul\":1199:1208   */\n      dup4\n        /* \"#utility.yul\":1195:1212   */\n      add\n        /* \"#utility.yul\":1186:1192   */\n      dup5\n        /* \"#utility.yul\":1136:1213   */\n      tag_52\n      jump\t// in\n    tag_59:\n        /* \"#utility.yul\":1090:1220   */\n      swap3\n      swap2\n      pop\n      pop\n      jump\t// out\n        /* \"#utility.yul\":1226:1351   */\n    tag_60:\n        /* \"#utility.yul\":1270:1277   */\n      0x00\n        /* \"#utility.yul\":1299:1304   */\n      dup2\n        /* \"#utility.yul\":1288:1304   */\n      swap1\n      pop\n        /* \"#utility.yul\":1305:1345   */\n      tag_62\n        /* \"#utility.yul\":1339:1344   */\n      dup3\n        /* \"#utility.yul\":1305:1345   */\n      tag_63\n      jump\t// in\n    tag_62:\n        /* \"#utility.yul\":1278:1351   */\n      swap2\n      swap1\n      pop\n      jump\t// out\n        /* \"#utility.yul\":1357:1484   */\n    tag_64:\n        /* \"#utility.yul\":1402:1409   */\n      0x00\n        /* \"#utility.yul\":1431:1436   */\n      dup2\n        /* \"#utility.yul\":1420:1436   */\n      swap1\n      pop\n        /* \"#utility.yul\":1437:1478   */\n      tag_66\n        /* \"#utility.yul\":1472:1477   */\n      dup3\n        /* \"#utility.yul\":1437:1478   */\n      tag_67\n      jump\t// in\n    tag_66:\n        /* \"#utility.yul\":1410:1484   */\n      swap2\n      swap1\n      pop\n      jump\t// out\n        /* \"#utility.yul\":1490:1615   */\n    tag_51:\n        /* \"#utility.yul\":1545:1554   */\n      0x00\n        /* \"#utility.yul\":1578:1609   */\n      tag_69\n        /* \"#utility.yul\":1603:1608   */\n      dup3\n        /* \"#utility.yul\":1578:1609   */\n      tag_60\n      jump\t// in\n    tag_69:\n        /* \"#utility.yul\":1565:1609   */\n      swap1\n      pop\n        /* \"#utility.yul\":1555:1615   */\n      swap2\n      swap1\n      pop\n      jump\t// out\n        /* \"#utility.yul\":1621:1748   */\n    tag_55:\n        /* \"#utility.yul\":1677:1686   */\n      0x00\n        /* \"#utility.yul\":1710:1742   */\n      tag_71\n        /* \"#utility.yul\":1736:1741   */\n      dup3\n        /* \"#utility.yul\":1710:1742   */\n      tag_64\n      jump\t// in\n    tag_71:\n        /* \"#utility.yul\":1697:1742   */\n      swap1\n      pop\n        /* \"#utility.yul\":1687:1748   */\n      swap2\n      swap1\n      pop\n      jump\t// out\n        /* \"#utility.yul\":1754:1934   */\n    tag_72:\n        /* \"#utility.yul\":1802:1879   */\n      0x4e487b7100000000000000000000000000000000000000000000000000000000\n        /* \"#utility.yul\":1799:1800   */\n      0x00\n        /* \"#utility.yul\":1792:1880   */\n      mstore\n        /* \"#utility.yul\":1899:1903   */\n      0x21\n        /* \"#utility.yul\":1896:1897   */\n      0x04\n        /* \"#utility.yul\":1889:1904   */\n      mstore\n        /* \"#utility.yul\":1923:1927   */\n      0x24\n        /* \"#utility.yul\":1920:1921   */\n      0x00\n        /* \"#utility.yul\":1913:1928   */\n      revert\n        /* \"#utility.yul\":1940:2052   */\n    tag_63:\n        /* \"#utility.yul\":2020:2021   */\n      0x03\n        /* \"#utility.yul\":2013:2018   */\n      dup2\n        /* \"#utility.yul\":2010:2022   */\n      lt\n        /* \"#utility.yul\":2000:2002   */\n      tag_75\n      jumpi\n        /* \"#utility.yul\":2026:2044   */\n      tag_76\n      tag_72\n      jump\t// in\n    tag_76:\n        /* \"#utility.yul\":2000:2002   */\n    tag_75:\n        /* \"#utility.yul\":1990:2052   */\n      pop\n      jump\t// out\n        /* \"#utility.yul\":2058:2171   */\n    tag_67:\n        /* \"#utility.yul\":2139:2140   */\n      0x05\n        /* \"#utility.yul\":2132:2137   */\n      dup2\n        /* \"#utility.yul\":2129:2141   */\n      lt\n        /* \"#utility.yul\":2119:2121   */\n      tag_78\n      jumpi\n        /* \"#utility.yul\":2145:2163   */\n      tag_79\n      tag_72\n      jump\t// in\n    tag_79:\n        /* \"#utility.yul\":2119:2121   */\n    tag_78:\n        /* \"#utility.yul\":2109:2171   */\n      pop\n      jump\t// out\n        /* \"#utility.yul\":2177:2284   */\n    tag_44:\n        /* \"#utility.yul\":2258:2259   */\n      0x05\n        /* \"#utility.yul\":2251:2256   */\n      dup2\n        /* \"#utility.yul\":2248:2260   */\n      lt\n        /* \"#utility.yul\":2238:2240   */\n      tag_81\n      jumpi\n        /* \"#utility.yul\":2274:2275   */\n      0x00\n        /* \"#utility.yul\":2271:2272   */\n      dup1\n        /* \"#utility.yul\":2264:2276   */\n      revert\n        /* \"#utility.yul\":2238:2240   */\n    tag_81:\n        /* \"#utility.yul\":2228:2284   */\n      pop\n      jump\t// out\n\n    auxdata: 0xa2646970667358221220c8f142872f31a7a3a8a8c605eead5630fd0d9f5e7a39091e28e36ae10027681c64736f6c63430008040033\n}\n",
				"bytecode": {
					"linkReferences": {},
					"object": "608060405234801561001057600080fd5b506103aa806100206000396000f3fe608060405234801561001057600080fd5b506004361061007d5760003560e01c8063d826f88f1161005b578063d826f88f146100da578063de8fa431146100e4578063e4da41a714610102578063ea8a1af0146101205761007d565b8063200d2ed21461008257806324b8ba5f146100a05780636d4ce63c146100bc575b600080fd5b61008a61012a565b60405161009791906102a8565b60405180910390f35b6100ba60048036038101906100b59190610246565b61013b565b005b6100c461018d565b6040516100d191906102a8565b60405180910390f35b6100e26101a3565b005b6100ec6101b6565b6040516100f9919061028d565b60405180910390f35b61010a6101cc565b604051610117919061028d565b60405180910390f35b6101286101df565b005b60008054906101000a900460ff1681565b806000806101000a81548160ff02191690836004811115610185577f4e487b7100000000000000000000000000000000000000000000000000000000600052602160045260246000fd5b021790555050565b60008060009054906101000a900460ff16905090565b6000806101000a81549060ff0219169055565b60008060019054906101000a900460ff16905090565b600060019054906101000a900460ff1681565b60046000806101000a81548160ff0219169083600481111561022a577f4e487b7100000000000000000000000000000000000000000000000000000000600052602160045260246000fd5b0217905550565b60008135905061024081610364565b92915050565b60006020828403121561025857600080fd5b600061026684828501610231565b91505092915050565b610278816102e9565b82525050565b610287816102fb565b82525050565b60006020820190506102a2600083018461026f565b92915050565b60006020820190506102bd600083018461027e565b92915050565b60008190506102d18261033c565b919050565b60008190506102e482610350565b919050565b60006102f4826102c3565b9050919050565b6000610306826102d6565b9050919050565b7f4e487b7100000000000000000000000000000000000000000000000000000000600052602160045260246000fd5b6003811061034d5761034c61030d565b5b50565b600581106103615761036061030d565b5b50565b6005811061037157600080fd5b5056fea2646970667358221220c8f142872f31a7a3a8a8c605eead5630fd0d9f5e7a39091e28e36ae10027681c64736f6c63430008040033",
					"opcodes": "PUSH1 0x80 PUSH1 0x40 MSTORE CALLVALUE DUP1 ISZERO PUSH2 0x10 JUMPI PUSH1 0x0 DUP1 REVERT JUMPDEST POP PUSH2 0x3AA DUP1 PUSH2 0x20 PUSH1 0x0 CODECOPY PUSH1 0x0 RETURN INVALID PUSH1 0x80 PUSH1 0x40 MSTORE CALLVALUE DUP1 ISZERO PUSH2 0x10 JUMPI PUSH1 0x0 DUP1 REVERT JUMPDEST POP PUSH1 0x4 CALLDATASIZE LT PUSH2 0x7D JUMPI PUSH1 0x0 CALLDATALOAD PUSH1 0xE0 SHR DUP1 PUSH4 0xD826F88F GT PUSH2 0x5B JUMPI DUP1 PUSH4 0xD826F88F EQ PUSH2 0xDA JUMPI DUP1 PUSH4 0xDE8FA431 EQ PUSH2 0xE4 JUMPI DUP1 PUSH4 0xE4DA41A7 EQ PUSH2 0x102 JUMPI DUP1 PUSH4 0xEA8A1AF0 EQ PUSH2 0x120 JUMPI PUSH2 0x7D JUMP JUMPDEST DUP1 PUSH4 0x200D2ED2 EQ PUSH2 0x82 JUMPI DUP1 PUSH4 0x24B8BA5F EQ PUSH2 0xA0 JUMPI DUP1 PUSH4 0x6D4CE63C EQ PUSH2 0xBC JUMPI JUMPDEST PUSH1 0x0 DUP1 REVERT JUMPDEST PUSH2 0x8A PUSH2 0x12A JUMP JUMPDEST PUSH1 0x40 MLOAD PUSH2 0x97 SWAP2 SWAP1 PUSH2 0x2A8 JUMP JUMPDEST PUSH1 0x40 MLOAD DUP1 SWAP2 SUB SWAP1 RETURN JUMPDEST PUSH2 0xBA PUSH1 0x4 DUP1 CALLDATASIZE SUB DUP2 ADD SWAP1 PUSH2 0xB5 SWAP2 SWAP1 PUSH2 0x246 JUMP JUMPDEST PUSH2 0x13B JUMP JUMPDEST STOP JUMPDEST PUSH2 0xC4 PUSH2 0x18D JUMP JUMPDEST PUSH1 0x40 MLOAD PUSH2 0xD1 SWAP2 SWAP1 PUSH2 0x2A8 JUMP JUMPDEST PUSH1 0x40 MLOAD DUP1 SWAP2 SUB SWAP1 RETURN JUMPDEST PUSH2 0xE2 PUSH2 0x1A3 JUMP JUMPDEST STOP JUMPDEST PUSH2 0xEC PUSH2 0x1B6 JUMP JUMPDEST PUSH1 0x40 MLOAD PUSH2 0xF9 SWAP2 SWAP1 PUSH2 0x28D JUMP JUMPDEST PUSH1 0x40 MLOAD DUP1 SWAP2 SUB SWAP1 RETURN JUMPDEST PUSH2 0x10A PUSH2 0x1CC JUMP JUMPDEST PUSH1 0x40 MLOAD PUSH2 0x117 SWAP2 SWAP1 PUSH2 0x28D JUMP JUMPDEST PUSH1 0x40 MLOAD DUP1 SWAP2 SUB SWAP1 RETURN JUMPDEST PUSH2 0x128 PUSH2 0x1DF JUMP JUMPDEST STOP JUMPDEST PUSH1 0x0 DUP1 SLOAD SWAP1 PUSH2 0x100 EXP SWAP1 DIV PUSH1 0xFF AND DUP2 JUMP JUMPDEST DUP1 PUSH1 0x0 DUP1 PUSH2 0x100 EXP DUP2 SLOAD DUP2 PUSH1 0xFF MUL NOT AND SWAP1 DUP4 PUSH1 0x4 DUP2 GT ISZERO PUSH2 0x185 JUMPI PUSH32 0x4E487B7100000000000000000000000000000000000000000000000000000000 PUSH1 0x0 MSTORE PUSH1 0x21 PUSH1 0x4 MSTORE PUSH1 0x24 PUSH1 0x0 REVERT JUMPDEST MUL OR SWAP1 SSTORE POP POP JUMP JUMPDEST PUSH1 0x0 DUP1 PUSH1 0x0 SWAP1 SLOAD SWAP1 PUSH2 0x100 EXP SWAP1 DIV PUSH1 0xFF AND SWAP1 POP SWAP1 JUMP JUMPDEST PUSH1 0x0 DUP1 PUSH2 0x100 EXP DUP2 SLOAD SWAP1 PUSH1 0xFF MUL NOT AND SWAP1 SSTORE JUMP JUMPDEST PUSH1 0x0 DUP1 PUSH1 0x1 SWAP1 SLOAD SWAP1 PUSH2 0x100 EXP SWAP1 DIV PUSH1 0xFF AND SWAP1 POP SWAP1 JUMP JUMPDEST PUSH1 0x0 PUSH1 0x1 SWAP1 SLOAD SWAP1 PUSH2 0x100 EXP SWAP1 DIV PUSH1 0xFF AND DUP2 JUMP JUMPDEST PUSH1 0x4 PUSH1 0x0 DUP1 PUSH2 0x100 EXP DUP2 SLOAD DUP2 PUSH1 0xFF MUL NOT AND SWAP1 DUP4 PUSH1 0x4 DUP2 GT ISZERO PUSH2 0x22A JUMPI PUSH32 0x4E487B7100000000000000000000000000000000000000000000000000000000 PUSH1 0x0 MSTORE PUSH1 0x21 PUSH1 0x4 MSTORE PUSH1 0x24 PUSH1 0x0 REVERT JUMPDEST MUL OR SWAP1 SSTORE POP JUMP JUMPDEST PUSH1 0x0 DUP2 CALLDATALOAD SWAP1 POP PUSH2 0x240 DUP2 PUSH2 0x364 JUMP JUMPDEST SWAP3 SWAP2 POP POP JUMP JUMPDEST PUSH1 0x0 PUSH1 0x20 DUP3 DUP5 SUB SLT ISZERO PUSH2 0x258 JUMPI PUSH1 0x0 DUP1 REVERT JUMPDEST PUSH1 0x0 PUSH2 0x266 DUP5 DUP3 DUP6 ADD PUSH2 0x231 JUMP JUMPDEST SWAP2 POP POP SWAP3 SWAP2 POP POP JUMP JUMPDEST PUSH2 0x278 DUP2 PUSH2 0x2E9 JUMP JUMPDEST DUP3 MSTORE POP POP JUMP JUMPDEST PUSH2 0x287 DUP2 PUSH2 0x2FB JUMP JUMPDEST DUP3 MSTORE POP POP JUMP JUMPDEST PUSH1 0x0 PUSH1 0x20 DUP3 ADD SWAP1 POP PUSH2 0x2A2 PUSH1 0x0 DUP4 ADD DUP5 PUSH2 0x26F JUMP JUMPDEST SWAP3 SWAP2 POP POP JUMP JUMPDEST PUSH1 0x0 PUSH1 0x20 DUP3 ADD SWAP1 POP PUSH2 0x2BD PUSH1 0x0 DUP4 ADD DUP5 PUSH2 0x27E JUMP JUMPDEST SWAP3 SWAP2 POP POP JUMP JUMPDEST PUSH1 0x0 DUP2 SWAP1 POP PUSH2 0x2D1 DUP3 PUSH2 0x33C JUMP JUMPDEST SWAP2 SWAP1 POP JUMP JUMPDEST PUSH1 0x0 DUP2 SWAP1 POP PUSH2 0x2E4 DUP3 PUSH2 0x350 JUMP JUMPDEST SWAP2 SWAP1 POP JUMP JUMPDEST PUSH1 0x0 PUSH2 0x2F4 DUP3 PUSH2 0x2C3 JUMP JUMPDEST SWAP1 POP SWAP2 SWAP1 POP JUMP JUMPDEST PUSH1 0x0 PUSH2 0x306 DUP3 PUSH2 0x2D6 JUMP JUMPDEST SWAP1 POP SWAP2 SWAP1 POP JUMP JUMPDEST PUSH32 0x4E487B7100000000000000000000000000000000000000000000000000000000 PUSH1 0x0 MSTORE PUSH1 0x21 PUSH1 0x4 MSTORE PUSH1 0x24 PUSH1 0x0 REVERT JUMPDEST PUSH1 0x3 DUP2 LT PUSH2 0x34D JUMPI PUSH2 0x34C PUSH2 0x30D JUMP JUMPDEST JUMPDEST POP JUMP JUMPDEST PUSH1 0x5 DUP2 LT PUSH2 0x361 JUMPI PUSH2 0x360 PUSH2 0x30D JUMP JUMPDEST JUMPDEST POP JUMP JUMPDEST PUSH1 0x5 DUP2 LT PUSH2 0x371 JUMPI PUSH1 0x0 DUP1 REVERT JUMPDEST POP JUMP INVALID LOG2 PUSH5 0x6970667358 0x22 SLT KECCAK256 0xC8 CALL TIMESTAMP DUP8 0x2F BALANCE 0xA7 LOG3 0xA8 0xA8 0xC6 SDIV 0xEE 0xAD JUMP ADDRESS REVERT 0xD SWAP16 0x5E PUSH27 0x39091E28E36AE10027681C64736F6C634300080400330000000000 "
				},
				"gasEstimates": {
					"creation": {
						"codeDepositCost": "187600",
						"executionCost": "232",
						"totalCost": "187832"
					},
					"external": {
						"cancel()": "21097",
						"get()": "1313",
						"getSize()": "1340",
						"reset()": "20986",
						"set(uint8)": "21273",
						"sizes()": "1354",
						"status()": "1258"
					}
				},
				"methodIdentifiers": {
					"cancel()": "ea8a1af0",
					"get()": "6d4ce63c",
					"getSize()": "de8fa431",
					"reset()": "d826f88f",
					"set(uint8)": "24b8ba5f",
					"sizes()": "e4da41a7",
					"status()": "200d2ed2"
				}
			},
			"userdoc": {
				"kind": "user",
				"methods": {},
				"version": 1
			}
		}
	}
}