{
	".learneth/Solidity Beginner Course/7.1 Control Flow - If/Else/ifElse.sol": {
		"IfElse": {
			"abi": [
				{
					"inputs": [
						{
							"internalType": "uint256",
							"name": "x",
							"type": "uint256"
						}
					],
					"name": "foo",
					"outputs": [
						{
							"internalType": "uint256",
							"name": "",
							"type": "uint256"
						}
					],
					"stateMutability": "pure",
					"type": "function"
				},
				{
					"inputs": [
						{
							"internalType": "uint256",
							"name": "_x",
							"type": "uint256"
						}
					],
					"name": "ternary",
					"outputs": [
						{
							"internalType": "uint256",
							"name": "",
							"type": "uint256"
						}
					],
					"stateMutability": "pure",
					"type": "function"
				}
			],
			"devdoc": {
				"kind": "dev",
				"methods": {},
				"version": 1
			},
			"evm": {
				"assembly": "    /* \".learneth/Solidity Beginner Course/7.1 Control Flow - If/Else/ifElse.sol\":57:518  contract IfElse {... */\n  mstore(0x40, 0x80)\n  callvalue\n  dup1\n  iszero\n  tag_1\n  jumpi\n  0x00\n  dup1\n  revert\ntag_1:\n  pop\n  dataSize(sub_0)\n  dup1\n  dataOffset(sub_0)\n  0x00\n  codecopy\n  0x00\n  return\nstop\n\nsub_0: assembly {\n        /* \".learneth/Solidity Beginner Course/7.1 Control Flow - If/Else/ifElse.sol\":57:518  contract IfElse {... */\n      mstore(0x40, 0x80)\n      callvalue\n      dup1\n      iszero\n      tag_1\n      jumpi\n      0x00\n      dup1\n      revert\n    tag_1:\n      pop\n      jumpi(tag_2, lt(calldatasize, 0x04))\n      shr(0xe0, calldataload(0x00))\n      dup1\n      0x2fbebd38\n      eq\n      tag_3\n      jumpi\n      dup1\n      0x55278c5b\n      eq\n      tag_4\n      jumpi\n    tag_2:\n      0x00\n      dup1\n      revert\n        /* \".learneth/Solidity Beginner Course/7.1 Control Flow - If/Else/ifElse.sol\":79:278  function foo(uint x) public pure returns (uint) {... */\n    tag_3:\n      tag_5\n      0x04\n      dup1\n      calldatasize\n      sub\n      dup2\n      add\n      swap1\n      tag_6\n      swap2\n      swap1\n      tag_7\n      jump\t// in\n    tag_6:\n      tag_8\n      jump\t// in\n    tag_5:\n      mload(0x40)\n      tag_9\n      swap2\n      swap1\n      tag_10\n      jump\t// in\n    tag_9:\n      mload(0x40)\n      dup1\n      swap2\n      sub\n      swap1\n      return\n        /* \".learneth/Solidity Beginner Course/7.1 Control Flow - If/Else/ifElse.sol\":284:516  function ternary(uint _x) public pure returns (uint) {... */\n    tag_4:\n      tag_11\n      0x04\n      dup1\n      calldatasize\n      sub\n      dup2\n      add\n      swap1\n      tag_12\n      swap2\n      swap1\n      tag_7\n      jump\t// in\n    tag_12:\n      tag_13\n      jump\t// in\n    tag_11:\n      mload(0x40)\n      tag_14\n      swap2\n      swap1\n      tag_10\n      jump\t// in\n    tag_14:\n      mload(0x40)\n      dup1\n      swap2\n      sub\n      swap1\n      return\n        /* \".learneth/Solidity Beginner Course/7.1 Control Flow - If/Else/ifElse.sol\":79:278  function foo(uint x) public pure returns (uint) {... */\n    tag_8:\n        /* \".learneth/Solidity Beginner Course/7.1 Control Flow - If/Else/ifElse.sol\":121:125  uint */\n      0x00\n        /* \".learneth/Solidity Beginner Course/7.1 Control Flow - If/Else/ifElse.sol\":145:147  10 */\n      0x0a\n        /* \".learneth/Solidity Beginner Course/7.1 Control Flow - If/Else/ifElse.sol\":141:142  x */\n      dup3\n        /* \".learneth/Solidity Beginner Course/7.1 Control Flow - If/Else/ifElse.sol\":141:147  x < 10 */\n      lt\n        /* \".learneth/Solidity Beginner Course/7.1 Control Flow - If/Else/ifElse.sol\":137:272  if (x < 10) {... */\n      iszero\n      tag_16\n      jumpi\n        /* \".learneth/Solidity Beginner Course/7.1 Control Flow - If/Else/ifElse.sol\":170:171  0 */\n      0x00\n        /* \".learneth/Solidity Beginner Course/7.1 Control Flow - If/Else/ifElse.sol\":163:171  return 0 */\n      swap1\n      pop\n      jump(tag_15)\n        /* \".learneth/Solidity Beginner Course/7.1 Control Flow - If/Else/ifElse.sol\":137:272  if (x < 10) {... */\n    tag_16:\n        /* \".learneth/Solidity Beginner Course/7.1 Control Flow - If/Else/ifElse.sol\":196:198  20 */\n      0x14\n        /* \".learneth/Solidity Beginner Course/7.1 Control Flow - If/Else/ifElse.sol\":192:193  x */\n      dup3\n        /* \".learneth/Solidity Beginner Course/7.1 Control Flow - If/Else/ifElse.sol\":192:198  x < 20 */\n      lt\n        /* \".learneth/Solidity Beginner Course/7.1 Control Flow - If/Else/ifElse.sol\":188:272  if (x < 20) {... */\n      iszero\n      tag_18\n      jumpi\n        /* \".learneth/Solidity Beginner Course/7.1 Control Flow - If/Else/ifElse.sol\":221:222  1 */\n      0x01\n        /* \".learneth/Solidity Beginner Course/7.1 Control Flow - If/Else/ifElse.sol\":214:222  return 1 */\n      swap1\n      pop\n      jump(tag_15)\n        /* \".learneth/Solidity Beginner Course/7.1 Control Flow - If/Else/ifElse.sol\":188:272  if (x < 20) {... */\n    tag_18:\n        /* \".learneth/Solidity Beginner Course/7.1 Control Flow - If/Else/ifElse.sol\":260:261  2 */\n      0x02\n        /* \".learneth/Solidity Beginner Course/7.1 Control Flow - If/Else/ifElse.sol\":253:261  return 2 */\n      swap1\n      pop\n        /* \".learneth/Solidity Beginner Course/7.1 Control Flow - If/Else/ifElse.sol\":79:278  function foo(uint x) public pure returns (uint) {... */\n    tag_15:\n      swap2\n      swap1\n      pop\n      jump\t// out\n        /* \".learneth/Solidity Beginner Course/7.1 Control Flow - If/Else/ifElse.sol\":284:516  function ternary(uint _x) public pure returns (uint) {... */\n    tag_13:\n        /* \".learneth/Solidity Beginner Course/7.1 Control Flow - If/Else/ifElse.sol\":331:335  uint */\n      0x00\n        /* \".learneth/Solidity Beginner Course/7.1 Control Flow - If/Else/ifElse.sol\":499:501  10 */\n      0x0a\n        /* \".learneth/Solidity Beginner Course/7.1 Control Flow - If/Else/ifElse.sol\":494:496  _x */\n      dup3\n        /* \".learneth/Solidity Beginner Course/7.1 Control Flow - If/Else/ifElse.sol\":494:501  _x < 10 */\n      lt\n        /* \".learneth/Solidity Beginner Course/7.1 Control Flow - If/Else/ifElse.sol\":494:509  _x < 10 ? 1 : 2 */\n      tag_21\n      jumpi\n        /* \".learneth/Solidity Beginner Course/7.1 Control Flow - If/Else/ifElse.sol\":508:509  2 */\n      0x02\n        /* \".learneth/Solidity Beginner Course/7.1 Control Flow - If/Else/ifElse.sol\":494:509  _x < 10 ? 1 : 2 */\n      jump(tag_22)\n    tag_21:\n        /* \".learneth/Solidity Beginner Course/7.1 Control Flow - If/Else/ifElse.sol\":504:505  1 */\n      0x01\n        /* \".learneth/Solidity Beginner Course/7.1 Control Flow - If/Else/ifElse.sol\":494:509  _x < 10 ? 1 : 2 */\n    tag_22:\n        /* \".learneth/Solidity Beginner Course/7.1 Control Flow - If/Else/ifElse.sol\":487:509  return _x < 10 ? 1 : 2 */\n      0xff\n      and\n      swap1\n      pop\n        /* \".learneth/Solidity Beginner Course/7.1 Control Flow - If/Else/ifElse.sol\":284:516  function ternary(uint _x) public pure returns (uint) {... */\n      swap2\n      swap1\n      pop\n      jump\t// out\n        /* \"#utility.yul\":7:146   */\n    tag_24:\n        /* \"#utility.yul\":53:58   */\n      0x00\n        /* \"#utility.yul\":91:97   */\n      dup2\n        /* \"#utility.yul\":78:98   */\n      calldataload\n        /* \"#utility.yul\":69:98   */\n      swap1\n      pop\n        /* \"#utility.yul\":107:140   */\n      tag_26\n        /* \"#utility.yul\":134:139   */\n      dup2\n        /* \"#utility.yul\":107:140   */\n      tag_27\n      jump\t// in\n    tag_26:\n        /* \"#utility.yul\":59:146   */\n      swap3\n      swap2\n      pop\n      pop\n      jump\t// out\n        /* \"#utility.yul\":152:414   */\n    tag_7:\n        /* \"#utility.yul\":211:217   */\n      0x00\n        /* \"#utility.yul\":260:262   */\n      0x20\n        /* \"#utility.yul\":248:257   */\n      dup3\n        /* \"#utility.yul\":239:246   */\n      dup5\n        /* \"#utility.yul\":235:258   */\n      sub\n        /* \"#utility.yul\":231:263   */\n      slt\n        /* \"#utility.yul\":228:230   */\n      iszero\n      tag_29\n      jumpi\n        /* \"#utility.yul\":276:277   */\n      0x00\n        /* \"#utility.yul\":273:274   */\n      dup1\n        /* \"#utility.yul\":266:278   */\n      revert\n        /* \"#utility.yul\":228:230   */\n    tag_29:\n        /* \"#utility.yul\":319:320   */\n      0x00\n        /* \"#utility.yul\":344:397   */\n      tag_30\n        /* \"#utility.yul\":389:396   */\n      dup5\n        /* \"#utility.yul\":380:386   */\n      dup3\n        /* \"#utility.yul\":369:378   */\n      dup6\n        /* \"#utility.yul\":365:387   */\n      add\n        /* \"#utility.yul\":344:397   */\n      tag_24\n      jump\t// in\n    tag_30:\n        /* \"#utility.yul\":334:397   */\n      swap2\n      pop\n        /* \"#utility.yul\":290:407   */\n      pop\n        /* \"#utility.yul\":218:414   */\n      swap3\n      swap2\n      pop\n      pop\n      jump\t// out\n        /* \"#utility.yul\":420:538   */\n    tag_31:\n        /* \"#utility.yul\":507:531   */\n      tag_33\n        /* \"#utility.yul\":525:530   */\n      dup2\n        /* \"#utility.yul\":507:531   */\n      tag_34\n      jump\t// in\n    tag_33:\n        /* \"#utility.yul\":502:505   */\n      dup3\n        /* \"#utility.yul\":495:532   */\n      mstore\n        /* \"#utility.yul\":485:538   */\n      pop\n      pop\n      jump\t// out\n        /* \"#utility.yul\":544:766   */\n    tag_10:\n        /* \"#utility.yul\":637:641   */\n      0x00\n        /* \"#utility.yul\":675:677   */\n      0x20\n        /* \"#utility.yul\":664:673   */\n      dup3\n        /* \"#utility.yul\":660:678   */\n      add\n        /* \"#utility.yul\":652:678   */\n      swap1\n      pop\n        /* \"#utility.yul\":688:759   */\n      tag_36\n        /* \"#utility.yul\":756:757   */\n      0x00\n        /* \"#utility.yul\":745:754   */\n      dup4\n        /* \"#utility.yul\":741:758   */\n      add\n        /* \"#utility.yul\":732:738   */\n      dup5\n        /* \"#utility.yul\":688:759   */\n      tag_31\n      jump\t// in\n    tag_36:\n        /* \"#utility.yul\":642:766   */\n      swap3\n      swap2\n      pop\n      pop\n      jump\t// out\n        /* \"#utility.yul\":772:849   */\n    tag_34:\n        /* \"#utility.yul\":809:816   */\n      0x00\n        /* \"#utility.yul\":838:843   */\n      dup2\n        /* \"#utility.yul\":827:843   */\n      swap1\n      pop\n        /* \"#utility.yul\":817:849   */\n      swap2\n      swap1\n      pop\n      jump\t// out\n        /* \"#utility.yul\":855:977   */\n    tag_27:\n        /* \"#utility.yul\":928:952   */\n      tag_39\n        /* \"#utility.yul\":946:951   */\n      dup2\n        /* \"#utility.yul\":928:952   */\n      tag_34\n      jump\t// in\n    tag_39:\n        /* \"#utility.yul\":921:926   */\n      dup2\n        /* \"#utility.yul\":918:953   */\n      eq\n        /* \"#utility.yul\":908:910   */\n      tag_40\n      jumpi\n        /* \"#utility.yul\":967:968   */\n      0x00\n        /* \"#utility.yul\":964:965   */\n      dup1\n        /* \"#utility.yul\":957:969   */\n      revert\n        /* \"#utility.yul\":908:910   */\n    tag_40:\n        /* \"#utility.yul\":898:977   */\n      pop\n      jump\t// out\n\n    auxdata: 0xa26469706673582212208e12c29a278e3b7cbd1e26708bb204c6b84f940a224abce1431ab377e06eb3e164736f6c63430008040033\n}\n",
				"bytecode": {
					"linkReferences": {},
					"object": "608060405234801561001057600080fd5b506101a8806100206000396000f3fe608060405234801561001057600080fd5b50600436106100365760003560e01c80632fbebd381461003b57806355278c5b1461006b575b600080fd5b610055600480360381019061005091906100fe565b61009b565b6040516100629190610136565b60405180910390f35b610085600480360381019061008091906100fe565b6100cb565b6040516100929190610136565b60405180910390f35b6000600a8210156100af57600090506100c6565b60148210156100c157600190506100c6565b600290505b919050565b6000600a82106100dc5760026100df565b60015b60ff169050919050565b6000813590506100f88161015b565b92915050565b60006020828403121561011057600080fd5b600061011e848285016100e9565b91505092915050565b61013081610151565b82525050565b600060208201905061014b6000830184610127565b92915050565b6000819050919050565b61016481610151565b811461016f57600080fd5b5056fea26469706673582212208e12c29a278e3b7cbd1e26708bb204c6b84f940a224abce1431ab377e06eb3e164736f6c63430008040033",
					"opcodes": "PUSH1 0x80 PUSH1 0x40 MSTORE CALLVALUE DUP1 ISZERO PUSH2 0x10 JUMPI PUSH1 0x0 DUP1 REVERT JUMPDEST POP PUSH2 0x1A8 DUP1 PUSH2 0x20 PUSH1 0x0 CODECOPY PUSH1 0x0 RETURN INVALID PUSH1 0x80 PUSH1 0x40 MSTORE CALLVALUE DUP1 ISZERO PUSH2 0x10 JUMPI PUSH1 0x0 DUP1 REVERT JUMPDEST POP PUSH1 0x4 CALLDATASIZE LT PUSH2 0x36 JUMPI PUSH1 0x0 CALLDATALOAD PUSH1 0xE0 SHR DUP1 PUSH4 0x2FBEBD38 EQ PUSH2 0x3B JUMPI DUP1 PUSH4 0x55278C5B EQ PUSH2 0x6B JUMPI JUMPDEST PUSH1 0x0 DUP1 REVERT JUMPDEST PUSH2 0x55 PUSH1 0x4 DUP1 CALLDATASIZE SUB DUP2 ADD SWAP1 PUSH2 0x50 SWAP2 SWAP1 PUSH2 0xFE JUMP JUMPDEST PUSH2 0x9B JUMP JUMPDEST PUSH1 0x40 MLOAD PUSH2 0x62 SWAP2 SWAP1 PUSH2 0x136 JUMP JUMPDEST PUSH1 0x40 MLOAD DUP1 SWAP2 SUB SWAP1 RETURN JUMPDEST PUSH2 0x85 PUSH1 0x4 DUP1 CALLDATASIZE SUB DUP2 ADD SWAP1 PUSH2 0x80 SWAP2 SWAP1 PUSH2 0xFE JUMP JUMPDEST PUSH2 0xCB JUMP JUMPDEST PUSH1 0x40 MLOAD PUSH2 0x92 SWAP2 SWAP1 PUSH2 0x136 JUMP JUMPDEST PUSH1 0x40 MLOAD DUP1 SWAP2 SUB SWAP1 RETURN JUMPDEST PUSH1 0x0 PUSH1 0xA DUP3 LT ISZERO PUSH2 0xAF JUMPI PUSH1 0x0 SWAP1 POP PUSH2 0xC6 JUMP JUMPDEST PUSH1 0x14 DUP3 LT ISZERO PUSH2 0xC1 JUMPI PUSH1 0x1 SWAP1 POP PUSH2 0xC6 JUMP JUMPDEST PUSH1 0x2 SWAP1 POP JUMPDEST SWAP2 SWAP1 POP JUMP JUMPDEST PUSH1 0x0 PUSH1 0xA DUP3 LT PUSH2 0xDC JUMPI PUSH1 0x2 PUSH2 0xDF JUMP JUMPDEST PUSH1 0x1 JUMPDEST PUSH1 0xFF AND SWAP1 POP SWAP2 SWAP1 POP JUMP JUMPDEST PUSH1 0x0 DUP2 CALLDATALOAD SWAP1 POP PUSH2 0xF8 DUP2 PUSH2 0x15B JUMP JUMPDEST SWAP3 SWAP2 POP POP JUMP JUMPDEST PUSH1 0x0 PUSH1 0x20 DUP3 DUP5 SUB SLT ISZERO PUSH2 0x110 JUMPI PUSH1 0x0 DUP1 REVERT JUMPDEST PUSH1 0x0 PUSH2 0x11E DUP5 DUP3 DUP6 ADD PUSH2 0xE9 JUMP JUMPDEST SWAP2 POP POP SWAP3 SWAP2 POP POP JUMP JUMPDEST PUSH2 0x130 DUP2 PUSH2 0x151 JUMP JUMPDEST DUP3 MSTORE POP POP JUMP JUMPDEST PUSH1 0x0 PUSH1 0x20 DUP3 ADD SWAP1 POP PUSH2 0x14B PUSH1 0x0 DUP4 ADD DUP5 PUSH2 0x127 JUMP JUMPDEST SWAP3 SWAP2 POP POP JUMP JUMPDEST PUSH1 0x0 DUP2 SWAP1 POP SWAP2 SWAP1 POP JUMP JUMPDEST PUSH2 0x164 DUP2 PUSH2 0x151 JUMP JUMPDEST DUP2 EQ PUSH2 0x16F JUMPI PUSH1 0x0 DUP1 REVERT JUMPDEST POP JUMP INVALID LOG2 PUSH5 0x6970667358 0x22 SLT KECCAK256 DUP15 SLT 0xC2 SWAP11 0x27 DUP15 EXTCODESIZE PUSH29 0xBD1E26708BB204C6B84F940A224ABCE1431AB377E06EB3E164736F6C63 NUMBER STOP ADDMOD DIV STOP CALLER "
				},
				"gasEstimates": {
					"creation": {
						"codeDepositCost": "84800",
						"executionCost": "135",
						"totalCost": "84935"
					},
					"external": {
						"foo(uint256)": "infinite",
						"ternary(uint256)": "infinite"
					}
				},
				"methodIdentifiers": {
					"foo(uint256)": "2fbebd38",
					"ternary(uint256)": "55278c5b"
				}
			},
			"userdoc": {
				"kind": "user",
				"methods": {},
				"version": 1
			}
		}
	}
}