{
	".learneth/Solidity Beginner Course/10.1 Transactions - Ether and Wei/etherAndWei.sol": {
		"EtherUnits": {
			"abi": [
				{
					"inputs": [],
					"name": "isOneEther",
					"outputs": [
						{
							"internalType": "bool",
							"name": "",
							"type": "bool"
						}
					],
					"stateMutability": "view",
					"type": "function"
				},
				{
					"inputs": [],
					"name": "isOneWei",
					"outputs": [
						{
							"internalType": "bool",
							"name": "",
							"type": "bool"
						}
					],
					"stateMutability": "view",
					"type": "function"
				},
				{
					"inputs": [],
					"name": "oneEther",
					"outputs": [
						{
							"internalType": "uint256",
							"name": "",
							"type": "uint256"
						}
					],
					"stateMutability": "view",
					"type": "function"
				},
				{
					"inputs": [],
					"name": "oneWei",
					"outputs": [
						{
							"internalType": "uint256",
							"name": "",
							"type": "uint256"
						}
					],
					"stateMutability": "view",
					"type": "function"
				}
			],
			"devdoc": {
				"kind": "dev",
				"methods": {},
				"version": 1
			},
			"evm": {
				"assembly": "    /* \".learneth/Solidity Beginner Course/10.1 Transactions - Ether and Wei/etherAndWei.sol\":57:298  contract EtherUnits {... */\n  mstore(0x40, 0x80)\n    /* \".learneth/Solidity Beginner Course/10.1 Transactions - Ether and Wei/etherAndWei.sol\":104:109  1 wei */\n  0x01\n    /* \".learneth/Solidity Beginner Course/10.1 Transactions - Ether and Wei/etherAndWei.sol\":83:109  uint public oneWei = 1 wei */\n  0x00\n  sstore\n    /* \".learneth/Solidity Beginner Course/10.1 Transactions - Ether and Wei/etherAndWei.sol\":174:175  1 */\n  0x01\n    /* \".learneth/Solidity Beginner Course/10.1 Transactions - Ether and Wei/etherAndWei.sol\":165:170  1 wei */\n  dup1\n    /* \".learneth/Solidity Beginner Course/10.1 Transactions - Ether and Wei/etherAndWei.sol\":165:175  1 wei == 1 */\n  eq\n    /* \".learneth/Solidity Beginner Course/10.1 Transactions - Ether and Wei/etherAndWei.sol\":142:175  bool public isOneWei = 1 wei == 1 */\n  0x01\n  exp(0x0100, 0x00)\n  dup2\n  sload\n  dup2\n  0xff\n  mul\n  not\n  and\n  swap1\n  dup4\n  iszero\n  iszero\n  mul\n  or\n  swap1\n  sstore\n  pop\n    /* \".learneth/Solidity Beginner Course/10.1 Transactions - Ether and Wei/etherAndWei.sol\":205:212  1 ether */\n  0x0de0b6b3a7640000\n    /* \".learneth/Solidity Beginner Course/10.1 Transactions - Ether and Wei/etherAndWei.sol\":182:212  uint public oneEther = 1 ether */\n  0x02\n  sstore\n    /* \".learneth/Solidity Beginner Course/10.1 Transactions - Ether and Wei/etherAndWei.sol\":291:295  1e18 */\n  0x0de0b6b3a7640000\n    /* \".learneth/Solidity Beginner Course/10.1 Transactions - Ether and Wei/etherAndWei.sol\":280:287  1 ether */\n  dup1\n    /* \".learneth/Solidity Beginner Course/10.1 Transactions - Ether and Wei/etherAndWei.sol\":280:295  1 ether == 1e18 */\n  eq\n    /* \".learneth/Solidity Beginner Course/10.1 Transactions - Ether and Wei/etherAndWei.sol\":255:295  bool public isOneEther = 1 ether == 1e18 */\n  0x03\n  exp(0x0100, 0x00)\n  dup2\n  sload\n  dup2\n  0xff\n  mul\n  not\n  and\n  swap1\n  dup4\n  iszero\n  iszero\n  mul\n  or\n  swap1\n  sstore\n  pop\n    /* \".learneth/Solidity Beginner Course/10.1 Transactions - Ether and Wei/etherAndWei.sol\":57:298  contract EtherUnits {... */\n  callvalue\n  dup1\n  iszero\n  tag_1\n  jumpi\n  0x00\n  dup1\n  revert\ntag_1:\n  pop\n  dataSize(sub_0)\n  dup1\n  dataOffset(sub_0)\n  0x00\n  codecopy\n  0x00\n  return\nstop\n\nsub_0: assembly {\n        /* \".learneth/Solidity Beginner Course/10.1 Transactions - Ether and Wei/etherAndWei.sol\":57:298  contract EtherUnits {... */\n      mstore(0x40, 0x80)\n      callvalue\n      dup1\n      iszero\n      tag_1\n      jumpi\n      0x00\n      dup1\n      revert\n    tag_1:\n      pop\n      jumpi(tag_2, lt(calldatasize, 0x04))\n      shr(0xe0, calldataload(0x00))\n      dup1\n      0x28dc556f\n      eq\n      tag_3\n      jumpi\n      dup1\n      0x4fb2e0be\n      eq\n      tag_4\n      jumpi\n      dup1\n      0xcf0f5d29\n      eq\n      tag_5\n      jumpi\n      dup1\n      0xd297a89f\n      eq\n      tag_6\n      jumpi\n    tag_2:\n      0x00\n      dup1\n      revert\n        /* \".learneth/Solidity Beginner Course/10.1 Transactions - Ether and Wei/etherAndWei.sol\":142:175  bool public isOneWei = 1 wei == 1 */\n    tag_3:\n      tag_7\n      tag_8\n      jump\t// in\n    tag_7:\n      mload(0x40)\n      tag_9\n      swap2\n      swap1\n      tag_10\n      jump\t// in\n    tag_9:\n      mload(0x40)\n      dup1\n      swap2\n      sub\n      swap1\n      return\n        /* \".learneth/Solidity Beginner Course/10.1 Transactions - Ether and Wei/etherAndWei.sol\":83:109  uint public oneWei = 1 wei */\n    tag_4:\n      tag_11\n      tag_12\n      jump\t// in\n    tag_11:\n      mload(0x40)\n      tag_13\n      swap2\n      swap1\n      tag_14\n      jump\t// in\n    tag_13:\n      mload(0x40)\n      dup1\n      swap2\n      sub\n      swap1\n      return\n        /* \".learneth/Solidity Beginner Course/10.1 Transactions - Ether and Wei/etherAndWei.sol\":255:295  bool public isOneEther = 1 ether == 1e18 */\n    tag_5:\n      tag_15\n      tag_16\n      jump\t// in\n    tag_15:\n      mload(0x40)\n      tag_17\n      swap2\n      swap1\n      tag_10\n      jump\t// in\n    tag_17:\n      mload(0x40)\n      dup1\n      swap2\n      sub\n      swap1\n      return\n        /* \".learneth/Solidity Beginner Course/10.1 Transactions - Ether and Wei/etherAndWei.sol\":182:212  uint public oneEther = 1 ether */\n    tag_6:\n      tag_18\n      tag_19\n      jump\t// in\n    tag_18:\n      mload(0x40)\n      tag_20\n      swap2\n      swap1\n      tag_14\n      jump\t// in\n    tag_20:\n      mload(0x40)\n      dup1\n      swap2\n      sub\n      swap1\n      return\n        /* \".learneth/Solidity Beginner Course/10.1 Transactions - Ether and Wei/etherAndWei.sol\":142:175  bool public isOneWei = 1 wei == 1 */\n    tag_8:\n      0x01\n      0x00\n      swap1\n      sload\n      swap1\n      0x0100\n      exp\n      swap1\n      div\n      0xff\n      and\n      dup2\n      jump\t// out\n        /* \".learneth/Solidity Beginner Course/10.1 Transactions - Ether and Wei/etherAndWei.sol\":83:109  uint public oneWei = 1 wei */\n    tag_12:\n      sload(0x00)\n      dup2\n      jump\t// out\n        /* \".learneth/Solidity Beginner Course/10.1 Transactions - Ether and Wei/etherAndWei.sol\":255:295  bool public isOneEther = 1 ether == 1e18 */\n    tag_16:\n      0x03\n      0x00\n      swap1\n      sload\n      swap1\n      0x0100\n      exp\n      swap1\n      div\n      0xff\n      and\n      dup2\n      jump\t// out\n        /* \".learneth/Solidity Beginner Course/10.1 Transactions - Ether and Wei/etherAndWei.sol\":182:212  uint public oneEther = 1 ether */\n    tag_19:\n      sload(0x02)\n      dup2\n      jump\t// out\n        /* \"#utility.yul\":7:116   */\n    tag_22:\n        /* \"#utility.yul\":88:109   */\n      tag_24\n        /* \"#utility.yul\":103:108   */\n      dup2\n        /* \"#utility.yul\":88:109   */\n      tag_25\n      jump\t// in\n    tag_24:\n        /* \"#utility.yul\":83:86   */\n      dup3\n        /* \"#utility.yul\":76:110   */\n      mstore\n        /* \"#utility.yul\":66:116   */\n      pop\n      pop\n      jump\t// out\n        /* \"#utility.yul\":122:240   */\n    tag_26:\n        /* \"#utility.yul\":209:233   */\n      tag_28\n        /* \"#utility.yul\":227:232   */\n      dup2\n        /* \"#utility.yul\":209:233   */\n      tag_29\n      jump\t// in\n    tag_28:\n        /* \"#utility.yul\":204:207   */\n      dup3\n        /* \"#utility.yul\":197:234   */\n      mstore\n        /* \"#utility.yul\":187:240   */\n      pop\n      pop\n      jump\t// out\n        /* \"#utility.yul\":246:456   */\n    tag_10:\n        /* \"#utility.yul\":333:337   */\n      0x00\n        /* \"#utility.yul\":371:373   */\n      0x20\n        /* \"#utility.yul\":360:369   */\n      dup3\n        /* \"#utility.yul\":356:374   */\n      add\n        /* \"#utility.yul\":348:374   */\n      swap1\n      pop\n        /* \"#utility.yul\":384:449   */\n      tag_31\n        /* \"#utility.yul\":446:447   */\n      0x00\n        /* \"#utility.yul\":435:444   */\n      dup4\n        /* \"#utility.yul\":431:448   */\n      add\n        /* \"#utility.yul\":422:428   */\n      dup5\n        /* \"#utility.yul\":384:449   */\n      tag_22\n      jump\t// in\n    tag_31:\n        /* \"#utility.yul\":338:456   */\n      swap3\n      swap2\n      pop\n      pop\n      jump\t// out\n        /* \"#utility.yul\":462:684   */\n    tag_14:\n        /* \"#utility.yul\":555:559   */\n      0x00\n        /* \"#utility.yul\":593:595   */\n      0x20\n        /* \"#utility.yul\":582:591   */\n      dup3\n        /* \"#utility.yul\":578:596   */\n      add\n        /* \"#utility.yul\":570:596   */\n      swap1\n      pop\n        /* \"#utility.yul\":606:677   */\n      tag_33\n        /* \"#utility.yul\":674:675   */\n      0x00\n        /* \"#utility.yul\":663:672   */\n      dup4\n        /* \"#utility.yul\":659:676   */\n      add\n        /* \"#utility.yul\":650:656   */\n      dup5\n        /* \"#utility.yul\":606:677   */\n      tag_26\n      jump\t// in\n    tag_33:\n        /* \"#utility.yul\":560:684   */\n      swap3\n      swap2\n      pop\n      pop\n      jump\t// out\n        /* \"#utility.yul\":690:780   */\n    tag_25:\n        /* \"#utility.yul\":724:731   */\n      0x00\n        /* \"#utility.yul\":767:772   */\n      dup2\n        /* \"#utility.yul\":760:773   */\n      iszero\n        /* \"#utility.yul\":753:774   */\n      iszero\n        /* \"#utility.yul\":742:774   */\n      swap1\n      pop\n        /* \"#utility.yul\":732:780   */\n      swap2\n      swap1\n      pop\n      jump\t// out\n        /* \"#utility.yul\":786:863   */\n    tag_29:\n        /* \"#utility.yul\":823:830   */\n      0x00\n        /* \"#utility.yul\":852:857   */\n      dup2\n        /* \"#utility.yul\":841:857   */\n      swap1\n      pop\n        /* \"#utility.yul\":831:863   */\n      swap2\n      swap1\n      pop\n      jump\t// out\n\n    auxdata: 0xa2646970667358221220d8ea63a95e92e13653f6cbd1369505d848e7ad53a2abf90529782d7c1594b80564736f6c63430008040033\n}\n",
				"bytecode": {
					"linkReferences": {},
					"object": "6080604052600160005560018014600160006101000a81548160ff021916908315150217905550670de0b6b3a7640000600255670de0b6b3a76400008014600360006101000a81548160ff02191690831515021790555034801561006257600080fd5b5061019b806100726000396000f3fe608060405234801561001057600080fd5b506004361061004c5760003560e01c806328dc556f146100515780634fb2e0be1461006f578063cf0f5d291461008d578063d297a89f146100ab575b600080fd5b6100596100c9565b6040516100669190610119565b60405180910390f35b6100776100dc565b6040516100849190610134565b60405180910390f35b6100956100e2565b6040516100a29190610119565b60405180910390f35b6100b36100f5565b6040516100c09190610134565b60405180910390f35b600160009054906101000a900460ff1681565b60005481565b600360009054906101000a900460ff1681565b60025481565b6101048161014f565b82525050565b6101138161015b565b82525050565b600060208201905061012e60008301846100fb565b92915050565b6000602082019050610149600083018461010a565b92915050565b60008115159050919050565b600081905091905056fea2646970667358221220d8ea63a95e92e13653f6cbd1369505d848e7ad53a2abf90529782d7c1594b80564736f6c63430008040033",
					"opcodes": "PUSH1 0x80 PUSH1 0x40 MSTORE PUSH1 0x1 PUSH1 0x0 SSTORE PUSH1 0x1 DUP1 EQ PUSH1 0x1 PUSH1 0x0 PUSH2 0x100 EXP DUP2 SLOAD DUP2 PUSH1 0xFF MUL NOT AND SWAP1 DUP4 ISZERO ISZERO MUL OR SWAP1 SSTORE POP PUSH8 0xDE0B6B3A7640000 PUSH1 0x2 SSTORE PUSH8 0xDE0B6B3A7640000 DUP1 EQ PUSH1 0x3 PUSH1 0x0 PUSH2 0x100 EXP DUP2 SLOAD DUP2 PUSH1 0xFF MUL NOT AND SWAP1 DUP4 ISZERO ISZERO MUL OR SWAP1 SSTORE POP CALLVALUE DUP1 ISZERO PUSH2 0x62 JUMPI PUSH1 0x0 DUP1 REVERT JUMPDEST POP PUSH2 0x19B DUP1 PUSH2 0x72 PUSH1 0x0 CODECOPY PUSH1 0x0 RETURN INVALID PUSH1 0x80 PUSH1 0x40 MSTORE CALLVALUE DUP1 ISZERO PUSH2 0x10 JUMPI PUSH1 0x0 DUP1 REVERT JUMPDEST POP PUSH1 0x4 CALLDATASIZE LT PUSH2 0x4C JUMPI PUSH1 0x0 CALLDATALOAD PUSH1 0xE0 SHR DUP1 PUSH4 0x28DC556F EQ PUSH2 0x51 JUMPI DUP1 PUSH4 0x4FB2E0BE EQ PUSH2 0x6F JUMPI DUP1 PUSH4 0xCF0F5D29 EQ PUSH2 0x8D JUMPI DUP1 PUSH4 0xD297A89F EQ PUSH2 0xAB JUMPI JUMPDEST PUSH1 0x0 DUP1 REVERT JUMPDEST PUSH2 0x59 PUSH2 0xC9 JUMP JUMPDEST PUSH1 0x40 MLOAD PUSH2 0x66 SWAP2 SWAP1 PUSH2 0x119 JUMP JUMPDEST PUSH1 0x40 MLOAD DUP1 SWAP2 SUB SWAP1 RETURN JUMPDEST PUSH2 0x77 PUSH2 0xDC JUMP JUMPDEST PUSH1 0x40 MLOAD PUSH2 0x84 SWAP2 SWAP1 PUSH2 0x134 JUMP JUMPDEST PUSH1 0x40 MLOAD DUP1 SWAP2 SUB SWAP1 RETURN JUMPDEST PUSH2 0x95 PUSH2 0xE2 JUMP JUMPDEST PUSH1 0x40 MLOAD PUSH2 0xA2 SWAP2 SWAP1 PUSH2 0x119 JUMP JUMPDEST PUSH1 0x40 MLOAD DUP1 SWAP2 SUB SWAP1 RETURN JUMPDEST PUSH2 0xB3 PUSH2 0xF5 JUMP JUMPDEST PUSH1 0x40 MLOAD PUSH2 0xC0 SWAP2 SWAP1 PUSH2 0x134 JUMP JUMPDEST PUSH1 0x40 MLOAD DUP1 SWAP2 SUB SWAP1 RETURN JUMPDEST PUSH1 0x1 PUSH1 0x0 SWAP1 SLOAD SWAP1 PUSH2 0x100 EXP SWAP1 DIV PUSH1 0xFF AND DUP2 JUMP JUMPDEST PUSH1 0x0 SLOAD DUP2 JUMP JUMPDEST PUSH1 0x3 PUSH1 0x0 SWAP1 SLOAD SWAP1 PUSH2 0x100 EXP SWAP1 DIV PUSH1 0xFF AND DUP2 JUMP JUMPDEST PUSH1 0x2 SLOAD DUP2 JUMP JUMPDEST PUSH2 0x104 DUP2 PUSH2 0x14F JUMP JUMPDEST DUP3 MSTORE POP POP JUMP JUMPDEST PUSH2 0x113 DUP2 PUSH2 0x15B JUMP JUMPDEST DUP3 MSTORE POP POP JUMP JUMPDEST PUSH1 0x0 PUSH1 0x20 DUP3 ADD SWAP1 POP PUSH2 0x12E PUSH1 0x0 DUP4 ADD DUP5 PUSH2 0xFB JUMP JUMPDEST SWAP3 SWAP2 POP POP JUMP JUMPDEST PUSH1 0x0 PUSH1 0x20 DUP3 ADD SWAP1 POP PUSH2 0x149 PUSH1 0x0 DUP4 ADD DUP5 PUSH2 0x10A JUMP JUMPDEST SWAP3 SWAP2 POP POP JUMP JUMPDEST PUSH1 0x0 DUP2 ISZERO ISZERO SWAP1 POP SWAP2 SWAP1 POP JUMP JUMPDEST PUSH1 0x0 DUP2 SWAP1 POP SWAP2 SWAP1 POP JUMP INVALID LOG2 PUSH5 0x6970667358 0x22 SLT KECCAK256 0xD8 0xEA PUSH4 0xA95E92E1 CALLDATASIZE MSTORE8 0xF6 0xCB 0xD1 CALLDATASIZE SWAP6 SDIV 0xD8 0x48 0xE7 0xAD MSTORE8 LOG2 0xAB 0xF9 SDIV 0x29 PUSH25 0x2D7C1594B80564736F6C634300080400330000000000000000 "
				},
				"gasEstimates": {
					"creation": {
						"codeDepositCost": "82200",
						"executionCost": "81887",
						"totalCost": "164087"
					},
					"external": {
						"isOneEther()": "1193",
						"isOneWei()": "1149",
						"oneEther()": "1173",
						"oneWei()": "1129"
					}
				},
				"methodIdentifiers": {
					"isOneEther()": "cf0f5d29",
					"isOneWei()": "28dc556f",
					"oneEther()": "d297a89f",
					"oneWei()": "4fb2e0be"
				}
			},
			"userdoc": {
				"kind": "user",
				"methods": {},
				"version": 1
			}
		}
	}
}