{
	".learneth/Solidity Beginner Course/6. Visibility/visibility_answer.sol": {
		"Child": {
			"abi": [
				{
					"inputs": [],
					"name": "externalFunc",
					"outputs": [
						{
							"internalType": "string",
							"name": "",
							"type": "string"
						}
					],
					"stateMutability": "pure",
					"type": "function"
				},
				{
					"inputs": [],
					"name": "publicFunc",
					"outputs": [
						{
							"internalType": "string",
							"name": "",
							"type": "string"
						}
					],
					"stateMutability": "pure",
					"type": "function"
				},
				{
					"inputs": [],
					"name": "publicVar",
					"outputs": [
						{
							"internalType": "string",
							"name": "",
							"type": "string"
						}
					],
					"stateMutability": "view",
					"type": "function"
				},
				{
					"inputs": [],
					"name": "testInternalFunc",
					"outputs": [
						{
							"internalType": "string",
							"name": "",
							"type": "string"
						}
					],
					"stateMutability": "pure",
					"type": "function"
				},
				{
					"inputs": [],
					"name": "testInternalVar",
					"outputs": [
						{
							"internalType": "string",
							"name": "",
							"type": "string"
						},
						{
							"internalType": "string",
							"name": "",
							"type": "string"
						}
					],
					"stateMutability": "view",
					"type": "function"
				},
				{
					"inputs": [],
					"name": "testPrivateFunc",
					"outputs": [
						{
							"internalType": "string",
							"name": "",
							"type": "string"
						}
					],
					"stateMutability": "pure",
					"type": "function"
				}
			],
			"devdoc": {
				"kind": "dev",
				"methods": {},
				"version": 1
			},
			"evm": {
				"assembly": "    /* \".learneth/Solidity Beginner Course/6. Visibility/visibility_answer.sol\":1810:2362  contract Child is Base {... */\n  mstore(0x40, 0x80)\n    /* \".learneth/Solidity Beginner Course/6. Visibility/visibility_answer.sol\":1515:1564  string private privateVar = \"my private variable\" */\n  mload(0x40)\n  dup1\n  0x40\n  add\n  0x40\n  mstore\n  dup1\n  0x13\n  dup2\n  mstore\n  0x20\n  add\n  0x6d792070726976617465207661726961626c6500000000000000000000000000\n  dup2\n  mstore\n  pop\n  0x00\n  swap1\n  dup1\n  mload\n  swap1\n  0x20\n  add\n  swap1\n  tag_1\n  swap3\n  swap2\n  swap1\n  tag_2\n  jump\t// in\ntag_1:\n  pop\n    /* \".learneth/Solidity Beginner Course/6. Visibility/visibility_answer.sol\":1570:1622  string internal internalVar = \"my internal variable\" */\n  mload(0x40)\n  dup1\n  0x40\n  add\n  0x40\n  mstore\n  dup1\n  0x14\n  dup2\n  mstore\n  0x20\n  add\n  0x6d7920696e7465726e616c207661726961626c65000000000000000000000000\n  dup2\n  mstore\n  pop\n  0x01\n  swap1\n  dup1\n  mload\n  swap1\n  0x20\n  add\n  swap1\n  tag_3\n  swap3\n  swap2\n  swap1\n  tag_2\n  jump\t// in\ntag_3:\n  pop\n    /* \".learneth/Solidity Beginner Course/6. Visibility/visibility_answer.sol\":1628:1674  string public publicVar = \"my public variable\" */\n  mload(0x40)\n  dup1\n  0x40\n  add\n  0x40\n  mstore\n  dup1\n  0x12\n  dup2\n  mstore\n  0x20\n  add\n  0x6d79207075626c6963207661726961626c650000000000000000000000000000\n  dup2\n  mstore\n  pop\n  0x02\n  swap1\n  dup1\n  mload\n  swap1\n  0x20\n  add\n  swap1\n  tag_4\n  swap3\n  swap2\n  swap1\n  tag_2\n  jump\t// in\ntag_4:\n  pop\n    /* \".learneth/Solidity Beginner Course/6. Visibility/visibility_answer.sol\":1810:2362  contract Child is Base {... */\n  callvalue\n  dup1\n  iszero\n  tag_5\n  jumpi\n  0x00\n  dup1\n  revert\ntag_5:\n  pop\n  jump(tag_6)\ntag_2:\n  dup3\n  dup1\n  sload\n  tag_7\n  swap1\n  tag_8\n  jump\t// in\ntag_7:\n  swap1\n  0x00\n  mstore\n  keccak256(0x00, 0x20)\n  swap1\n  0x1f\n  add\n  0x20\n  swap1\n  div\n  dup2\n  add\n  swap3\n  dup3\n  tag_10\n  jumpi\n  0x00\n  dup6\n  sstore\n  jump(tag_9)\ntag_10:\n  dup3\n  0x1f\n  lt\n  tag_11\n  jumpi\n  dup1\n  mload\n  not(0xff)\n  and\n  dup4\n  dup1\n  add\n  or\n  dup6\n  sstore\n  jump(tag_9)\ntag_11:\n  dup3\n  dup1\n  add\n  0x01\n  add\n  dup6\n  sstore\n  dup3\n  iszero\n  tag_9\n  jumpi\n  swap2\n  dup3\n  add\ntag_12:\n  dup3\n  dup2\n  gt\n  iszero\n  tag_13\n  jumpi\n  dup3\n  mload\n  dup3\n  sstore\n  swap2\n  0x20\n  add\n  swap2\n  swap1\n  0x01\n  add\n  swap1\n  jump(tag_12)\ntag_13:\ntag_9:\n  pop\n  swap1\n  pop\n  tag_14\n  swap2\n  swap1\n  tag_15\n  jump\t// in\ntag_14:\n  pop\n  swap1\n  jump\t// out\ntag_15:\ntag_16:\n  dup1\n  dup3\n  gt\n  iszero\n  tag_17\n  jumpi\n  0x00\n  dup2\n  0x00\n  swap1\n  sstore\n  pop\n  0x01\n  add\n  jump(tag_16)\ntag_17:\n  pop\n  swap1\n  jump\t// out\n    /* \"#utility.yul\":7:327   */\ntag_8:\n    /* \"#utility.yul\":51:57   */\n  0x00\n    /* \"#utility.yul\":88:89   */\n  0x02\n    /* \"#utility.yul\":82:86   */\n  dup3\n    /* \"#utility.yul\":78:90   */\n  div\n    /* \"#utility.yul\":68:90   */\n  swap1\n  pop\n    /* \"#utility.yul\":135:136   */\n  0x01\n    /* \"#utility.yul\":129:133   */\n  dup3\n    /* \"#utility.yul\":125:137   */\n  and\n    /* \"#utility.yul\":156:174   */\n  dup1\n    /* \"#utility.yul\":146:148   */\n  tag_20\n  jumpi\n    /* \"#utility.yul\":212:216   */\n  0x7f\n    /* \"#utility.yul\":204:210   */\n  dup3\n    /* \"#utility.yul\":200:217   */\n  and\n    /* \"#utility.yul\":190:217   */\n  swap2\n  pop\n    /* \"#utility.yul\":146:148   */\ntag_20:\n    /* \"#utility.yul\":274:276   */\n  0x20\n    /* \"#utility.yul\":266:272   */\n  dup3\n    /* \"#utility.yul\":263:277   */\n  lt\n    /* \"#utility.yul\":243:261   */\n  dup2\n    /* \"#utility.yul\":240:278   */\n  eq\n    /* \"#utility.yul\":237:239   */\n  iszero\n  tag_21\n  jumpi\n    /* \"#utility.yul\":293:311   */\n  tag_22\n  tag_23\n  jump\t// in\ntag_22:\n    /* \"#utility.yul\":237:239   */\ntag_21:\n    /* \"#utility.yul\":58:327   */\n  pop\n  swap2\n  swap1\n  pop\n  jump\t// out\n    /* \"#utility.yul\":333:513   */\ntag_23:\n    /* \"#utility.yul\":381:458   */\n  0x4e487b7100000000000000000000000000000000000000000000000000000000\n    /* \"#utility.yul\":378:379   */\n  0x00\n    /* \"#utility.yul\":371:459   */\n  mstore\n    /* \"#utility.yul\":478:482   */\n  0x22\n    /* \"#utility.yul\":475:476   */\n  0x04\n    /* \"#utility.yul\":468:483   */\n  mstore\n    /* \"#utility.yul\":502:506   */\n  0x24\n    /* \"#utility.yul\":499:500   */\n  0x00\n    /* \"#utility.yul\":492:507   */\n  revert\n    /* \".learneth/Solidity Beginner Course/6. Visibility/visibility_answer.sol\":1810:2362  contract Child is Base {... */\ntag_6:\n  dataSize(sub_0)\n  dup1\n  dataOffset(sub_0)\n  0x00\n  codecopy\n  0x00\n  return\nstop\n\nsub_0: assembly {\n        /* \".learneth/Solidity Beginner Course/6. Visibility/visibility_answer.sol\":1810:2362  contract Child is Base {... */\n      mstore(0x40, 0x80)\n      callvalue\n      dup1\n      iszero\n      tag_1\n      jumpi\n      0x00\n      dup1\n      revert\n    tag_1:\n      pop\n      jumpi(tag_2, lt(calldatasize, 0x04))\n      shr(0xe0, calldataload(0x00))\n      dup1\n      0x0eb13f87\n      eq\n      tag_3\n      jumpi\n      dup1\n      0x1151fad8\n      eq\n      tag_4\n      jumpi\n      dup1\n      0x42b148aa\n      eq\n      tag_5\n      jumpi\n      dup1\n      0x4b73383f\n      eq\n      tag_6\n      jumpi\n      dup1\n      0xd4a78683\n      eq\n      tag_7\n      jumpi\n      dup1\n      0xe8e46c41\n      eq\n      tag_8\n      jumpi\n    tag_2:\n      0x00\n      dup1\n      revert\n        /* \".learneth/Solidity Beginner Course/6. Visibility/visibility_answer.sol\":336:436  function testPrivateFunc() public pure returns (string memory) {... */\n    tag_3:\n      tag_9\n      tag_10\n      jump\t// in\n    tag_9:\n      mload(0x40)\n      tag_11\n      swap2\n      swap1\n      tag_12\n      jump\t// in\n    tag_11:\n      mload(0x40)\n      dup1\n      swap2\n      sub\n      swap1\n      return\n        /* \".learneth/Solidity Beginner Course/6. Visibility/visibility_answer.sol\":1628:1674  string public publicVar = \"my public variable\" */\n    tag_4:\n      tag_13\n      tag_14\n      jump\t// in\n    tag_13:\n      mload(0x40)\n      tag_15\n      swap2\n      swap1\n      tag_12\n      jump\t// in\n    tag_15:\n      mload(0x40)\n      dup1\n      swap2\n      sub\n      swap1\n      return\n        /* \".learneth/Solidity Beginner Course/6. Visibility/visibility_answer.sol\":1158:1270  function externalFunc() external pure returns (string memory) {... */\n    tag_5:\n      tag_16\n      tag_17\n      jump\t// in\n    tag_16:\n      mload(0x40)\n      tag_18\n      swap2\n      swap1\n      tag_12\n      jump\t// in\n    tag_18:\n      mload(0x40)\n      dup1\n      swap2\n      sub\n      swap1\n      return\n        /* \".learneth/Solidity Beginner Course/6. Visibility/visibility_answer.sol\":960:1066  function publicFunc() public pure returns (string memory) {... */\n    tag_6:\n      tag_19\n      tag_20\n      jump\t// in\n    tag_19:\n      mload(0x40)\n      tag_21\n      swap2\n      swap1\n      tag_12\n      jump\t// in\n    tag_21:\n      mload(0x40)\n      dup1\n      swap2\n      sub\n      swap1\n      return\n        /* \".learneth/Solidity Beginner Course/6. Visibility/visibility_answer.sol\":2234:2360  function testInternalVar() public view returns (string memory, string memory) {... */\n    tag_7:\n      tag_22\n      tag_23\n      jump\t// in\n    tag_22:\n      mload(0x40)\n      tag_24\n      swap3\n      swap2\n      swap1\n      tag_25\n      jump\t// in\n    tag_24:\n      mload(0x40)\n      dup1\n      swap2\n      sub\n      swap1\n      return\n        /* \".learneth/Solidity Beginner Course/6. Visibility/visibility_answer.sol\":2113:2224  function testInternalFunc() public pure override returns (string memory) {... */\n    tag_8:\n      tag_26\n      tag_27\n      jump\t// in\n    tag_26:\n      mload(0x40)\n      tag_28\n      swap2\n      swap1\n      tag_12\n      jump\t// in\n    tag_28:\n      mload(0x40)\n      dup1\n      swap2\n      sub\n      swap1\n      return\n        /* \".learneth/Solidity Beginner Course/6. Visibility/visibility_answer.sol\":336:436  function testPrivateFunc() public pure returns (string memory) {... */\n    tag_10:\n        /* \".learneth/Solidity Beginner Course/6. Visibility/visibility_answer.sol\":384:397  string memory */\n      0x60\n        /* \".learneth/Solidity Beginner Course/6. Visibility/visibility_answer.sol\":416:429  privateFunc() */\n      tag_30\n        /* \".learneth/Solidity Beginner Course/6. Visibility/visibility_answer.sol\":416:427  privateFunc */\n      tag_31\n        /* \".learneth/Solidity Beginner Course/6. Visibility/visibility_answer.sol\":416:429  privateFunc() */\n      jump\t// in\n    tag_30:\n        /* \".learneth/Solidity Beginner Course/6. Visibility/visibility_answer.sol\":409:429  return privateFunc() */\n      swap1\n      pop\n        /* \".learneth/Solidity Beginner Course/6. Visibility/visibility_answer.sol\":336:436  function testPrivateFunc() public pure returns (string memory) {... */\n      swap1\n      jump\t// out\n        /* \".learneth/Solidity Beginner Course/6. Visibility/visibility_answer.sol\":1628:1674  string public publicVar = \"my public variable\" */\n    tag_14:\n      0x02\n      dup1\n      sload\n      tag_32\n      swap1\n      tag_33\n      jump\t// in\n    tag_32:\n      dup1\n      0x1f\n      add\n      0x20\n      dup1\n      swap2\n      div\n      mul\n      0x20\n      add\n      mload(0x40)\n      swap1\n      dup2\n      add\n      0x40\n      mstore\n      dup1\n      swap3\n      swap2\n      swap1\n      dup2\n      dup2\n      mstore\n      0x20\n      add\n      dup3\n      dup1\n      sload\n      tag_34\n      swap1\n      tag_33\n      jump\t// in\n    tag_34:\n      dup1\n      iszero\n      tag_35\n      jumpi\n      dup1\n      0x1f\n      lt\n      tag_36\n      jumpi\n      0x0100\n      dup1\n      dup4\n      sload\n      div\n      mul\n      dup4\n      mstore\n      swap2\n      0x20\n      add\n      swap2\n      jump(tag_35)\n    tag_36:\n      dup3\n      add\n      swap2\n      swap1\n      0x00\n      mstore\n      keccak256(0x00, 0x20)\n      swap1\n    tag_37:\n      dup2\n      sload\n      dup2\n      mstore\n      swap1\n      0x01\n      add\n      swap1\n      0x20\n      add\n      dup1\n      dup4\n      gt\n      tag_37\n      jumpi\n      dup3\n      swap1\n      sub\n      0x1f\n      and\n      dup3\n      add\n      swap2\n    tag_35:\n      pop\n      pop\n      pop\n      pop\n      pop\n      dup2\n      jump\t// out\n        /* \".learneth/Solidity Beginner Course/6. Visibility/visibility_answer.sol\":1158:1270  function externalFunc() external pure returns (string memory) {... */\n    tag_17:\n        /* \".learneth/Solidity Beginner Course/6. Visibility/visibility_answer.sol\":1205:1218  string memory */\n      0x60\n        /* \".learneth/Solidity Beginner Course/6. Visibility/visibility_answer.sol\":1230:1263  return \"external function called\" */\n      mload(0x40)\n      dup1\n      0x40\n      add\n      0x40\n      mstore\n      dup1\n      0x18\n      dup2\n      mstore\n      0x20\n      add\n      0x65787465726e616c2066756e6374696f6e2063616c6c65640000000000000000\n      dup2\n      mstore\n      pop\n      swap1\n      pop\n        /* \".learneth/Solidity Beginner Course/6. Visibility/visibility_answer.sol\":1158:1270  function externalFunc() external pure returns (string memory) {... */\n      swap1\n      jump\t// out\n        /* \".learneth/Solidity Beginner Course/6. Visibility/visibility_answer.sol\":960:1066  function publicFunc() public pure returns (string memory) {... */\n    tag_20:\n        /* \".learneth/Solidity Beginner Course/6. Visibility/visibility_answer.sol\":1003:1016  string memory */\n      0x60\n        /* \".learneth/Solidity Beginner Course/6. Visibility/visibility_answer.sol\":1028:1059  return \"public function called\" */\n      mload(0x40)\n      dup1\n      0x40\n      add\n      0x40\n      mstore\n      dup1\n      0x16\n      dup2\n      mstore\n      0x20\n      add\n      0x7075626c69632066756e6374696f6e2063616c6c656400000000000000000000\n      dup2\n      mstore\n      pop\n      swap1\n      pop\n        /* \".learneth/Solidity Beginner Course/6. Visibility/visibility_answer.sol\":960:1066  function publicFunc() public pure returns (string memory) {... */\n      swap1\n      jump\t// out\n        /* \".learneth/Solidity Beginner Course/6. Visibility/visibility_answer.sol\":2234:2360  function testInternalVar() public view returns (string memory, string memory) {... */\n    tag_23:\n        /* \".learneth/Solidity Beginner Course/6. Visibility/visibility_answer.sol\":2282:2295  string memory */\n      0x60\n        /* \".learneth/Solidity Beginner Course/6. Visibility/visibility_answer.sol\":2297:2310  string memory */\n      dup1\n        /* \".learneth/Solidity Beginner Course/6. Visibility/visibility_answer.sol\":2330:2341  internalVar */\n      0x01\n        /* \".learneth/Solidity Beginner Course/6. Visibility/visibility_answer.sol\":2343:2352  publicVar */\n      0x02\n        /* \".learneth/Solidity Beginner Course/6. Visibility/visibility_answer.sol\":2322:2353  return (internalVar, publicVar) */\n      dup2\n      dup1\n      sload\n      tag_41\n      swap1\n      tag_33\n      jump\t// in\n    tag_41:\n      dup1\n      0x1f\n      add\n      0x20\n      dup1\n      swap2\n      div\n      mul\n      0x20\n      add\n      mload(0x40)\n      swap1\n      dup2\n      add\n      0x40\n      mstore\n      dup1\n      swap3\n      swap2\n      swap1\n      dup2\n      dup2\n      mstore\n      0x20\n      add\n      dup3\n      dup1\n      sload\n      tag_42\n      swap1\n      tag_33\n      jump\t// in\n    tag_42:\n      dup1\n      iszero\n      tag_43\n      jumpi\n      dup1\n      0x1f\n      lt\n      tag_44\n      jumpi\n      0x0100\n      dup1\n      dup4\n      sload\n      div\n      mul\n      dup4\n      mstore\n      swap2\n      0x20\n      add\n      swap2\n      jump(tag_43)\n    tag_44:\n      dup3\n      add\n      swap2\n      swap1\n      0x00\n      mstore\n      keccak256(0x00, 0x20)\n      swap1\n    tag_45:\n      dup2\n      sload\n      dup2\n      mstore\n      swap1\n      0x01\n      add\n      swap1\n      0x20\n      add\n      dup1\n      dup4\n      gt\n      tag_45\n      jumpi\n      dup3\n      swap1\n      sub\n      0x1f\n      and\n      dup3\n      add\n      swap2\n    tag_43:\n      pop\n      pop\n      pop\n      pop\n      pop\n      swap2\n      pop\n      dup1\n      dup1\n      sload\n      tag_46\n      swap1\n      tag_33\n      jump\t// in\n    tag_46:\n      dup1\n      0x1f\n      add\n      0x20\n      dup1\n      swap2\n      div\n      mul\n      0x20\n      add\n      mload(0x40)\n      swap1\n      dup2\n      add\n      0x40\n      mstore\n      dup1\n      swap3\n      swap2\n      swap1\n      dup2\n      dup2\n      mstore\n      0x20\n      add\n      dup3\n      dup1\n      sload\n      tag_47\n      swap1\n      tag_33\n      jump\t// in\n    tag_47:\n      dup1\n      iszero\n      tag_48\n      jumpi\n      dup1\n      0x1f\n      lt\n      tag_49\n      jumpi\n      0x0100\n      dup1\n      dup4\n      sload\n      div\n      mul\n      dup4\n      mstore\n      swap2\n      0x20\n      add\n      swap2\n      jump(tag_48)\n    tag_49:\n      dup3\n      add\n      swap2\n      swap1\n      0x00\n      mstore\n      keccak256(0x00, 0x20)\n      swap1\n    tag_50:\n      dup2\n      sload\n      dup2\n      mstore\n      swap1\n      0x01\n      add\n      swap1\n      0x20\n      add\n      dup1\n      dup4\n      gt\n      tag_50\n      jumpi\n      dup3\n      swap1\n      sub\n      0x1f\n      and\n      dup3\n      add\n      swap2\n    tag_48:\n      pop\n      pop\n      pop\n      pop\n      pop\n      swap1\n      pop\n      swap2\n      pop\n      swap2\n      pop\n        /* \".learneth/Solidity Beginner Course/6. Visibility/visibility_answer.sol\":2234:2360  function testInternalVar() public view returns (string memory, string memory) {... */\n      swap1\n      swap2\n      jump\t// out\n        /* \".learneth/Solidity Beginner Course/6. Visibility/visibility_answer.sol\":2113:2224  function testInternalFunc() public pure override returns (string memory) {... */\n    tag_27:\n        /* \".learneth/Solidity Beginner Course/6. Visibility/visibility_answer.sol\":2171:2184  string memory */\n      0x60\n        /* \".learneth/Solidity Beginner Course/6. Visibility/visibility_answer.sol\":2203:2217  internalFunc() */\n      tag_52\n        /* \".learneth/Solidity Beginner Course/6. Visibility/visibility_answer.sol\":2203:2215  internalFunc */\n      tag_53\n        /* \".learneth/Solidity Beginner Course/6. Visibility/visibility_answer.sol\":2203:2217  internalFunc() */\n      jump\t// in\n    tag_52:\n        /* \".learneth/Solidity Beginner Course/6. Visibility/visibility_answer.sol\":2196:2217  return internalFunc() */\n      swap1\n      pop\n        /* \".learneth/Solidity Beginner Course/6. Visibility/visibility_answer.sol\":2113:2224  function testInternalFunc() public pure override returns (string memory) {... */\n      swap1\n      jump\t// out\n        /* \".learneth/Solidity Beginner Course/6. Visibility/visibility_answer.sol\":221:330  function privateFunc() private pure returns (string memory) {... */\n    tag_31:\n        /* \".learneth/Solidity Beginner Course/6. Visibility/visibility_answer.sol\":266:279  string memory */\n      0x60\n        /* \".learneth/Solidity Beginner Course/6. Visibility/visibility_answer.sol\":291:323  return \"private function called\" */\n      mload(0x40)\n      dup1\n      0x40\n      add\n      0x40\n      mstore\n      dup1\n      0x17\n      dup2\n      mstore\n      0x20\n      add\n      0x707269766174652066756e6374696f6e2063616c6c6564000000000000000000\n      dup2\n      mstore\n      pop\n      swap1\n      pop\n        /* \".learneth/Solidity Beginner Course/6. Visibility/visibility_answer.sol\":221:330  function privateFunc() private pure returns (string memory) {... */\n      swap1\n      jump\t// out\n        /* \".learneth/Solidity Beginner Course/6. Visibility/visibility_answer.sol\":564:676  function internalFunc() internal pure returns (string memory) {... */\n    tag_53:\n        /* \".learneth/Solidity Beginner Course/6. Visibility/visibility_answer.sol\":611:624  string memory */\n      0x60\n        /* \".learneth/Solidity Beginner Course/6. Visibility/visibility_answer.sol\":636:669  return \"internal function called\" */\n      mload(0x40)\n      dup1\n      0x40\n      add\n      0x40\n      mstore\n      dup1\n      0x18\n      dup2\n      mstore\n      0x20\n      add\n      0x696e7465726e616c2066756e6374696f6e2063616c6c65640000000000000000\n      dup2\n      mstore\n      pop\n      swap1\n      pop\n        /* \".learneth/Solidity Beginner Course/6. Visibility/visibility_answer.sol\":564:676  function internalFunc() internal pure returns (string memory) {... */\n      swap1\n      jump\t// out\n        /* \"#utility.yul\":7:371   */\n    tag_57:\n        /* \"#utility.yul\":95:98   */\n      0x00\n        /* \"#utility.yul\":123:162   */\n      tag_59\n        /* \"#utility.yul\":156:161   */\n      dup3\n        /* \"#utility.yul\":123:162   */\n      tag_60\n      jump\t// in\n    tag_59:\n        /* \"#utility.yul\":178:249   */\n      tag_61\n        /* \"#utility.yul\":242:248   */\n      dup2\n        /* \"#utility.yul\":237:240   */\n      dup6\n        /* \"#utility.yul\":178:249   */\n      tag_62\n      jump\t// in\n    tag_61:\n        /* \"#utility.yul\":171:249   */\n      swap4\n      pop\n        /* \"#utility.yul\":258:310   */\n      tag_63\n        /* \"#utility.yul\":303:309   */\n      dup2\n        /* \"#utility.yul\":298:301   */\n      dup6\n        /* \"#utility.yul\":291:295   */\n      0x20\n        /* \"#utility.yul\":284:289   */\n      dup7\n        /* \"#utility.yul\":280:296   */\n      add\n        /* \"#utility.yul\":258:310   */\n      tag_64\n      jump\t// in\n    tag_63:\n        /* \"#utility.yul\":335:364   */\n      tag_65\n        /* \"#utility.yul\":357:363   */\n      dup2\n        /* \"#utility.yul\":335:364   */\n      tag_66\n      jump\t// in\n    tag_65:\n        /* \"#utility.yul\":330:333   */\n      dup5\n        /* \"#utility.yul\":326:365   */\n      add\n        /* \"#utility.yul\":319:365   */\n      swap2\n      pop\n        /* \"#utility.yul\":99:371   */\n      pop\n      swap3\n      swap2\n      pop\n      pop\n      jump\t// out\n        /* \"#utility.yul\":377:690   */\n    tag_12:\n        /* \"#utility.yul\":490:494   */\n      0x00\n        /* \"#utility.yul\":528:530   */\n      0x20\n        /* \"#utility.yul\":517:526   */\n      dup3\n        /* \"#utility.yul\":513:531   */\n      add\n        /* \"#utility.yul\":505:531   */\n      swap1\n      pop\n        /* \"#utility.yul\":577:586   */\n      dup2\n        /* \"#utility.yul\":571:575   */\n      dup2\n        /* \"#utility.yul\":567:587   */\n      sub\n        /* \"#utility.yul\":563:564   */\n      0x00\n        /* \"#utility.yul\":552:561   */\n      dup4\n        /* \"#utility.yul\":548:565   */\n      add\n        /* \"#utility.yul\":541:588   */\n      mstore\n        /* \"#utility.yul\":605:683   */\n      tag_68\n        /* \"#utility.yul\":678:682   */\n      dup2\n        /* \"#utility.yul\":669:675   */\n      dup5\n        /* \"#utility.yul\":605:683   */\n      tag_57\n      jump\t// in\n    tag_68:\n        /* \"#utility.yul\":597:683   */\n      swap1\n      pop\n        /* \"#utility.yul\":495:690   */\n      swap3\n      swap2\n      pop\n      pop\n      jump\t// out\n        /* \"#utility.yul\":696:1210   */\n    tag_25:\n        /* \"#utility.yul\":857:861   */\n      0x00\n        /* \"#utility.yul\":895:897   */\n      0x40\n        /* \"#utility.yul\":884:893   */\n      dup3\n        /* \"#utility.yul\":880:898   */\n      add\n        /* \"#utility.yul\":872:898   */\n      swap1\n      pop\n        /* \"#utility.yul\":944:953   */\n      dup2\n        /* \"#utility.yul\":938:942   */\n      dup2\n        /* \"#utility.yul\":934:954   */\n      sub\n        /* \"#utility.yul\":930:931   */\n      0x00\n        /* \"#utility.yul\":919:928   */\n      dup4\n        /* \"#utility.yul\":915:932   */\n      add\n        /* \"#utility.yul\":908:955   */\n      mstore\n        /* \"#utility.yul\":972:1050   */\n      tag_70\n        /* \"#utility.yul\":1045:1049   */\n      dup2\n        /* \"#utility.yul\":1036:1042   */\n      dup6\n        /* \"#utility.yul\":972:1050   */\n      tag_57\n      jump\t// in\n    tag_70:\n        /* \"#utility.yul\":964:1050   */\n      swap1\n      pop\n        /* \"#utility.yul\":1097:1106   */\n      dup2\n        /* \"#utility.yul\":1091:1095   */\n      dup2\n        /* \"#utility.yul\":1087:1107   */\n      sub\n        /* \"#utility.yul\":1082:1084   */\n      0x20\n        /* \"#utility.yul\":1071:1080   */\n      dup4\n        /* \"#utility.yul\":1067:1085   */\n      add\n        /* \"#utility.yul\":1060:1108   */\n      mstore\n        /* \"#utility.yul\":1125:1203   */\n      tag_71\n        /* \"#utility.yul\":1198:1202   */\n      dup2\n        /* \"#utility.yul\":1189:1195   */\n      dup5\n        /* \"#utility.yul\":1125:1203   */\n      tag_57\n      jump\t// in\n    tag_71:\n        /* \"#utility.yul\":1117:1203   */\n      swap1\n      pop\n        /* \"#utility.yul\":862:1210   */\n      swap4\n      swap3\n      pop\n      pop\n      pop\n      jump\t// out\n        /* \"#utility.yul\":1216:1315   */\n    tag_60:\n        /* \"#utility.yul\":1268:1274   */\n      0x00\n        /* \"#utility.yul\":1302:1307   */\n      dup2\n        /* \"#utility.yul\":1296:1308   */\n      mload\n        /* \"#utility.yul\":1286:1308   */\n      swap1\n      pop\n        /* \"#utility.yul\":1275:1315   */\n      swap2\n      swap1\n      pop\n      jump\t// out\n        /* \"#utility.yul\":1321:1490   */\n    tag_62:\n        /* \"#utility.yul\":1405:1416   */\n      0x00\n        /* \"#utility.yul\":1439:1445   */\n      dup3\n        /* \"#utility.yul\":1434:1437   */\n      dup3\n        /* \"#utility.yul\":1427:1446   */\n      mstore\n        /* \"#utility.yul\":1479:1483   */\n      0x20\n        /* \"#utility.yul\":1474:1477   */\n      dup3\n        /* \"#utility.yul\":1470:1484   */\n      add\n        /* \"#utility.yul\":1455:1484   */\n      swap1\n      pop\n        /* \"#utility.yul\":1417:1490   */\n      swap3\n      swap2\n      pop\n      pop\n      jump\t// out\n        /* \"#utility.yul\":1496:1803   */\n    tag_64:\n        /* \"#utility.yul\":1564:1565   */\n      0x00\n        /* \"#utility.yul\":1574:1687   */\n    tag_75:\n        /* \"#utility.yul\":1588:1594   */\n      dup4\n        /* \"#utility.yul\":1585:1586   */\n      dup2\n        /* \"#utility.yul\":1582:1595   */\n      lt\n        /* \"#utility.yul\":1574:1687   */\n      iszero\n      tag_77\n      jumpi\n        /* \"#utility.yul\":1673:1674   */\n      dup1\n        /* \"#utility.yul\":1668:1671   */\n      dup3\n        /* \"#utility.yul\":1664:1675   */\n      add\n        /* \"#utility.yul\":1658:1676   */\n      mload\n        /* \"#utility.yul\":1654:1655   */\n      dup2\n        /* \"#utility.yul\":1649:1652   */\n      dup5\n        /* \"#utility.yul\":1645:1656   */\n      add\n        /* \"#utility.yul\":1638:1677   */\n      mstore\n        /* \"#utility.yul\":1610:1612   */\n      0x20\n        /* \"#utility.yul\":1607:1608   */\n      dup2\n        /* \"#utility.yul\":1603:1613   */\n      add\n        /* \"#utility.yul\":1598:1613   */\n      swap1\n      pop\n        /* \"#utility.yul\":1574:1687   */\n      jump(tag_75)\n    tag_77:\n        /* \"#utility.yul\":1705:1711   */\n      dup4\n        /* \"#utility.yul\":1702:1703   */\n      dup2\n        /* \"#utility.yul\":1699:1712   */\n      gt\n        /* \"#utility.yul\":1696:1698   */\n      iszero\n      tag_78\n      jumpi\n        /* \"#utility.yul\":1785:1786   */\n      0x00\n        /* \"#utility.yul\":1776:1782   */\n      dup5\n        /* \"#utility.yul\":1771:1774   */\n      dup5\n        /* \"#utility.yul\":1767:1783   */\n      add\n        /* \"#utility.yul\":1760:1787   */\n      mstore\n        /* \"#utility.yul\":1696:1698   */\n    tag_78:\n        /* \"#utility.yul\":1545:1803   */\n      pop\n      pop\n      pop\n      pop\n      jump\t// out\n        /* \"#utility.yul\":1809:2129   */\n    tag_33:\n        /* \"#utility.yul\":1853:1859   */\n      0x00\n        /* \"#utility.yul\":1890:1891   */\n      0x02\n        /* \"#utility.yul\":1884:1888   */\n      dup3\n        /* \"#utility.yul\":1880:1892   */\n      div\n        /* \"#utility.yul\":1870:1892   */\n      swap1\n      pop\n        /* \"#utility.yul\":1937:1938   */\n      0x01\n        /* \"#utility.yul\":1931:1935   */\n      dup3\n        /* \"#utility.yul\":1927:1939   */\n      and\n        /* \"#utility.yul\":1958:1976   */\n      dup1\n        /* \"#utility.yul\":1948:1950   */\n      tag_80\n      jumpi\n        /* \"#utility.yul\":2014:2018   */\n      0x7f\n        /* \"#utility.yul\":2006:2012   */\n      dup3\n        /* \"#utility.yul\":2002:2019   */\n      and\n        /* \"#utility.yul\":1992:2019   */\n      swap2\n      pop\n        /* \"#utility.yul\":1948:1950   */\n    tag_80:\n        /* \"#utility.yul\":2076:2078   */\n      0x20\n        /* \"#utility.yul\":2068:2074   */\n      dup3\n        /* \"#utility.yul\":2065:2079   */\n      lt\n        /* \"#utility.yul\":2045:2063   */\n      dup2\n        /* \"#utility.yul\":2042:2080   */\n      eq\n        /* \"#utility.yul\":2039:2041   */\n      iszero\n      tag_81\n      jumpi\n        /* \"#utility.yul\":2095:2113   */\n      tag_82\n      tag_83\n      jump\t// in\n    tag_82:\n        /* \"#utility.yul\":2039:2041   */\n    tag_81:\n        /* \"#utility.yul\":1860:2129   */\n      pop\n      swap2\n      swap1\n      pop\n      jump\t// out\n        /* \"#utility.yul\":2135:2315   */\n    tag_83:\n        /* \"#utility.yul\":2183:2260   */\n      0x4e487b7100000000000000000000000000000000000000000000000000000000\n        /* \"#utility.yul\":2180:2181   */\n      0x00\n        /* \"#utility.yul\":2173:2261   */\n      mstore\n        /* \"#utility.yul\":2280:2284   */\n      0x22\n        /* \"#utility.yul\":2277:2278   */\n      0x04\n        /* \"#utility.yul\":2270:2285   */\n      mstore\n        /* \"#utility.yul\":2304:2308   */\n      0x24\n        /* \"#utility.yul\":2301:2302   */\n      0x00\n        /* \"#utility.yul\":2294:2309   */\n      revert\n        /* \"#utility.yul\":2321:2423   */\n    tag_66:\n        /* \"#utility.yul\":2362:2368   */\n      0x00\n        /* \"#utility.yul\":2413:2415   */\n      0x1f\n        /* \"#utility.yul\":2409:2416   */\n      not\n        /* \"#utility.yul\":2404:2406   */\n      0x1f\n        /* \"#utility.yul\":2397:2402   */\n      dup4\n        /* \"#utility.yul\":2393:2407   */\n      add\n        /* \"#utility.yul\":2389:2417   */\n      and\n        /* \"#utility.yul\":2379:2417   */\n      swap1\n      pop\n        /* \"#utility.yul\":2369:2423   */\n      swap2\n      swap1\n      pop\n      jump\t// out\n\n    auxdata: 0xa26469706673582212203be9c9048a034e2c4331ddb339e5fa9168587735f54b0ad47377464135fd176b64736f6c63430008040033\n}\n",
				"bytecode": {
					"linkReferences": {},
					"object": "60806040526040518060400160405280601381526020017f6d792070726976617465207661726961626c65000000000000000000000000008152506000908051906020019061004f9291906100fa565b506040518060400160405280601481526020017f6d7920696e7465726e616c207661726961626c650000000000000000000000008152506001908051906020019061009b9291906100fa565b506040518060400160405280601281526020017f6d79207075626c6963207661726961626c650000000000000000000000000000815250600290805190602001906100e79291906100fa565b503480156100f457600080fd5b506101fe565b8280546101069061019d565b90600052602060002090601f016020900481019282610128576000855561016f565b82601f1061014157805160ff191683800117855561016f565b8280016001018555821561016f579182015b8281111561016e578251825591602001919060010190610153565b5b50905061017c9190610180565b5090565b5b80821115610199576000816000905550600101610181565b5090565b600060028204905060018216806101b557607f821691505b602082108114156101c9576101c86101cf565b5b50919050565b7f4e487b7100000000000000000000000000000000000000000000000000000000600052602260045260246000fd5b61056c8061020d6000396000f3fe608060405234801561001057600080fd5b50600436106100625760003560e01c80630eb13f87146100675780631151fad81461008557806342b148aa146100a35780634b73383f146100c1578063d4a78683146100df578063e8e46c41146100fe575b600080fd5b61006f61011c565b60405161007c919061041c565b60405180910390f35b61008d61012b565b60405161009a919061041c565b60405180910390f35b6100ab6101b9565b6040516100b8919061041c565b60405180910390f35b6100c96101f6565b6040516100d6919061041c565b60405180910390f35b6100e7610233565b6040516100f592919061043e565b60405180910390f35b61010661035a565b604051610113919061041c565b60405180910390f35b6060610126610369565b905090565b60028054610138906104c4565b80601f0160208091040260200160405190810160405280929190818152602001828054610164906104c4565b80156101b15780601f10610186576101008083540402835291602001916101b1565b820191906000526020600020905b81548152906001019060200180831161019457829003601f168201915b505050505081565b60606040518060400160405280601881526020017f65787465726e616c2066756e6374696f6e2063616c6c65640000000000000000815250905090565b60606040518060400160405280601681526020017f7075626c69632066756e6374696f6e2063616c6c656400000000000000000000815250905090565b60608060016002818054610246906104c4565b80601f0160208091040260200160405190810160405280929190818152602001828054610272906104c4565b80156102bf5780601f10610294576101008083540402835291602001916102bf565b820191906000526020600020905b8154815290600101906020018083116102a257829003601f168201915b505050505091508080546102d2906104c4565b80601f01602080910402602001604051908101604052809291908181526020018280546102fe906104c4565b801561034b5780601f106103205761010080835404028352916020019161034b565b820191906000526020600020905b81548152906001019060200180831161032e57829003601f168201915b50505050509050915091509091565b60606103646103a6565b905090565b60606040518060400160405280601781526020017f707269766174652066756e6374696f6e2063616c6c6564000000000000000000815250905090565b60606040518060400160405280601881526020017f696e7465726e616c2066756e6374696f6e2063616c6c65640000000000000000815250905090565b60006103ee82610475565b6103f88185610480565b9350610408818560208601610491565b61041181610525565b840191505092915050565b6000602082019050818103600083015261043681846103e3565b905092915050565b6000604082019050818103600083015261045881856103e3565b9050818103602083015261046c81846103e3565b90509392505050565b600081519050919050565b600082825260208201905092915050565b60005b838110156104af578082015181840152602081019050610494565b838111156104be576000848401525b50505050565b600060028204905060018216806104dc57607f821691505b602082108114156104f0576104ef6104f6565b5b50919050565b7f4e487b7100000000000000000000000000000000000000000000000000000000600052602260045260246000fd5b6000601f19601f830116905091905056fea26469706673582212203be9c9048a034e2c4331ddb339e5fa9168587735f54b0ad47377464135fd176b64736f6c63430008040033",
					"opcodes": "PUSH1 0x80 PUSH1 0x40 MSTORE PUSH1 0x40 MLOAD DUP1 PUSH1 0x40 ADD PUSH1 0x40 MSTORE DUP1 PUSH1 0x13 DUP2 MSTORE PUSH1 0x20 ADD PUSH32 0x6D792070726976617465207661726961626C6500000000000000000000000000 DUP2 MSTORE POP PUSH1 0x0 SWAP1 DUP1 MLOAD SWAP1 PUSH1 0x20 ADD SWAP1 PUSH2 0x4F SWAP3 SWAP2 SWAP1 PUSH2 0xFA JUMP JUMPDEST POP PUSH1 0x40 MLOAD DUP1 PUSH1 0x40 ADD PUSH1 0x40 MSTORE DUP1 PUSH1 0x14 DUP2 MSTORE PUSH1 0x20 ADD PUSH32 0x6D7920696E7465726E616C207661726961626C65000000000000000000000000 DUP2 MSTORE POP PUSH1 0x1 SWAP1 DUP1 MLOAD SWAP1 PUSH1 0x20 ADD SWAP1 PUSH2 0x9B SWAP3 SWAP2 SWAP1 PUSH2 0xFA JUMP JUMPDEST POP PUSH1 0x40 MLOAD DUP1 PUSH1 0x40 ADD PUSH1 0x40 MSTORE DUP1 PUSH1 0x12 DUP2 MSTORE PUSH1 0x20 ADD PUSH32 0x6D79207075626C6963207661726961626C650000000000000000000000000000 DUP2 MSTORE POP PUSH1 0x2 SWAP1 DUP1 MLOAD SWAP1 PUSH1 0x20 ADD SWAP1 PUSH2 0xE7 SWAP3 SWAP2 SWAP1 PUSH2 0xFA JUMP JUMPDEST POP CALLVALUE DUP1 ISZERO PUSH2 0xF4 JUMPI PUSH1 0x0 DUP1 REVERT JUMPDEST POP PUSH2 0x1FE JUMP JUMPDEST DUP3 DUP1 SLOAD PUSH2 0x106 SWAP1 PUSH2 0x19D JUMP JUMPDEST SWAP1 PUSH1 0x0 MSTORE PUSH1 0x20 PUSH1 0x0 KECCAK256 SWAP1 PUSH1 0x1F ADD PUSH1 0x20 SWAP1 DIV DUP2 ADD SWAP3 DUP3 PUSH2 0x128 JUMPI PUSH1 0x0 DUP6 SSTORE PUSH2 0x16F JUMP JUMPDEST DUP3 PUSH1 0x1F LT PUSH2 0x141 JUMPI DUP1 MLOAD PUSH1 0xFF NOT AND DUP4 DUP1 ADD OR DUP6 SSTORE PUSH2 0x16F JUMP JUMPDEST DUP3 DUP1 ADD PUSH1 0x1 ADD DUP6 SSTORE DUP3 ISZERO PUSH2 0x16F JUMPI SWAP2 DUP3 ADD JUMPDEST DUP3 DUP2 GT ISZERO PUSH2 0x16E JUMPI DUP3 MLOAD DUP3 SSTORE SWAP2 PUSH1 0x20 ADD SWAP2 SWAP1 PUSH1 0x1 ADD SWAP1 PUSH2 0x153 JUMP JUMPDEST JUMPDEST POP SWAP1 POP PUSH2 0x17C SWAP2 SWAP1 PUSH2 0x180 JUMP JUMPDEST POP SWAP1 JUMP JUMPDEST JUMPDEST DUP1 DUP3 GT ISZERO PUSH2 0x199 JUMPI PUSH1 0x0 DUP2 PUSH1 0x0 SWAP1 SSTORE POP PUSH1 0x1 ADD PUSH2 0x181 JUMP JUMPDEST POP SWAP1 JUMP JUMPDEST PUSH1 0x0 PUSH1 0x2 DUP3 DIV SWAP1 POP PUSH1 0x1 DUP3 AND DUP1 PUSH2 0x1B5 JUMPI PUSH1 0x7F DUP3 AND SWAP2 POP JUMPDEST PUSH1 0x20 DUP3 LT DUP2 EQ ISZERO PUSH2 0x1C9 JUMPI PUSH2 0x1C8 PUSH2 0x1CF JUMP JUMPDEST JUMPDEST POP SWAP2 SWAP1 POP JUMP JUMPDEST PUSH32 0x4E487B7100000000000000000000000000000000000000000000000000000000 PUSH1 0x0 MSTORE PUSH1 0x22 PUSH1 0x4 MSTORE PUSH1 0x24 PUSH1 0x0 REVERT JUMPDEST PUSH2 0x56C DUP1 PUSH2 0x20D PUSH1 0x0 CODECOPY PUSH1 0x0 RETURN INVALID PUSH1 0x80 PUSH1 0x40 MSTORE CALLVALUE DUP1 ISZERO PUSH2 0x10 JUMPI PUSH1 0x0 DUP1 REVERT JUMPDEST POP PUSH1 0x4 CALLDATASIZE LT PUSH2 0x62 JUMPI PUSH1 0x0 CALLDATALOAD PUSH1 0xE0 SHR DUP1 PUSH4 0xEB13F87 EQ PUSH2 0x67 JUMPI DUP1 PUSH4 0x1151FAD8 EQ PUSH2 0x85 JUMPI DUP1 PUSH4 0x42B148AA EQ PUSH2 0xA3 JUMPI DUP1 PUSH4 0x4B73383F EQ PUSH2 0xC1 JUMPI DUP1 PUSH4 0xD4A78683 EQ PUSH2 0xDF JUMPI DUP1 PUSH4 0xE8E46C41 EQ PUSH2 0xFE JUMPI JUMPDEST PUSH1 0x0 DUP1 REVERT JUMPDEST PUSH2 0x6F PUSH2 0x11C JUMP JUMPDEST PUSH1 0x40 MLOAD PUSH2 0x7C SWAP2 SWAP1 PUSH2 0x41C JUMP JUMPDEST PUSH1 0x40 MLOAD DUP1 SWAP2 SUB SWAP1 RETURN JUMPDEST PUSH2 0x8D PUSH2 0x12B JUMP JUMPDEST PUSH1 0x40 MLOAD PUSH2 0x9A SWAP2 SWAP1 PUSH2 0x41C JUMP JUMPDEST PUSH1 0x40 MLOAD DUP1 SWAP2 SUB SWAP1 RETURN JUMPDEST PUSH2 0xAB PUSH2 0x1B9 JUMP JUMPDEST PUSH1 0x40 MLOAD PUSH2 0xB8 SWAP2 SWAP1 PUSH2 0x41C JUMP JUMPDEST PUSH1 0x40 MLOAD DUP1 SWAP2 SUB SWAP1 RETURN JUMPDEST PUSH2 0xC9 PUSH2 0x1F6 JUMP JUMPDEST PUSH1 0x40 MLOAD PUSH2 0xD6 SWAP2 SWAP1 PUSH2 0x41C JUMP JUMPDEST PUSH1 0x40 MLOAD DUP1 SWAP2 SUB SWAP1 RETURN JUMPDEST PUSH2 0xE7 PUSH2 0x233 JUMP JUMPDEST PUSH1 0x40 MLOAD PUSH2 0xF5 SWAP3 SWAP2 SWAP1 PUSH2 0x43E JUMP JUMPDEST PUSH1 0x40 MLOAD DUP1 SWAP2 SUB SWAP1 RETURN JUMPDEST PUSH2 0x106 PUSH2 0x35A JUMP JUMPDEST PUSH1 0x40 MLOAD PUSH2 0x113 SWAP2 SWAP1 PUSH2 0x41C JUMP JUMPDEST PUSH1 0x40 MLOAD DUP1 SWAP2 SUB SWAP1 RETURN JUMPDEST PUSH1 0x60 PUSH2 0x126 PUSH2 0x369 JUMP JUMPDEST SWAP1 POP SWAP1 JUMP JUMPDEST PUSH1 0x2 DUP1 SLOAD PUSH2 0x138 SWAP1 PUSH2 0x4C4 JUMP JUMPDEST DUP1 PUSH1 0x1F ADD PUSH1 0x20 DUP1 SWAP2 DIV MUL PUSH1 0x20 ADD PUSH1 0x40 MLOAD SWAP1 DUP2 ADD PUSH1 0x40 MSTORE DUP1 SWAP3 SWAP2 SWAP1 DUP2 DUP2 MSTORE PUSH1 0x20 ADD DUP3 DUP1 SLOAD PUSH2 0x164 SWAP1 PUSH2 0x4C4 JUMP JUMPDEST DUP1 ISZERO PUSH2 0x1B1 JUMPI DUP1 PUSH1 0x1F LT PUSH2 0x186 JUMPI PUSH2 0x100 DUP1 DUP4 SLOAD DIV MUL DUP4 MSTORE SWAP2 PUSH1 0x20 ADD SWAP2 PUSH2 0x1B1 JUMP JUMPDEST DUP3 ADD SWAP2 SWAP1 PUSH1 0x0 MSTORE PUSH1 0x20 PUSH1 0x0 KECCAK256 SWAP1 JUMPDEST DUP2 SLOAD DUP2 MSTORE SWAP1 PUSH1 0x1 ADD SWAP1 PUSH1 0x20 ADD DUP1 DUP4 GT PUSH2 0x194 JUMPI DUP3 SWAP1 SUB PUSH1 0x1F AND DUP3 ADD SWAP2 JUMPDEST POP POP POP POP POP DUP2 JUMP JUMPDEST PUSH1 0x60 PUSH1 0x40 MLOAD DUP1 PUSH1 0x40 ADD PUSH1 0x40 MSTORE DUP1 PUSH1 0x18 DUP2 MSTORE PUSH1 0x20 ADD PUSH32 0x65787465726E616C2066756E6374696F6E2063616C6C65640000000000000000 DUP2 MSTORE POP SWAP1 POP SWAP1 JUMP JUMPDEST PUSH1 0x60 PUSH1 0x40 MLOAD DUP1 PUSH1 0x40 ADD PUSH1 0x40 MSTORE DUP1 PUSH1 0x16 DUP2 MSTORE PUSH1 0x20 ADD PUSH32 0x7075626C69632066756E6374696F6E2063616C6C656400000000000000000000 DUP2 MSTORE POP SWAP1 POP SWAP1 JUMP JUMPDEST PUSH1 0x60 DUP1 PUSH1 0x1 PUSH1 0x2 DUP2 DUP1 SLOAD PUSH2 0x246 SWAP1 PUSH2 0x4C4 JUMP JUMPDEST DUP1 PUSH1 0x1F ADD PUSH1 0x20 DUP1 SWAP2 DIV MUL PUSH1 0x20 ADD PUSH1 0x40 MLOAD SWAP1 DUP2 ADD PUSH1 0x40 MSTORE DUP1 SWAP3 SWAP2 SWAP1 DUP2 DUP2 MSTORE PUSH1 0x20 ADD DUP3 DUP1 SLOAD PUSH2 0x272 SWAP1 PUSH2 0x4C4 JUMP JUMPDEST DUP1 ISZERO PUSH2 0x2BF JUMPI DUP1 PUSH1 0x1F LT PUSH2 0x294 JUMPI PUSH2 0x100 DUP1 DUP4 SLOAD DIV MUL DUP4 MSTORE SWAP2 PUSH1 0x20 ADD SWAP2 PUSH2 0x2BF JUMP JUMPDEST DUP3 ADD SWAP2 SWAP1 PUSH1 0x0 MSTORE PUSH1 0x20 PUSH1 0x0 KECCAK256 SWAP1 JUMPDEST DUP2 SLOAD DUP2 MSTORE SWAP1 PUSH1 0x1 ADD SWAP1 PUSH1 0x20 ADD DUP1 DUP4 GT PUSH2 0x2A2 JUMPI DUP3 SWAP1 SUB PUSH1 0x1F AND DUP3 ADD SWAP2 JUMPDEST POP POP POP POP POP SWAP2 POP DUP1 DUP1 SLOAD PUSH2 0x2D2 SWAP1 PUSH2 0x4C4 JUMP JUMPDEST DUP1 PUSH1 0x1F ADD PUSH1 0x20 DUP1 SWAP2 DIV MUL PUSH1 0x20 ADD PUSH1 0x40 MLOAD SWAP1 DUP2 ADD PUSH1 0x40 MSTORE DUP1 SWAP3 SWAP2 SWAP1 DUP2 DUP2 MSTORE PUSH1 0x20 ADD DUP3 DUP1 SLOAD PUSH2 0x2FE SWAP1 PUSH2 0x4C4 JUMP JUMPDEST DUP1 ISZERO PUSH2 0x34B JUMPI DUP1 PUSH1 0x1F LT PUSH2 0x320 JUMPI PUSH2 0x100 DUP1 DUP4 SLOAD DIV MUL DUP4 MSTORE SWAP2 PUSH1 0x20 ADD SWAP2 PUSH2 0x34B JUMP JUMPDEST DUP3 ADD SWAP2 SWAP1 PUSH1 0x0 MSTORE PUSH1 0x20 PUSH1 0x0 KECCAK256 SWAP1 JUMPDEST DUP2 SLOAD DUP2 MSTORE SWAP1 PUSH1 0x1 ADD SWAP1 PUSH1 0x20 ADD DUP1 DUP4 GT PUSH2 0x32E JUMPI DUP3 SWAP1 SUB PUSH1 0x1F AND DUP3 ADD SWAP2 JUMPDEST POP POP POP POP POP SWAP1 POP SWAP2 POP SWAP2 POP SWAP1 SWAP2 JUMP JUMPDEST PUSH1 0x60 PUSH2 0x364 PUSH2 0x3A6 JUMP JUMPDEST SWAP1 POP SWAP1 JUMP JUMPDEST PUSH1 0x60 PUSH1 0x40 MLOAD DUP1 PUSH1 0x40 ADD PUSH1 0x40 MSTORE DUP1 PUSH1 0x17 DUP2 MSTORE PUSH1 0x20 ADD PUSH32 0x707269766174652066756E6374696F6E2063616C6C6564000000000000000000 DUP2 MSTORE POP SWAP1 POP SWAP1 JUMP JUMPDEST PUSH1 0x60 PUSH1 0x40 MLOAD DUP1 PUSH1 0x40 ADD PUSH1 0x40 MSTORE DUP1 PUSH1 0x18 DUP2 MSTORE PUSH1 0x20 ADD PUSH32 0x696E7465726E616C2066756E6374696F6E2063616C6C65640000000000000000 DUP2 MSTORE POP SWAP1 POP SWAP1 JUMP JUMPDEST PUSH1 0x0 PUSH2 0x3EE DUP3 PUSH2 0x475 JUMP JUMPDEST PUSH2 0x3F8 DUP2 DUP6 PUSH2 0x480 JUMP JUMPDEST SWAP4 POP PUSH2 0x408 DUP2 DUP6 PUSH1 0x20 DUP7 ADD PUSH2 0x491 JUMP JUMPDEST PUSH2 0x411 DUP2 PUSH2 0x525 JUMP JUMPDEST DUP5 ADD SWAP2 POP POP SWAP3 SWAP2 POP POP JUMP JUMPDEST PUSH1 0x0 PUSH1 0x20 DUP3 ADD SWAP1 POP DUP2 DUP2 SUB PUSH1 0x0 DUP4 ADD MSTORE PUSH2 0x436 DUP2 DUP5 PUSH2 0x3E3 JUMP JUMPDEST SWAP1 POP SWAP3 SWAP2 POP POP JUMP JUMPDEST PUSH1 0x0 PUSH1 0x40 DUP3 ADD SWAP1 POP DUP2 DUP2 SUB PUSH1 0x0 DUP4 ADD MSTORE PUSH2 0x458 DUP2 DUP6 PUSH2 0x3E3 JUMP JUMPDEST SWAP1 POP DUP2 DUP2 SUB PUSH1 0x20 DUP4 ADD MSTORE PUSH2 0x46C DUP2 DUP5 PUSH2 0x3E3 JUMP JUMPDEST SWAP1 POP SWAP4 SWAP3 POP POP POP JUMP JUMPDEST PUSH1 0x0 DUP2 MLOAD SWAP1 POP SWAP2 SWAP1 POP JUMP JUMPDEST PUSH1 0x0 DUP3 DUP3 MSTORE PUSH1 0x20 DUP3 ADD SWAP1 POP SWAP3 SWAP2 POP POP JUMP JUMPDEST PUSH1 0x0 JUMPDEST DUP4 DUP2 LT ISZERO PUSH2 0x4AF JUMPI DUP1 DUP3 ADD MLOAD DUP2 DUP5 ADD MSTORE PUSH1 0x20 DUP2 ADD SWAP1 POP PUSH2 0x494 JUMP JUMPDEST DUP4 DUP2 GT ISZERO PUSH2 0x4BE JUMPI PUSH1 0x0 DUP5 DUP5 ADD MSTORE JUMPDEST POP POP POP POP JUMP JUMPDEST PUSH1 0x0 PUSH1 0x2 DUP3 DIV SWAP1 POP PUSH1 0x1 DUP3 AND DUP1 PUSH2 0x4DC JUMPI PUSH1 0x7F DUP3 AND SWAP2 POP JUMPDEST PUSH1 0x20 DUP3 LT DUP2 EQ ISZERO PUSH2 0x4F0 JUMPI PUSH2 0x4EF PUSH2 0x4F6 JUMP JUMPDEST JUMPDEST POP SWAP2 SWAP1 POP JUMP JUMPDEST PUSH32 0x4E487B7100000000000000000000000000000000000000000000000000000000 PUSH1 0x0 MSTORE PUSH1 0x22 PUSH1 0x4 MSTORE PUSH1 0x24 PUSH1 0x0 REVERT JUMPDEST PUSH1 0x0 PUSH1 0x1F NOT PUSH1 0x1F DUP4 ADD AND SWAP1 POP SWAP2 SWAP1 POP JUMP INVALID LOG2 PUSH5 0x6970667358 0x22 SLT KECCAK256 EXTCODESIZE 0xE9 0xC9 DIV DUP11 SUB 0x4E 0x2C NUMBER BALANCE 0xDD 0xB3 CODECOPY 0xE5 STATICCALL SWAP2 PUSH9 0x587735F54B0AD47377 CHAINID COINBASE CALLDATALOAD REVERT OR PUSH12 0x64736F6C6343000804003300 "
				},
				"gasEstimates": {
					"creation": {
						"codeDepositCost": "277600",
						"executionCost": "infinite",
						"totalCost": "infinite"
					},
					"external": {
						"externalFunc()": "infinite",
						"publicFunc()": "infinite",
						"publicVar()": "infinite",
						"testInternalFunc()": "infinite",
						"testInternalVar()": "infinite",
						"testPrivateFunc()": "infinite"
					}
				},
				"methodIdentifiers": {
					"externalFunc()": "42b148aa",
					"publicFunc()": "4b73383f",
					"publicVar()": "1151fad8",
					"testInternalFunc()": "e8e46c41",
					"testInternalVar()": "d4a78683",
					"testPrivateFunc()": "0eb13f87"
				}
			},
			"userdoc": {
				"kind": "user",
				"methods": {},
				"version": 1
			}
		}
	}
}