{
	".learneth/Solidity Beginner Course/9. Data Locations/dataLocations_answer.sol": {
		"DataLocations": {
			"abi": [
				{
					"inputs": [
						{
							"internalType": "uint256",
							"name": "",
							"type": "uint256"
						}
					],
					"name": "arr",
					"outputs": [
						{
							"internalType": "uint256",
							"name": "",
							"type": "uint256"
						}
					],
					"stateMutability": "view",
					"type": "function"
				},
				{
					"inputs": [],
					"name": "f",
					"outputs": [
						{
							"components": [
								{
									"internalType": "uint256",
									"name": "foo",
									"type": "uint256"
								}
							],
							"internalType": "struct DataLocations.MyStruct",
							"name": "",
							"type": "tuple"
						},
						{
							"components": [
								{
									"internalType": "uint256",
									"name": "foo",
									"type": "uint256"
								}
							],
							"internalType": "struct DataLocations.MyStruct",
							"name": "",
							"type": "tuple"
						},
						{
							"components": [
								{
									"internalType": "uint256",
									"name": "foo",
									"type": "uint256"
								}
							],
							"internalType": "struct DataLocations.MyStruct",
							"name": "",
							"type": "tuple"
						}
					],
					"stateMutability": "nonpayable",
					"type": "function"
				},
				{
					"inputs": [
						{
							"internalType": "uint256[]",
							"name": "_arr",
							"type": "uint256[]"
						}
					],
					"name": "g",
					"outputs": [
						{
							"internalType": "uint256[]",
							"name": "",
							"type": "uint256[]"
						}
					],
					"stateMutability": "nonpayable",
					"type": "function"
				},
				{
					"inputs": [
						{
							"internalType": "uint256[]",
							"name": "_arr",
							"type": "uint256[]"
						}
					],
					"name": "h",
					"outputs": [],
					"stateMutability": "nonpayable",
					"type": "function"
				},
				{
					"inputs": [
						{
							"internalType": "uint256",
							"name": "",
							"type": "uint256"
						}
					],
					"name": "myStructs",
					"outputs": [
						{
							"internalType": "uint256",
							"name": "foo",
							"type": "uint256"
						}
					],
					"stateMutability": "view",
					"type": "function"
				}
			],
			"devdoc": {
				"kind": "dev",
				"methods": {},
				"version": 1
			},
			"evm": {
				"assembly": "    /* \".learneth/Solidity Beginner Course/9. Data Locations/dataLocations_answer.sol\":57:1328  contract DataLocations {... */\n  mstore(0x40, 0x80)\n  callvalue\n  dup1\n  iszero\n  tag_1\n  jumpi\n  0x00\n  dup1\n  revert\ntag_1:\n  pop\n  dataSize(sub_0)\n  dup1\n  dataOffset(sub_0)\n  0x00\n  codecopy\n  0x00\n  return\nstop\n\nsub_0: assembly {\n        /* \".learneth/Solidity Beginner Course/9. Data Locations/dataLocations_answer.sol\":57:1328  contract DataLocations {... */\n      mstore(0x40, 0x80)\n      callvalue\n      dup1\n      iszero\n      tag_1\n      jumpi\n      0x00\n      dup1\n      revert\n    tag_1:\n      pop\n      jumpi(tag_2, lt(calldatasize, 0x04))\n      shr(0xe0, calldataload(0x00))\n      dup1\n      0x26121ff0\n      eq\n      tag_3\n      jumpi\n      dup1\n      0x40dcbb08\n      eq\n      tag_4\n      jumpi\n      dup1\n      0x71e5ee5f\n      eq\n      tag_5\n      jumpi\n      dup1\n      0xbaf71609\n      eq\n      tag_6\n      jumpi\n      dup1\n      0xdf90c8d3\n      eq\n      tag_7\n      jumpi\n    tag_2:\n      0x00\n      dup1\n      revert\n        /* \".learneth/Solidity Beginner Course/9. Data Locations/dataLocations_answer.sol\":238:828  function f() public returns (MyStruct memory, MyStruct memory, MyStruct memory){... */\n    tag_3:\n      tag_8\n      tag_9\n      jump\t// in\n    tag_8:\n      mload(0x40)\n      tag_10\n      swap4\n      swap3\n      swap2\n      swap1\n      tag_11\n      jump\t// in\n    tag_10:\n      mload(0x40)\n      dup1\n      swap2\n      sub\n      swap1\n      return\n        /* \".learneth/Solidity Beginner Course/9. Data Locations/dataLocations_answer.sol\":1209:1326  function h(uint[] calldata _arr) external {... */\n    tag_4:\n      tag_12\n      0x04\n      dup1\n      calldatasize\n      sub\n      dup2\n      add\n      swap1\n      tag_13\n      swap2\n      swap1\n      tag_14\n      jump\t// in\n    tag_13:\n      tag_15\n      jump\t// in\n    tag_12:\n      stop\n        /* \".learneth/Solidity Beginner Course/9. Data Locations/dataLocations_answer.sol\":86:103  uint[] public arr */\n    tag_5:\n      tag_16\n      0x04\n      dup1\n      calldatasize\n      sub\n      dup2\n      add\n      swap1\n      tag_17\n      swap2\n      swap1\n      tag_18\n      jump\t// in\n    tag_17:\n      tag_19\n      jump\t// in\n    tag_16:\n      mload(0x40)\n      tag_20\n      swap2\n      swap1\n      tag_21\n      jump\t// in\n    tag_20:\n      mload(0x40)\n      dup1\n      swap2\n      sub\n      swap1\n      return\n        /* \".learneth/Solidity Beginner Course/9. Data Locations/dataLocations_answer.sol\":1071:1203  function g(uint[] memory _arr) public returns (uint[] memory) {... */\n    tag_6:\n      tag_22\n      0x04\n      dup1\n      calldatasize\n      sub\n      dup2\n      add\n      swap1\n      tag_23\n      swap2\n      swap1\n      tag_24\n      jump\t// in\n    tag_23:\n      tag_25\n      jump\t// in\n    tag_22:\n      mload(0x40)\n      tag_26\n      swap2\n      swap1\n      tag_27\n      jump\t// in\n    tag_26:\n      mload(0x40)\n      dup1\n      swap2\n      sub\n      swap1\n      return\n        /* \".learneth/Solidity Beginner Course/9. Data Locations/dataLocations_answer.sol\":189:231  mapping(uint => MyStruct) public myStructs */\n    tag_7:\n      tag_28\n      0x04\n      dup1\n      calldatasize\n      sub\n      dup2\n      add\n      swap1\n      tag_29\n      swap2\n      swap1\n      tag_18\n      jump\t// in\n    tag_29:\n      tag_30\n      jump\t// in\n    tag_28:\n      mload(0x40)\n      tag_31\n      swap2\n      swap1\n      tag_21\n      jump\t// in\n    tag_31:\n      mload(0x40)\n      dup1\n      swap2\n      sub\n      swap1\n      return\n        /* \".learneth/Solidity Beginner Course/9. Data Locations/dataLocations_answer.sol\":238:828  function f() public returns (MyStruct memory, MyStruct memory, MyStruct memory){... */\n    tag_9:\n        /* \".learneth/Solidity Beginner Course/9. Data Locations/dataLocations_answer.sol\":267:282  MyStruct memory */\n      tag_32\n      tag_33\n      jump\t// in\n    tag_32:\n        /* \".learneth/Solidity Beginner Course/9. Data Locations/dataLocations_answer.sol\":284:299  MyStruct memory */\n      tag_34\n      tag_33\n      jump\t// in\n    tag_34:\n        /* \".learneth/Solidity Beginner Course/9. Data Locations/dataLocations_answer.sol\":301:316  MyStruct memory */\n      tag_35\n      tag_33\n      jump\t// in\n    tag_35:\n        /* \".learneth/Solidity Beginner Course/9. Data Locations/dataLocations_answer.sol\":367:393  _f(arr, map, myStructs[1]) */\n      tag_37\n        /* \".learneth/Solidity Beginner Course/9. Data Locations/dataLocations_answer.sol\":370:373  arr */\n      0x00\n        /* \".learneth/Solidity Beginner Course/9. Data Locations/dataLocations_answer.sol\":367:393  _f(arr, map, myStructs[1]) */\n      dup1\n      sload\n      dup1\n      0x20\n      mul\n      0x20\n      add\n      mload(0x40)\n      swap1\n      dup2\n      add\n      0x40\n      mstore\n      dup1\n      swap3\n      swap2\n      swap1\n      dup2\n      dup2\n      mstore\n      0x20\n      add\n      dup3\n      dup1\n      sload\n      dup1\n      iszero\n      tag_38\n      jumpi\n      0x20\n      mul\n      dup3\n      add\n      swap2\n      swap1\n      0x00\n      mstore\n      keccak256(0x00, 0x20)\n      swap1\n    tag_39:\n      dup2\n      sload\n      dup2\n      mstore\n      0x20\n      add\n      swap1\n      0x01\n      add\n      swap1\n      dup1\n      dup4\n      gt\n      tag_39\n      jumpi\n    tag_38:\n      pop\n      pop\n      pop\n      pop\n      pop\n        /* \".learneth/Solidity Beginner Course/9. Data Locations/dataLocations_answer.sol\":375:378  map */\n      0x01\n        /* \".learneth/Solidity Beginner Course/9. Data Locations/dataLocations_answer.sol\":380:389  myStructs */\n      0x02\n        /* \".learneth/Solidity Beginner Course/9. Data Locations/dataLocations_answer.sol\":380:392  myStructs[1] */\n      0x00\n        /* \".learneth/Solidity Beginner Course/9. Data Locations/dataLocations_answer.sol\":390:391  1 */\n      0x01\n        /* \".learneth/Solidity Beginner Course/9. Data Locations/dataLocations_answer.sol\":380:392  myStructs[1] */\n      dup2\n      mstore\n      0x20\n      add\n      swap1\n      dup2\n      mstore\n      0x20\n      add\n      0x00\n      keccak256\n        /* \".learneth/Solidity Beginner Course/9. Data Locations/dataLocations_answer.sol\":367:369  _f */\n      tag_40\n        /* \".learneth/Solidity Beginner Course/9. Data Locations/dataLocations_answer.sol\":367:393  _f(arr, map, myStructs[1]) */\n      jump\t// in\n    tag_37:\n        /* \".learneth/Solidity Beginner Course/9. Data Locations/dataLocations_answer.sol\":442:467  MyStruct storage myStruct */\n      0x00\n        /* \".learneth/Solidity Beginner Course/9. Data Locations/dataLocations_answer.sol\":470:479  myStructs */\n      0x02\n        /* \".learneth/Solidity Beginner Course/9. Data Locations/dataLocations_answer.sol\":470:482  myStructs[1] */\n      0x00\n        /* \".learneth/Solidity Beginner Course/9. Data Locations/dataLocations_answer.sol\":480:481  1 */\n      0x01\n        /* \".learneth/Solidity Beginner Course/9. Data Locations/dataLocations_answer.sol\":470:482  myStructs[1] */\n      dup2\n      mstore\n      0x20\n      add\n      swap1\n      dup2\n      mstore\n      0x20\n      add\n      0x00\n      keccak256\n        /* \".learneth/Solidity Beginner Course/9. Data Locations/dataLocations_answer.sol\":442:482  MyStruct storage myStruct = myStructs[1] */\n      swap1\n      pop\n        /* \".learneth/Solidity Beginner Course/9. Data Locations/dataLocations_answer.sol\":507:508  4 */\n      0x04\n        /* \".learneth/Solidity Beginner Course/9. Data Locations/dataLocations_answer.sol\":492:500  myStruct */\n      dup2\n        /* \".learneth/Solidity Beginner Course/9. Data Locations/dataLocations_answer.sol\":492:504  myStruct.foo */\n      0x00\n      add\n        /* \".learneth/Solidity Beginner Course/9. Data Locations/dataLocations_answer.sol\":492:508  myStruct.foo = 4 */\n      dup2\n      swap1\n      sstore\n      pop\n        /* \".learneth/Solidity Beginner Course/9. Data Locations/dataLocations_answer.sol\":555:582  MyStruct memory myMemStruct */\n      0x00\n        /* \".learneth/Solidity Beginner Course/9. Data Locations/dataLocations_answer.sol\":585:596  MyStruct(0) */\n      mload(0x40)\n      dup1\n      0x20\n      add\n      0x40\n      mstore\n      dup1\n        /* \".learneth/Solidity Beginner Course/9. Data Locations/dataLocations_answer.sol\":594:595  0 */\n      0x00\n        /* \".learneth/Solidity Beginner Course/9. Data Locations/dataLocations_answer.sol\":585:596  MyStruct(0) */\n      dup2\n      mstore\n      pop\n        /* \".learneth/Solidity Beginner Course/9. Data Locations/dataLocations_answer.sol\":555:596  MyStruct memory myMemStruct = MyStruct(0) */\n      swap1\n      pop\n        /* \".learneth/Solidity Beginner Course/9. Data Locations/dataLocations_answer.sol\":606:634  MyStruct memory myMemStruct2 */\n      0x00\n        /* \".learneth/Solidity Beginner Course/9. Data Locations/dataLocations_answer.sol\":637:648  myMemStruct */\n      dup2\n        /* \".learneth/Solidity Beginner Course/9. Data Locations/dataLocations_answer.sol\":606:648  MyStruct memory myMemStruct2 = myMemStruct */\n      swap1\n      pop\n        /* \".learneth/Solidity Beginner Course/9. Data Locations/dataLocations_answer.sol\":677:678  1 */\n      0x01\n        /* \".learneth/Solidity Beginner Course/9. Data Locations/dataLocations_answer.sol\":658:670  myMemStruct2 */\n      dup2\n        /* \".learneth/Solidity Beginner Course/9. Data Locations/dataLocations_answer.sol\":658:674  myMemStruct2.foo */\n      0x00\n      add\n        /* \".learneth/Solidity Beginner Course/9. Data Locations/dataLocations_answer.sol\":658:678  myMemStruct2.foo = 1 */\n      dup2\n      dup2\n      mstore\n      pop\n      pop\n        /* \".learneth/Solidity Beginner Course/9. Data Locations/dataLocations_answer.sol\":697:725  MyStruct memory myMemStruct3 */\n      0x00\n        /* \".learneth/Solidity Beginner Course/9. Data Locations/dataLocations_answer.sol\":728:736  myStruct */\n      dup4\n        /* \".learneth/Solidity Beginner Course/9. Data Locations/dataLocations_answer.sol\":697:736  MyStruct memory myMemStruct3 = myStruct */\n      mload(0x40)\n      dup1\n      0x20\n      add\n      0x40\n      mstore\n      swap1\n      dup2\n      0x00\n      dup3\n      add\n      sload\n      dup2\n      mstore\n      pop\n      pop\n      swap1\n      pop\n        /* \".learneth/Solidity Beginner Course/9. Data Locations/dataLocations_answer.sol\":765:766  3 */\n      0x03\n        /* \".learneth/Solidity Beginner Course/9. Data Locations/dataLocations_answer.sol\":746:758  myMemStruct3 */\n      dup2\n        /* \".learneth/Solidity Beginner Course/9. Data Locations/dataLocations_answer.sol\":746:762  myMemStruct3.foo */\n      0x00\n      add\n        /* \".learneth/Solidity Beginner Course/9. Data Locations/dataLocations_answer.sol\":746:766  myMemStruct3.foo = 3 */\n      dup2\n      dup2\n      mstore\n      pop\n      pop\n        /* \".learneth/Solidity Beginner Course/9. Data Locations/dataLocations_answer.sol\":784:792  myStruct */\n      dup4\n        /* \".learneth/Solidity Beginner Course/9. Data Locations/dataLocations_answer.sol\":794:806  myMemStruct2 */\n      dup3\n        /* \".learneth/Solidity Beginner Course/9. Data Locations/dataLocations_answer.sol\":808:820  myMemStruct3 */\n      dup3\n        /* \".learneth/Solidity Beginner Course/9. Data Locations/dataLocations_answer.sol\":776:821  return (myStruct, myMemStruct2, myMemStruct3) */\n      dup3\n      mload(0x40)\n      dup1\n      0x20\n      add\n      0x40\n      mstore\n      swap1\n      dup2\n      0x00\n      dup3\n      add\n      sload\n      dup2\n      mstore\n      pop\n      pop\n      swap3\n      pop\n      swap7\n      pop\n      swap7\n      pop\n      swap7\n      pop\n      pop\n      pop\n      pop\n      pop\n        /* \".learneth/Solidity Beginner Course/9. Data Locations/dataLocations_answer.sol\":238:828  function f() public returns (MyStruct memory, MyStruct memory, MyStruct memory){... */\n      swap1\n      swap2\n      swap3\n      jump\t// out\n        /* \".learneth/Solidity Beginner Course/9. Data Locations/dataLocations_answer.sol\":1209:1326  function h(uint[] calldata _arr) external {... */\n    tag_15:\n      pop\n      pop\n      jump\t// out\n        /* \".learneth/Solidity Beginner Course/9. Data Locations/dataLocations_answer.sol\":86:103  uint[] public arr */\n    tag_19:\n      0x00\n      dup2\n      dup2\n      sload\n      dup2\n      lt\n      tag_42\n      jumpi\n      0x00\n      dup1\n      revert\n    tag_42:\n      swap1\n      0x00\n      mstore\n      keccak256(0x00, 0x20)\n      add\n      0x00\n      swap2\n      pop\n      swap1\n      pop\n      sload\n      dup2\n      jump\t// out\n        /* \".learneth/Solidity Beginner Course/9. Data Locations/dataLocations_answer.sol\":1071:1203  function g(uint[] memory _arr) public returns (uint[] memory) {... */\n    tag_25:\n        /* \".learneth/Solidity Beginner Course/9. Data Locations/dataLocations_answer.sol\":1118:1131  uint[] memory */\n      0x60\n        /* \".learneth/Solidity Beginner Course/9. Data Locations/dataLocations_answer.sol\":1195:1196  1 */\n      0x01\n        /* \".learneth/Solidity Beginner Course/9. Data Locations/dataLocations_answer.sol\":1185:1189  _arr */\n      dup3\n        /* \".learneth/Solidity Beginner Course/9. Data Locations/dataLocations_answer.sol\":1190:1191  0 */\n      0x00\n        /* \".learneth/Solidity Beginner Course/9. Data Locations/dataLocations_answer.sol\":1185:1192  _arr[0] */\n      dup2\n      mload\n      dup2\n      lt\n      tag_45\n      jumpi\n      mstore(0x00, 0x4e487b7100000000000000000000000000000000000000000000000000000000)\n      mstore(0x04, 0x32)\n      revert(0x00, 0x24)\n    tag_45:\n      0x20\n      mul\n      0x20\n      add\n      add\n        /* \".learneth/Solidity Beginner Course/9. Data Locations/dataLocations_answer.sol\":1185:1196  _arr[0] = 1 */\n      dup2\n      dup2\n      mstore\n      pop\n      pop\n        /* \".learneth/Solidity Beginner Course/9. Data Locations/dataLocations_answer.sol\":1071:1203  function g(uint[] memory _arr) public returns (uint[] memory) {... */\n      swap2\n      swap1\n      pop\n      jump\t// out\n        /* \".learneth/Solidity Beginner Course/9. Data Locations/dataLocations_answer.sol\":189:231  mapping(uint => MyStruct) public myStructs */\n    tag_30:\n      mstore(0x20, 0x02)\n      dup1\n      0x00\n      mstore\n      keccak256(0x00, 0x40)\n      0x00\n      swap2\n      pop\n      swap1\n      pop\n      dup1\n      0x00\n      add\n      sload\n      swap1\n      pop\n      dup2\n      jump\t// out\n        /* \".learneth/Solidity Beginner Course/9. Data Locations/dataLocations_answer.sol\":834:1026  function _f(... */\n    tag_40:\n      pop\n      pop\n      pop\n      jump\t// out\n    tag_33:\n      mload(0x40)\n      dup1\n      0x20\n      add\n      0x40\n      mstore\n      dup1\n      0x00\n      dup2\n      mstore\n      pop\n      swap1\n      jump\t// out\n        /* \"#utility.yul\":24:679   */\n    tag_48:\n        /* \"#utility.yul\":120:125   */\n      0x00\n        /* \"#utility.yul\":145:226   */\n      tag_50\n        /* \"#utility.yul\":161:225   */\n      tag_51\n        /* \"#utility.yul\":218:224   */\n      dup5\n        /* \"#utility.yul\":161:225   */\n      tag_52\n      jump\t// in\n    tag_51:\n        /* \"#utility.yul\":145:226   */\n      tag_53\n      jump\t// in\n    tag_50:\n        /* \"#utility.yul\":136:226   */\n      swap1\n      pop\n        /* \"#utility.yul\":246:251   */\n      dup1\n        /* \"#utility.yul\":275:281   */\n      dup4\n        /* \"#utility.yul\":268:273   */\n      dup3\n        /* \"#utility.yul\":261:282   */\n      mstore\n        /* \"#utility.yul\":309:313   */\n      0x20\n        /* \"#utility.yul\":302:307   */\n      dup3\n        /* \"#utility.yul\":298:314   */\n      add\n        /* \"#utility.yul\":291:314   */\n      swap1\n      pop\n        /* \"#utility.yul\":335:341   */\n      dup3\n        /* \"#utility.yul\":385:388   */\n      dup6\n        /* \"#utility.yul\":377:381   */\n      0x20\n        /* \"#utility.yul\":369:375   */\n      dup7\n        /* \"#utility.yul\":365:382   */\n      mul\n        /* \"#utility.yul\":360:363   */\n      dup3\n        /* \"#utility.yul\":356:383   */\n      add\n        /* \"#utility.yul\":353:389   */\n      gt\n        /* \"#utility.yul\":350:352   */\n      iszero\n      tag_54\n      jumpi\n        /* \"#utility.yul\":414:415   */\n      0x00\n        /* \"#utility.yul\":411:412   */\n      dup1\n        /* \"#utility.yul\":404:416   */\n      revert\n        /* \"#utility.yul\":350:352   */\n    tag_54:\n        /* \"#utility.yul\":450:451   */\n      0x00\n        /* \"#utility.yul\":435:673   */\n    tag_55:\n        /* \"#utility.yul\":460:466   */\n      dup6\n        /* \"#utility.yul\":457:458   */\n      dup2\n        /* \"#utility.yul\":454:467   */\n      lt\n        /* \"#utility.yul\":435:673   */\n      iszero\n      tag_57\n      jumpi\n        /* \"#utility.yul\":528:531   */\n      dup2\n        /* \"#utility.yul\":557:594   */\n      tag_58\n        /* \"#utility.yul\":590:593   */\n      dup9\n        /* \"#utility.yul\":578:588   */\n      dup3\n        /* \"#utility.yul\":557:594   */\n      tag_59\n      jump\t// in\n    tag_58:\n        /* \"#utility.yul\":552:555   */\n      dup5\n        /* \"#utility.yul\":545:595   */\n      mstore\n        /* \"#utility.yul\":624:628   */\n      0x20\n        /* \"#utility.yul\":619:622   */\n      dup5\n        /* \"#utility.yul\":615:629   */\n      add\n        /* \"#utility.yul\":608:629   */\n      swap4\n      pop\n        /* \"#utility.yul\":658:662   */\n      0x20\n        /* \"#utility.yul\":653:656   */\n      dup4\n        /* \"#utility.yul\":649:663   */\n      add\n        /* \"#utility.yul\":642:663   */\n      swap3\n      pop\n        /* \"#utility.yul\":495:673   */\n      pop\n        /* \"#utility.yul\":482:483   */\n      0x01\n        /* \"#utility.yul\":479:480   */\n      dup2\n        /* \"#utility.yul\":475:484   */\n      add\n        /* \"#utility.yul\":470:484   */\n      swap1\n      pop\n        /* \"#utility.yul\":435:673   */\n      jump(tag_55)\n    tag_57:\n        /* \"#utility.yul\":439:453   */\n      pop\n        /* \"#utility.yul\":126:679   */\n      pop\n      pop\n      swap4\n      swap3\n      pop\n      pop\n      pop\n      jump\t// out\n        /* \"#utility.yul\":702:1069   */\n    tag_60:\n        /* \"#utility.yul\":775:783   */\n      0x00\n        /* \"#utility.yul\":785:791   */\n      dup1\n        /* \"#utility.yul\":835:838   */\n      dup4\n        /* \"#utility.yul\":828:832   */\n      0x1f\n        /* \"#utility.yul\":820:826   */\n      dup5\n        /* \"#utility.yul\":816:833   */\n      add\n        /* \"#utility.yul\":812:839   */\n      slt\n        /* \"#utility.yul\":802:804   */\n      tag_62\n      jumpi\n        /* \"#utility.yul\":853:854   */\n      0x00\n        /* \"#utility.yul\":850:851   */\n      dup1\n        /* \"#utility.yul\":843:855   */\n      revert\n        /* \"#utility.yul\":802:804   */\n    tag_62:\n        /* \"#utility.yul\":889:895   */\n      dup3\n        /* \"#utility.yul\":876:896   */\n      calldataload\n        /* \"#utility.yul\":866:896   */\n      swap1\n      pop\n        /* \"#utility.yul\":919:937   */\n      0xffffffffffffffff\n        /* \"#utility.yul\":911:917   */\n      dup2\n        /* \"#utility.yul\":908:938   */\n      gt\n        /* \"#utility.yul\":905:907   */\n      iszero\n      tag_63\n      jumpi\n        /* \"#utility.yul\":951:952   */\n      0x00\n        /* \"#utility.yul\":948:949   */\n      dup1\n        /* \"#utility.yul\":941:953   */\n      revert\n        /* \"#utility.yul\":905:907   */\n    tag_63:\n        /* \"#utility.yul\":988:992   */\n      0x20\n        /* \"#utility.yul\":980:986   */\n      dup4\n        /* \"#utility.yul\":976:993   */\n      add\n        /* \"#utility.yul\":964:993   */\n      swap2\n      pop\n        /* \"#utility.yul\":1042:1045   */\n      dup4\n        /* \"#utility.yul\":1034:1038   */\n      0x20\n        /* \"#utility.yul\":1026:1032   */\n      dup3\n        /* \"#utility.yul\":1022:1039   */\n      mul\n        /* \"#utility.yul\":1012:1020   */\n      dup4\n        /* \"#utility.yul\":1008:1040   */\n      add\n        /* \"#utility.yul\":1005:1046   */\n      gt\n        /* \"#utility.yul\":1002:1004   */\n      iszero\n      tag_64\n      jumpi\n        /* \"#utility.yul\":1059:1060   */\n      0x00\n        /* \"#utility.yul\":1056:1057   */\n      dup1\n        /* \"#utility.yul\":1049:1061   */\n      revert\n        /* \"#utility.yul\":1002:1004   */\n    tag_64:\n        /* \"#utility.yul\":792:1069   */\n      swap3\n      pop\n      swap3\n      swap1\n      pop\n      jump\t// out\n        /* \"#utility.yul\":1092:1395   */\n    tag_65:\n        /* \"#utility.yul\":1163:1168   */\n      0x00\n        /* \"#utility.yul\":1212:1215   */\n      dup3\n        /* \"#utility.yul\":1205:1209   */\n      0x1f\n        /* \"#utility.yul\":1197:1203   */\n      dup4\n        /* \"#utility.yul\":1193:1210   */\n      add\n        /* \"#utility.yul\":1189:1216   */\n      slt\n        /* \"#utility.yul\":1179:1181   */\n      tag_67\n      jumpi\n        /* \"#utility.yul\":1230:1231   */\n      0x00\n        /* \"#utility.yul\":1227:1228   */\n      dup1\n        /* \"#utility.yul\":1220:1232   */\n      revert\n        /* \"#utility.yul\":1179:1181   */\n    tag_67:\n        /* \"#utility.yul\":1270:1276   */\n      dup2\n        /* \"#utility.yul\":1257:1277   */\n      calldataload\n        /* \"#utility.yul\":1295:1389   */\n      tag_68\n        /* \"#utility.yul\":1385:1388   */\n      dup5\n        /* \"#utility.yul\":1377:1383   */\n      dup3\n        /* \"#utility.yul\":1370:1374   */\n      0x20\n        /* \"#utility.yul\":1362:1368   */\n      dup7\n        /* \"#utility.yul\":1358:1375   */\n      add\n        /* \"#utility.yul\":1295:1389   */\n      tag_48\n      jump\t// in\n    tag_68:\n        /* \"#utility.yul\":1286:1389   */\n      swap2\n      pop\n        /* \"#utility.yul\":1169:1395   */\n      pop\n      swap3\n      swap2\n      pop\n      pop\n      jump\t// out\n        /* \"#utility.yul\":1401:1540   */\n    tag_59:\n        /* \"#utility.yul\":1447:1452   */\n      0x00\n        /* \"#utility.yul\":1485:1491   */\n      dup2\n        /* \"#utility.yul\":1472:1492   */\n      calldataload\n        /* \"#utility.yul\":1463:1492   */\n      swap1\n      pop\n        /* \"#utility.yul\":1501:1534   */\n      tag_70\n        /* \"#utility.yul\":1528:1533   */\n      dup2\n        /* \"#utility.yul\":1501:1534   */\n      tag_71\n      jump\t// in\n    tag_70:\n        /* \"#utility.yul\":1453:1540   */\n      swap3\n      swap2\n      pop\n      pop\n      jump\t// out\n        /* \"#utility.yul\":1546:1971   */\n    tag_14:\n        /* \"#utility.yul\":1632:1638   */\n      0x00\n        /* \"#utility.yul\":1640:1646   */\n      dup1\n        /* \"#utility.yul\":1689:1691   */\n      0x20\n        /* \"#utility.yul\":1677:1686   */\n      dup4\n        /* \"#utility.yul\":1668:1675   */\n      dup6\n        /* \"#utility.yul\":1664:1687   */\n      sub\n        /* \"#utility.yul\":1660:1692   */\n      slt\n        /* \"#utility.yul\":1657:1659   */\n      iszero\n      tag_73\n      jumpi\n        /* \"#utility.yul\":1705:1706   */\n      0x00\n        /* \"#utility.yul\":1702:1703   */\n      dup1\n        /* \"#utility.yul\":1695:1707   */\n      revert\n        /* \"#utility.yul\":1657:1659   */\n    tag_73:\n        /* \"#utility.yul\":1776:1777   */\n      0x00\n        /* \"#utility.yul\":1765:1774   */\n      dup4\n        /* \"#utility.yul\":1761:1778   */\n      add\n        /* \"#utility.yul\":1748:1779   */\n      calldataload\n        /* \"#utility.yul\":1806:1824   */\n      0xffffffffffffffff\n        /* \"#utility.yul\":1798:1804   */\n      dup2\n        /* \"#utility.yul\":1795:1825   */\n      gt\n        /* \"#utility.yul\":1792:1794   */\n      iszero\n      tag_74\n      jumpi\n        /* \"#utility.yul\":1838:1839   */\n      0x00\n        /* \"#utility.yul\":1835:1836   */\n      dup1\n        /* \"#utility.yul\":1828:1840   */\n      revert\n        /* \"#utility.yul\":1792:1794   */\n    tag_74:\n        /* \"#utility.yul\":1874:1954   */\n      tag_75\n        /* \"#utility.yul\":1946:1953   */\n      dup6\n        /* \"#utility.yul\":1937:1943   */\n      dup3\n        /* \"#utility.yul\":1926:1935   */\n      dup7\n        /* \"#utility.yul\":1922:1944   */\n      add\n        /* \"#utility.yul\":1874:1954   */\n      tag_60\n      jump\t// in\n    tag_75:\n        /* \"#utility.yul\":1856:1954   */\n      swap3\n      pop\n      swap3\n      pop\n        /* \"#utility.yul\":1719:1964   */\n      pop\n        /* \"#utility.yul\":1647:1971   */\n      swap3\n      pop\n      swap3\n      swap1\n      pop\n      jump\t// out\n        /* \"#utility.yul\":1977:2382   */\n    tag_24:\n        /* \"#utility.yul\":2061:2067   */\n      0x00\n        /* \"#utility.yul\":2110:2112   */\n      0x20\n        /* \"#utility.yul\":2098:2107   */\n      dup3\n        /* \"#utility.yul\":2089:2096   */\n      dup5\n        /* \"#utility.yul\":2085:2108   */\n      sub\n        /* \"#utility.yul\":2081:2113   */\n      slt\n        /* \"#utility.yul\":2078:2080   */\n      iszero\n      tag_77\n      jumpi\n        /* \"#utility.yul\":2126:2127   */\n      0x00\n        /* \"#utility.yul\":2123:2124   */\n      dup1\n        /* \"#utility.yul\":2116:2128   */\n      revert\n        /* \"#utility.yul\":2078:2080   */\n    tag_77:\n        /* \"#utility.yul\":2197:2198   */\n      0x00\n        /* \"#utility.yul\":2186:2195   */\n      dup3\n        /* \"#utility.yul\":2182:2199   */\n      add\n        /* \"#utility.yul\":2169:2200   */\n      calldataload\n        /* \"#utility.yul\":2227:2245   */\n      0xffffffffffffffff\n        /* \"#utility.yul\":2219:2225   */\n      dup2\n        /* \"#utility.yul\":2216:2246   */\n      gt\n        /* \"#utility.yul\":2213:2215   */\n      iszero\n      tag_78\n      jumpi\n        /* \"#utility.yul\":2259:2260   */\n      0x00\n        /* \"#utility.yul\":2256:2257   */\n      dup1\n        /* \"#utility.yul\":2249:2261   */\n      revert\n        /* \"#utility.yul\":2213:2215   */\n    tag_78:\n        /* \"#utility.yul\":2287:2365   */\n      tag_79\n        /* \"#utility.yul\":2357:2364   */\n      dup5\n        /* \"#utility.yul\":2348:2354   */\n      dup3\n        /* \"#utility.yul\":2337:2346   */\n      dup6\n        /* \"#utility.yul\":2333:2355   */\n      add\n        /* \"#utility.yul\":2287:2365   */\n      tag_65\n      jump\t// in\n    tag_79:\n        /* \"#utility.yul\":2277:2365   */\n      swap2\n      pop\n        /* \"#utility.yul\":2140:2375   */\n      pop\n        /* \"#utility.yul\":2068:2382   */\n      swap3\n      swap2\n      pop\n      pop\n      jump\t// out\n        /* \"#utility.yul\":2388:2650   */\n    tag_18:\n        /* \"#utility.yul\":2447:2453   */\n      0x00\n        /* \"#utility.yul\":2496:2498   */\n      0x20\n        /* \"#utility.yul\":2484:2493   */\n      dup3\n        /* \"#utility.yul\":2475:2482   */\n      dup5\n        /* \"#utility.yul\":2471:2494   */\n      sub\n        /* \"#utility.yul\":2467:2499   */\n      slt\n        /* \"#utility.yul\":2464:2466   */\n      iszero\n      tag_81\n      jumpi\n        /* \"#utility.yul\":2512:2513   */\n      0x00\n        /* \"#utility.yul\":2509:2510   */\n      dup1\n        /* \"#utility.yul\":2502:2514   */\n      revert\n        /* \"#utility.yul\":2464:2466   */\n    tag_81:\n        /* \"#utility.yul\":2555:2556   */\n      0x00\n        /* \"#utility.yul\":2580:2633   */\n      tag_82\n        /* \"#utility.yul\":2625:2632   */\n      dup5\n        /* \"#utility.yul\":2616:2622   */\n      dup3\n        /* \"#utility.yul\":2605:2614   */\n      dup6\n        /* \"#utility.yul\":2601:2623   */\n      add\n        /* \"#utility.yul\":2580:2633   */\n      tag_59\n      jump\t// in\n    tag_82:\n        /* \"#utility.yul\":2570:2633   */\n      swap2\n      pop\n        /* \"#utility.yul\":2526:2643   */\n      pop\n        /* \"#utility.yul\":2454:2650   */\n      swap3\n      swap2\n      pop\n      pop\n      jump\t// out\n        /* \"#utility.yul\":2656:2835   */\n    tag_83:\n        /* \"#utility.yul\":2725:2735   */\n      0x00\n        /* \"#utility.yul\":2746:2792   */\n      tag_85\n        /* \"#utility.yul\":2788:2791   */\n      dup4\n        /* \"#utility.yul\":2780:2786   */\n      dup4\n        /* \"#utility.yul\":2746:2792   */\n      tag_86\n      jump\t// in\n    tag_85:\n        /* \"#utility.yul\":2824:2828   */\n      0x20\n        /* \"#utility.yul\":2819:2822   */\n      dup4\n        /* \"#utility.yul\":2815:2829   */\n      add\n        /* \"#utility.yul\":2801:2829   */\n      swap1\n      pop\n        /* \"#utility.yul\":2736:2835   */\n      swap3\n      swap2\n      pop\n      pop\n      jump\t// out\n        /* \"#utility.yul\":2871:3603   */\n    tag_87:\n        /* \"#utility.yul\":2990:2993   */\n      0x00\n        /* \"#utility.yul\":3019:3073   */\n      tag_89\n        /* \"#utility.yul\":3067:3072   */\n      dup3\n        /* \"#utility.yul\":3019:3073   */\n      tag_90\n      jump\t// in\n    tag_89:\n        /* \"#utility.yul\":3089:3175   */\n      tag_91\n        /* \"#utility.yul\":3168:3174   */\n      dup2\n        /* \"#utility.yul\":3163:3166   */\n      dup6\n        /* \"#utility.yul\":3089:3175   */\n      tag_92\n      jump\t// in\n    tag_91:\n        /* \"#utility.yul\":3082:3175   */\n      swap4\n      pop\n        /* \"#utility.yul\":3199:3255   */\n      tag_93\n        /* \"#utility.yul\":3249:3254   */\n      dup4\n        /* \"#utility.yul\":3199:3255   */\n      tag_94\n      jump\t// in\n    tag_93:\n        /* \"#utility.yul\":3278:3285   */\n      dup1\n        /* \"#utility.yul\":3309:3310   */\n      0x00\n        /* \"#utility.yul\":3294:3578   */\n    tag_95:\n        /* \"#utility.yul\":3319:3325   */\n      dup4\n        /* \"#utility.yul\":3316:3317   */\n      dup2\n        /* \"#utility.yul\":3313:3326   */\n      lt\n        /* \"#utility.yul\":3294:3578   */\n      iszero\n      tag_97\n      jumpi\n        /* \"#utility.yul\":3395:3401   */\n      dup2\n        /* \"#utility.yul\":3389:3402   */\n      mload\n        /* \"#utility.yul\":3422:3485   */\n      tag_98\n        /* \"#utility.yul\":3481:3484   */\n      dup9\n        /* \"#utility.yul\":3466:3479   */\n      dup3\n        /* \"#utility.yul\":3422:3485   */\n      tag_83\n      jump\t// in\n    tag_98:\n        /* \"#utility.yul\":3415:3485   */\n      swap8\n      pop\n        /* \"#utility.yul\":3508:3568   */\n      tag_99\n        /* \"#utility.yul\":3561:3567   */\n      dup4\n        /* \"#utility.yul\":3508:3568   */\n      tag_100\n      jump\t// in\n    tag_99:\n        /* \"#utility.yul\":3498:3568   */\n      swap3\n      pop\n        /* \"#utility.yul\":3354:3578   */\n      pop\n        /* \"#utility.yul\":3341:3342   */\n      0x01\n        /* \"#utility.yul\":3338:3339   */\n      dup2\n        /* \"#utility.yul\":3334:3343   */\n      add\n        /* \"#utility.yul\":3329:3343   */\n      swap1\n      pop\n        /* \"#utility.yul\":3294:3578   */\n      jump(tag_95)\n    tag_97:\n        /* \"#utility.yul\":3298:3312   */\n      pop\n        /* \"#utility.yul\":3594:3597   */\n      dup6\n        /* \"#utility.yul\":3587:3597   */\n      swap4\n      pop\n        /* \"#utility.yul\":2995:3603   */\n      pop\n      pop\n      pop\n      swap3\n      swap2\n      pop\n      pop\n      jump\t// out\n        /* \"#utility.yul\":3679:4009   */\n    tag_101:\n        /* \"#utility.yul\":3824:3828   */\n      0x20\n        /* \"#utility.yul\":3819:3822   */\n      dup3\n        /* \"#utility.yul\":3815:3829   */\n      add\n        /* \"#utility.yul\":3910:3914   */\n      0x00\n        /* \"#utility.yul\":3903:3908   */\n      dup3\n        /* \"#utility.yul\":3899:3915   */\n      add\n        /* \"#utility.yul\":3893:3916   */\n      mload\n        /* \"#utility.yul\":3929:3992   */\n      tag_103\n        /* \"#utility.yul\":3986:3990   */\n      0x00\n        /* \"#utility.yul\":3981:3984   */\n      dup6\n        /* \"#utility.yul\":3977:3991   */\n      add\n        /* \"#utility.yul\":3963:3975   */\n      dup3\n        /* \"#utility.yul\":3929:3992   */\n      tag_86\n      jump\t// in\n    tag_103:\n        /* \"#utility.yul\":3839:4002   */\n      pop\n        /* \"#utility.yul\":3793:4009   */\n      pop\n      pop\n      pop\n      jump\t// out\n        /* \"#utility.yul\":4015:4123   */\n    tag_86:\n        /* \"#utility.yul\":4092:4116   */\n      tag_105\n        /* \"#utility.yul\":4110:4115   */\n      dup2\n        /* \"#utility.yul\":4092:4116   */\n      tag_106\n      jump\t// in\n    tag_105:\n        /* \"#utility.yul\":4087:4090   */\n      dup3\n        /* \"#utility.yul\":4080:4117   */\n      mstore\n        /* \"#utility.yul\":4070:4123   */\n      pop\n      pop\n      jump\t// out\n        /* \"#utility.yul\":4129:4247   */\n    tag_107:\n        /* \"#utility.yul\":4216:4240   */\n      tag_109\n        /* \"#utility.yul\":4234:4239   */\n      dup2\n        /* \"#utility.yul\":4216:4240   */\n      tag_106\n      jump\t// in\n    tag_109:\n        /* \"#utility.yul\":4211:4214   */\n      dup3\n        /* \"#utility.yul\":4204:4241   */\n      mstore\n        /* \"#utility.yul\":4194:4247   */\n      pop\n      pop\n      jump\t// out\n        /* \"#utility.yul\":4253:4626   */\n    tag_27:\n        /* \"#utility.yul\":4396:4400   */\n      0x00\n        /* \"#utility.yul\":4434:4436   */\n      0x20\n        /* \"#utility.yul\":4423:4432   */\n      dup3\n        /* \"#utility.yul\":4419:4437   */\n      add\n        /* \"#utility.yul\":4411:4437   */\n      swap1\n      pop\n        /* \"#utility.yul\":4483:4492   */\n      dup2\n        /* \"#utility.yul\":4477:4481   */\n      dup2\n        /* \"#utility.yul\":4473:4493   */\n      sub\n        /* \"#utility.yul\":4469:4470   */\n      0x00\n        /* \"#utility.yul\":4458:4467   */\n      dup4\n        /* \"#utility.yul\":4454:4471   */\n      add\n        /* \"#utility.yul\":4447:4494   */\n      mstore\n        /* \"#utility.yul\":4511:4619   */\n      tag_111\n        /* \"#utility.yul\":4614:4618   */\n      dup2\n        /* \"#utility.yul\":4605:4611   */\n      dup5\n        /* \"#utility.yul\":4511:4619   */\n      tag_87\n      jump\t// in\n    tag_111:\n        /* \"#utility.yul\":4503:4619   */\n      swap1\n      pop\n        /* \"#utility.yul\":4401:4626   */\n      swap3\n      swap2\n      pop\n      pop\n      jump\t// out\n        /* \"#utility.yul\":4632:5362   */\n    tag_11:\n        /* \"#utility.yul\":4925:4929   */\n      0x00\n        /* \"#utility.yul\":4963:4965   */\n      0x60\n        /* \"#utility.yul\":4952:4961   */\n      dup3\n        /* \"#utility.yul\":4948:4966   */\n      add\n        /* \"#utility.yul\":4940:4966   */\n      swap1\n      pop\n        /* \"#utility.yul\":4976:5095   */\n      tag_113\n        /* \"#utility.yul\":5092:5093   */\n      0x00\n        /* \"#utility.yul\":5081:5090   */\n      dup4\n        /* \"#utility.yul\":5077:5094   */\n      add\n        /* \"#utility.yul\":5068:5074   */\n      dup7\n        /* \"#utility.yul\":4976:5095   */\n      tag_101\n      jump\t// in\n    tag_113:\n        /* \"#utility.yul\":5105:5225   */\n      tag_114\n        /* \"#utility.yul\":5221:5223   */\n      0x20\n        /* \"#utility.yul\":5210:5219   */\n      dup4\n        /* \"#utility.yul\":5206:5224   */\n      add\n        /* \"#utility.yul\":5197:5203   */\n      dup6\n        /* \"#utility.yul\":5105:5225   */\n      tag_101\n      jump\t// in\n    tag_114:\n        /* \"#utility.yul\":5235:5355   */\n      tag_115\n        /* \"#utility.yul\":5351:5353   */\n      0x40\n        /* \"#utility.yul\":5340:5349   */\n      dup4\n        /* \"#utility.yul\":5336:5354   */\n      add\n        /* \"#utility.yul\":5327:5333   */\n      dup5\n        /* \"#utility.yul\":5235:5355   */\n      tag_101\n      jump\t// in\n    tag_115:\n        /* \"#utility.yul\":4930:5362   */\n      swap5\n      swap4\n      pop\n      pop\n      pop\n      pop\n      jump\t// out\n        /* \"#utility.yul\":5368:5590   */\n    tag_21:\n        /* \"#utility.yul\":5461:5465   */\n      0x00\n        /* \"#utility.yul\":5499:5501   */\n      0x20\n        /* \"#utility.yul\":5488:5497   */\n      dup3\n        /* \"#utility.yul\":5484:5502   */\n      add\n        /* \"#utility.yul\":5476:5502   */\n      swap1\n      pop\n        /* \"#utility.yul\":5512:5583   */\n      tag_117\n        /* \"#utility.yul\":5580:5581   */\n      0x00\n        /* \"#utility.yul\":5569:5578   */\n      dup4\n        /* \"#utility.yul\":5565:5582   */\n      add\n        /* \"#utility.yul\":5556:5562   */\n      dup5\n        /* \"#utility.yul\":5512:5583   */\n      tag_107\n      jump\t// in\n    tag_117:\n        /* \"#utility.yul\":5466:5590   */\n      swap3\n      swap2\n      pop\n      pop\n      jump\t// out\n        /* \"#utility.yul\":5596:5725   */\n    tag_53:\n        /* \"#utility.yul\":5630:5636   */\n      0x00\n        /* \"#utility.yul\":5657:5677   */\n      tag_119\n      tag_120\n      jump\t// in\n    tag_119:\n        /* \"#utility.yul\":5647:5677   */\n      swap1\n      pop\n        /* \"#utility.yul\":5686:5719   */\n      tag_121\n        /* \"#utility.yul\":5714:5718   */\n      dup3\n        /* \"#utility.yul\":5706:5712   */\n      dup3\n        /* \"#utility.yul\":5686:5719   */\n      tag_122\n      jump\t// in\n    tag_121:\n        /* \"#utility.yul\":5637:5725   */\n      swap2\n      swap1\n      pop\n      jump\t// out\n        /* \"#utility.yul\":5731:5806   */\n    tag_120:\n        /* \"#utility.yul\":5764:5770   */\n      0x00\n        /* \"#utility.yul\":5797:5799   */\n      0x40\n        /* \"#utility.yul\":5791:5800   */\n      mload\n        /* \"#utility.yul\":5781:5800   */\n      swap1\n      pop\n        /* \"#utility.yul\":5771:5806   */\n      swap1\n      jump\t// out\n        /* \"#utility.yul\":5812:6123   */\n    tag_52:\n        /* \"#utility.yul\":5889:5893   */\n      0x00\n        /* \"#utility.yul\":5979:5997   */\n      0xffffffffffffffff\n        /* \"#utility.yul\":5971:5977   */\n      dup3\n        /* \"#utility.yul\":5968:5998   */\n      gt\n        /* \"#utility.yul\":5965:5967   */\n      iszero\n      tag_125\n      jumpi\n        /* \"#utility.yul\":6001:6019   */\n      tag_126\n      tag_127\n      jump\t// in\n    tag_126:\n        /* \"#utility.yul\":5965:5967   */\n    tag_125:\n        /* \"#utility.yul\":6051:6055   */\n      0x20\n        /* \"#utility.yul\":6043:6049   */\n      dup3\n        /* \"#utility.yul\":6039:6056   */\n      mul\n        /* \"#utility.yul\":6031:6056   */\n      swap1\n      pop\n        /* \"#utility.yul\":6111:6115   */\n      0x20\n        /* \"#utility.yul\":6105:6109   */\n      dup2\n        /* \"#utility.yul\":6101:6116   */\n      add\n        /* \"#utility.yul\":6093:6116   */\n      swap1\n      pop\n        /* \"#utility.yul\":5894:6123   */\n      swap2\n      swap1\n      pop\n      jump\t// out\n        /* \"#utility.yul\":6129:6261   */\n    tag_94:\n        /* \"#utility.yul\":6196:6200   */\n      0x00\n        /* \"#utility.yul\":6219:6222   */\n      dup2\n        /* \"#utility.yul\":6211:6222   */\n      swap1\n      pop\n        /* \"#utility.yul\":6249:6253   */\n      0x20\n        /* \"#utility.yul\":6244:6247   */\n      dup3\n        /* \"#utility.yul\":6240:6254   */\n      add\n        /* \"#utility.yul\":6232:6254   */\n      swap1\n      pop\n        /* \"#utility.yul\":6201:6261   */\n      swap2\n      swap1\n      pop\n      jump\t// out\n        /* \"#utility.yul\":6267:6381   */\n    tag_90:\n        /* \"#utility.yul\":6334:6340   */\n      0x00\n        /* \"#utility.yul\":6368:6373   */\n      dup2\n        /* \"#utility.yul\":6362:6374   */\n      mload\n        /* \"#utility.yul\":6352:6374   */\n      swap1\n      pop\n        /* \"#utility.yul\":6341:6381   */\n      swap2\n      swap1\n      pop\n      jump\t// out\n        /* \"#utility.yul\":6387:6500   */\n    tag_100:\n        /* \"#utility.yul\":6457:6461   */\n      0x00\n        /* \"#utility.yul\":6489:6493   */\n      0x20\n        /* \"#utility.yul\":6484:6487   */\n      dup3\n        /* \"#utility.yul\":6480:6494   */\n      add\n        /* \"#utility.yul\":6472:6494   */\n      swap1\n      pop\n        /* \"#utility.yul\":6462:6500   */\n      swap2\n      swap1\n      pop\n      jump\t// out\n        /* \"#utility.yul\":6506:6690   */\n    tag_92:\n        /* \"#utility.yul\":6605:6616   */\n      0x00\n        /* \"#utility.yul\":6639:6645   */\n      dup3\n        /* \"#utility.yul\":6634:6637   */\n      dup3\n        /* \"#utility.yul\":6627:6646   */\n      mstore\n        /* \"#utility.yul\":6679:6683   */\n      0x20\n        /* \"#utility.yul\":6674:6677   */\n      dup3\n        /* \"#utility.yul\":6670:6684   */\n      add\n        /* \"#utility.yul\":6655:6684   */\n      swap1\n      pop\n        /* \"#utility.yul\":6617:6690   */\n      swap3\n      swap2\n      pop\n      pop\n      jump\t// out\n        /* \"#utility.yul\":6696:6773   */\n    tag_106:\n        /* \"#utility.yul\":6733:6740   */\n      0x00\n        /* \"#utility.yul\":6762:6767   */\n      dup2\n        /* \"#utility.yul\":6751:6767   */\n      swap1\n      pop\n        /* \"#utility.yul\":6741:6773   */\n      swap2\n      swap1\n      pop\n      jump\t// out\n        /* \"#utility.yul\":6779:7060   */\n    tag_122:\n        /* \"#utility.yul\":6862:6889   */\n      tag_134\n        /* \"#utility.yul\":6884:6888   */\n      dup3\n        /* \"#utility.yul\":6862:6889   */\n      tag_135\n      jump\t// in\n    tag_134:\n        /* \"#utility.yul\":6854:6860   */\n      dup2\n        /* \"#utility.yul\":6850:6890   */\n      add\n        /* \"#utility.yul\":6992:6998   */\n      dup2\n        /* \"#utility.yul\":6980:6990   */\n      dup2\n        /* \"#utility.yul\":6977:6999   */\n      lt\n        /* \"#utility.yul\":6956:6974   */\n      0xffffffffffffffff\n        /* \"#utility.yul\":6944:6954   */\n      dup3\n        /* \"#utility.yul\":6941:6975   */\n      gt\n        /* \"#utility.yul\":6938:7000   */\n      or\n        /* \"#utility.yul\":6935:6937   */\n      iszero\n      tag_136\n      jumpi\n        /* \"#utility.yul\":7003:7021   */\n      tag_137\n      tag_127\n      jump\t// in\n    tag_137:\n        /* \"#utility.yul\":6935:6937   */\n    tag_136:\n        /* \"#utility.yul\":7043:7053   */\n      dup1\n        /* \"#utility.yul\":7039:7041   */\n      0x40\n        /* \"#utility.yul\":7032:7054   */\n      mstore\n        /* \"#utility.yul\":6822:7060   */\n      pop\n      pop\n      pop\n      jump\t// out\n        /* \"#utility.yul\":7066:7246   */\n    tag_127:\n        /* \"#utility.yul\":7114:7191   */\n      0x4e487b7100000000000000000000000000000000000000000000000000000000\n        /* \"#utility.yul\":7111:7112   */\n      0x00\n        /* \"#utility.yul\":7104:7192   */\n      mstore\n        /* \"#utility.yul\":7211:7215   */\n      0x41\n        /* \"#utility.yul\":7208:7209   */\n      0x04\n        /* \"#utility.yul\":7201:7216   */\n      mstore\n        /* \"#utility.yul\":7235:7239   */\n      0x24\n        /* \"#utility.yul\":7232:7233   */\n      0x00\n        /* \"#utility.yul\":7225:7240   */\n      revert\n        /* \"#utility.yul\":7252:7354   */\n    tag_135:\n        /* \"#utility.yul\":7293:7299   */\n      0x00\n        /* \"#utility.yul\":7344:7346   */\n      0x1f\n        /* \"#utility.yul\":7340:7347   */\n      not\n        /* \"#utility.yul\":7335:7337   */\n      0x1f\n        /* \"#utility.yul\":7328:7333   */\n      dup4\n        /* \"#utility.yul\":7324:7338   */\n      add\n        /* \"#utility.yul\":7320:7348   */\n      and\n        /* \"#utility.yul\":7310:7348   */\n      swap1\n      pop\n        /* \"#utility.yul\":7300:7354   */\n      swap2\n      swap1\n      pop\n      jump\t// out\n        /* \"#utility.yul\":7360:7482   */\n    tag_71:\n        /* \"#utility.yul\":7433:7457   */\n      tag_141\n        /* \"#utility.yul\":7451:7456   */\n      dup2\n        /* \"#utility.yul\":7433:7457   */\n      tag_106\n      jump\t// in\n    tag_141:\n        /* \"#utility.yul\":7426:7431   */\n      dup2\n        /* \"#utility.yul\":7423:7458   */\n      eq\n        /* \"#utility.yul\":7413:7415   */\n      tag_142\n      jumpi\n        /* \"#utility.yul\":7472:7473   */\n      0x00\n        /* \"#utility.yul\":7469:7470   */\n      dup1\n        /* \"#utility.yul\":7462:7474   */\n      revert\n        /* \"#utility.yul\":7413:7415   */\n    tag_142:\n        /* \"#utility.yul\":7403:7482   */\n      pop\n      jump\t// out\n\n    auxdata: 0xa264697066735822122099701cd0c8da68c2232497a46e3407079c2a85d66722a675bd232b82b1fee2e564736f6c63430008040033\n}\n",
				"bytecode": {
					"linkReferences": {},
					"object": "608060405234801561001057600080fd5b5061070b806100206000396000f3fe608060405234801561001057600080fd5b50600436106100575760003560e01c806326121ff01461005c57806340dcbb081461007c57806371e5ee5f14610098578063baf71609146100c8578063df90c8d3146100f8575b600080fd5b610064610128565b60405161007393929190610567565b60405180910390f35b610096600480360381019061009191906103e6565b610244565b005b6100b260048036038101906100ad919061046c565b610248565b6040516100bf919061059e565b60405180910390f35b6100e260048036038101906100dd919061042b565b61026c565b6040516100ef9190610545565b60405180910390f35b610112600480360381019061010d919061046c565b6102bb565b60405161011f919061059e565b60405180910390f35b6101306102de565b6101386102de565b6101406102de565b6101af600080548060200260200160405190810160405280929190818152602001828054801561018f57602002820191906000526020600020905b81548152602001906001019080831161017b575b5050505050600160026000600181526020019081526020016000206102d9565b600060026000600181526020019081526020016000209050600481600001819055506000604051806020016040528060008152509050600081905060018160000181815250506000836040518060200160405290816000820154815250509050600381600001818152505083828282604051806020016040529081600082015481525050925096509650965050505050909192565b5050565b6000818154811061025857600080fd5b906000526020600020016000915090505481565b60606001826000815181106102aa577f4e487b7100000000000000000000000000000000000000000000000000000000600052603260045260246000fd5b602002602001018181525050919050565b60026020528060005260406000206000915090508060000154905081565b505050565b6040518060200160405280600081525090565b60006103046102ff846105de565b6105b9565b9050808382526020820190508285602086028201111561032357600080fd5b60005b85811015610353578161033988826103d1565b845260208401935060208301925050600181019050610326565b5050509392505050565b60008083601f84011261036f57600080fd5b8235905067ffffffffffffffff81111561038857600080fd5b6020830191508360208202830111156103a057600080fd5b9250929050565b600082601f8301126103b857600080fd5b81356103c88482602086016102f1565b91505092915050565b6000813590506103e0816106be565b92915050565b600080602083850312156103f957600080fd5b600083013567ffffffffffffffff81111561041357600080fd5b61041f8582860161035d565b92509250509250929050565b60006020828403121561043d57600080fd5b600082013567ffffffffffffffff81111561045757600080fd5b610463848285016103a7565b91505092915050565b60006020828403121561047e57600080fd5b600061048c848285016103d1565b91505092915050565b60006104a18383610527565b60208301905092915050565b60006104b88261061a565b6104c28185610632565b93506104cd8361060a565b8060005b838110156104fe5781516104e58882610495565b97506104f083610625565b9250506001810190506104d1565b5085935050505092915050565b6020820160008201516105216000850182610527565b50505050565b61053081610643565b82525050565b61053f81610643565b82525050565b6000602082019050818103600083015261055f81846104ad565b905092915050565b600060608201905061057c600083018661050b565b610589602083018561050b565b610596604083018461050b565b949350505050565b60006020820190506105b36000830184610536565b92915050565b60006105c36105d4565b90506105cf828261064d565b919050565b6000604051905090565b600067ffffffffffffffff8211156105f9576105f861067e565b5b602082029050602081019050919050565b6000819050602082019050919050565b600081519050919050565b6000602082019050919050565b600082825260208201905092915050565b6000819050919050565b610656826106ad565b810181811067ffffffffffffffff821117156106755761067461067e565b5b80604052505050565b7f4e487b7100000000000000000000000000000000000000000000000000000000600052604160045260246000fd5b6000601f19601f8301169050919050565b6106c781610643565b81146106d257600080fd5b5056fea264697066735822122099701cd0c8da68c2232497a46e3407079c2a85d66722a675bd232b82b1fee2e564736f6c63430008040033",
					"opcodes": "PUSH1 0x80 PUSH1 0x40 MSTORE CALLVALUE DUP1 ISZERO PUSH2 0x10 JUMPI PUSH1 0x0 DUP1 REVERT JUMPDEST POP PUSH2 0x70B DUP1 PUSH2 0x20 PUSH1 0x0 CODECOPY PUSH1 0x0 RETURN INVALID PUSH1 0x80 PUSH1 0x40 MSTORE CALLVALUE DUP1 ISZERO PUSH2 0x10 JUMPI PUSH1 0x0 DUP1 REVERT JUMPDEST POP PUSH1 0x4 CALLDATASIZE LT PUSH2 0x57 JUMPI PUSH1 0x0 CALLDATALOAD PUSH1 0xE0 SHR DUP1 PUSH4 0x26121FF0 EQ PUSH2 0x5C JUMPI DUP1 PUSH4 0x40DCBB08 EQ PUSH2 0x7C JUMPI DUP1 PUSH4 0x71E5EE5F EQ PUSH2 0x98 JUMPI DUP1 PUSH4 0xBAF71609 EQ PUSH2 0xC8 JUMPI DUP1 PUSH4 0xDF90C8D3 EQ PUSH2 0xF8 JUMPI JUMPDEST PUSH1 0x0 DUP1 REVERT JUMPDEST PUSH2 0x64 PUSH2 0x128 JUMP JUMPDEST PUSH1 0x40 MLOAD PUSH2 0x73 SWAP4 SWAP3 SWAP2 SWAP1 PUSH2 0x567 JUMP JUMPDEST PUSH1 0x40 MLOAD DUP1 SWAP2 SUB SWAP1 RETURN JUMPDEST PUSH2 0x96 PUSH1 0x4 DUP1 CALLDATASIZE SUB DUP2 ADD SWAP1 PUSH2 0x91 SWAP2 SWAP1 PUSH2 0x3E6 JUMP JUMPDEST PUSH2 0x244 JUMP JUMPDEST STOP JUMPDEST PUSH2 0xB2 PUSH1 0x4 DUP1 CALLDATASIZE SUB DUP2 ADD SWAP1 PUSH2 0xAD SWAP2 SWAP1 PUSH2 0x46C JUMP JUMPDEST PUSH2 0x248 JUMP JUMPDEST PUSH1 0x40 MLOAD PUSH2 0xBF SWAP2 SWAP1 PUSH2 0x59E JUMP JUMPDEST PUSH1 0x40 MLOAD DUP1 SWAP2 SUB SWAP1 RETURN JUMPDEST PUSH2 0xE2 PUSH1 0x4 DUP1 CALLDATASIZE SUB DUP2 ADD SWAP1 PUSH2 0xDD SWAP2 SWAP1 PUSH2 0x42B JUMP JUMPDEST PUSH2 0x26C JUMP JUMPDEST PUSH1 0x40 MLOAD PUSH2 0xEF SWAP2 SWAP1 PUSH2 0x545 JUMP JUMPDEST PUSH1 0x40 MLOAD DUP1 SWAP2 SUB SWAP1 RETURN JUMPDEST PUSH2 0x112 PUSH1 0x4 DUP1 CALLDATASIZE SUB DUP2 ADD SWAP1 PUSH2 0x10D SWAP2 SWAP1 PUSH2 0x46C JUMP JUMPDEST PUSH2 0x2BB JUMP JUMPDEST PUSH1 0x40 MLOAD PUSH2 0x11F SWAP2 SWAP1 PUSH2 0x59E JUMP JUMPDEST PUSH1 0x40 MLOAD DUP1 SWAP2 SUB SWAP1 RETURN JUMPDEST PUSH2 0x130 PUSH2 0x2DE JUMP JUMPDEST PUSH2 0x138 PUSH2 0x2DE JUMP JUMPDEST PUSH2 0x140 PUSH2 0x2DE JUMP JUMPDEST PUSH2 0x1AF PUSH1 0x0 DUP1 SLOAD DUP1 PUSH1 0x20 MUL PUSH1 0x20 ADD PUSH1 0x40 MLOAD SWAP1 DUP2 ADD PUSH1 0x40 MSTORE DUP1 SWAP3 SWAP2 SWAP1 DUP2 DUP2 MSTORE PUSH1 0x20 ADD DUP3 DUP1 SLOAD DUP1 ISZERO PUSH2 0x18F JUMPI PUSH1 0x20 MUL DUP3 ADD SWAP2 SWAP1 PUSH1 0x0 MSTORE PUSH1 0x20 PUSH1 0x0 KECCAK256 SWAP1 JUMPDEST DUP2 SLOAD DUP2 MSTORE PUSH1 0x20 ADD SWAP1 PUSH1 0x1 ADD SWAP1 DUP1 DUP4 GT PUSH2 0x17B JUMPI JUMPDEST POP POP POP POP POP PUSH1 0x1 PUSH1 0x2 PUSH1 0x0 PUSH1 0x1 DUP2 MSTORE PUSH1 0x20 ADD SWAP1 DUP2 MSTORE PUSH1 0x20 ADD PUSH1 0x0 KECCAK256 PUSH2 0x2D9 JUMP JUMPDEST PUSH1 0x0 PUSH1 0x2 PUSH1 0x0 PUSH1 0x1 DUP2 MSTORE PUSH1 0x20 ADD SWAP1 DUP2 MSTORE PUSH1 0x20 ADD PUSH1 0x0 KECCAK256 SWAP1 POP PUSH1 0x4 DUP2 PUSH1 0x0 ADD DUP2 SWAP1 SSTORE POP PUSH1 0x0 PUSH1 0x40 MLOAD DUP1 PUSH1 0x20 ADD PUSH1 0x40 MSTORE DUP1 PUSH1 0x0 DUP2 MSTORE POP SWAP1 POP PUSH1 0x0 DUP2 SWAP1 POP PUSH1 0x1 DUP2 PUSH1 0x0 ADD DUP2 DUP2 MSTORE POP POP PUSH1 0x0 DUP4 PUSH1 0x40 MLOAD DUP1 PUSH1 0x20 ADD PUSH1 0x40 MSTORE SWAP1 DUP2 PUSH1 0x0 DUP3 ADD SLOAD DUP2 MSTORE POP POP SWAP1 POP PUSH1 0x3 DUP2 PUSH1 0x0 ADD DUP2 DUP2 MSTORE POP POP DUP4 DUP3 DUP3 DUP3 PUSH1 0x40 MLOAD DUP1 PUSH1 0x20 ADD PUSH1 0x40 MSTORE SWAP1 DUP2 PUSH1 0x0 DUP3 ADD SLOAD DUP2 MSTORE POP POP SWAP3 POP SWAP7 POP SWAP7 POP SWAP7 POP POP POP POP POP SWAP1 SWAP2 SWAP3 JUMP JUMPDEST POP POP JUMP JUMPDEST PUSH1 0x0 DUP2 DUP2 SLOAD DUP2 LT PUSH2 0x258 JUMPI PUSH1 0x0 DUP1 REVERT JUMPDEST SWAP1 PUSH1 0x0 MSTORE PUSH1 0x20 PUSH1 0x0 KECCAK256 ADD PUSH1 0x0 SWAP2 POP SWAP1 POP SLOAD DUP2 JUMP JUMPDEST PUSH1 0x60 PUSH1 0x1 DUP3 PUSH1 0x0 DUP2 MLOAD DUP2 LT PUSH2 0x2AA JUMPI PUSH32 0x4E487B7100000000000000000000000000000000000000000000000000000000 PUSH1 0x0 MSTORE PUSH1 0x32 PUSH1 0x4 MSTORE PUSH1 0x24 PUSH1 0x0 REVERT JUMPDEST PUSH1 0x20 MUL PUSH1 0x20 ADD ADD DUP2 DUP2 MSTORE POP POP SWAP2 SWAP1 POP JUMP JUMPDEST PUSH1 0x2 PUSH1 0x20 MSTORE DUP1 PUSH1 0x0 MSTORE PUSH1 0x40 PUSH1 0x0 KECCAK256 PUSH1 0x0 SWAP2 POP SWAP1 POP DUP1 PUSH1 0x0 ADD SLOAD SWAP1 POP DUP2 JUMP JUMPDEST POP POP POP JUMP JUMPDEST PUSH1 0x40 MLOAD DUP1 PUSH1 0x20 ADD PUSH1 0x40 MSTORE DUP1 PUSH1 0x0 DUP2 MSTORE POP SWAP1 JUMP JUMPDEST PUSH1 0x0 PUSH2 0x304 PUSH2 0x2FF DUP5 PUSH2 0x5DE JUMP JUMPDEST PUSH2 0x5B9 JUMP JUMPDEST SWAP1 POP DUP1 DUP4 DUP3 MSTORE PUSH1 0x20 DUP3 ADD SWAP1 POP DUP3 DUP6 PUSH1 0x20 DUP7 MUL DUP3 ADD GT ISZERO PUSH2 0x323 JUMPI PUSH1 0x0 DUP1 REVERT JUMPDEST PUSH1 0x0 JUMPDEST DUP6 DUP2 LT ISZERO PUSH2 0x353 JUMPI DUP2 PUSH2 0x339 DUP9 DUP3 PUSH2 0x3D1 JUMP JUMPDEST DUP5 MSTORE PUSH1 0x20 DUP5 ADD SWAP4 POP PUSH1 0x20 DUP4 ADD SWAP3 POP POP PUSH1 0x1 DUP2 ADD SWAP1 POP PUSH2 0x326 JUMP JUMPDEST POP POP POP SWAP4 SWAP3 POP POP POP JUMP JUMPDEST PUSH1 0x0 DUP1 DUP4 PUSH1 0x1F DUP5 ADD SLT PUSH2 0x36F JUMPI PUSH1 0x0 DUP1 REVERT JUMPDEST DUP3 CALLDATALOAD SWAP1 POP PUSH8 0xFFFFFFFFFFFFFFFF DUP2 GT ISZERO PUSH2 0x388 JUMPI PUSH1 0x0 DUP1 REVERT JUMPDEST PUSH1 0x20 DUP4 ADD SWAP2 POP DUP4 PUSH1 0x20 DUP3 MUL DUP4 ADD GT ISZERO PUSH2 0x3A0 JUMPI PUSH1 0x0 DUP1 REVERT JUMPDEST SWAP3 POP SWAP3 SWAP1 POP JUMP JUMPDEST PUSH1 0x0 DUP3 PUSH1 0x1F DUP4 ADD SLT PUSH2 0x3B8 JUMPI PUSH1 0x0 DUP1 REVERT JUMPDEST DUP2 CALLDATALOAD PUSH2 0x3C8 DUP5 DUP3 PUSH1 0x20 DUP7 ADD PUSH2 0x2F1 JUMP JUMPDEST SWAP2 POP POP SWAP3 SWAP2 POP POP JUMP JUMPDEST PUSH1 0x0 DUP2 CALLDATALOAD SWAP1 POP PUSH2 0x3E0 DUP2 PUSH2 0x6BE JUMP JUMPDEST SWAP3 SWAP2 POP POP JUMP JUMPDEST PUSH1 0x0 DUP1 PUSH1 0x20 DUP4 DUP6 SUB SLT ISZERO PUSH2 0x3F9 JUMPI PUSH1 0x0 DUP1 REVERT JUMPDEST PUSH1 0x0 DUP4 ADD CALLDATALOAD PUSH8 0xFFFFFFFFFFFFFFFF DUP2 GT ISZERO PUSH2 0x413 JUMPI PUSH1 0x0 DUP1 REVERT JUMPDEST PUSH2 0x41F DUP6 DUP3 DUP7 ADD PUSH2 0x35D JUMP JUMPDEST SWAP3 POP SWAP3 POP POP SWAP3 POP SWAP3 SWAP1 POP JUMP JUMPDEST PUSH1 0x0 PUSH1 0x20 DUP3 DUP5 SUB SLT ISZERO PUSH2 0x43D JUMPI PUSH1 0x0 DUP1 REVERT JUMPDEST PUSH1 0x0 DUP3 ADD CALLDATALOAD PUSH8 0xFFFFFFFFFFFFFFFF DUP2 GT ISZERO PUSH2 0x457 JUMPI PUSH1 0x0 DUP1 REVERT JUMPDEST PUSH2 0x463 DUP5 DUP3 DUP6 ADD PUSH2 0x3A7 JUMP JUMPDEST SWAP2 POP POP SWAP3 SWAP2 POP POP JUMP JUMPDEST PUSH1 0x0 PUSH1 0x20 DUP3 DUP5 SUB SLT ISZERO PUSH2 0x47E JUMPI PUSH1 0x0 DUP1 REVERT JUMPDEST PUSH1 0x0 PUSH2 0x48C DUP5 DUP3 DUP6 ADD PUSH2 0x3D1 JUMP JUMPDEST SWAP2 POP POP SWAP3 SWAP2 POP POP JUMP JUMPDEST PUSH1 0x0 PUSH2 0x4A1 DUP4 DUP4 PUSH2 0x527 JUMP JUMPDEST PUSH1 0x20 DUP4 ADD SWAP1 POP SWAP3 SWAP2 POP POP JUMP JUMPDEST PUSH1 0x0 PUSH2 0x4B8 DUP3 PUSH2 0x61A JUMP JUMPDEST PUSH2 0x4C2 DUP2 DUP6 PUSH2 0x632 JUMP JUMPDEST SWAP4 POP PUSH2 0x4CD DUP4 PUSH2 0x60A JUMP JUMPDEST DUP1 PUSH1 0x0 JUMPDEST DUP4 DUP2 LT ISZERO PUSH2 0x4FE JUMPI DUP2 MLOAD PUSH2 0x4E5 DUP9 DUP3 PUSH2 0x495 JUMP JUMPDEST SWAP8 POP PUSH2 0x4F0 DUP4 PUSH2 0x625 JUMP JUMPDEST SWAP3 POP POP PUSH1 0x1 DUP2 ADD SWAP1 POP PUSH2 0x4D1 JUMP JUMPDEST POP DUP6 SWAP4 POP POP POP POP SWAP3 SWAP2 POP POP JUMP JUMPDEST PUSH1 0x20 DUP3 ADD PUSH1 0x0 DUP3 ADD MLOAD PUSH2 0x521 PUSH1 0x0 DUP6 ADD DUP3 PUSH2 0x527 JUMP JUMPDEST POP POP POP POP JUMP JUMPDEST PUSH2 0x530 DUP2 PUSH2 0x643 JUMP JUMPDEST DUP3 MSTORE POP POP JUMP JUMPDEST PUSH2 0x53F DUP2 PUSH2 0x643 JUMP JUMPDEST DUP3 MSTORE POP POP JUMP JUMPDEST PUSH1 0x0 PUSH1 0x20 DUP3 ADD SWAP1 POP DUP2 DUP2 SUB PUSH1 0x0 DUP4 ADD MSTORE PUSH2 0x55F DUP2 DUP5 PUSH2 0x4AD JUMP JUMPDEST SWAP1 POP SWAP3 SWAP2 POP POP JUMP JUMPDEST PUSH1 0x0 PUSH1 0x60 DUP3 ADD SWAP1 POP PUSH2 0x57C PUSH1 0x0 DUP4 ADD DUP7 PUSH2 0x50B JUMP JUMPDEST PUSH2 0x589 PUSH1 0x20 DUP4 ADD DUP6 PUSH2 0x50B JUMP JUMPDEST PUSH2 0x596 PUSH1 0x40 DUP4 ADD DUP5 PUSH2 0x50B JUMP JUMPDEST SWAP5 SWAP4 POP POP POP POP JUMP JUMPDEST PUSH1 0x0 PUSH1 0x20 DUP3 ADD SWAP1 POP PUSH2 0x5B3 PUSH1 0x0 DUP4 ADD DUP5 PUSH2 0x536 JUMP JUMPDEST SWAP3 SWAP2 POP POP JUMP JUMPDEST PUSH1 0x0 PUSH2 0x5C3 PUSH2 0x5D4 JUMP JUMPDEST SWAP1 POP PUSH2 0x5CF DUP3 DUP3 PUSH2 0x64D JUMP JUMPDEST SWAP2 SWAP1 POP JUMP JUMPDEST PUSH1 0x0 PUSH1 0x40 MLOAD SWAP1 POP SWAP1 JUMP JUMPDEST PUSH1 0x0 PUSH8 0xFFFFFFFFFFFFFFFF DUP3 GT ISZERO PUSH2 0x5F9 JUMPI PUSH2 0x5F8 PUSH2 0x67E JUMP JUMPDEST JUMPDEST PUSH1 0x20 DUP3 MUL SWAP1 POP PUSH1 0x20 DUP2 ADD SWAP1 POP SWAP2 SWAP1 POP JUMP JUMPDEST PUSH1 0x0 DUP2 SWAP1 POP PUSH1 0x20 DUP3 ADD SWAP1 POP SWAP2 SWAP1 POP JUMP JUMPDEST PUSH1 0x0 DUP2 MLOAD SWAP1 POP SWAP2 SWAP1 POP JUMP JUMPDEST PUSH1 0x0 PUSH1 0x20 DUP3 ADD SWAP1 POP SWAP2 SWAP1 POP JUMP JUMPDEST PUSH1 0x0 DUP3 DUP3 MSTORE PUSH1 0x20 DUP3 ADD SWAP1 POP SWAP3 SWAP2 POP POP JUMP JUMPDEST PUSH1 0x0 DUP2 SWAP1 POP SWAP2 SWAP1 POP JUMP JUMPDEST PUSH2 0x656 DUP3 PUSH2 0x6AD JUMP JUMPDEST DUP2 ADD DUP2 DUP2 LT PUSH8 0xFFFFFFFFFFFFFFFF DUP3 GT OR ISZERO PUSH2 0x675 JUMPI PUSH2 0x674 PUSH2 0x67E JUMP JUMPDEST JUMPDEST DUP1 PUSH1 0x40 MSTORE POP POP POP JUMP JUMPDEST PUSH32 0x4E487B7100000000000000000000000000000000000000000000000000000000 PUSH1 0x0 MSTORE PUSH1 0x41 PUSH1 0x4 MSTORE PUSH1 0x24 PUSH1 0x0 REVERT JUMPDEST PUSH1 0x0 PUSH1 0x1F NOT PUSH1 0x1F DUP4 ADD AND SWAP1 POP SWAP2 SWAP1 POP JUMP JUMPDEST PUSH2 0x6C7 DUP2 PUSH2 0x643 JUMP JUMPDEST DUP2 EQ PUSH2 0x6D2 JUMPI PUSH1 0x0 DUP1 REVERT JUMPDEST POP JUMP INVALID LOG2 PUSH5 0x6970667358 0x22 SLT KECCAK256 SWAP10 PUSH17 0x1CD0C8DA68C2232497A46E3407079C2A85 0xD6 PUSH8 0x22A675BD232B82B1 INVALID 0xE2 0xE5 PUSH5 0x736F6C6343 STOP ADDMOD DIV STOP CALLER "
				},
				"gasEstimates": {
					"creation": {
						"codeDepositCost": "360600",
						"executionCost": "399",
						"totalCost": "360999"
					},
					"external": {
						"arr(uint256)": "infinite",
						"f()": "infinite",
						"g(uint256[])": "infinite",
						"h(uint256[])": "474",
						"myStructs(uint256)": "infinite"
					},
					"internal": {
						"_f(uint256[] memory,mapping(uint256 => address),struct DataLocations.MyStruct storage pointer)": "15"
					}
				},
				"methodIdentifiers": {
					"arr(uint256)": "71e5ee5f",
					"f()": "26121ff0",
					"g(uint256[])": "baf71609",
					"h(uint256[])": "40dcbb08",
					"myStructs(uint256)": "df90c8d3"
				}
			},
			"userdoc": {
				"kind": "user",
				"methods": {},
				"version": 1
			}
		}
	}
}