{
	".learneth/Solidity Beginner Course/9. Data Locations/dataLocations_answer.sol": {
		"DataLocations": {
			"abi": [
				{
					"inputs": [
						{
							"internalType": "uint256",
							"name": "",
							"type": "uint256"
						}
					],
					"name": "arr",
					"outputs": [
						{
							"internalType": "uint256",
							"name": "",
							"type": "uint256"
						}
					],
					"stateMutability": "view",
					"type": "function"
				},
				{
					"inputs": [],
					"name": "f",
					"outputs": [
						{
							"components": [
								{
									"internalType": "uint256",
									"name": "foo",
									"type": "uint256"
								}
							],
							"internalType": "struct DataLocations.MyStruct",
							"name": "",
							"type": "tuple"
						},
						{
							"components": [
								{
									"internalType": "uint256",
									"name": "foo",
									"type": "uint256"
								}
							],
							"internalType": "struct DataLocations.MyStruct",
							"name": "",
							"type": "tuple"
						},
						{
							"components": [
								{
									"internalType": "uint256",
									"name": "foo",
									"type": "uint256"
								}
							],
							"internalType": "struct DataLocations.MyStruct",
							"name": "",
							"type": "tuple"
						}
					],
					"stateMutability": "nonpayable",
					"type": "function"
				},
				{
					"inputs": [
						{
							"internalType": "uint256[]",
							"name": "_arr",
							"type": "uint256[]"
						},
						{
							"internalType": "uint256",
							"name": "n",
							"type": "uint256"
						}
					],
					"name": "g",
					"outputs": [
						{
							"internalType": "uint256[]",
							"name": "",
							"type": "uint256[]"
						}
					],
					"stateMutability": "nonpayable",
					"type": "function"
				},
				{
					"inputs": [
						{
							"internalType": "uint256[]",
							"name": "_arr",
							"type": "uint256[]"
						}
					],
					"name": "h",
					"outputs": [],
					"stateMutability": "nonpayable",
					"type": "function"
				},
				{
					"inputs": [
						{
							"internalType": "uint256",
							"name": "",
							"type": "uint256"
						}
					],
					"name": "myStructs",
					"outputs": [
						{
							"internalType": "uint256",
							"name": "foo",
							"type": "uint256"
						}
					],
					"stateMutability": "view",
					"type": "function"
				}
			],
			"devdoc": {
				"kind": "dev",
				"methods": {},
				"version": 1
			},
			"evm": {
				"assembly": "    /* \".learneth/Solidity Beginner Course/9. Data Locations/dataLocations_answer.sol\":57:1337  contract DataLocations {... */\n  mstore(0x40, 0x80)\n  callvalue\n  dup1\n  iszero\n  tag_1\n  jumpi\n  0x00\n  dup1\n  revert\ntag_1:\n  pop\n  dataSize(sub_0)\n  dup1\n  dataOffset(sub_0)\n  0x00\n  codecopy\n  0x00\n  return\nstop\n\nsub_0: assembly {\n        /* \".learneth/Solidity Beginner Course/9. Data Locations/dataLocations_answer.sol\":57:1337  contract DataLocations {... */\n      mstore(0x40, 0x80)\n      callvalue\n      dup1\n      iszero\n      tag_1\n      jumpi\n      0x00\n      dup1\n      revert\n    tag_1:\n      pop\n      jumpi(tag_2, lt(calldatasize, 0x04))\n      shr(0xe0, calldataload(0x00))\n      dup1\n      0x26121ff0\n      eq\n      tag_3\n      jumpi\n      dup1\n      0x40dcbb08\n      eq\n      tag_4\n      jumpi\n      dup1\n      0x71e5ee5f\n      eq\n      tag_5\n      jumpi\n      dup1\n      0xd82a09b7\n      eq\n      tag_6\n      jumpi\n      dup1\n      0xdf90c8d3\n      eq\n      tag_7\n      jumpi\n    tag_2:\n      0x00\n      dup1\n      revert\n        /* \".learneth/Solidity Beginner Course/9. Data Locations/dataLocations_answer.sol\":238:828  function f() public returns (MyStruct memory, MyStruct memory, MyStruct memory){... */\n    tag_3:\n      tag_8\n      tag_9\n      jump\t// in\n    tag_8:\n      mload(0x40)\n      tag_10\n      swap4\n      swap3\n      swap2\n      swap1\n      tag_11\n      jump\t// in\n    tag_10:\n      mload(0x40)\n      dup1\n      swap2\n      sub\n      swap1\n      return\n        /* \".learneth/Solidity Beginner Course/9. Data Locations/dataLocations_answer.sol\":1218:1335  function h(uint[] calldata _arr) external {... */\n    tag_4:\n      tag_12\n      0x04\n      dup1\n      calldatasize\n      sub\n      dup2\n      add\n      swap1\n      tag_13\n      swap2\n      swap1\n      tag_14\n      jump\t// in\n    tag_13:\n      tag_15\n      jump\t// in\n    tag_12:\n      stop\n        /* \".learneth/Solidity Beginner Course/9. Data Locations/dataLocations_answer.sol\":86:103  uint[] public arr */\n    tag_5:\n      tag_16\n      0x04\n      dup1\n      calldatasize\n      sub\n      dup2\n      add\n      swap1\n      tag_17\n      swap2\n      swap1\n      tag_18\n      jump\t// in\n    tag_17:\n      tag_19\n      jump\t// in\n    tag_16:\n      mload(0x40)\n      tag_20\n      swap2\n      swap1\n      tag_21\n      jump\t// in\n    tag_20:\n      mload(0x40)\n      dup1\n      swap2\n      sub\n      swap1\n      return\n        /* \".learneth/Solidity Beginner Course/9. Data Locations/dataLocations_answer.sol\":1072:1212  function g(uint[] memory _arr, uint n) public returns (uint[] memory) {... */\n    tag_6:\n      tag_22\n      0x04\n      dup1\n      calldatasize\n      sub\n      dup2\n      add\n      swap1\n      tag_23\n      swap2\n      swap1\n      tag_24\n      jump\t// in\n    tag_23:\n      tag_25\n      jump\t// in\n    tag_22:\n      mload(0x40)\n      tag_26\n      swap2\n      swap1\n      tag_27\n      jump\t// in\n    tag_26:\n      mload(0x40)\n      dup1\n      swap2\n      sub\n      swap1\n      return\n        /* \".learneth/Solidity Beginner Course/9. Data Locations/dataLocations_answer.sol\":189:231  mapping(uint => MyStruct) public myStructs */\n    tag_7:\n      tag_28\n      0x04\n      dup1\n      calldatasize\n      sub\n      dup2\n      add\n      swap1\n      tag_29\n      swap2\n      swap1\n      tag_18\n      jump\t// in\n    tag_29:\n      tag_30\n      jump\t// in\n    tag_28:\n      mload(0x40)\n      tag_31\n      swap2\n      swap1\n      tag_21\n      jump\t// in\n    tag_31:\n      mload(0x40)\n      dup1\n      swap2\n      sub\n      swap1\n      return\n        /* \".learneth/Solidity Beginner Course/9. Data Locations/dataLocations_answer.sol\":238:828  function f() public returns (MyStruct memory, MyStruct memory, MyStruct memory){... */\n    tag_9:\n        /* \".learneth/Solidity Beginner Course/9. Data Locations/dataLocations_answer.sol\":267:282  MyStruct memory */\n      tag_32\n      tag_33\n      jump\t// in\n    tag_32:\n        /* \".learneth/Solidity Beginner Course/9. Data Locations/dataLocations_answer.sol\":284:299  MyStruct memory */\n      tag_34\n      tag_33\n      jump\t// in\n    tag_34:\n        /* \".learneth/Solidity Beginner Course/9. Data Locations/dataLocations_answer.sol\":301:316  MyStruct memory */\n      tag_35\n      tag_33\n      jump\t// in\n    tag_35:\n        /* \".learneth/Solidity Beginner Course/9. Data Locations/dataLocations_answer.sol\":367:393  _f(arr, map, myStructs[1]) */\n      tag_37\n        /* \".learneth/Solidity Beginner Course/9. Data Locations/dataLocations_answer.sol\":370:373  arr */\n      0x00\n        /* \".learneth/Solidity Beginner Course/9. Data Locations/dataLocations_answer.sol\":375:378  map */\n      0x01\n        /* \".learneth/Solidity Beginner Course/9. Data Locations/dataLocations_answer.sol\":380:389  myStructs */\n      0x02\n        /* \".learneth/Solidity Beginner Course/9. Data Locations/dataLocations_answer.sol\":380:392  myStructs[1] */\n      0x00\n        /* \".learneth/Solidity Beginner Course/9. Data Locations/dataLocations_answer.sol\":390:391  1 */\n      0x01\n        /* \".learneth/Solidity Beginner Course/9. Data Locations/dataLocations_answer.sol\":380:392  myStructs[1] */\n      dup2\n      mstore\n      0x20\n      add\n      swap1\n      dup2\n      mstore\n      0x20\n      add\n      0x00\n      keccak256\n        /* \".learneth/Solidity Beginner Course/9. Data Locations/dataLocations_answer.sol\":367:369  _f */\n      tag_38\n        /* \".learneth/Solidity Beginner Course/9. Data Locations/dataLocations_answer.sol\":367:393  _f(arr, map, myStructs[1]) */\n      jump\t// in\n    tag_37:\n        /* \".learneth/Solidity Beginner Course/9. Data Locations/dataLocations_answer.sol\":442:467  MyStruct storage myStruct */\n      0x00\n        /* \".learneth/Solidity Beginner Course/9. Data Locations/dataLocations_answer.sol\":470:479  myStructs */\n      0x02\n        /* \".learneth/Solidity Beginner Course/9. Data Locations/dataLocations_answer.sol\":470:482  myStructs[1] */\n      0x00\n        /* \".learneth/Solidity Beginner Course/9. Data Locations/dataLocations_answer.sol\":480:481  1 */\n      0x01\n        /* \".learneth/Solidity Beginner Course/9. Data Locations/dataLocations_answer.sol\":470:482  myStructs[1] */\n      dup2\n      mstore\n      0x20\n      add\n      swap1\n      dup2\n      mstore\n      0x20\n      add\n      0x00\n      keccak256\n        /* \".learneth/Solidity Beginner Course/9. Data Locations/dataLocations_answer.sol\":442:482  MyStruct storage myStruct = myStructs[1] */\n      swap1\n      pop\n        /* \".learneth/Solidity Beginner Course/9. Data Locations/dataLocations_answer.sol\":507:508  4 */\n      0x04\n        /* \".learneth/Solidity Beginner Course/9. Data Locations/dataLocations_answer.sol\":492:500  myStruct */\n      dup2\n        /* \".learneth/Solidity Beginner Course/9. Data Locations/dataLocations_answer.sol\":492:504  myStruct.foo */\n      0x00\n      add\n        /* \".learneth/Solidity Beginner Course/9. Data Locations/dataLocations_answer.sol\":492:508  myStruct.foo = 4 */\n      dup2\n      swap1\n      sstore\n      pop\n        /* \".learneth/Solidity Beginner Course/9. Data Locations/dataLocations_answer.sol\":555:582  MyStruct memory myMemStruct */\n      0x00\n        /* \".learneth/Solidity Beginner Course/9. Data Locations/dataLocations_answer.sol\":585:596  MyStruct(0) */\n      mload(0x40)\n      dup1\n      0x20\n      add\n      0x40\n      mstore\n      dup1\n        /* \".learneth/Solidity Beginner Course/9. Data Locations/dataLocations_answer.sol\":594:595  0 */\n      0x00\n        /* \".learneth/Solidity Beginner Course/9. Data Locations/dataLocations_answer.sol\":585:596  MyStruct(0) */\n      dup2\n      mstore\n      pop\n        /* \".learneth/Solidity Beginner Course/9. Data Locations/dataLocations_answer.sol\":555:596  MyStruct memory myMemStruct = MyStruct(0) */\n      swap1\n      pop\n        /* \".learneth/Solidity Beginner Course/9. Data Locations/dataLocations_answer.sol\":606:634  MyStruct memory myMemStruct2 */\n      0x00\n        /* \".learneth/Solidity Beginner Course/9. Data Locations/dataLocations_answer.sol\":637:648  myMemStruct */\n      dup2\n        /* \".learneth/Solidity Beginner Course/9. Data Locations/dataLocations_answer.sol\":606:648  MyStruct memory myMemStruct2 = myMemStruct */\n      swap1\n      pop\n        /* \".learneth/Solidity Beginner Course/9. Data Locations/dataLocations_answer.sol\":677:678  1 */\n      0x01\n        /* \".learneth/Solidity Beginner Course/9. Data Locations/dataLocations_answer.sol\":658:670  myMemStruct2 */\n      dup2\n        /* \".learneth/Solidity Beginner Course/9. Data Locations/dataLocations_answer.sol\":658:674  myMemStruct2.foo */\n      0x00\n      add\n        /* \".learneth/Solidity Beginner Course/9. Data Locations/dataLocations_answer.sol\":658:678  myMemStruct2.foo = 1 */\n      dup2\n      dup2\n      mstore\n      pop\n      pop\n        /* \".learneth/Solidity Beginner Course/9. Data Locations/dataLocations_answer.sol\":697:725  MyStruct memory myMemStruct3 */\n      0x00\n        /* \".learneth/Solidity Beginner Course/9. Data Locations/dataLocations_answer.sol\":728:736  myStruct */\n      dup4\n        /* \".learneth/Solidity Beginner Course/9. Data Locations/dataLocations_answer.sol\":697:736  MyStruct memory myMemStruct3 = myStruct */\n      mload(0x40)\n      dup1\n      0x20\n      add\n      0x40\n      mstore\n      swap1\n      dup2\n      0x00\n      dup3\n      add\n      sload\n      dup2\n      mstore\n      pop\n      pop\n      swap1\n      pop\n        /* \".learneth/Solidity Beginner Course/9. Data Locations/dataLocations_answer.sol\":765:766  3 */\n      0x03\n        /* \".learneth/Solidity Beginner Course/9. Data Locations/dataLocations_answer.sol\":746:758  myMemStruct3 */\n      dup2\n        /* \".learneth/Solidity Beginner Course/9. Data Locations/dataLocations_answer.sol\":746:762  myMemStruct3.foo */\n      0x00\n      add\n        /* \".learneth/Solidity Beginner Course/9. Data Locations/dataLocations_answer.sol\":746:766  myMemStruct3.foo = 3 */\n      dup2\n      dup2\n      mstore\n      pop\n      pop\n        /* \".learneth/Solidity Beginner Course/9. Data Locations/dataLocations_answer.sol\":784:792  myStruct */\n      dup4\n        /* \".learneth/Solidity Beginner Course/9. Data Locations/dataLocations_answer.sol\":794:806  myMemStruct2 */\n      dup3\n        /* \".learneth/Solidity Beginner Course/9. Data Locations/dataLocations_answer.sol\":808:820  myMemStruct3 */\n      dup3\n        /* \".learneth/Solidity Beginner Course/9. Data Locations/dataLocations_answer.sol\":776:821  return (myStruct, myMemStruct2, myMemStruct3) */\n      dup3\n      mload(0x40)\n      dup1\n      0x20\n      add\n      0x40\n      mstore\n      swap1\n      dup2\n      0x00\n      dup3\n      add\n      sload\n      dup2\n      mstore\n      pop\n      pop\n      swap3\n      pop\n      swap7\n      pop\n      swap7\n      pop\n      swap7\n      pop\n      pop\n      pop\n      pop\n      pop\n        /* \".learneth/Solidity Beginner Course/9. Data Locations/dataLocations_answer.sol\":238:828  function f() public returns (MyStruct memory, MyStruct memory, MyStruct memory){... */\n      swap1\n      swap2\n      swap3\n      jump\t// out\n        /* \".learneth/Solidity Beginner Course/9. Data Locations/dataLocations_answer.sol\":1218:1335  function h(uint[] calldata _arr) external {... */\n    tag_15:\n      pop\n      pop\n      jump\t// out\n        /* \".learneth/Solidity Beginner Course/9. Data Locations/dataLocations_answer.sol\":86:103  uint[] public arr */\n    tag_19:\n      0x00\n      dup2\n      dup2\n      sload\n      dup2\n      lt\n      tag_40\n      jumpi\n      0x00\n      dup1\n      revert\n    tag_40:\n      swap1\n      0x00\n      mstore\n      keccak256(0x00, 0x20)\n      add\n      0x00\n      swap2\n      pop\n      swap1\n      pop\n      sload\n      dup2\n      jump\t// out\n        /* \".learneth/Solidity Beginner Course/9. Data Locations/dataLocations_answer.sol\":1072:1212  function g(uint[] memory _arr, uint n) public returns (uint[] memory) {... */\n    tag_25:\n        /* \".learneth/Solidity Beginner Course/9. Data Locations/dataLocations_answer.sol\":1127:1140  uint[] memory */\n      0x60\n        /* \".learneth/Solidity Beginner Course/9. Data Locations/dataLocations_answer.sol\":1204:1205  1 */\n      0x01\n        /* \".learneth/Solidity Beginner Course/9. Data Locations/dataLocations_answer.sol\":1194:1198  _arr */\n      dup4\n        /* \".learneth/Solidity Beginner Course/9. Data Locations/dataLocations_answer.sol\":1199:1200  0 */\n      0x00\n        /* \".learneth/Solidity Beginner Course/9. Data Locations/dataLocations_answer.sol\":1194:1201  _arr[0] */\n      dup2\n      mload\n      dup2\n      lt\n      tag_43\n      jumpi\n      mstore(0x00, 0x4e487b7100000000000000000000000000000000000000000000000000000000)\n      mstore(0x04, 0x32)\n      revert(0x00, 0x24)\n    tag_43:\n      0x20\n      mul\n      0x20\n      add\n      add\n        /* \".learneth/Solidity Beginner Course/9. Data Locations/dataLocations_answer.sol\":1194:1205  _arr[0] = 1 */\n      dup2\n      dup2\n      mstore\n      pop\n      pop\n        /* \".learneth/Solidity Beginner Course/9. Data Locations/dataLocations_answer.sol\":1072:1212  function g(uint[] memory _arr, uint n) public returns (uint[] memory) {... */\n      swap3\n      swap2\n      pop\n      pop\n      jump\t// out\n        /* \".learneth/Solidity Beginner Course/9. Data Locations/dataLocations_answer.sol\":189:231  mapping(uint => MyStruct) public myStructs */\n    tag_30:\n      mstore(0x20, 0x02)\n      dup1\n      0x00\n      mstore\n      keccak256(0x00, 0x40)\n      0x00\n      swap2\n      pop\n      swap1\n      pop\n      dup1\n      0x00\n      add\n      sload\n      swap1\n      pop\n      dup2\n      jump\t// out\n        /* \".learneth/Solidity Beginner Course/9. Data Locations/dataLocations_answer.sol\":834:1027  function _f(... */\n    tag_38:\n      pop\n      pop\n      pop\n      jump\t// out\n    tag_33:\n      mload(0x40)\n      dup1\n      0x20\n      add\n      0x40\n      mstore\n      dup1\n      0x00\n      dup2\n      mstore\n      pop\n      swap1\n      jump\t// out\n        /* \"#utility.yul\":24:679   */\n    tag_46:\n        /* \"#utility.yul\":120:125   */\n      0x00\n        /* \"#utility.yul\":145:226   */\n      tag_48\n        /* \"#utility.yul\":161:225   */\n      tag_49\n        /* \"#utility.yul\":218:224   */\n      dup5\n        /* \"#utility.yul\":161:225   */\n      tag_50\n      jump\t// in\n    tag_49:\n        /* \"#utility.yul\":145:226   */\n      tag_51\n      jump\t// in\n    tag_48:\n        /* \"#utility.yul\":136:226   */\n      swap1\n      pop\n        /* \"#utility.yul\":246:251   */\n      dup1\n        /* \"#utility.yul\":275:281   */\n      dup4\n        /* \"#utility.yul\":268:273   */\n      dup3\n        /* \"#utility.yul\":261:282   */\n      mstore\n        /* \"#utility.yul\":309:313   */\n      0x20\n        /* \"#utility.yul\":302:307   */\n      dup3\n        /* \"#utility.yul\":298:314   */\n      add\n        /* \"#utility.yul\":291:314   */\n      swap1\n      pop\n        /* \"#utility.yul\":335:341   */\n      dup3\n        /* \"#utility.yul\":385:388   */\n      dup6\n        /* \"#utility.yul\":377:381   */\n      0x20\n        /* \"#utility.yul\":369:375   */\n      dup7\n        /* \"#utility.yul\":365:382   */\n      mul\n        /* \"#utility.yul\":360:363   */\n      dup3\n        /* \"#utility.yul\":356:383   */\n      add\n        /* \"#utility.yul\":353:389   */\n      gt\n        /* \"#utility.yul\":350:352   */\n      iszero\n      tag_52\n      jumpi\n        /* \"#utility.yul\":414:415   */\n      0x00\n        /* \"#utility.yul\":411:412   */\n      dup1\n        /* \"#utility.yul\":404:416   */\n      revert\n        /* \"#utility.yul\":350:352   */\n    tag_52:\n        /* \"#utility.yul\":450:451   */\n      0x00\n        /* \"#utility.yul\":435:673   */\n    tag_53:\n        /* \"#utility.yul\":460:466   */\n      dup6\n        /* \"#utility.yul\":457:458   */\n      dup2\n        /* \"#utility.yul\":454:467   */\n      lt\n        /* \"#utility.yul\":435:673   */\n      iszero\n      tag_55\n      jumpi\n        /* \"#utility.yul\":528:531   */\n      dup2\n        /* \"#utility.yul\":557:594   */\n      tag_56\n        /* \"#utility.yul\":590:593   */\n      dup9\n        /* \"#utility.yul\":578:588   */\n      dup3\n        /* \"#utility.yul\":557:594   */\n      tag_57\n      jump\t// in\n    tag_56:\n        /* \"#utility.yul\":552:555   */\n      dup5\n        /* \"#utility.yul\":545:595   */\n      mstore\n        /* \"#utility.yul\":624:628   */\n      0x20\n        /* \"#utility.yul\":619:622   */\n      dup5\n        /* \"#utility.yul\":615:629   */\n      add\n        /* \"#utility.yul\":608:629   */\n      swap4\n      pop\n        /* \"#utility.yul\":658:662   */\n      0x20\n        /* \"#utility.yul\":653:656   */\n      dup4\n        /* \"#utility.yul\":649:663   */\n      add\n        /* \"#utility.yul\":642:663   */\n      swap3\n      pop\n        /* \"#utility.yul\":495:673   */\n      pop\n        /* \"#utility.yul\":482:483   */\n      0x01\n        /* \"#utility.yul\":479:480   */\n      dup2\n        /* \"#utility.yul\":475:484   */\n      add\n        /* \"#utility.yul\":470:484   */\n      swap1\n      pop\n        /* \"#utility.yul\":435:673   */\n      jump(tag_53)\n    tag_55:\n        /* \"#utility.yul\":439:453   */\n      pop\n        /* \"#utility.yul\":126:679   */\n      pop\n      pop\n      swap4\n      swap3\n      pop\n      pop\n      pop\n      jump\t// out\n        /* \"#utility.yul\":702:1069   */\n    tag_58:\n        /* \"#utility.yul\":775:783   */\n      0x00\n        /* \"#utility.yul\":785:791   */\n      dup1\n        /* \"#utility.yul\":835:838   */\n      dup4\n        /* \"#utility.yul\":828:832   */\n      0x1f\n        /* \"#utility.yul\":820:826   */\n      dup5\n        /* \"#utility.yul\":816:833   */\n      add\n        /* \"#utility.yul\":812:839   */\n      slt\n        /* \"#utility.yul\":802:804   */\n      tag_60\n      jumpi\n        /* \"#utility.yul\":853:854   */\n      0x00\n        /* \"#utility.yul\":850:851   */\n      dup1\n        /* \"#utility.yul\":843:855   */\n      revert\n        /* \"#utility.yul\":802:804   */\n    tag_60:\n        /* \"#utility.yul\":889:895   */\n      dup3\n        /* \"#utility.yul\":876:896   */\n      calldataload\n        /* \"#utility.yul\":866:896   */\n      swap1\n      pop\n        /* \"#utility.yul\":919:937   */\n      0xffffffffffffffff\n        /* \"#utility.yul\":911:917   */\n      dup2\n        /* \"#utility.yul\":908:938   */\n      gt\n        /* \"#utility.yul\":905:907   */\n      iszero\n      tag_61\n      jumpi\n        /* \"#utility.yul\":951:952   */\n      0x00\n        /* \"#utility.yul\":948:949   */\n      dup1\n        /* \"#utility.yul\":941:953   */\n      revert\n        /* \"#utility.yul\":905:907   */\n    tag_61:\n        /* \"#utility.yul\":988:992   */\n      0x20\n        /* \"#utility.yul\":980:986   */\n      dup4\n        /* \"#utility.yul\":976:993   */\n      add\n        /* \"#utility.yul\":964:993   */\n      swap2\n      pop\n        /* \"#utility.yul\":1042:1045   */\n      dup4\n        /* \"#utility.yul\":1034:1038   */\n      0x20\n        /* \"#utility.yul\":1026:1032   */\n      dup3\n        /* \"#utility.yul\":1022:1039   */\n      mul\n        /* \"#utility.yul\":1012:1020   */\n      dup4\n        /* \"#utility.yul\":1008:1040   */\n      add\n        /* \"#utility.yul\":1005:1046   */\n      gt\n        /* \"#utility.yul\":1002:1004   */\n      iszero\n      tag_62\n      jumpi\n        /* \"#utility.yul\":1059:1060   */\n      0x00\n        /* \"#utility.yul\":1056:1057   */\n      dup1\n        /* \"#utility.yul\":1049:1061   */\n      revert\n        /* \"#utility.yul\":1002:1004   */\n    tag_62:\n        /* \"#utility.yul\":792:1069   */\n      swap3\n      pop\n      swap3\n      swap1\n      pop\n      jump\t// out\n        /* \"#utility.yul\":1092:1395   */\n    tag_63:\n        /* \"#utility.yul\":1163:1168   */\n      0x00\n        /* \"#utility.yul\":1212:1215   */\n      dup3\n        /* \"#utility.yul\":1205:1209   */\n      0x1f\n        /* \"#utility.yul\":1197:1203   */\n      dup4\n        /* \"#utility.yul\":1193:1210   */\n      add\n        /* \"#utility.yul\":1189:1216   */\n      slt\n        /* \"#utility.yul\":1179:1181   */\n      tag_65\n      jumpi\n        /* \"#utility.yul\":1230:1231   */\n      0x00\n        /* \"#utility.yul\":1227:1228   */\n      dup1\n        /* \"#utility.yul\":1220:1232   */\n      revert\n        /* \"#utility.yul\":1179:1181   */\n    tag_65:\n        /* \"#utility.yul\":1270:1276   */\n      dup2\n        /* \"#utility.yul\":1257:1277   */\n      calldataload\n        /* \"#utility.yul\":1295:1389   */\n      tag_66\n        /* \"#utility.yul\":1385:1388   */\n      dup5\n        /* \"#utility.yul\":1377:1383   */\n      dup3\n        /* \"#utility.yul\":1370:1374   */\n      0x20\n        /* \"#utility.yul\":1362:1368   */\n      dup7\n        /* \"#utility.yul\":1358:1375   */\n      add\n        /* \"#utility.yul\":1295:1389   */\n      tag_46\n      jump\t// in\n    tag_66:\n        /* \"#utility.yul\":1286:1389   */\n      swap2\n      pop\n        /* \"#utility.yul\":1169:1395   */\n      pop\n      swap3\n      swap2\n      pop\n      pop\n      jump\t// out\n        /* \"#utility.yul\":1401:1540   */\n    tag_57:\n        /* \"#utility.yul\":1447:1452   */\n      0x00\n        /* \"#utility.yul\":1485:1491   */\n      dup2\n        /* \"#utility.yul\":1472:1492   */\n      calldataload\n        /* \"#utility.yul\":1463:1492   */\n      swap1\n      pop\n        /* \"#utility.yul\":1501:1534   */\n      tag_68\n        /* \"#utility.yul\":1528:1533   */\n      dup2\n        /* \"#utility.yul\":1501:1534   */\n      tag_69\n      jump\t// in\n    tag_68:\n        /* \"#utility.yul\":1453:1540   */\n      swap3\n      swap2\n      pop\n      pop\n      jump\t// out\n        /* \"#utility.yul\":1546:1971   */\n    tag_14:\n        /* \"#utility.yul\":1632:1638   */\n      0x00\n        /* \"#utility.yul\":1640:1646   */\n      dup1\n        /* \"#utility.yul\":1689:1691   */\n      0x20\n        /* \"#utility.yul\":1677:1686   */\n      dup4\n        /* \"#utility.yul\":1668:1675   */\n      dup6\n        /* \"#utility.yul\":1664:1687   */\n      sub\n        /* \"#utility.yul\":1660:1692   */\n      slt\n        /* \"#utility.yul\":1657:1659   */\n      iszero\n      tag_71\n      jumpi\n        /* \"#utility.yul\":1705:1706   */\n      0x00\n        /* \"#utility.yul\":1702:1703   */\n      dup1\n        /* \"#utility.yul\":1695:1707   */\n      revert\n        /* \"#utility.yul\":1657:1659   */\n    tag_71:\n        /* \"#utility.yul\":1776:1777   */\n      0x00\n        /* \"#utility.yul\":1765:1774   */\n      dup4\n        /* \"#utility.yul\":1761:1778   */\n      add\n        /* \"#utility.yul\":1748:1779   */\n      calldataload\n        /* \"#utility.yul\":1806:1824   */\n      0xffffffffffffffff\n        /* \"#utility.yul\":1798:1804   */\n      dup2\n        /* \"#utility.yul\":1795:1825   */\n      gt\n        /* \"#utility.yul\":1792:1794   */\n      iszero\n      tag_72\n      jumpi\n        /* \"#utility.yul\":1838:1839   */\n      0x00\n        /* \"#utility.yul\":1835:1836   */\n      dup1\n        /* \"#utility.yul\":1828:1840   */\n      revert\n        /* \"#utility.yul\":1792:1794   */\n    tag_72:\n        /* \"#utility.yul\":1874:1954   */\n      tag_73\n        /* \"#utility.yul\":1946:1953   */\n      dup6\n        /* \"#utility.yul\":1937:1943   */\n      dup3\n        /* \"#utility.yul\":1926:1935   */\n      dup7\n        /* \"#utility.yul\":1922:1944   */\n      add\n        /* \"#utility.yul\":1874:1954   */\n      tag_58\n      jump\t// in\n    tag_73:\n        /* \"#utility.yul\":1856:1954   */\n      swap3\n      pop\n      swap3\n      pop\n        /* \"#utility.yul\":1719:1964   */\n      pop\n        /* \"#utility.yul\":1647:1971   */\n      swap3\n      pop\n      swap3\n      swap1\n      pop\n      jump\t// out\n        /* \"#utility.yul\":1977:2527   */\n    tag_24:\n        /* \"#utility.yul\":2070:2076   */\n      0x00\n        /* \"#utility.yul\":2078:2084   */\n      dup1\n        /* \"#utility.yul\":2127:2129   */\n      0x40\n        /* \"#utility.yul\":2115:2124   */\n      dup4\n        /* \"#utility.yul\":2106:2113   */\n      dup6\n        /* \"#utility.yul\":2102:2125   */\n      sub\n        /* \"#utility.yul\":2098:2130   */\n      slt\n        /* \"#utility.yul\":2095:2097   */\n      iszero\n      tag_75\n      jumpi\n        /* \"#utility.yul\":2143:2144   */\n      0x00\n        /* \"#utility.yul\":2140:2141   */\n      dup1\n        /* \"#utility.yul\":2133:2145   */\n      revert\n        /* \"#utility.yul\":2095:2097   */\n    tag_75:\n        /* \"#utility.yul\":2214:2215   */\n      0x00\n        /* \"#utility.yul\":2203:2212   */\n      dup4\n        /* \"#utility.yul\":2199:2216   */\n      add\n        /* \"#utility.yul\":2186:2217   */\n      calldataload\n        /* \"#utility.yul\":2244:2262   */\n      0xffffffffffffffff\n        /* \"#utility.yul\":2236:2242   */\n      dup2\n        /* \"#utility.yul\":2233:2263   */\n      gt\n        /* \"#utility.yul\":2230:2232   */\n      iszero\n      tag_76\n      jumpi\n        /* \"#utility.yul\":2276:2277   */\n      0x00\n        /* \"#utility.yul\":2273:2274   */\n      dup1\n        /* \"#utility.yul\":2266:2278   */\n      revert\n        /* \"#utility.yul\":2230:2232   */\n    tag_76:\n        /* \"#utility.yul\":2304:2382   */\n      tag_77\n        /* \"#utility.yul\":2374:2381   */\n      dup6\n        /* \"#utility.yul\":2365:2371   */\n      dup3\n        /* \"#utility.yul\":2354:2363   */\n      dup7\n        /* \"#utility.yul\":2350:2372   */\n      add\n        /* \"#utility.yul\":2304:2382   */\n      tag_63\n      jump\t// in\n    tag_77:\n        /* \"#utility.yul\":2294:2382   */\n      swap3\n      pop\n        /* \"#utility.yul\":2157:2392   */\n      pop\n        /* \"#utility.yul\":2431:2433   */\n      0x20\n        /* \"#utility.yul\":2457:2510   */\n      tag_78\n        /* \"#utility.yul\":2502:2509   */\n      dup6\n        /* \"#utility.yul\":2493:2499   */\n      dup3\n        /* \"#utility.yul\":2482:2491   */\n      dup7\n        /* \"#utility.yul\":2478:2500   */\n      add\n        /* \"#utility.yul\":2457:2510   */\n      tag_57\n      jump\t// in\n    tag_78:\n        /* \"#utility.yul\":2447:2510   */\n      swap2\n      pop\n        /* \"#utility.yul\":2402:2520   */\n      pop\n        /* \"#utility.yul\":2085:2527   */\n      swap3\n      pop\n      swap3\n      swap1\n      pop\n      jump\t// out\n        /* \"#utility.yul\":2533:2795   */\n    tag_18:\n        /* \"#utility.yul\":2592:2598   */\n      0x00\n        /* \"#utility.yul\":2641:2643   */\n      0x20\n        /* \"#utility.yul\":2629:2638   */\n      dup3\n        /* \"#utility.yul\":2620:2627   */\n      dup5\n        /* \"#utility.yul\":2616:2639   */\n      sub\n        /* \"#utility.yul\":2612:2644   */\n      slt\n        /* \"#utility.yul\":2609:2611   */\n      iszero\n      tag_80\n      jumpi\n        /* \"#utility.yul\":2657:2658   */\n      0x00\n        /* \"#utility.yul\":2654:2655   */\n      dup1\n        /* \"#utility.yul\":2647:2659   */\n      revert\n        /* \"#utility.yul\":2609:2611   */\n    tag_80:\n        /* \"#utility.yul\":2700:2701   */\n      0x00\n        /* \"#utility.yul\":2725:2778   */\n      tag_81\n        /* \"#utility.yul\":2770:2777   */\n      dup5\n        /* \"#utility.yul\":2761:2767   */\n      dup3\n        /* \"#utility.yul\":2750:2759   */\n      dup6\n        /* \"#utility.yul\":2746:2768   */\n      add\n        /* \"#utility.yul\":2725:2778   */\n      tag_57\n      jump\t// in\n    tag_81:\n        /* \"#utility.yul\":2715:2778   */\n      swap2\n      pop\n        /* \"#utility.yul\":2671:2788   */\n      pop\n        /* \"#utility.yul\":2599:2795   */\n      swap3\n      swap2\n      pop\n      pop\n      jump\t// out\n        /* \"#utility.yul\":2801:2980   */\n    tag_82:\n        /* \"#utility.yul\":2870:2880   */\n      0x00\n        /* \"#utility.yul\":2891:2937   */\n      tag_84\n        /* \"#utility.yul\":2933:2936   */\n      dup4\n        /* \"#utility.yul\":2925:2931   */\n      dup4\n        /* \"#utility.yul\":2891:2937   */\n      tag_85\n      jump\t// in\n    tag_84:\n        /* \"#utility.yul\":2969:2973   */\n      0x20\n        /* \"#utility.yul\":2964:2967   */\n      dup4\n        /* \"#utility.yul\":2960:2974   */\n      add\n        /* \"#utility.yul\":2946:2974   */\n      swap1\n      pop\n        /* \"#utility.yul\":2881:2980   */\n      swap3\n      swap2\n      pop\n      pop\n      jump\t// out\n        /* \"#utility.yul\":3016:3748   */\n    tag_86:\n        /* \"#utility.yul\":3135:3138   */\n      0x00\n        /* \"#utility.yul\":3164:3218   */\n      tag_88\n        /* \"#utility.yul\":3212:3217   */\n      dup3\n        /* \"#utility.yul\":3164:3218   */\n      tag_89\n      jump\t// in\n    tag_88:\n        /* \"#utility.yul\":3234:3320   */\n      tag_90\n        /* \"#utility.yul\":3313:3319   */\n      dup2\n        /* \"#utility.yul\":3308:3311   */\n      dup6\n        /* \"#utility.yul\":3234:3320   */\n      tag_91\n      jump\t// in\n    tag_90:\n        /* \"#utility.yul\":3227:3320   */\n      swap4\n      pop\n        /* \"#utility.yul\":3344:3400   */\n      tag_92\n        /* \"#utility.yul\":3394:3399   */\n      dup4\n        /* \"#utility.yul\":3344:3400   */\n      tag_93\n      jump\t// in\n    tag_92:\n        /* \"#utility.yul\":3423:3430   */\n      dup1\n        /* \"#utility.yul\":3454:3455   */\n      0x00\n        /* \"#utility.yul\":3439:3723   */\n    tag_94:\n        /* \"#utility.yul\":3464:3470   */\n      dup4\n        /* \"#utility.yul\":3461:3462   */\n      dup2\n        /* \"#utility.yul\":3458:3471   */\n      lt\n        /* \"#utility.yul\":3439:3723   */\n      iszero\n      tag_96\n      jumpi\n        /* \"#utility.yul\":3540:3546   */\n      dup2\n        /* \"#utility.yul\":3534:3547   */\n      mload\n        /* \"#utility.yul\":3567:3630   */\n      tag_97\n        /* \"#utility.yul\":3626:3629   */\n      dup9\n        /* \"#utility.yul\":3611:3624   */\n      dup3\n        /* \"#utility.yul\":3567:3630   */\n      tag_82\n      jump\t// in\n    tag_97:\n        /* \"#utility.yul\":3560:3630   */\n      swap8\n      pop\n        /* \"#utility.yul\":3653:3713   */\n      tag_98\n        /* \"#utility.yul\":3706:3712   */\n      dup4\n        /* \"#utility.yul\":3653:3713   */\n      tag_99\n      jump\t// in\n    tag_98:\n        /* \"#utility.yul\":3643:3713   */\n      swap3\n      pop\n        /* \"#utility.yul\":3499:3723   */\n      pop\n        /* \"#utility.yul\":3486:3487   */\n      0x01\n        /* \"#utility.yul\":3483:3484   */\n      dup2\n        /* \"#utility.yul\":3479:3488   */\n      add\n        /* \"#utility.yul\":3474:3488   */\n      swap1\n      pop\n        /* \"#utility.yul\":3439:3723   */\n      jump(tag_94)\n    tag_96:\n        /* \"#utility.yul\":3443:3457   */\n      pop\n        /* \"#utility.yul\":3739:3742   */\n      dup6\n        /* \"#utility.yul\":3732:3742   */\n      swap4\n      pop\n        /* \"#utility.yul\":3140:3748   */\n      pop\n      pop\n      pop\n      swap3\n      swap2\n      pop\n      pop\n      jump\t// out\n        /* \"#utility.yul\":3824:4154   */\n    tag_100:\n        /* \"#utility.yul\":3969:3973   */\n      0x20\n        /* \"#utility.yul\":3964:3967   */\n      dup3\n        /* \"#utility.yul\":3960:3974   */\n      add\n        /* \"#utility.yul\":4055:4059   */\n      0x00\n        /* \"#utility.yul\":4048:4053   */\n      dup3\n        /* \"#utility.yul\":4044:4060   */\n      add\n        /* \"#utility.yul\":4038:4061   */\n      mload\n        /* \"#utility.yul\":4074:4137   */\n      tag_102\n        /* \"#utility.yul\":4131:4135   */\n      0x00\n        /* \"#utility.yul\":4126:4129   */\n      dup6\n        /* \"#utility.yul\":4122:4136   */\n      add\n        /* \"#utility.yul\":4108:4120   */\n      dup3\n        /* \"#utility.yul\":4074:4137   */\n      tag_85\n      jump\t// in\n    tag_102:\n        /* \"#utility.yul\":3984:4147   */\n      pop\n        /* \"#utility.yul\":3938:4154   */\n      pop\n      pop\n      pop\n      jump\t// out\n        /* \"#utility.yul\":4160:4268   */\n    tag_85:\n        /* \"#utility.yul\":4237:4261   */\n      tag_104\n        /* \"#utility.yul\":4255:4260   */\n      dup2\n        /* \"#utility.yul\":4237:4261   */\n      tag_105\n      jump\t// in\n    tag_104:\n        /* \"#utility.yul\":4232:4235   */\n      dup3\n        /* \"#utility.yul\":4225:4262   */\n      mstore\n        /* \"#utility.yul\":4215:4268   */\n      pop\n      pop\n      jump\t// out\n        /* \"#utility.yul\":4274:4392   */\n    tag_106:\n        /* \"#utility.yul\":4361:4385   */\n      tag_108\n        /* \"#utility.yul\":4379:4384   */\n      dup2\n        /* \"#utility.yul\":4361:4385   */\n      tag_105\n      jump\t// in\n    tag_108:\n        /* \"#utility.yul\":4356:4359   */\n      dup3\n        /* \"#utility.yul\":4349:4386   */\n      mstore\n        /* \"#utility.yul\":4339:4392   */\n      pop\n      pop\n      jump\t// out\n        /* \"#utility.yul\":4398:4771   */\n    tag_27:\n        /* \"#utility.yul\":4541:4545   */\n      0x00\n        /* \"#utility.yul\":4579:4581   */\n      0x20\n        /* \"#utility.yul\":4568:4577   */\n      dup3\n        /* \"#utility.yul\":4564:4582   */\n      add\n        /* \"#utility.yul\":4556:4582   */\n      swap1\n      pop\n        /* \"#utility.yul\":4628:4637   */\n      dup2\n        /* \"#utility.yul\":4622:4626   */\n      dup2\n        /* \"#utility.yul\":4618:4638   */\n      sub\n        /* \"#utility.yul\":4614:4615   */\n      0x00\n        /* \"#utility.yul\":4603:4612   */\n      dup4\n        /* \"#utility.yul\":4599:4616   */\n      add\n        /* \"#utility.yul\":4592:4639   */\n      mstore\n        /* \"#utility.yul\":4656:4764   */\n      tag_110\n        /* \"#utility.yul\":4759:4763   */\n      dup2\n        /* \"#utility.yul\":4750:4756   */\n      dup5\n        /* \"#utility.yul\":4656:4764   */\n      tag_86\n      jump\t// in\n    tag_110:\n        /* \"#utility.yul\":4648:4764   */\n      swap1\n      pop\n        /* \"#utility.yul\":4546:4771   */\n      swap3\n      swap2\n      pop\n      pop\n      jump\t// out\n        /* \"#utility.yul\":4777:5507   */\n    tag_11:\n        /* \"#utility.yul\":5070:5074   */\n      0x00\n        /* \"#utility.yul\":5108:5110   */\n      0x60\n        /* \"#utility.yul\":5097:5106   */\n      dup3\n        /* \"#utility.yul\":5093:5111   */\n      add\n        /* \"#utility.yul\":5085:5111   */\n      swap1\n      pop\n        /* \"#utility.yul\":5121:5240   */\n      tag_112\n        /* \"#utility.yul\":5237:5238   */\n      0x00\n        /* \"#utility.yul\":5226:5235   */\n      dup4\n        /* \"#utility.yul\":5222:5239   */\n      add\n        /* \"#utility.yul\":5213:5219   */\n      dup7\n        /* \"#utility.yul\":5121:5240   */\n      tag_100\n      jump\t// in\n    tag_112:\n        /* \"#utility.yul\":5250:5370   */\n      tag_113\n        /* \"#utility.yul\":5366:5368   */\n      0x20\n        /* \"#utility.yul\":5355:5364   */\n      dup4\n        /* \"#utility.yul\":5351:5369   */\n      add\n        /* \"#utility.yul\":5342:5348   */\n      dup6\n        /* \"#utility.yul\":5250:5370   */\n      tag_100\n      jump\t// in\n    tag_113:\n        /* \"#utility.yul\":5380:5500   */\n      tag_114\n        /* \"#utility.yul\":5496:5498   */\n      0x40\n        /* \"#utility.yul\":5485:5494   */\n      dup4\n        /* \"#utility.yul\":5481:5499   */\n      add\n        /* \"#utility.yul\":5472:5478   */\n      dup5\n        /* \"#utility.yul\":5380:5500   */\n      tag_100\n      jump\t// in\n    tag_114:\n        /* \"#utility.yul\":5075:5507   */\n      swap5\n      swap4\n      pop\n      pop\n      pop\n      pop\n      jump\t// out\n        /* \"#utility.yul\":5513:5735   */\n    tag_21:\n        /* \"#utility.yul\":5606:5610   */\n      0x00\n        /* \"#utility.yul\":5644:5646   */\n      0x20\n        /* \"#utility.yul\":5633:5642   */\n      dup3\n        /* \"#utility.yul\":5629:5647   */\n      add\n        /* \"#utility.yul\":5621:5647   */\n      swap1\n      pop\n        /* \"#utility.yul\":5657:5728   */\n      tag_116\n        /* \"#utility.yul\":5725:5726   */\n      0x00\n        /* \"#utility.yul\":5714:5723   */\n      dup4\n        /* \"#utility.yul\":5710:5727   */\n      add\n        /* \"#utility.yul\":5701:5707   */\n      dup5\n        /* \"#utility.yul\":5657:5728   */\n      tag_106\n      jump\t// in\n    tag_116:\n        /* \"#utility.yul\":5611:5735   */\n      swap3\n      swap2\n      pop\n      pop\n      jump\t// out\n        /* \"#utility.yul\":5741:5870   */\n    tag_51:\n        /* \"#utility.yul\":5775:5781   */\n      0x00\n        /* \"#utility.yul\":5802:5822   */\n      tag_118\n      tag_119\n      jump\t// in\n    tag_118:\n        /* \"#utility.yul\":5792:5822   */\n      swap1\n      pop\n        /* \"#utility.yul\":5831:5864   */\n      tag_120\n        /* \"#utility.yul\":5859:5863   */\n      dup3\n        /* \"#utility.yul\":5851:5857   */\n      dup3\n        /* \"#utility.yul\":5831:5864   */\n      tag_121\n      jump\t// in\n    tag_120:\n        /* \"#utility.yul\":5782:5870   */\n      swap2\n      swap1\n      pop\n      jump\t// out\n        /* \"#utility.yul\":5876:5951   */\n    tag_119:\n        /* \"#utility.yul\":5909:5915   */\n      0x00\n        /* \"#utility.yul\":5942:5944   */\n      0x40\n        /* \"#utility.yul\":5936:5945   */\n      mload\n        /* \"#utility.yul\":5926:5945   */\n      swap1\n      pop\n        /* \"#utility.yul\":5916:5951   */\n      swap1\n      jump\t// out\n        /* \"#utility.yul\":5957:6268   */\n    tag_50:\n        /* \"#utility.yul\":6034:6038   */\n      0x00\n        /* \"#utility.yul\":6124:6142   */\n      0xffffffffffffffff\n        /* \"#utility.yul\":6116:6122   */\n      dup3\n        /* \"#utility.yul\":6113:6143   */\n      gt\n        /* \"#utility.yul\":6110:6112   */\n      iszero\n      tag_124\n      jumpi\n        /* \"#utility.yul\":6146:6164   */\n      tag_125\n      tag_126\n      jump\t// in\n    tag_125:\n        /* \"#utility.yul\":6110:6112   */\n    tag_124:\n        /* \"#utility.yul\":6196:6200   */\n      0x20\n        /* \"#utility.yul\":6188:6194   */\n      dup3\n        /* \"#utility.yul\":6184:6201   */\n      mul\n        /* \"#utility.yul\":6176:6201   */\n      swap1\n      pop\n        /* \"#utility.yul\":6256:6260   */\n      0x20\n        /* \"#utility.yul\":6250:6254   */\n      dup2\n        /* \"#utility.yul\":6246:6261   */\n      add\n        /* \"#utility.yul\":6238:6261   */\n      swap1\n      pop\n        /* \"#utility.yul\":6039:6268   */\n      swap2\n      swap1\n      pop\n      jump\t// out\n        /* \"#utility.yul\":6274:6406   */\n    tag_93:\n        /* \"#utility.yul\":6341:6345   */\n      0x00\n        /* \"#utility.yul\":6364:6367   */\n      dup2\n        /* \"#utility.yul\":6356:6367   */\n      swap1\n      pop\n        /* \"#utility.yul\":6394:6398   */\n      0x20\n        /* \"#utility.yul\":6389:6392   */\n      dup3\n        /* \"#utility.yul\":6385:6399   */\n      add\n        /* \"#utility.yul\":6377:6399   */\n      swap1\n      pop\n        /* \"#utility.yul\":6346:6406   */\n      swap2\n      swap1\n      pop\n      jump\t// out\n        /* \"#utility.yul\":6412:6526   */\n    tag_89:\n        /* \"#utility.yul\":6479:6485   */\n      0x00\n        /* \"#utility.yul\":6513:6518   */\n      dup2\n        /* \"#utility.yul\":6507:6519   */\n      mload\n        /* \"#utility.yul\":6497:6519   */\n      swap1\n      pop\n        /* \"#utility.yul\":6486:6526   */\n      swap2\n      swap1\n      pop\n      jump\t// out\n        /* \"#utility.yul\":6532:6645   */\n    tag_99:\n        /* \"#utility.yul\":6602:6606   */\n      0x00\n        /* \"#utility.yul\":6634:6638   */\n      0x20\n        /* \"#utility.yul\":6629:6632   */\n      dup3\n        /* \"#utility.yul\":6625:6639   */\n      add\n        /* \"#utility.yul\":6617:6639   */\n      swap1\n      pop\n        /* \"#utility.yul\":6607:6645   */\n      swap2\n      swap1\n      pop\n      jump\t// out\n        /* \"#utility.yul\":6651:6835   */\n    tag_91:\n        /* \"#utility.yul\":6750:6761   */\n      0x00\n        /* \"#utility.yul\":6784:6790   */\n      dup3\n        /* \"#utility.yul\":6779:6782   */\n      dup3\n        /* \"#utility.yul\":6772:6791   */\n      mstore\n        /* \"#utility.yul\":6824:6828   */\n      0x20\n        /* \"#utility.yul\":6819:6822   */\n      dup3\n        /* \"#utility.yul\":6815:6829   */\n      add\n        /* \"#utility.yul\":6800:6829   */\n      swap1\n      pop\n        /* \"#utility.yul\":6762:6835   */\n      swap3\n      swap2\n      pop\n      pop\n      jump\t// out\n        /* \"#utility.yul\":6841:6918   */\n    tag_105:\n        /* \"#utility.yul\":6878:6885   */\n      0x00\n        /* \"#utility.yul\":6907:6912   */\n      dup2\n        /* \"#utility.yul\":6896:6912   */\n      swap1\n      pop\n        /* \"#utility.yul\":6886:6918   */\n      swap2\n      swap1\n      pop\n      jump\t// out\n        /* \"#utility.yul\":6924:7205   */\n    tag_121:\n        /* \"#utility.yul\":7007:7034   */\n      tag_133\n        /* \"#utility.yul\":7029:7033   */\n      dup3\n        /* \"#utility.yul\":7007:7034   */\n      tag_134\n      jump\t// in\n    tag_133:\n        /* \"#utility.yul\":6999:7005   */\n      dup2\n        /* \"#utility.yul\":6995:7035   */\n      add\n        /* \"#utility.yul\":7137:7143   */\n      dup2\n        /* \"#utility.yul\":7125:7135   */\n      dup2\n        /* \"#utility.yul\":7122:7144   */\n      lt\n        /* \"#utility.yul\":7101:7119   */\n      0xffffffffffffffff\n        /* \"#utility.yul\":7089:7099   */\n      dup3\n        /* \"#utility.yul\":7086:7120   */\n      gt\n        /* \"#utility.yul\":7083:7145   */\n      or\n        /* \"#utility.yul\":7080:7082   */\n      iszero\n      tag_135\n      jumpi\n        /* \"#utility.yul\":7148:7166   */\n      tag_136\n      tag_126\n      jump\t// in\n    tag_136:\n        /* \"#utility.yul\":7080:7082   */\n    tag_135:\n        /* \"#utility.yul\":7188:7198   */\n      dup1\n        /* \"#utility.yul\":7184:7186   */\n      0x40\n        /* \"#utility.yul\":7177:7199   */\n      mstore\n        /* \"#utility.yul\":6967:7205   */\n      pop\n      pop\n      pop\n      jump\t// out\n        /* \"#utility.yul\":7211:7391   */\n    tag_126:\n        /* \"#utility.yul\":7259:7336   */\n      0x4e487b7100000000000000000000000000000000000000000000000000000000\n        /* \"#utility.yul\":7256:7257   */\n      0x00\n        /* \"#utility.yul\":7249:7337   */\n      mstore\n        /* \"#utility.yul\":7356:7360   */\n      0x41\n        /* \"#utility.yul\":7353:7354   */\n      0x04\n        /* \"#utility.yul\":7346:7361   */\n      mstore\n        /* \"#utility.yul\":7380:7384   */\n      0x24\n        /* \"#utility.yul\":7377:7378   */\n      0x00\n        /* \"#utility.yul\":7370:7385   */\n      revert\n        /* \"#utility.yul\":7397:7499   */\n    tag_134:\n        /* \"#utility.yul\":7438:7444   */\n      0x00\n        /* \"#utility.yul\":7489:7491   */\n      0x1f\n        /* \"#utility.yul\":7485:7492   */\n      not\n        /* \"#utility.yul\":7480:7482   */\n      0x1f\n        /* \"#utility.yul\":7473:7478   */\n      dup4\n        /* \"#utility.yul\":7469:7483   */\n      add\n        /* \"#utility.yul\":7465:7493   */\n      and\n        /* \"#utility.yul\":7455:7493   */\n      swap1\n      pop\n        /* \"#utility.yul\":7445:7499   */\n      swap2\n      swap1\n      pop\n      jump\t// out\n        /* \"#utility.yul\":7505:7627   */\n    tag_69:\n        /* \"#utility.yul\":7578:7602   */\n      tag_140\n        /* \"#utility.yul\":7596:7601   */\n      dup2\n        /* \"#utility.yul\":7578:7602   */\n      tag_105\n      jump\t// in\n    tag_140:\n        /* \"#utility.yul\":7571:7576   */\n      dup2\n        /* \"#utility.yul\":7568:7603   */\n      eq\n        /* \"#utility.yul\":7558:7560   */\n      tag_141\n      jumpi\n        /* \"#utility.yul\":7617:7618   */\n      0x00\n        /* \"#utility.yul\":7614:7615   */\n      dup1\n        /* \"#utility.yul\":7607:7619   */\n      revert\n        /* \"#utility.yul\":7558:7560   */\n    tag_141:\n        /* \"#utility.yul\":7548:7627   */\n      pop\n      jump\t// out\n\n    auxdata: 0xa26469706673582212205cbb874261621b5c710ada618cb9a32a9d765e1aa116395af742b40b9eca6a2c64736f6c63430008040033\n}\n",
				"bytecode": {
					"linkReferences": {},
					"object": "608060405234801561001057600080fd5b506106d0806100206000396000f3fe608060405234801561001057600080fd5b50600436106100575760003560e01c806326121ff01461005c57806340dcbb081461007c57806371e5ee5f14610098578063d82a09b7146100c8578063df90c8d3146100f8575b600080fd5b610064610128565b6040516100739392919061052c565b60405180910390f35b61009660048036038101906100919190610398565b6101f5565b005b6100b260048036038101906100ad9190610431565b6101f9565b6040516100bf9190610563565b60405180910390f35b6100e260048036038101906100dd91906103dd565b61021d565b6040516100ef919061050a565b60405180910390f35b610112600480360381019061010d9190610431565b61026d565b60405161011f9190610563565b60405180910390f35b610130610290565b610138610290565b610140610290565b61016060006001600260006001815260200190815260200160002061028b565b600060026000600181526020019081526020016000209050600481600001819055506000604051806020016040528060008152509050600081905060018160000181815250506000836040518060200160405290816000820154815250509050600381600001818152505083828282604051806020016040529081600082015481525050925096509650965050505050909192565b5050565b6000818154811061020957600080fd5b906000526020600020016000915090505481565b606060018360008151811061025b577f4e487b7100000000000000000000000000000000000000000000000000000000600052603260045260246000fd5b60200260200101818152505092915050565b60026020528060005260406000206000915090508060000154905081565b505050565b6040518060200160405280600081525090565b60006102b66102b1846105a3565b61057e565b905080838252602082019050828560208602820111156102d557600080fd5b60005b8581101561030557816102eb8882610383565b8452602084019350602083019250506001810190506102d8565b5050509392505050565b60008083601f84011261032157600080fd5b8235905067ffffffffffffffff81111561033a57600080fd5b60208301915083602082028301111561035257600080fd5b9250929050565b600082601f83011261036a57600080fd5b813561037a8482602086016102a3565b91505092915050565b60008135905061039281610683565b92915050565b600080602083850312156103ab57600080fd5b600083013567ffffffffffffffff8111156103c557600080fd5b6103d18582860161030f565b92509250509250929050565b600080604083850312156103f057600080fd5b600083013567ffffffffffffffff81111561040a57600080fd5b61041685828601610359565b925050602061042785828601610383565b9150509250929050565b60006020828403121561044357600080fd5b600061045184828501610383565b91505092915050565b600061046683836104ec565b60208301905092915050565b600061047d826105df565b61048781856105f7565b9350610492836105cf565b8060005b838110156104c35781516104aa888261045a565b97506104b5836105ea565b925050600181019050610496565b5085935050505092915050565b6020820160008201516104e660008501826104ec565b50505050565b6104f581610608565b82525050565b61050481610608565b82525050565b600060208201905081810360008301526105248184610472565b905092915050565b600060608201905061054160008301866104d0565b61054e60208301856104d0565b61055b60408301846104d0565b949350505050565b600060208201905061057860008301846104fb565b92915050565b6000610588610599565b90506105948282610612565b919050565b6000604051905090565b600067ffffffffffffffff8211156105be576105bd610643565b5b602082029050602081019050919050565b6000819050602082019050919050565b600081519050919050565b6000602082019050919050565b600082825260208201905092915050565b6000819050919050565b61061b82610672565b810181811067ffffffffffffffff8211171561063a57610639610643565b5b80604052505050565b7f4e487b7100000000000000000000000000000000000000000000000000000000600052604160045260246000fd5b6000601f19601f8301169050919050565b61068c81610608565b811461069757600080fd5b5056fea26469706673582212205cbb874261621b5c710ada618cb9a32a9d765e1aa116395af742b40b9eca6a2c64736f6c63430008040033",
					"opcodes": "PUSH1 0x80 PUSH1 0x40 MSTORE CALLVALUE DUP1 ISZERO PUSH2 0x10 JUMPI PUSH1 0x0 DUP1 REVERT JUMPDEST POP PUSH2 0x6D0 DUP1 PUSH2 0x20 PUSH1 0x0 CODECOPY PUSH1 0x0 RETURN INVALID PUSH1 0x80 PUSH1 0x40 MSTORE CALLVALUE DUP1 ISZERO PUSH2 0x10 JUMPI PUSH1 0x0 DUP1 REVERT JUMPDEST POP PUSH1 0x4 CALLDATASIZE LT PUSH2 0x57 JUMPI PUSH1 0x0 CALLDATALOAD PUSH1 0xE0 SHR DUP1 PUSH4 0x26121FF0 EQ PUSH2 0x5C JUMPI DUP1 PUSH4 0x40DCBB08 EQ PUSH2 0x7C JUMPI DUP1 PUSH4 0x71E5EE5F EQ PUSH2 0x98 JUMPI DUP1 PUSH4 0xD82A09B7 EQ PUSH2 0xC8 JUMPI DUP1 PUSH4 0xDF90C8D3 EQ PUSH2 0xF8 JUMPI JUMPDEST PUSH1 0x0 DUP1 REVERT JUMPDEST PUSH2 0x64 PUSH2 0x128 JUMP JUMPDEST PUSH1 0x40 MLOAD PUSH2 0x73 SWAP4 SWAP3 SWAP2 SWAP1 PUSH2 0x52C JUMP JUMPDEST PUSH1 0x40 MLOAD DUP1 SWAP2 SUB SWAP1 RETURN JUMPDEST PUSH2 0x96 PUSH1 0x4 DUP1 CALLDATASIZE SUB DUP2 ADD SWAP1 PUSH2 0x91 SWAP2 SWAP1 PUSH2 0x398 JUMP JUMPDEST PUSH2 0x1F5 JUMP JUMPDEST STOP JUMPDEST PUSH2 0xB2 PUSH1 0x4 DUP1 CALLDATASIZE SUB DUP2 ADD SWAP1 PUSH2 0xAD SWAP2 SWAP1 PUSH2 0x431 JUMP JUMPDEST PUSH2 0x1F9 JUMP JUMPDEST PUSH1 0x40 MLOAD PUSH2 0xBF SWAP2 SWAP1 PUSH2 0x563 JUMP JUMPDEST PUSH1 0x40 MLOAD DUP1 SWAP2 SUB SWAP1 RETURN JUMPDEST PUSH2 0xE2 PUSH1 0x4 DUP1 CALLDATASIZE SUB DUP2 ADD SWAP1 PUSH2 0xDD SWAP2 SWAP1 PUSH2 0x3DD JUMP JUMPDEST PUSH2 0x21D JUMP JUMPDEST PUSH1 0x40 MLOAD PUSH2 0xEF SWAP2 SWAP1 PUSH2 0x50A JUMP JUMPDEST PUSH1 0x40 MLOAD DUP1 SWAP2 SUB SWAP1 RETURN JUMPDEST PUSH2 0x112 PUSH1 0x4 DUP1 CALLDATASIZE SUB DUP2 ADD SWAP1 PUSH2 0x10D SWAP2 SWAP1 PUSH2 0x431 JUMP JUMPDEST PUSH2 0x26D JUMP JUMPDEST PUSH1 0x40 MLOAD PUSH2 0x11F SWAP2 SWAP1 PUSH2 0x563 JUMP JUMPDEST PUSH1 0x40 MLOAD DUP1 SWAP2 SUB SWAP1 RETURN JUMPDEST PUSH2 0x130 PUSH2 0x290 JUMP JUMPDEST PUSH2 0x138 PUSH2 0x290 JUMP JUMPDEST PUSH2 0x140 PUSH2 0x290 JUMP JUMPDEST PUSH2 0x160 PUSH1 0x0 PUSH1 0x1 PUSH1 0x2 PUSH1 0x0 PUSH1 0x1 DUP2 MSTORE PUSH1 0x20 ADD SWAP1 DUP2 MSTORE PUSH1 0x20 ADD PUSH1 0x0 KECCAK256 PUSH2 0x28B JUMP JUMPDEST PUSH1 0x0 PUSH1 0x2 PUSH1 0x0 PUSH1 0x1 DUP2 MSTORE PUSH1 0x20 ADD SWAP1 DUP2 MSTORE PUSH1 0x20 ADD PUSH1 0x0 KECCAK256 SWAP1 POP PUSH1 0x4 DUP2 PUSH1 0x0 ADD DUP2 SWAP1 SSTORE POP PUSH1 0x0 PUSH1 0x40 MLOAD DUP1 PUSH1 0x20 ADD PUSH1 0x40 MSTORE DUP1 PUSH1 0x0 DUP2 MSTORE POP SWAP1 POP PUSH1 0x0 DUP2 SWAP1 POP PUSH1 0x1 DUP2 PUSH1 0x0 ADD DUP2 DUP2 MSTORE POP POP PUSH1 0x0 DUP4 PUSH1 0x40 MLOAD DUP1 PUSH1 0x20 ADD PUSH1 0x40 MSTORE SWAP1 DUP2 PUSH1 0x0 DUP3 ADD SLOAD DUP2 MSTORE POP POP SWAP1 POP PUSH1 0x3 DUP2 PUSH1 0x0 ADD DUP2 DUP2 MSTORE POP POP DUP4 DUP3 DUP3 DUP3 PUSH1 0x40 MLOAD DUP1 PUSH1 0x20 ADD PUSH1 0x40 MSTORE SWAP1 DUP2 PUSH1 0x0 DUP3 ADD SLOAD DUP2 MSTORE POP POP SWAP3 POP SWAP7 POP SWAP7 POP SWAP7 POP POP POP POP POP SWAP1 SWAP2 SWAP3 JUMP JUMPDEST POP POP JUMP JUMPDEST PUSH1 0x0 DUP2 DUP2 SLOAD DUP2 LT PUSH2 0x209 JUMPI PUSH1 0x0 DUP1 REVERT JUMPDEST SWAP1 PUSH1 0x0 MSTORE PUSH1 0x20 PUSH1 0x0 KECCAK256 ADD PUSH1 0x0 SWAP2 POP SWAP1 POP SLOAD DUP2 JUMP JUMPDEST PUSH1 0x60 PUSH1 0x1 DUP4 PUSH1 0x0 DUP2 MLOAD DUP2 LT PUSH2 0x25B JUMPI PUSH32 0x4E487B7100000000000000000000000000000000000000000000000000000000 PUSH1 0x0 MSTORE PUSH1 0x32 PUSH1 0x4 MSTORE PUSH1 0x24 PUSH1 0x0 REVERT JUMPDEST PUSH1 0x20 MUL PUSH1 0x20 ADD ADD DUP2 DUP2 MSTORE POP POP SWAP3 SWAP2 POP POP JUMP JUMPDEST PUSH1 0x2 PUSH1 0x20 MSTORE DUP1 PUSH1 0x0 MSTORE PUSH1 0x40 PUSH1 0x0 KECCAK256 PUSH1 0x0 SWAP2 POP SWAP1 POP DUP1 PUSH1 0x0 ADD SLOAD SWAP1 POP DUP2 JUMP JUMPDEST POP POP POP JUMP JUMPDEST PUSH1 0x40 MLOAD DUP1 PUSH1 0x20 ADD PUSH1 0x40 MSTORE DUP1 PUSH1 0x0 DUP2 MSTORE POP SWAP1 JUMP JUMPDEST PUSH1 0x0 PUSH2 0x2B6 PUSH2 0x2B1 DUP5 PUSH2 0x5A3 JUMP JUMPDEST PUSH2 0x57E JUMP JUMPDEST SWAP1 POP DUP1 DUP4 DUP3 MSTORE PUSH1 0x20 DUP3 ADD SWAP1 POP DUP3 DUP6 PUSH1 0x20 DUP7 MUL DUP3 ADD GT ISZERO PUSH2 0x2D5 JUMPI PUSH1 0x0 DUP1 REVERT JUMPDEST PUSH1 0x0 JUMPDEST DUP6 DUP2 LT ISZERO PUSH2 0x305 JUMPI DUP2 PUSH2 0x2EB DUP9 DUP3 PUSH2 0x383 JUMP JUMPDEST DUP5 MSTORE PUSH1 0x20 DUP5 ADD SWAP4 POP PUSH1 0x20 DUP4 ADD SWAP3 POP POP PUSH1 0x1 DUP2 ADD SWAP1 POP PUSH2 0x2D8 JUMP JUMPDEST POP POP POP SWAP4 SWAP3 POP POP POP JUMP JUMPDEST PUSH1 0x0 DUP1 DUP4 PUSH1 0x1F DUP5 ADD SLT PUSH2 0x321 JUMPI PUSH1 0x0 DUP1 REVERT JUMPDEST DUP3 CALLDATALOAD SWAP1 POP PUSH8 0xFFFFFFFFFFFFFFFF DUP2 GT ISZERO PUSH2 0x33A JUMPI PUSH1 0x0 DUP1 REVERT JUMPDEST PUSH1 0x20 DUP4 ADD SWAP2 POP DUP4 PUSH1 0x20 DUP3 MUL DUP4 ADD GT ISZERO PUSH2 0x352 JUMPI PUSH1 0x0 DUP1 REVERT JUMPDEST SWAP3 POP SWAP3 SWAP1 POP JUMP JUMPDEST PUSH1 0x0 DUP3 PUSH1 0x1F DUP4 ADD SLT PUSH2 0x36A JUMPI PUSH1 0x0 DUP1 REVERT JUMPDEST DUP2 CALLDATALOAD PUSH2 0x37A DUP5 DUP3 PUSH1 0x20 DUP7 ADD PUSH2 0x2A3 JUMP JUMPDEST SWAP2 POP POP SWAP3 SWAP2 POP POP JUMP JUMPDEST PUSH1 0x0 DUP2 CALLDATALOAD SWAP1 POP PUSH2 0x392 DUP2 PUSH2 0x683 JUMP JUMPDEST SWAP3 SWAP2 POP POP JUMP JUMPDEST PUSH1 0x0 DUP1 PUSH1 0x20 DUP4 DUP6 SUB SLT ISZERO PUSH2 0x3AB JUMPI PUSH1 0x0 DUP1 REVERT JUMPDEST PUSH1 0x0 DUP4 ADD CALLDATALOAD PUSH8 0xFFFFFFFFFFFFFFFF DUP2 GT ISZERO PUSH2 0x3C5 JUMPI PUSH1 0x0 DUP1 REVERT JUMPDEST PUSH2 0x3D1 DUP6 DUP3 DUP7 ADD PUSH2 0x30F JUMP JUMPDEST SWAP3 POP SWAP3 POP POP SWAP3 POP SWAP3 SWAP1 POP JUMP JUMPDEST PUSH1 0x0 DUP1 PUSH1 0x40 DUP4 DUP6 SUB SLT ISZERO PUSH2 0x3F0 JUMPI PUSH1 0x0 DUP1 REVERT JUMPDEST PUSH1 0x0 DUP4 ADD CALLDATALOAD PUSH8 0xFFFFFFFFFFFFFFFF DUP2 GT ISZERO PUSH2 0x40A JUMPI PUSH1 0x0 DUP1 REVERT JUMPDEST PUSH2 0x416 DUP6 DUP3 DUP7 ADD PUSH2 0x359 JUMP JUMPDEST SWAP3 POP POP PUSH1 0x20 PUSH2 0x427 DUP6 DUP3 DUP7 ADD PUSH2 0x383 JUMP JUMPDEST SWAP2 POP POP SWAP3 POP SWAP3 SWAP1 POP JUMP JUMPDEST PUSH1 0x0 PUSH1 0x20 DUP3 DUP5 SUB SLT ISZERO PUSH2 0x443 JUMPI PUSH1 0x0 DUP1 REVERT JUMPDEST PUSH1 0x0 PUSH2 0x451 DUP5 DUP3 DUP6 ADD PUSH2 0x383 JUMP JUMPDEST SWAP2 POP POP SWAP3 SWAP2 POP POP JUMP JUMPDEST PUSH1 0x0 PUSH2 0x466 DUP4 DUP4 PUSH2 0x4EC JUMP JUMPDEST PUSH1 0x20 DUP4 ADD SWAP1 POP SWAP3 SWAP2 POP POP JUMP JUMPDEST PUSH1 0x0 PUSH2 0x47D DUP3 PUSH2 0x5DF JUMP JUMPDEST PUSH2 0x487 DUP2 DUP6 PUSH2 0x5F7 JUMP JUMPDEST SWAP4 POP PUSH2 0x492 DUP4 PUSH2 0x5CF JUMP JUMPDEST DUP1 PUSH1 0x0 JUMPDEST DUP4 DUP2 LT ISZERO PUSH2 0x4C3 JUMPI DUP2 MLOAD PUSH2 0x4AA DUP9 DUP3 PUSH2 0x45A JUMP JUMPDEST SWAP8 POP PUSH2 0x4B5 DUP4 PUSH2 0x5EA JUMP JUMPDEST SWAP3 POP POP PUSH1 0x1 DUP2 ADD SWAP1 POP PUSH2 0x496 JUMP JUMPDEST POP DUP6 SWAP4 POP POP POP POP SWAP3 SWAP2 POP POP JUMP JUMPDEST PUSH1 0x20 DUP3 ADD PUSH1 0x0 DUP3 ADD MLOAD PUSH2 0x4E6 PUSH1 0x0 DUP6 ADD DUP3 PUSH2 0x4EC JUMP JUMPDEST POP POP POP POP JUMP JUMPDEST PUSH2 0x4F5 DUP2 PUSH2 0x608 JUMP JUMPDEST DUP3 MSTORE POP POP JUMP JUMPDEST PUSH2 0x504 DUP2 PUSH2 0x608 JUMP JUMPDEST DUP3 MSTORE POP POP JUMP JUMPDEST PUSH1 0x0 PUSH1 0x20 DUP3 ADD SWAP1 POP DUP2 DUP2 SUB PUSH1 0x0 DUP4 ADD MSTORE PUSH2 0x524 DUP2 DUP5 PUSH2 0x472 JUMP JUMPDEST SWAP1 POP SWAP3 SWAP2 POP POP JUMP JUMPDEST PUSH1 0x0 PUSH1 0x60 DUP3 ADD SWAP1 POP PUSH2 0x541 PUSH1 0x0 DUP4 ADD DUP7 PUSH2 0x4D0 JUMP JUMPDEST PUSH2 0x54E PUSH1 0x20 DUP4 ADD DUP6 PUSH2 0x4D0 JUMP JUMPDEST PUSH2 0x55B PUSH1 0x40 DUP4 ADD DUP5 PUSH2 0x4D0 JUMP JUMPDEST SWAP5 SWAP4 POP POP POP POP JUMP JUMPDEST PUSH1 0x0 PUSH1 0x20 DUP3 ADD SWAP1 POP PUSH2 0x578 PUSH1 0x0 DUP4 ADD DUP5 PUSH2 0x4FB JUMP JUMPDEST SWAP3 SWAP2 POP POP JUMP JUMPDEST PUSH1 0x0 PUSH2 0x588 PUSH2 0x599 JUMP JUMPDEST SWAP1 POP PUSH2 0x594 DUP3 DUP3 PUSH2 0x612 JUMP JUMPDEST SWAP2 SWAP1 POP JUMP JUMPDEST PUSH1 0x0 PUSH1 0x40 MLOAD SWAP1 POP SWAP1 JUMP JUMPDEST PUSH1 0x0 PUSH8 0xFFFFFFFFFFFFFFFF DUP3 GT ISZERO PUSH2 0x5BE JUMPI PUSH2 0x5BD PUSH2 0x643 JUMP JUMPDEST JUMPDEST PUSH1 0x20 DUP3 MUL SWAP1 POP PUSH1 0x20 DUP2 ADD SWAP1 POP SWAP2 SWAP1 POP JUMP JUMPDEST PUSH1 0x0 DUP2 SWAP1 POP PUSH1 0x20 DUP3 ADD SWAP1 POP SWAP2 SWAP1 POP JUMP JUMPDEST PUSH1 0x0 DUP2 MLOAD SWAP1 POP SWAP2 SWAP1 POP JUMP JUMPDEST PUSH1 0x0 PUSH1 0x20 DUP3 ADD SWAP1 POP SWAP2 SWAP1 POP JUMP JUMPDEST PUSH1 0x0 DUP3 DUP3 MSTORE PUSH1 0x20 DUP3 ADD SWAP1 POP SWAP3 SWAP2 POP POP JUMP JUMPDEST PUSH1 0x0 DUP2 SWAP1 POP SWAP2 SWAP1 POP JUMP JUMPDEST PUSH2 0x61B DUP3 PUSH2 0x672 JUMP JUMPDEST DUP2 ADD DUP2 DUP2 LT PUSH8 0xFFFFFFFFFFFFFFFF DUP3 GT OR ISZERO PUSH2 0x63A JUMPI PUSH2 0x639 PUSH2 0x643 JUMP JUMPDEST JUMPDEST DUP1 PUSH1 0x40 MSTORE POP POP POP JUMP JUMPDEST PUSH32 0x4E487B7100000000000000000000000000000000000000000000000000000000 PUSH1 0x0 MSTORE PUSH1 0x41 PUSH1 0x4 MSTORE PUSH1 0x24 PUSH1 0x0 REVERT JUMPDEST PUSH1 0x0 PUSH1 0x1F NOT PUSH1 0x1F DUP4 ADD AND SWAP1 POP SWAP2 SWAP1 POP JUMP JUMPDEST PUSH2 0x68C DUP2 PUSH2 0x608 JUMP JUMPDEST DUP2 EQ PUSH2 0x697 JUMPI PUSH1 0x0 DUP1 REVERT JUMPDEST POP JUMP INVALID LOG2 PUSH5 0x6970667358 0x22 SLT KECCAK256 0x5C 0xBB DUP8 TIMESTAMP PUSH2 0x621B 0x5C PUSH18 0xADA618CB9A32A9D765E1AA116395AF742B4 SIGNEXTEND SWAP15 0xCA PUSH11 0x2C64736F6C634300080400 CALLER "
				},
				"gasEstimates": {
					"creation": {
						"codeDepositCost": "348800",
						"executionCost": "386",
						"totalCost": "349186"
					},
					"external": {
						"arr(uint256)": "infinite",
						"f()": "infinite",
						"g(uint256[],uint256)": "infinite",
						"h(uint256[])": "474",
						"myStructs(uint256)": "infinite"
					},
					"internal": {
						"_f(uint256[] storage pointer,mapping(uint256 => address),struct DataLocations.MyStruct storage pointer)": "15"
					}
				},
				"methodIdentifiers": {
					"arr(uint256)": "71e5ee5f",
					"f()": "26121ff0",
					"g(uint256[],uint256)": "d82a09b7",
					"h(uint256[])": "40dcbb08",
					"myStructs(uint256)": "df90c8d3"
				}
			},
			"userdoc": {
				"kind": "user",
				"methods": {},
				"version": 1
			}
		}
	}
}