{
	".learneth/Solidity Beginner Course/8.2 Data Structures - Mappings/mappings_answer.sol": {
		"Mapping": {
			"abi": [
				{
					"inputs": [
						{
							"internalType": "address",
							"name": "",
							"type": "address"
						}
					],
					"name": "balances",
					"outputs": [
						{
							"internalType": "uint256",
							"name": "",
							"type": "uint256"
						}
					],
					"stateMutability": "view",
					"type": "function"
				},
				{
					"inputs": [
						{
							"internalType": "address",
							"name": "_addr",
							"type": "address"
						}
					],
					"name": "get",
					"outputs": [
						{
							"internalType": "uint256",
							"name": "",
							"type": "uint256"
						}
					],
					"stateMutability": "view",
					"type": "function"
				},
				{
					"inputs": [
						{
							"internalType": "address",
							"name": "_addr",
							"type": "address"
						}
					],
					"name": "remove",
					"outputs": [],
					"stateMutability": "nonpayable",
					"type": "function"
				},
				{
					"inputs": [
						{
							"internalType": "address",
							"name": "_addr",
							"type": "address"
						}
					],
					"name": "set",
					"outputs": [],
					"stateMutability": "nonpayable",
					"type": "function"
				}
			],
			"devdoc": {
				"kind": "dev",
				"methods": {},
				"version": 1
			},
			"evm": {
				"assembly": "    /* \".learneth/Solidity Beginner Course/8.2 Data Structures - Mappings/mappings_answer.sol\":57:640  contract Mapping {... */\n  mstore(0x40, 0x80)\n  callvalue\n  dup1\n  iszero\n  tag_1\n  jumpi\n  0x00\n  dup1\n  revert\ntag_1:\n  pop\n  dataSize(sub_0)\n  dup1\n  dataOffset(sub_0)\n  0x00\n  codecopy\n  0x00\n  return\nstop\n\nsub_0: assembly {\n        /* \".learneth/Solidity Beginner Course/8.2 Data Structures - Mappings/mappings_answer.sol\":57:640  contract Mapping {... */\n      mstore(0x40, 0x80)\n      callvalue\n      dup1\n      iszero\n      tag_1\n      jumpi\n      0x00\n      dup1\n      revert\n    tag_1:\n      pop\n      jumpi(tag_2, lt(calldatasize, 0x04))\n      shr(0xe0, calldataload(0x00))\n      dup1\n      0x27e235e3\n      eq\n      tag_3\n      jumpi\n      dup1\n      0x2801617e\n      eq\n      tag_4\n      jumpi\n      dup1\n      0x29092d0e\n      eq\n      tag_5\n      jumpi\n      dup1\n      0xc2bc2efc\n      eq\n      tag_6\n      jumpi\n    tag_2:\n      0x00\n      dup1\n      revert\n        /* \".learneth/Solidity Beginner Course/8.2 Data Structures - Mappings/mappings_answer.sol\":116:156  mapping(address => uint) public balances */\n    tag_3:\n      tag_7\n      0x04\n      dup1\n      calldatasize\n      sub\n      dup2\n      add\n      swap1\n      tag_8\n      swap2\n      swap1\n      tag_9\n      jump\t// in\n    tag_8:\n      tag_10\n      jump\t// in\n    tag_7:\n      mload(0x40)\n      tag_11\n      swap2\n      swap1\n      tag_12\n      jump\t// in\n    tag_11:\n      mload(0x40)\n      dup1\n      swap2\n      sub\n      swap1\n      return\n        /* \".learneth/Solidity Beginner Course/8.2 Data Structures - Mappings/mappings_answer.sol\":379:506  function set(address _addr) public {... */\n    tag_4:\n      tag_13\n      0x04\n      dup1\n      calldatasize\n      sub\n      dup2\n      add\n      swap1\n      tag_14\n      swap2\n      swap1\n      tag_9\n      jump\t// in\n    tag_14:\n      tag_15\n      jump\t// in\n    tag_13:\n      stop\n        /* \".learneth/Solidity Beginner Course/8.2 Data Structures - Mappings/mappings_answer.sol\":512:638  function remove(address _addr) public {... */\n    tag_5:\n      tag_16\n      0x04\n      dup1\n      calldatasize\n      sub\n      dup2\n      add\n      swap1\n      tag_17\n      swap2\n      swap1\n      tag_9\n      jump\t// in\n    tag_17:\n      tag_18\n      jump\t// in\n    tag_16:\n      stop\n        /* \".learneth/Solidity Beginner Course/8.2 Data Structures - Mappings/mappings_answer.sol\":163:373  function get(address _addr) public view returns (uint) {... */\n    tag_6:\n      tag_19\n      0x04\n      dup1\n      calldatasize\n      sub\n      dup2\n      add\n      swap1\n      tag_20\n      swap2\n      swap1\n      tag_9\n      jump\t// in\n    tag_20:\n      tag_21\n      jump\t// in\n    tag_19:\n      mload(0x40)\n      tag_22\n      swap2\n      swap1\n      tag_12\n      jump\t// in\n    tag_22:\n      mload(0x40)\n      dup1\n      swap2\n      sub\n      swap1\n      return\n        /* \".learneth/Solidity Beginner Course/8.2 Data Structures - Mappings/mappings_answer.sol\":116:156  mapping(address => uint) public balances */\n    tag_10:\n      mstore(0x20, 0x00)\n      dup1\n      0x00\n      mstore\n      keccak256(0x00, 0x40)\n      0x00\n      swap2\n      pop\n      swap1\n      pop\n      sload\n      dup2\n      jump\t// out\n        /* \".learneth/Solidity Beginner Course/8.2 Data Structures - Mappings/mappings_answer.sol\":379:506  function set(address _addr) public {... */\n    tag_15:\n        /* \".learneth/Solidity Beginner Course/8.2 Data Structures - Mappings/mappings_answer.sol\":486:491  _addr */\n      dup1\n        /* \".learneth/Solidity Beginner Course/8.2 Data Structures - Mappings/mappings_answer.sol\":486:499  _addr.balance */\n      0xffffffffffffffffffffffffffffffffffffffff\n      and\n      balance\n        /* \".learneth/Solidity Beginner Course/8.2 Data Structures - Mappings/mappings_answer.sol\":468:476  balances */\n      0x00\n        /* \".learneth/Solidity Beginner Course/8.2 Data Structures - Mappings/mappings_answer.sol\":468:483  balances[_addr] */\n      dup1\n        /* \".learneth/Solidity Beginner Course/8.2 Data Structures - Mappings/mappings_answer.sol\":477:482  _addr */\n      dup4\n        /* \".learneth/Solidity Beginner Course/8.2 Data Structures - Mappings/mappings_answer.sol\":468:483  balances[_addr] */\n      0xffffffffffffffffffffffffffffffffffffffff\n      and\n      0xffffffffffffffffffffffffffffffffffffffff\n      and\n      dup2\n      mstore\n      0x20\n      add\n      swap1\n      dup2\n      mstore\n      0x20\n      add\n      0x00\n      keccak256\n        /* \".learneth/Solidity Beginner Course/8.2 Data Structures - Mappings/mappings_answer.sol\":468:499  balances[_addr] = _addr.balance */\n      dup2\n      swap1\n      sstore\n      pop\n        /* \".learneth/Solidity Beginner Course/8.2 Data Structures - Mappings/mappings_answer.sol\":379:506  function set(address _addr) public {... */\n      pop\n      jump\t// out\n        /* \".learneth/Solidity Beginner Course/8.2 Data Structures - Mappings/mappings_answer.sol\":512:638  function remove(address _addr) public {... */\n    tag_18:\n        /* \".learneth/Solidity Beginner Course/8.2 Data Structures - Mappings/mappings_answer.sol\":616:624  balances */\n      0x00\n        /* \".learneth/Solidity Beginner Course/8.2 Data Structures - Mappings/mappings_answer.sol\":616:631  balances[_addr] */\n      dup1\n        /* \".learneth/Solidity Beginner Course/8.2 Data Structures - Mappings/mappings_answer.sol\":625:630  _addr */\n      dup3\n        /* \".learneth/Solidity Beginner Course/8.2 Data Structures - Mappings/mappings_answer.sol\":616:631  balances[_addr] */\n      0xffffffffffffffffffffffffffffffffffffffff\n      and\n      0xffffffffffffffffffffffffffffffffffffffff\n      and\n      dup2\n      mstore\n      0x20\n      add\n      swap1\n      dup2\n      mstore\n      0x20\n      add\n      0x00\n      keccak256\n        /* \".learneth/Solidity Beginner Course/8.2 Data Structures - Mappings/mappings_answer.sol\":609:631  delete balances[_addr] */\n      0x00\n      swap1\n      sstore\n        /* \".learneth/Solidity Beginner Course/8.2 Data Structures - Mappings/mappings_answer.sol\":512:638  function remove(address _addr) public {... */\n      pop\n      jump\t// out\n        /* \".learneth/Solidity Beginner Course/8.2 Data Structures - Mappings/mappings_answer.sol\":163:373  function get(address _addr) public view returns (uint) {... */\n    tag_21:\n        /* \".learneth/Solidity Beginner Course/8.2 Data Structures - Mappings/mappings_answer.sol\":212:216  uint */\n      0x00\n        /* \".learneth/Solidity Beginner Course/8.2 Data Structures - Mappings/mappings_answer.sol\":351:359  balances */\n      dup1\n        /* \".learneth/Solidity Beginner Course/8.2 Data Structures - Mappings/mappings_answer.sol\":351:366  balances[_addr] */\n      0x00\n        /* \".learneth/Solidity Beginner Course/8.2 Data Structures - Mappings/mappings_answer.sol\":360:365  _addr */\n      dup4\n        /* \".learneth/Solidity Beginner Course/8.2 Data Structures - Mappings/mappings_answer.sol\":351:366  balances[_addr] */\n      0xffffffffffffffffffffffffffffffffffffffff\n      and\n      0xffffffffffffffffffffffffffffffffffffffff\n      and\n      dup2\n      mstore\n      0x20\n      add\n      swap1\n      dup2\n      mstore\n      0x20\n      add\n      0x00\n      keccak256\n      sload\n        /* \".learneth/Solidity Beginner Course/8.2 Data Structures - Mappings/mappings_answer.sol\":344:366  return balances[_addr] */\n      swap1\n      pop\n        /* \".learneth/Solidity Beginner Course/8.2 Data Structures - Mappings/mappings_answer.sol\":163:373  function get(address _addr) public view returns (uint) {... */\n      swap2\n      swap1\n      pop\n      jump\t// out\n        /* \"#utility.yul\":7:146   */\n    tag_27:\n        /* \"#utility.yul\":53:58   */\n      0x00\n        /* \"#utility.yul\":91:97   */\n      dup2\n        /* \"#utility.yul\":78:98   */\n      calldataload\n        /* \"#utility.yul\":69:98   */\n      swap1\n      pop\n        /* \"#utility.yul\":107:140   */\n      tag_29\n        /* \"#utility.yul\":134:139   */\n      dup2\n        /* \"#utility.yul\":107:140   */\n      tag_30\n      jump\t// in\n    tag_29:\n        /* \"#utility.yul\":59:146   */\n      swap3\n      swap2\n      pop\n      pop\n      jump\t// out\n        /* \"#utility.yul\":152:414   */\n    tag_9:\n        /* \"#utility.yul\":211:217   */\n      0x00\n        /* \"#utility.yul\":260:262   */\n      0x20\n        /* \"#utility.yul\":248:257   */\n      dup3\n        /* \"#utility.yul\":239:246   */\n      dup5\n        /* \"#utility.yul\":235:258   */\n      sub\n        /* \"#utility.yul\":231:263   */\n      slt\n        /* \"#utility.yul\":228:230   */\n      iszero\n      tag_32\n      jumpi\n        /* \"#utility.yul\":276:277   */\n      0x00\n        /* \"#utility.yul\":273:274   */\n      dup1\n        /* \"#utility.yul\":266:278   */\n      revert\n        /* \"#utility.yul\":228:230   */\n    tag_32:\n        /* \"#utility.yul\":319:320   */\n      0x00\n        /* \"#utility.yul\":344:397   */\n      tag_33\n        /* \"#utility.yul\":389:396   */\n      dup5\n        /* \"#utility.yul\":380:386   */\n      dup3\n        /* \"#utility.yul\":369:378   */\n      dup6\n        /* \"#utility.yul\":365:387   */\n      add\n        /* \"#utility.yul\":344:397   */\n      tag_27\n      jump\t// in\n    tag_33:\n        /* \"#utility.yul\":334:397   */\n      swap2\n      pop\n        /* \"#utility.yul\":290:407   */\n      pop\n        /* \"#utility.yul\":218:414   */\n      swap3\n      swap2\n      pop\n      pop\n      jump\t// out\n        /* \"#utility.yul\":420:538   */\n    tag_34:\n        /* \"#utility.yul\":507:531   */\n      tag_36\n        /* \"#utility.yul\":525:530   */\n      dup2\n        /* \"#utility.yul\":507:531   */\n      tag_37\n      jump\t// in\n    tag_36:\n        /* \"#utility.yul\":502:505   */\n      dup3\n        /* \"#utility.yul\":495:532   */\n      mstore\n        /* \"#utility.yul\":485:538   */\n      pop\n      pop\n      jump\t// out\n        /* \"#utility.yul\":544:766   */\n    tag_12:\n        /* \"#utility.yul\":637:641   */\n      0x00\n        /* \"#utility.yul\":675:677   */\n      0x20\n        /* \"#utility.yul\":664:673   */\n      dup3\n        /* \"#utility.yul\":660:678   */\n      add\n        /* \"#utility.yul\":652:678   */\n      swap1\n      pop\n        /* \"#utility.yul\":688:759   */\n      tag_39\n        /* \"#utility.yul\":756:757   */\n      0x00\n        /* \"#utility.yul\":745:754   */\n      dup4\n        /* \"#utility.yul\":741:758   */\n      add\n        /* \"#utility.yul\":732:738   */\n      dup5\n        /* \"#utility.yul\":688:759   */\n      tag_34\n      jump\t// in\n    tag_39:\n        /* \"#utility.yul\":642:766   */\n      swap3\n      swap2\n      pop\n      pop\n      jump\t// out\n        /* \"#utility.yul\":772:868   */\n    tag_40:\n        /* \"#utility.yul\":809:816   */\n      0x00\n        /* \"#utility.yul\":838:862   */\n      tag_42\n        /* \"#utility.yul\":856:861   */\n      dup3\n        /* \"#utility.yul\":838:862   */\n      tag_43\n      jump\t// in\n    tag_42:\n        /* \"#utility.yul\":827:862   */\n      swap1\n      pop\n        /* \"#utility.yul\":817:868   */\n      swap2\n      swap1\n      pop\n      jump\t// out\n        /* \"#utility.yul\":874:1000   */\n    tag_43:\n        /* \"#utility.yul\":911:918   */\n      0x00\n        /* \"#utility.yul\":951:993   */\n      0xffffffffffffffffffffffffffffffffffffffff\n        /* \"#utility.yul\":944:949   */\n      dup3\n        /* \"#utility.yul\":940:994   */\n      and\n        /* \"#utility.yul\":929:994   */\n      swap1\n      pop\n        /* \"#utility.yul\":919:1000   */\n      swap2\n      swap1\n      pop\n      jump\t// out\n        /* \"#utility.yul\":1006:1083   */\n    tag_37:\n        /* \"#utility.yul\":1043:1050   */\n      0x00\n        /* \"#utility.yul\":1072:1077   */\n      dup2\n        /* \"#utility.yul\":1061:1077   */\n      swap1\n      pop\n        /* \"#utility.yul\":1051:1083   */\n      swap2\n      swap1\n      pop\n      jump\t// out\n        /* \"#utility.yul\":1089:1211   */\n    tag_30:\n        /* \"#utility.yul\":1162:1186   */\n      tag_47\n        /* \"#utility.yul\":1180:1185   */\n      dup2\n        /* \"#utility.yul\":1162:1186   */\n      tag_40\n      jump\t// in\n    tag_47:\n        /* \"#utility.yul\":1155:1160   */\n      dup2\n        /* \"#utility.yul\":1152:1187   */\n      eq\n        /* \"#utility.yul\":1142:1144   */\n      tag_48\n      jumpi\n        /* \"#utility.yul\":1201:1202   */\n      0x00\n        /* \"#utility.yul\":1198:1199   */\n      dup1\n        /* \"#utility.yul\":1191:1203   */\n      revert\n        /* \"#utility.yul\":1142:1144   */\n    tag_48:\n        /* \"#utility.yul\":1132:1211   */\n      pop\n      jump\t// out\n\n    auxdata: 0xa2646970667358221220557f03769524e3d6cc1281c543b083f9004079bfde05fbb6e528b13bb9b2c6d564736f6c63430008040033\n}\n",
				"bytecode": {
					"linkReferences": {},
					"object": "608060405234801561001057600080fd5b506102dc806100206000396000f3fe608060405234801561001057600080fd5b506004361061004c5760003560e01c806327e235e3146100515780632801617e1461008157806329092d0e1461009d578063c2bc2efc146100b9575b600080fd5b61006b60048036038101906100669190610200565b6100e9565b6040516100789190610238565b60405180910390f35b61009b60048036038101906100969190610200565b610101565b005b6100b760048036038101906100b29190610200565b61015e565b005b6100d360048036038101906100ce9190610200565b6101a3565b6040516100e09190610238565b60405180910390f35b60006020528060005260406000206000915090505481565b8073ffffffffffffffffffffffffffffffffffffffff16316000808373ffffffffffffffffffffffffffffffffffffffff1673ffffffffffffffffffffffffffffffffffffffff1681526020019081526020016000208190555050565b6000808273ffffffffffffffffffffffffffffffffffffffff1673ffffffffffffffffffffffffffffffffffffffff1681526020019081526020016000206000905550565b60008060008373ffffffffffffffffffffffffffffffffffffffff1673ffffffffffffffffffffffffffffffffffffffff168152602001908152602001600020549050919050565b6000813590506101fa8161028f565b92915050565b60006020828403121561021257600080fd5b6000610220848285016101eb565b91505092915050565b61023281610285565b82525050565b600060208201905061024d6000830184610229565b92915050565b600061025e82610265565b9050919050565b600073ffffffffffffffffffffffffffffffffffffffff82169050919050565b6000819050919050565b61029881610253565b81146102a357600080fd5b5056fea2646970667358221220557f03769524e3d6cc1281c543b083f9004079bfde05fbb6e528b13bb9b2c6d564736f6c63430008040033",
					"opcodes": "PUSH1 0x80 PUSH1 0x40 MSTORE CALLVALUE DUP1 ISZERO PUSH2 0x10 JUMPI PUSH1 0x0 DUP1 REVERT JUMPDEST POP PUSH2 0x2DC DUP1 PUSH2 0x20 PUSH1 0x0 CODECOPY PUSH1 0x0 RETURN INVALID PUSH1 0x80 PUSH1 0x40 MSTORE CALLVALUE DUP1 ISZERO PUSH2 0x10 JUMPI PUSH1 0x0 DUP1 REVERT JUMPDEST POP PUSH1 0x4 CALLDATASIZE LT PUSH2 0x4C JUMPI PUSH1 0x0 CALLDATALOAD PUSH1 0xE0 SHR DUP1 PUSH4 0x27E235E3 EQ PUSH2 0x51 JUMPI DUP1 PUSH4 0x2801617E EQ PUSH2 0x81 JUMPI DUP1 PUSH4 0x29092D0E EQ PUSH2 0x9D JUMPI DUP1 PUSH4 0xC2BC2EFC EQ PUSH2 0xB9 JUMPI JUMPDEST PUSH1 0x0 DUP1 REVERT JUMPDEST PUSH2 0x6B PUSH1 0x4 DUP1 CALLDATASIZE SUB DUP2 ADD SWAP1 PUSH2 0x66 SWAP2 SWAP1 PUSH2 0x200 JUMP JUMPDEST PUSH2 0xE9 JUMP JUMPDEST PUSH1 0x40 MLOAD PUSH2 0x78 SWAP2 SWAP1 PUSH2 0x238 JUMP JUMPDEST PUSH1 0x40 MLOAD DUP1 SWAP2 SUB SWAP1 RETURN JUMPDEST PUSH2 0x9B PUSH1 0x4 DUP1 CALLDATASIZE SUB DUP2 ADD SWAP1 PUSH2 0x96 SWAP2 SWAP1 PUSH2 0x200 JUMP JUMPDEST PUSH2 0x101 JUMP JUMPDEST STOP JUMPDEST PUSH2 0xB7 PUSH1 0x4 DUP1 CALLDATASIZE SUB DUP2 ADD SWAP1 PUSH2 0xB2 SWAP2 SWAP1 PUSH2 0x200 JUMP JUMPDEST PUSH2 0x15E JUMP JUMPDEST STOP JUMPDEST PUSH2 0xD3 PUSH1 0x4 DUP1 CALLDATASIZE SUB DUP2 ADD SWAP1 PUSH2 0xCE SWAP2 SWAP1 PUSH2 0x200 JUMP JUMPDEST PUSH2 0x1A3 JUMP JUMPDEST PUSH1 0x40 MLOAD PUSH2 0xE0 SWAP2 SWAP1 PUSH2 0x238 JUMP JUMPDEST PUSH1 0x40 MLOAD DUP1 SWAP2 SUB SWAP1 RETURN JUMPDEST PUSH1 0x0 PUSH1 0x20 MSTORE DUP1 PUSH1 0x0 MSTORE PUSH1 0x40 PUSH1 0x0 KECCAK256 PUSH1 0x0 SWAP2 POP SWAP1 POP SLOAD DUP2 JUMP JUMPDEST DUP1 PUSH20 0xFFFFFFFFFFFFFFFFFFFFFFFFFFFFFFFFFFFFFFFF AND BALANCE PUSH1 0x0 DUP1 DUP4 PUSH20 0xFFFFFFFFFFFFFFFFFFFFFFFFFFFFFFFFFFFFFFFF AND PUSH20 0xFFFFFFFFFFFFFFFFFFFFFFFFFFFFFFFFFFFFFFFF AND DUP2 MSTORE PUSH1 0x20 ADD SWAP1 DUP2 MSTORE PUSH1 0x20 ADD PUSH1 0x0 KECCAK256 DUP2 SWAP1 SSTORE POP POP JUMP JUMPDEST PUSH1 0x0 DUP1 DUP3 PUSH20 0xFFFFFFFFFFFFFFFFFFFFFFFFFFFFFFFFFFFFFFFF AND PUSH20 0xFFFFFFFFFFFFFFFFFFFFFFFFFFFFFFFFFFFFFFFF AND DUP2 MSTORE PUSH1 0x20 ADD SWAP1 DUP2 MSTORE PUSH1 0x20 ADD PUSH1 0x0 KECCAK256 PUSH1 0x0 SWAP1 SSTORE POP JUMP JUMPDEST PUSH1 0x0 DUP1 PUSH1 0x0 DUP4 PUSH20 0xFFFFFFFFFFFFFFFFFFFFFFFFFFFFFFFFFFFFFFFF AND PUSH20 0xFFFFFFFFFFFFFFFFFFFFFFFFFFFFFFFFFFFFFFFF AND DUP2 MSTORE PUSH1 0x20 ADD SWAP1 DUP2 MSTORE PUSH1 0x20 ADD PUSH1 0x0 KECCAK256 SLOAD SWAP1 POP SWAP2 SWAP1 POP JUMP JUMPDEST PUSH1 0x0 DUP2 CALLDATALOAD SWAP1 POP PUSH2 0x1FA DUP2 PUSH2 0x28F JUMP JUMPDEST SWAP3 SWAP2 POP POP JUMP JUMPDEST PUSH1 0x0 PUSH1 0x20 DUP3 DUP5 SUB SLT ISZERO PUSH2 0x212 JUMPI PUSH1 0x0 DUP1 REVERT JUMPDEST PUSH1 0x0 PUSH2 0x220 DUP5 DUP3 DUP6 ADD PUSH2 0x1EB JUMP JUMPDEST SWAP2 POP POP SWAP3 SWAP2 POP POP JUMP JUMPDEST PUSH2 0x232 DUP2 PUSH2 0x285 JUMP JUMPDEST DUP3 MSTORE POP POP JUMP JUMPDEST PUSH1 0x0 PUSH1 0x20 DUP3 ADD SWAP1 POP PUSH2 0x24D PUSH1 0x0 DUP4 ADD DUP5 PUSH2 0x229 JUMP JUMPDEST SWAP3 SWAP2 POP POP JUMP JUMPDEST PUSH1 0x0 PUSH2 0x25E DUP3 PUSH2 0x265 JUMP JUMPDEST SWAP1 POP SWAP2 SWAP1 POP JUMP JUMPDEST PUSH1 0x0 PUSH20 0xFFFFFFFFFFFFFFFFFFFFFFFFFFFFFFFFFFFFFFFF DUP3 AND SWAP1 POP SWAP2 SWAP1 POP JUMP JUMPDEST PUSH1 0x0 DUP2 SWAP1 POP SWAP2 SWAP1 POP JUMP JUMPDEST PUSH2 0x298 DUP2 PUSH2 0x253 JUMP JUMPDEST DUP2 EQ PUSH2 0x2A3 JUMPI PUSH1 0x0 DUP1 REVERT JUMPDEST POP JUMP INVALID LOG2 PUSH5 0x6970667358 0x22 SLT KECCAK256 SSTORE PUSH32 0x3769524E3D6CC1281C543B083F9004079BFDE05FBB6E528B13BB9B2C6D56473 PUSH16 0x6C634300080400330000000000000000 "
				},
				"gasEstimates": {
					"creation": {
						"codeDepositCost": "146400",
						"executionCost": "190",
						"totalCost": "146590"
					},
					"external": {
						"balances(address)": "1492",
						"get(address)": "1585",
						"remove(address)": "5576",
						"set(address)": "21265"
					}
				},
				"methodIdentifiers": {
					"balances(address)": "27e235e3",
					"get(address)": "c2bc2efc",
					"remove(address)": "29092d0e",
					"set(address)": "2801617e"
				}
			},
			"userdoc": {
				"kind": "user",
				"methods": {},
				"version": 1
			}
		}
	}
}