{
	"contract_tutorial/Pokedex.sol": {
		"Pokedex": {
			"abi": [
				{
					"inputs": [],
					"stateMutability": "nonpayable",
					"type": "constructor"
				},
				{
					"anonymous": false,
					"inputs": [
						{
							"indexed": false,
							"internalType": "address",
							"name": "",
							"type": "address"
						},
						{
							"indexed": false,
							"internalType": "uint256",
							"name": "",
							"type": "uint256"
						}
					],
					"name": "Received",
					"type": "event"
				},
				{
					"stateMutability": "payable",
					"type": "fallback"
				},
				{
					"inputs": [
						{
							"internalType": "string",
							"name": "_name",
							"type": "string"
						},
						{
							"internalType": "uint8",
							"name": "_id",
							"type": "uint8"
						},
						{
							"internalType": "enum Pokedex.Element",
							"name": "_ele",
							"type": "uint8"
						}
					],
					"name": "addPokemon",
					"outputs": [],
					"stateMutability": "nonpayable",
					"type": "function"
				},
				{
					"inputs": [],
					"name": "getBalance",
					"outputs": [
						{
							"internalType": "uint256",
							"name": "",
							"type": "uint256"
						}
					],
					"stateMutability": "view",
					"type": "function"
				},
				{
					"inputs": [
						{
							"internalType": "uint256",
							"name": "_index",
							"type": "uint256"
						}
					],
					"name": "getPokemon",
					"outputs": [
						{
							"internalType": "string",
							"name": "",
							"type": "string"
						},
						{
							"internalType": "uint8",
							"name": "",
							"type": "uint8"
						},
						{
							"internalType": "enum Pokedex.Element",
							"name": "",
							"type": "uint8"
						}
					],
					"stateMutability": "view",
					"type": "function"
				},
				{
					"inputs": [
						{
							"internalType": "uint256",
							"name": "",
							"type": "uint256"
						}
					],
					"name": "pokemons",
					"outputs": [
						{
							"internalType": "string",
							"name": "name",
							"type": "string"
						},
						{
							"internalType": "uint8",
							"name": "id",
							"type": "uint8"
						},
						{
							"internalType": "enum Pokedex.Element",
							"name": "ele",
							"type": "uint8"
						}
					],
					"stateMutability": "view",
					"type": "function"
				},
				{
					"stateMutability": "payable",
					"type": "receive"
				}
			],
			"devdoc": {
				"kind": "dev",
				"methods": {},
				"version": 1
			},
			"evm": {
				"assembly": "    /* \"contract_tutorial/Pokedex.sol\":62:1063  contract Pokedex {\r... */\n  mstore(0x40, 0x80)\n    /* \"contract_tutorial/Pokedex.sol\":123:146  constructor(){\r... */\n  callvalue\n  dup1\n  iszero\n  tag_1\n  jumpi\n  0x00\n  dup1\n  revert\ntag_1:\n  pop\n    /* \"contract_tutorial/Pokedex.sol\":62:1063  contract Pokedex {\r... */\n  dataSize(sub_0)\n  dup1\n  dataOffset(sub_0)\n  0x00\n  codecopy\n  0x00\n  return\nstop\n\nsub_0: assembly {\n        /* \"contract_tutorial/Pokedex.sol\":62:1063  contract Pokedex {\r... */\n      mstore(0x40, 0x80)\n      jumpi(tag_1, lt(calldatasize, 0x04))\n      shr(0xe0, calldataload(0x00))\n      dup1\n      0x12065fe0\n      eq\n      tag_3\n      jumpi\n      dup1\n      0x85831079\n      eq\n      tag_4\n      jumpi\n      dup1\n      0xb22e3e69\n      eq\n      tag_5\n      jumpi\n      dup1\n      0xf0b305db\n      eq\n      tag_6\n      jumpi\n      jump(tag_2)\n    tag_1:\n      jumpi(tag_2, calldatasize)\n      stop\n    tag_2:\n        /* \"contract_tutorial/Pokedex.sol\":930:960  Received(msg.sender,msg.value) */\n      0x88a5966d370b9919b20f3e2c13ff65706f196a4e32cc2c12bf57088f88525874\n        /* \"contract_tutorial/Pokedex.sol\":939:949  msg.sender */\n      caller\n        /* \"contract_tutorial/Pokedex.sol\":950:959  msg.value */\n      callvalue\n        /* \"contract_tutorial/Pokedex.sol\":930:960  Received(msg.sender,msg.value) */\n      mload(0x40)\n      tag_11\n      swap3\n      swap2\n      swap1\n      tag_12\n      jump\t// in\n    tag_11:\n      mload(0x40)\n      dup1\n      swap2\n      sub\n      swap1\n      log1\n        /* \"contract_tutorial/Pokedex.sol\":62:1063  contract Pokedex {\r... */\n      stop\n        /* \"contract_tutorial/Pokedex.sol\":781:877  function getBalance() public view returns (uint) {\r... */\n    tag_3:\n      callvalue\n      dup1\n      iszero\n      tag_13\n      jumpi\n      0x00\n      dup1\n      revert\n    tag_13:\n      pop\n      tag_14\n      tag_15\n      jump\t// in\n    tag_14:\n      mload(0x40)\n      tag_16\n      swap2\n      swap1\n      tag_17\n      jump\t// in\n    tag_16:\n      mload(0x40)\n      dup1\n      swap2\n      sub\n      swap1\n      return\n        /* \"contract_tutorial/Pokedex.sol\":397:422  Pokemon[] public pokemons */\n    tag_4:\n      callvalue\n      dup1\n      iszero\n      tag_18\n      jumpi\n      0x00\n      dup1\n      revert\n    tag_18:\n      pop\n      tag_19\n      0x04\n      dup1\n      calldatasize\n      sub\n      dup2\n      add\n      swap1\n      tag_20\n      swap2\n      swap1\n      tag_21\n      jump\t// in\n    tag_20:\n      tag_22\n      jump\t// in\n    tag_19:\n      mload(0x40)\n      tag_23\n      swap4\n      swap3\n      swap2\n      swap1\n      tag_24\n      jump\t// in\n    tag_23:\n      mload(0x40)\n      dup1\n      swap2\n      sub\n      swap1\n      return\n        /* \"contract_tutorial/Pokedex.sol\":431:564  function addPokemon(string memory _name, uint8 _id, Element _ele) public {\r... */\n    tag_5:\n      callvalue\n      dup1\n      iszero\n      tag_25\n      jumpi\n      0x00\n      dup1\n      revert\n    tag_25:\n      pop\n      tag_26\n      0x04\n      dup1\n      calldatasize\n      sub\n      dup2\n      add\n      swap1\n      tag_27\n      swap2\n      swap1\n      tag_28\n      jump\t// in\n    tag_27:\n      tag_29\n      jump\t// in\n    tag_26:\n      stop\n        /* \"contract_tutorial/Pokedex.sol\":572:773  function getPokemon(uint _index) public view returns (string memory,uint8,Element) {\r... */\n    tag_6:\n      callvalue\n      dup1\n      iszero\n      tag_30\n      jumpi\n      0x00\n      dup1\n      revert\n    tag_30:\n      pop\n      tag_31\n      0x04\n      dup1\n      calldatasize\n      sub\n      dup2\n      add\n      swap1\n      tag_32\n      swap2\n      swap1\n      tag_21\n      jump\t// in\n    tag_32:\n      tag_33\n      jump\t// in\n    tag_31:\n      mload(0x40)\n      tag_34\n      swap4\n      swap3\n      swap2\n      swap1\n      tag_24\n      jump\t// in\n    tag_34:\n      mload(0x40)\n      dup1\n      swap2\n      sub\n      swap1\n      return\n        /* \"contract_tutorial/Pokedex.sol\":781:877  function getBalance() public view returns (uint) {\r... */\n    tag_15:\n        /* \"contract_tutorial/Pokedex.sol\":824:828  uint */\n      0x00\n        /* \"contract_tutorial/Pokedex.sol\":848:869  address(this).balance */\n      selfbalance\n        /* \"contract_tutorial/Pokedex.sol\":841:869  return address(this).balance */\n      swap1\n      pop\n        /* \"contract_tutorial/Pokedex.sol\":781:877  function getBalance() public view returns (uint) {\r... */\n      swap1\n      jump\t// out\n        /* \"contract_tutorial/Pokedex.sol\":397:422  Pokemon[] public pokemons */\n    tag_22:\n      0x00\n      dup2\n      dup2\n      sload\n      dup2\n      lt\n      tag_36\n      jumpi\n      0x00\n      dup1\n      revert\n    tag_36:\n      swap1\n      0x00\n      mstore\n      keccak256(0x00, 0x20)\n      swap1\n      0x02\n      mul\n      add\n      0x00\n      swap2\n      pop\n      swap1\n      pop\n      dup1\n      0x00\n      add\n      dup1\n      sload\n      tag_38\n      swap1\n      tag_39\n      jump\t// in\n    tag_38:\n      dup1\n      0x1f\n      add\n      0x20\n      dup1\n      swap2\n      div\n      mul\n      0x20\n      add\n      mload(0x40)\n      swap1\n      dup2\n      add\n      0x40\n      mstore\n      dup1\n      swap3\n      swap2\n      swap1\n      dup2\n      dup2\n      mstore\n      0x20\n      add\n      dup3\n      dup1\n      sload\n      tag_40\n      swap1\n      tag_39\n      jump\t// in\n    tag_40:\n      dup1\n      iszero\n      tag_41\n      jumpi\n      dup1\n      0x1f\n      lt\n      tag_42\n      jumpi\n      0x0100\n      dup1\n      dup4\n      sload\n      div\n      mul\n      dup4\n      mstore\n      swap2\n      0x20\n      add\n      swap2\n      jump(tag_41)\n    tag_42:\n      dup3\n      add\n      swap2\n      swap1\n      0x00\n      mstore\n      keccak256(0x00, 0x20)\n      swap1\n    tag_43:\n      dup2\n      sload\n      dup2\n      mstore\n      swap1\n      0x01\n      add\n      swap1\n      0x20\n      add\n      dup1\n      dup4\n      gt\n      tag_43\n      jumpi\n      dup3\n      swap1\n      sub\n      0x1f\n      and\n      dup3\n      add\n      swap2\n    tag_41:\n      pop\n      pop\n      pop\n      pop\n      pop\n      swap1\n      dup1\n      0x01\n      add\n      0x00\n      swap1\n      sload\n      swap1\n      0x0100\n      exp\n      swap1\n      div\n      0xff\n      and\n      swap1\n      dup1\n      0x01\n      add\n      0x01\n      swap1\n      sload\n      swap1\n      0x0100\n      exp\n      swap1\n      div\n      0xff\n      and\n      swap1\n      pop\n      dup4\n      jump\t// out\n        /* \"contract_tutorial/Pokedex.sol\":431:564  function addPokemon(string memory _name, uint8 _id, Element _ele) public {\r... */\n    tag_29:\n        /* \"contract_tutorial/Pokedex.sol\":516:524  pokemons */\n      0x00\n        /* \"contract_tutorial/Pokedex.sol\":530:555  Pokemon(_name, _id, _ele) */\n      mload(0x40)\n      dup1\n      0x60\n      add\n      0x40\n      mstore\n      dup1\n        /* \"contract_tutorial/Pokedex.sol\":538:543  _name */\n      dup6\n        /* \"contract_tutorial/Pokedex.sol\":530:555  Pokemon(_name, _id, _ele) */\n      dup2\n      mstore\n      0x20\n      add\n        /* \"contract_tutorial/Pokedex.sol\":545:548  _id */\n      dup5\n        /* \"contract_tutorial/Pokedex.sol\":530:555  Pokemon(_name, _id, _ele) */\n      0xff\n      and\n      dup2\n      mstore\n      0x20\n      add\n        /* \"contract_tutorial/Pokedex.sol\":550:554  _ele */\n      dup4\n        /* \"contract_tutorial/Pokedex.sol\":530:555  Pokemon(_name, _id, _ele) */\n      0x04\n      dup2\n      gt\n      iszero\n      tag_45\n      jumpi\n      mstore(0x00, 0x4e487b7100000000000000000000000000000000000000000000000000000000)\n      mstore(0x04, 0x21)\n      revert(0x00, 0x24)\n    tag_45:\n      dup2\n      mstore\n      pop\n        /* \"contract_tutorial/Pokedex.sol\":516:556  pokemons.push(Pokemon(_name, _id, _ele)) */\n      swap1\n      dup1\n      0x01\n      dup2\n      sload\n      add\n      dup1\n      dup3\n      sstore\n      dup1\n      swap2\n      pop\n      pop\n      0x01\n      swap1\n      sub\n      swap1\n      0x00\n      mstore\n      keccak256(0x00, 0x20)\n      swap1\n      0x02\n      mul\n      add\n      0x00\n      swap1\n      swap2\n      swap1\n      swap2\n      swap1\n      swap2\n      pop\n      0x00\n      dup3\n      add\n      mload\n      dup2\n      0x00\n      add\n      swap1\n      dup1\n      mload\n      swap1\n      0x20\n      add\n      swap1\n      tag_47\n      swap3\n      swap2\n      swap1\n      tag_48\n      jump\t// in\n    tag_47:\n      pop\n      0x20\n      dup3\n      add\n      mload\n      dup2\n      0x01\n      add\n      exp(0x0100, 0x00)\n      dup2\n      sload\n      dup2\n      0xff\n      mul\n      not\n      and\n      swap1\n      dup4\n      0xff\n      and\n      mul\n      or\n      swap1\n      sstore\n      pop\n      0x40\n      dup3\n      add\n      mload\n      dup2\n      0x01\n      add\n      exp(0x0100, 0x01)\n      dup2\n      sload\n      dup2\n      0xff\n      mul\n      not\n      and\n      swap1\n      dup4\n      0x04\n      dup2\n      gt\n      iszero\n      tag_49\n      jumpi\n      mstore(0x00, 0x4e487b7100000000000000000000000000000000000000000000000000000000)\n      mstore(0x04, 0x21)\n      revert(0x00, 0x24)\n    tag_49:\n      mul\n      or\n      swap1\n      sstore\n      pop\n      pop\n      pop\n        /* \"contract_tutorial/Pokedex.sol\":431:564  function addPokemon(string memory _name, uint8 _id, Element _ele) public {\r... */\n      pop\n      pop\n      pop\n      jump\t// out\n        /* \"contract_tutorial/Pokedex.sol\":572:773  function getPokemon(uint _index) public view returns (string memory,uint8,Element) {\r... */\n    tag_33:\n        /* \"contract_tutorial/Pokedex.sol\":626:639  string memory */\n      0x60\n        /* \"contract_tutorial/Pokedex.sol\":640:645  uint8 */\n      0x00\n        /* \"contract_tutorial/Pokedex.sol\":646:653  Element */\n      dup1\n        /* \"contract_tutorial/Pokedex.sol\":666:689  Pokemon storage pokemon */\n      0x00\n        /* \"contract_tutorial/Pokedex.sol\":692:700  pokemons */\n      dup1\n        /* \"contract_tutorial/Pokedex.sol\":701:707  _index */\n      dup6\n        /* \"contract_tutorial/Pokedex.sol\":692:708  pokemons[_index] */\n      dup2\n      sload\n      dup2\n      lt\n      tag_51\n      jumpi\n      mstore(0x00, 0x4e487b7100000000000000000000000000000000000000000000000000000000)\n      mstore(0x04, 0x32)\n      revert(0x00, 0x24)\n    tag_51:\n      swap1\n      0x00\n      mstore\n      keccak256(0x00, 0x20)\n      swap1\n      0x02\n      mul\n      add\n        /* \"contract_tutorial/Pokedex.sol\":666:708  Pokemon storage pokemon = pokemons[_index] */\n      swap1\n      pop\n        /* \"contract_tutorial/Pokedex.sol\":727:734  pokemon */\n      dup1\n        /* \"contract_tutorial/Pokedex.sol\":727:739  pokemon.name */\n      0x00\n      add\n        /* \"contract_tutorial/Pokedex.sol\":741:748  pokemon */\n      dup2\n        /* \"contract_tutorial/Pokedex.sol\":741:751  pokemon.id */\n      0x01\n      add\n      0x00\n      swap1\n      sload\n      swap1\n      0x0100\n      exp\n      swap1\n      div\n      0xff\n      and\n        /* \"contract_tutorial/Pokedex.sol\":753:760  pokemon */\n      dup3\n        /* \"contract_tutorial/Pokedex.sol\":753:764  pokemon.ele */\n      0x01\n      add\n      0x01\n      swap1\n      sload\n      swap1\n      0x0100\n      exp\n      swap1\n      div\n      0xff\n      and\n        /* \"contract_tutorial/Pokedex.sol\":719:765  return (pokemon.name, pokemon.id, pokemon.ele) */\n      dup3\n      dup1\n      sload\n      tag_53\n      swap1\n      tag_39\n      jump\t// in\n    tag_53:\n      dup1\n      0x1f\n      add\n      0x20\n      dup1\n      swap2\n      div\n      mul\n      0x20\n      add\n      mload(0x40)\n      swap1\n      dup2\n      add\n      0x40\n      mstore\n      dup1\n      swap3\n      swap2\n      swap1\n      dup2\n      dup2\n      mstore\n      0x20\n      add\n      dup3\n      dup1\n      sload\n      tag_54\n      swap1\n      tag_39\n      jump\t// in\n    tag_54:\n      dup1\n      iszero\n      tag_55\n      jumpi\n      dup1\n      0x1f\n      lt\n      tag_56\n      jumpi\n      0x0100\n      dup1\n      dup4\n      sload\n      div\n      mul\n      dup4\n      mstore\n      swap2\n      0x20\n      add\n      swap2\n      jump(tag_55)\n    tag_56:\n      dup3\n      add\n      swap2\n      swap1\n      0x00\n      mstore\n      keccak256(0x00, 0x20)\n      swap1\n    tag_57:\n      dup2\n      sload\n      dup2\n      mstore\n      swap1\n      0x01\n      add\n      swap1\n      0x20\n      add\n      dup1\n      dup4\n      gt\n      tag_57\n      jumpi\n      dup3\n      swap1\n      sub\n      0x1f\n      and\n      dup3\n      add\n      swap2\n    tag_55:\n      pop\n      pop\n      pop\n      pop\n      pop\n      swap3\n      pop\n      swap4\n      pop\n      swap4\n      pop\n      swap4\n      pop\n      pop\n        /* \"contract_tutorial/Pokedex.sol\":572:773  function getPokemon(uint _index) public view returns (string memory,uint8,Element) {\r... */\n      swap2\n      swap4\n      swap1\n      swap3\n      pop\n      jump\t// out\n    tag_48:\n      dup3\n      dup1\n      sload\n      tag_58\n      swap1\n      tag_39\n      jump\t// in\n    tag_58:\n      swap1\n      0x00\n      mstore\n      keccak256(0x00, 0x20)\n      swap1\n      0x1f\n      add\n      0x20\n      swap1\n      div\n      dup2\n      add\n      swap3\n      dup3\n      tag_60\n      jumpi\n      0x00\n      dup6\n      sstore\n      jump(tag_59)\n    tag_60:\n      dup3\n      0x1f\n      lt\n      tag_61\n      jumpi\n      dup1\n      mload\n      not(0xff)\n      and\n      dup4\n      dup1\n      add\n      or\n      dup6\n      sstore\n      jump(tag_59)\n    tag_61:\n      dup3\n      dup1\n      add\n      0x01\n      add\n      dup6\n      sstore\n      dup3\n      iszero\n      tag_59\n      jumpi\n      swap2\n      dup3\n      add\n    tag_62:\n      dup3\n      dup2\n      gt\n      iszero\n      tag_63\n      jumpi\n      dup3\n      mload\n      dup3\n      sstore\n      swap2\n      0x20\n      add\n      swap2\n      swap1\n      0x01\n      add\n      swap1\n      jump(tag_62)\n    tag_63:\n    tag_59:\n      pop\n      swap1\n      pop\n      tag_64\n      swap2\n      swap1\n      tag_65\n      jump\t// in\n    tag_64:\n      pop\n      swap1\n      jump\t// out\n    tag_65:\n    tag_66:\n      dup1\n      dup3\n      gt\n      iszero\n      tag_67\n      jumpi\n      0x00\n      dup2\n      0x00\n      swap1\n      sstore\n      pop\n      0x01\n      add\n      jump(tag_66)\n    tag_67:\n      pop\n      swap1\n      jump\t// out\n        /* \"#utility.yul\":7:352   */\n    tag_69:\n        /* \"#utility.yul\":85:90   */\n      0x00\n        /* \"#utility.yul\":110:176   */\n      tag_71\n        /* \"#utility.yul\":126:175   */\n      tag_72\n        /* \"#utility.yul\":168:174   */\n      dup5\n        /* \"#utility.yul\":126:175   */\n      tag_73\n      jump\t// in\n    tag_72:\n        /* \"#utility.yul\":110:176   */\n      tag_74\n      jump\t// in\n    tag_71:\n        /* \"#utility.yul\":101:176   */\n      swap1\n      pop\n        /* \"#utility.yul\":199:205   */\n      dup3\n        /* \"#utility.yul\":192:197   */\n      dup2\n        /* \"#utility.yul\":185:206   */\n      mstore\n        /* \"#utility.yul\":237:241   */\n      0x20\n        /* \"#utility.yul\":230:235   */\n      dup2\n        /* \"#utility.yul\":226:242   */\n      add\n        /* \"#utility.yul\":275:278   */\n      dup5\n        /* \"#utility.yul\":266:272   */\n      dup5\n        /* \"#utility.yul\":261:264   */\n      dup5\n        /* \"#utility.yul\":257:273   */\n      add\n        /* \"#utility.yul\":254:279   */\n      gt\n        /* \"#utility.yul\":251:253   */\n      iszero\n      tag_75\n      jumpi\n        /* \"#utility.yul\":292:293   */\n      0x00\n        /* \"#utility.yul\":289:290   */\n      dup1\n        /* \"#utility.yul\":282:294   */\n      revert\n        /* \"#utility.yul\":251:253   */\n    tag_75:\n        /* \"#utility.yul\":305:346   */\n      tag_76\n        /* \"#utility.yul\":339:345   */\n      dup5\n        /* \"#utility.yul\":334:337   */\n      dup3\n        /* \"#utility.yul\":329:332   */\n      dup6\n        /* \"#utility.yul\":305:346   */\n      tag_77\n      jump\t// in\n    tag_76:\n        /* \"#utility.yul\":91:352   */\n      pop\n      swap4\n      swap3\n      pop\n      pop\n      pop\n      jump\t// out\n        /* \"#utility.yul\":358:517   */\n    tag_78:\n        /* \"#utility.yul\":414:419   */\n      0x00\n        /* \"#utility.yul\":452:458   */\n      dup2\n        /* \"#utility.yul\":439:459   */\n      calldataload\n        /* \"#utility.yul\":430:459   */\n      swap1\n      pop\n        /* \"#utility.yul\":468:511   */\n      tag_80\n        /* \"#utility.yul\":505:510   */\n      dup2\n        /* \"#utility.yul\":468:511   */\n      tag_81\n      jump\t// in\n    tag_80:\n        /* \"#utility.yul\":420:517   */\n      swap3\n      swap2\n      pop\n      pop\n      jump\t// out\n        /* \"#utility.yul\":537:810   */\n    tag_82:\n        /* \"#utility.yul\":593:598   */\n      0x00\n        /* \"#utility.yul\":642:645   */\n      dup3\n        /* \"#utility.yul\":635:639   */\n      0x1f\n        /* \"#utility.yul\":627:633   */\n      dup4\n        /* \"#utility.yul\":623:640   */\n      add\n        /* \"#utility.yul\":619:646   */\n      slt\n        /* \"#utility.yul\":609:611   */\n      tag_84\n      jumpi\n        /* \"#utility.yul\":660:661   */\n      0x00\n        /* \"#utility.yul\":657:658   */\n      dup1\n        /* \"#utility.yul\":650:662   */\n      revert\n        /* \"#utility.yul\":609:611   */\n    tag_84:\n        /* \"#utility.yul\":700:706   */\n      dup2\n        /* \"#utility.yul\":687:707   */\n      calldataload\n        /* \"#utility.yul\":725:804   */\n      tag_85\n        /* \"#utility.yul\":800:803   */\n      dup5\n        /* \"#utility.yul\":792:798   */\n      dup3\n        /* \"#utility.yul\":785:789   */\n      0x20\n        /* \"#utility.yul\":777:783   */\n      dup7\n        /* \"#utility.yul\":773:790   */\n      add\n        /* \"#utility.yul\":725:804   */\n      tag_69\n      jump\t// in\n    tag_85:\n        /* \"#utility.yul\":716:804   */\n      swap2\n      pop\n        /* \"#utility.yul\":599:810   */\n      pop\n      swap3\n      swap2\n      pop\n      pop\n      jump\t// out\n        /* \"#utility.yul\":816:955   */\n    tag_86:\n        /* \"#utility.yul\":862:867   */\n      0x00\n        /* \"#utility.yul\":900:906   */\n      dup2\n        /* \"#utility.yul\":887:907   */\n      calldataload\n        /* \"#utility.yul\":878:907   */\n      swap1\n      pop\n        /* \"#utility.yul\":916:949   */\n      tag_88\n        /* \"#utility.yul\":943:948   */\n      dup2\n        /* \"#utility.yul\":916:949   */\n      tag_89\n      jump\t// in\n    tag_88:\n        /* \"#utility.yul\":868:955   */\n      swap3\n      swap2\n      pop\n      pop\n      jump\t// out\n        /* \"#utility.yul\":961:1096   */\n    tag_90:\n        /* \"#utility.yul\":1005:1010   */\n      0x00\n        /* \"#utility.yul\":1043:1049   */\n      dup2\n        /* \"#utility.yul\":1030:1050   */\n      calldataload\n        /* \"#utility.yul\":1021:1050   */\n      swap1\n      pop\n        /* \"#utility.yul\":1059:1090   */\n      tag_92\n        /* \"#utility.yul\":1084:1089   */\n      dup2\n        /* \"#utility.yul\":1059:1090   */\n      tag_93\n      jump\t// in\n    tag_92:\n        /* \"#utility.yul\":1011:1096   */\n      swap3\n      swap2\n      pop\n      pop\n      jump\t// out\n        /* \"#utility.yul\":1102:1783   */\n    tag_28:\n        /* \"#utility.yul\":1197:1203   */\n      0x00\n        /* \"#utility.yul\":1205:1211   */\n      dup1\n        /* \"#utility.yul\":1213:1219   */\n      0x00\n        /* \"#utility.yul\":1262:1264   */\n      0x60\n        /* \"#utility.yul\":1250:1259   */\n      dup5\n        /* \"#utility.yul\":1241:1248   */\n      dup7\n        /* \"#utility.yul\":1237:1260   */\n      sub\n        /* \"#utility.yul\":1233:1265   */\n      slt\n        /* \"#utility.yul\":1230:1232   */\n      iszero\n      tag_95\n      jumpi\n        /* \"#utility.yul\":1278:1279   */\n      0x00\n        /* \"#utility.yul\":1275:1276   */\n      dup1\n        /* \"#utility.yul\":1268:1280   */\n      revert\n        /* \"#utility.yul\":1230:1232   */\n    tag_95:\n        /* \"#utility.yul\":1349:1350   */\n      0x00\n        /* \"#utility.yul\":1338:1347   */\n      dup5\n        /* \"#utility.yul\":1334:1351   */\n      add\n        /* \"#utility.yul\":1321:1352   */\n      calldataload\n        /* \"#utility.yul\":1379:1397   */\n      0xffffffffffffffff\n        /* \"#utility.yul\":1371:1377   */\n      dup2\n        /* \"#utility.yul\":1368:1398   */\n      gt\n        /* \"#utility.yul\":1365:1367   */\n      iszero\n      tag_96\n      jumpi\n        /* \"#utility.yul\":1411:1412   */\n      0x00\n        /* \"#utility.yul\":1408:1409   */\n      dup1\n        /* \"#utility.yul\":1401:1413   */\n      revert\n        /* \"#utility.yul\":1365:1367   */\n    tag_96:\n        /* \"#utility.yul\":1439:1502   */\n      tag_97\n        /* \"#utility.yul\":1494:1501   */\n      dup7\n        /* \"#utility.yul\":1485:1491   */\n      dup3\n        /* \"#utility.yul\":1474:1483   */\n      dup8\n        /* \"#utility.yul\":1470:1492   */\n      add\n        /* \"#utility.yul\":1439:1502   */\n      tag_82\n      jump\t// in\n    tag_97:\n        /* \"#utility.yul\":1429:1502   */\n      swap4\n      pop\n        /* \"#utility.yul\":1292:1512   */\n      pop\n        /* \"#utility.yul\":1551:1553   */\n      0x20\n        /* \"#utility.yul\":1577:1628   */\n      tag_98\n        /* \"#utility.yul\":1620:1627   */\n      dup7\n        /* \"#utility.yul\":1611:1617   */\n      dup3\n        /* \"#utility.yul\":1600:1609   */\n      dup8\n        /* \"#utility.yul\":1596:1618   */\n      add\n        /* \"#utility.yul\":1577:1628   */\n      tag_90\n      jump\t// in\n    tag_98:\n        /* \"#utility.yul\":1567:1628   */\n      swap3\n      pop\n        /* \"#utility.yul\":1522:1638   */\n      pop\n        /* \"#utility.yul\":1677:1679   */\n      0x40\n        /* \"#utility.yul\":1703:1766   */\n      tag_99\n        /* \"#utility.yul\":1758:1765   */\n      dup7\n        /* \"#utility.yul\":1749:1755   */\n      dup3\n        /* \"#utility.yul\":1738:1747   */\n      dup8\n        /* \"#utility.yul\":1734:1756   */\n      add\n        /* \"#utility.yul\":1703:1766   */\n      tag_78\n      jump\t// in\n    tag_99:\n        /* \"#utility.yul\":1693:1766   */\n      swap2\n      pop\n        /* \"#utility.yul\":1648:1776   */\n      pop\n        /* \"#utility.yul\":1220:1783   */\n      swap3\n      pop\n      swap3\n      pop\n      swap3\n      jump\t// out\n        /* \"#utility.yul\":1789:2051   */\n    tag_21:\n        /* \"#utility.yul\":1848:1854   */\n      0x00\n        /* \"#utility.yul\":1897:1899   */\n      0x20\n        /* \"#utility.yul\":1885:1894   */\n      dup3\n        /* \"#utility.yul\":1876:1883   */\n      dup5\n        /* \"#utility.yul\":1872:1895   */\n      sub\n        /* \"#utility.yul\":1868:1900   */\n      slt\n        /* \"#utility.yul\":1865:1867   */\n      iszero\n      tag_101\n      jumpi\n        /* \"#utility.yul\":1913:1914   */\n      0x00\n        /* \"#utility.yul\":1910:1911   */\n      dup1\n        /* \"#utility.yul\":1903:1915   */\n      revert\n        /* \"#utility.yul\":1865:1867   */\n    tag_101:\n        /* \"#utility.yul\":1956:1957   */\n      0x00\n        /* \"#utility.yul\":1981:2034   */\n      tag_102\n        /* \"#utility.yul\":2026:2033   */\n      dup5\n        /* \"#utility.yul\":2017:2023   */\n      dup3\n        /* \"#utility.yul\":2006:2015   */\n      dup6\n        /* \"#utility.yul\":2002:2024   */\n      add\n        /* \"#utility.yul\":1981:2034   */\n      tag_86\n      jump\t// in\n    tag_102:\n        /* \"#utility.yul\":1971:2034   */\n      swap2\n      pop\n        /* \"#utility.yul\":1927:2044   */\n      pop\n        /* \"#utility.yul\":1855:2051   */\n      swap3\n      swap2\n      pop\n      pop\n      jump\t// out\n        /* \"#utility.yul\":2057:2175   */\n    tag_103:\n        /* \"#utility.yul\":2144:2168   */\n      tag_105\n        /* \"#utility.yul\":2162:2167   */\n      dup2\n        /* \"#utility.yul\":2144:2168   */\n      tag_106\n      jump\t// in\n    tag_105:\n        /* \"#utility.yul\":2139:2142   */\n      dup3\n        /* \"#utility.yul\":2132:2169   */\n      mstore\n        /* \"#utility.yul\":2122:2175   */\n      pop\n      pop\n      jump\t// out\n        /* \"#utility.yul\":2181:2328   */\n    tag_107:\n        /* \"#utility.yul\":2276:2321   */\n      tag_109\n        /* \"#utility.yul\":2315:2320   */\n      dup2\n        /* \"#utility.yul\":2276:2321   */\n      tag_110\n      jump\t// in\n    tag_109:\n        /* \"#utility.yul\":2271:2274   */\n      dup3\n        /* \"#utility.yul\":2264:2322   */\n      mstore\n        /* \"#utility.yul\":2254:2328   */\n      pop\n      pop\n      jump\t// out\n        /* \"#utility.yul\":2334:2698   */\n    tag_111:\n        /* \"#utility.yul\":2422:2425   */\n      0x00\n        /* \"#utility.yul\":2450:2489   */\n      tag_113\n        /* \"#utility.yul\":2483:2488   */\n      dup3\n        /* \"#utility.yul\":2450:2489   */\n      tag_114\n      jump\t// in\n    tag_113:\n        /* \"#utility.yul\":2505:2576   */\n      tag_115\n        /* \"#utility.yul\":2569:2575   */\n      dup2\n        /* \"#utility.yul\":2564:2567   */\n      dup6\n        /* \"#utility.yul\":2505:2576   */\n      tag_116\n      jump\t// in\n    tag_115:\n        /* \"#utility.yul\":2498:2576   */\n      swap4\n      pop\n        /* \"#utility.yul\":2585:2637   */\n      tag_117\n        /* \"#utility.yul\":2630:2636   */\n      dup2\n        /* \"#utility.yul\":2625:2628   */\n      dup6\n        /* \"#utility.yul\":2618:2622   */\n      0x20\n        /* \"#utility.yul\":2611:2616   */\n      dup7\n        /* \"#utility.yul\":2607:2623   */\n      add\n        /* \"#utility.yul\":2585:2637   */\n      tag_118\n      jump\t// in\n    tag_117:\n        /* \"#utility.yul\":2662:2691   */\n      tag_119\n        /* \"#utility.yul\":2684:2690   */\n      dup2\n        /* \"#utility.yul\":2662:2691   */\n      tag_120\n      jump\t// in\n    tag_119:\n        /* \"#utility.yul\":2657:2660   */\n      dup5\n        /* \"#utility.yul\":2653:2692   */\n      add\n        /* \"#utility.yul\":2646:2692   */\n      swap2\n      pop\n        /* \"#utility.yul\":2426:2698   */\n      pop\n      swap3\n      swap2\n      pop\n      pop\n      jump\t// out\n        /* \"#utility.yul\":2704:2822   */\n    tag_121:\n        /* \"#utility.yul\":2791:2815   */\n      tag_123\n        /* \"#utility.yul\":2809:2814   */\n      dup2\n        /* \"#utility.yul\":2791:2815   */\n      tag_124\n      jump\t// in\n    tag_123:\n        /* \"#utility.yul\":2786:2789   */\n      dup3\n        /* \"#utility.yul\":2779:2816   */\n      mstore\n        /* \"#utility.yul\":2769:2822   */\n      pop\n      pop\n      jump\t// out\n        /* \"#utility.yul\":2828:2940   */\n    tag_125:\n        /* \"#utility.yul\":2911:2933   */\n      tag_127\n        /* \"#utility.yul\":2927:2932   */\n      dup2\n        /* \"#utility.yul\":2911:2933   */\n      tag_128\n      jump\t// in\n    tag_127:\n        /* \"#utility.yul\":2906:2909   */\n      dup3\n        /* \"#utility.yul\":2899:2934   */\n      mstore\n        /* \"#utility.yul\":2889:2940   */\n      pop\n      pop\n      jump\t// out\n        /* \"#utility.yul\":2946:3278   */\n    tag_12:\n        /* \"#utility.yul\":3067:3071   */\n      0x00\n        /* \"#utility.yul\":3105:3107   */\n      0x40\n        /* \"#utility.yul\":3094:3103   */\n      dup3\n        /* \"#utility.yul\":3090:3108   */\n      add\n        /* \"#utility.yul\":3082:3108   */\n      swap1\n      pop\n        /* \"#utility.yul\":3118:3189   */\n      tag_130\n        /* \"#utility.yul\":3186:3187   */\n      0x00\n        /* \"#utility.yul\":3175:3184   */\n      dup4\n        /* \"#utility.yul\":3171:3188   */\n      add\n        /* \"#utility.yul\":3162:3168   */\n      dup6\n        /* \"#utility.yul\":3118:3189   */\n      tag_103\n      jump\t// in\n    tag_130:\n        /* \"#utility.yul\":3199:3271   */\n      tag_131\n        /* \"#utility.yul\":3267:3269   */\n      0x20\n        /* \"#utility.yul\":3256:3265   */\n      dup4\n        /* \"#utility.yul\":3252:3270   */\n      add\n        /* \"#utility.yul\":3243:3249   */\n      dup5\n        /* \"#utility.yul\":3199:3271   */\n      tag_121\n      jump\t// in\n    tag_131:\n        /* \"#utility.yul\":3072:3278   */\n      swap4\n      swap3\n      pop\n      pop\n      pop\n      jump\t// out\n        /* \"#utility.yul\":3284:3825   */\n    tag_24:\n        /* \"#utility.yul\":3457:3461   */\n      0x00\n        /* \"#utility.yul\":3495:3497   */\n      0x60\n        /* \"#utility.yul\":3484:3493   */\n      dup3\n        /* \"#utility.yul\":3480:3498   */\n      add\n        /* \"#utility.yul\":3472:3498   */\n      swap1\n      pop\n        /* \"#utility.yul\":3544:3553   */\n      dup2\n        /* \"#utility.yul\":3538:3542   */\n      dup2\n        /* \"#utility.yul\":3534:3554   */\n      sub\n        /* \"#utility.yul\":3530:3531   */\n      0x00\n        /* \"#utility.yul\":3519:3528   */\n      dup4\n        /* \"#utility.yul\":3515:3532   */\n      add\n        /* \"#utility.yul\":3508:3555   */\n      mstore\n        /* \"#utility.yul\":3572:3650   */\n      tag_133\n        /* \"#utility.yul\":3645:3649   */\n      dup2\n        /* \"#utility.yul\":3636:3642   */\n      dup7\n        /* \"#utility.yul\":3572:3650   */\n      tag_111\n      jump\t// in\n    tag_133:\n        /* \"#utility.yul\":3564:3650   */\n      swap1\n      pop\n        /* \"#utility.yul\":3660:3728   */\n      tag_134\n        /* \"#utility.yul\":3724:3726   */\n      0x20\n        /* \"#utility.yul\":3713:3722   */\n      dup4\n        /* \"#utility.yul\":3709:3727   */\n      add\n        /* \"#utility.yul\":3700:3706   */\n      dup6\n        /* \"#utility.yul\":3660:3728   */\n      tag_125\n      jump\t// in\n    tag_134:\n        /* \"#utility.yul\":3738:3818   */\n      tag_135\n        /* \"#utility.yul\":3814:3816   */\n      0x40\n        /* \"#utility.yul\":3803:3812   */\n      dup4\n        /* \"#utility.yul\":3799:3817   */\n      add\n        /* \"#utility.yul\":3790:3796   */\n      dup5\n        /* \"#utility.yul\":3738:3818   */\n      tag_107\n      jump\t// in\n    tag_135:\n        /* \"#utility.yul\":3462:3825   */\n      swap5\n      swap4\n      pop\n      pop\n      pop\n      pop\n      jump\t// out\n        /* \"#utility.yul\":3831:4053   */\n    tag_17:\n        /* \"#utility.yul\":3924:3928   */\n      0x00\n        /* \"#utility.yul\":3962:3964   */\n      0x20\n        /* \"#utility.yul\":3951:3960   */\n      dup3\n        /* \"#utility.yul\":3947:3965   */\n      add\n        /* \"#utility.yul\":3939:3965   */\n      swap1\n      pop\n        /* \"#utility.yul\":3975:4046   */\n      tag_137\n        /* \"#utility.yul\":4043:4044   */\n      0x00\n        /* \"#utility.yul\":4032:4041   */\n      dup4\n        /* \"#utility.yul\":4028:4045   */\n      add\n        /* \"#utility.yul\":4019:4025   */\n      dup5\n        /* \"#utility.yul\":3975:4046   */\n      tag_121\n      jump\t// in\n    tag_137:\n        /* \"#utility.yul\":3929:4053   */\n      swap3\n      swap2\n      pop\n      pop\n      jump\t// out\n        /* \"#utility.yul\":4059:4188   */\n    tag_74:\n        /* \"#utility.yul\":4093:4099   */\n      0x00\n        /* \"#utility.yul\":4120:4140   */\n      tag_139\n      tag_140\n      jump\t// in\n    tag_139:\n        /* \"#utility.yul\":4110:4140   */\n      swap1\n      pop\n        /* \"#utility.yul\":4149:4182   */\n      tag_141\n        /* \"#utility.yul\":4177:4181   */\n      dup3\n        /* \"#utility.yul\":4169:4175   */\n      dup3\n        /* \"#utility.yul\":4149:4182   */\n      tag_142\n      jump\t// in\n    tag_141:\n        /* \"#utility.yul\":4100:4188   */\n      swap2\n      swap1\n      pop\n      jump\t// out\n        /* \"#utility.yul\":4194:4269   */\n    tag_140:\n        /* \"#utility.yul\":4227:4233   */\n      0x00\n        /* \"#utility.yul\":4260:4262   */\n      0x40\n        /* \"#utility.yul\":4254:4263   */\n      mload\n        /* \"#utility.yul\":4244:4263   */\n      swap1\n      pop\n        /* \"#utility.yul\":4234:4269   */\n      swap1\n      jump\t// out\n        /* \"#utility.yul\":4275:4583   */\n    tag_73:\n        /* \"#utility.yul\":4337:4341   */\n      0x00\n        /* \"#utility.yul\":4427:4445   */\n      0xffffffffffffffff\n        /* \"#utility.yul\":4419:4425   */\n      dup3\n        /* \"#utility.yul\":4416:4446   */\n      gt\n        /* \"#utility.yul\":4413:4415   */\n      iszero\n      tag_145\n      jumpi\n        /* \"#utility.yul\":4449:4467   */\n      tag_146\n      tag_147\n      jump\t// in\n    tag_146:\n        /* \"#utility.yul\":4413:4415   */\n    tag_145:\n        /* \"#utility.yul\":4487:4516   */\n      tag_148\n        /* \"#utility.yul\":4509:4515   */\n      dup3\n        /* \"#utility.yul\":4487:4516   */\n      tag_120\n      jump\t// in\n    tag_148:\n        /* \"#utility.yul\":4479:4516   */\n      swap1\n      pop\n        /* \"#utility.yul\":4571:4575   */\n      0x20\n        /* \"#utility.yul\":4565:4569   */\n      dup2\n        /* \"#utility.yul\":4561:4576   */\n      add\n        /* \"#utility.yul\":4553:4576   */\n      swap1\n      pop\n        /* \"#utility.yul\":4342:4583   */\n      swap2\n      swap1\n      pop\n      jump\t// out\n        /* \"#utility.yul\":4589:4688   */\n    tag_114:\n        /* \"#utility.yul\":4641:4647   */\n      0x00\n        /* \"#utility.yul\":4675:4680   */\n      dup2\n        /* \"#utility.yul\":4669:4681   */\n      mload\n        /* \"#utility.yul\":4659:4681   */\n      swap1\n      pop\n        /* \"#utility.yul\":4648:4688   */\n      swap2\n      swap1\n      pop\n      jump\t// out\n        /* \"#utility.yul\":4694:4863   */\n    tag_116:\n        /* \"#utility.yul\":4778:4789   */\n      0x00\n        /* \"#utility.yul\":4812:4818   */\n      dup3\n        /* \"#utility.yul\":4807:4810   */\n      dup3\n        /* \"#utility.yul\":4800:4819   */\n      mstore\n        /* \"#utility.yul\":4852:4856   */\n      0x20\n        /* \"#utility.yul\":4847:4850   */\n      dup3\n        /* \"#utility.yul\":4843:4857   */\n      add\n        /* \"#utility.yul\":4828:4857   */\n      swap1\n      pop\n        /* \"#utility.yul\":4790:4863   */\n      swap3\n      swap2\n      pop\n      pop\n      jump\t// out\n        /* \"#utility.yul\":4869:4965   */\n    tag_106:\n        /* \"#utility.yul\":4906:4913   */\n      0x00\n        /* \"#utility.yul\":4935:4959   */\n      tag_152\n        /* \"#utility.yul\":4953:4958   */\n      dup3\n        /* \"#utility.yul\":4935:4959   */\n      tag_153\n      jump\t// in\n    tag_152:\n        /* \"#utility.yul\":4924:4959   */\n      swap1\n      pop\n        /* \"#utility.yul\":4914:4965   */\n      swap2\n      swap1\n      pop\n      jump\t// out\n        /* \"#utility.yul\":4971:5102   */\n    tag_154:\n        /* \"#utility.yul\":5018:5025   */\n      0x00\n        /* \"#utility.yul\":5047:5052   */\n      dup2\n        /* \"#utility.yul\":5036:5052   */\n      swap1\n      pop\n        /* \"#utility.yul\":5053:5096   */\n      tag_156\n        /* \"#utility.yul\":5090:5095   */\n      dup3\n        /* \"#utility.yul\":5053:5096   */\n      tag_157\n      jump\t// in\n    tag_156:\n        /* \"#utility.yul\":5026:5102   */\n      swap2\n      swap1\n      pop\n      jump\t// out\n        /* \"#utility.yul\":5108:5234   */\n    tag_153:\n        /* \"#utility.yul\":5145:5152   */\n      0x00\n        /* \"#utility.yul\":5185:5227   */\n      0xffffffffffffffffffffffffffffffffffffffff\n        /* \"#utility.yul\":5178:5183   */\n      dup3\n        /* \"#utility.yul\":5174:5228   */\n      and\n        /* \"#utility.yul\":5163:5228   */\n      swap1\n      pop\n        /* \"#utility.yul\":5153:5234   */\n      swap2\n      swap1\n      pop\n      jump\t// out\n        /* \"#utility.yul\":5240:5317   */\n    tag_124:\n        /* \"#utility.yul\":5277:5284   */\n      0x00\n        /* \"#utility.yul\":5306:5311   */\n      dup2\n        /* \"#utility.yul\":5295:5311   */\n      swap1\n      pop\n        /* \"#utility.yul\":5285:5317   */\n      swap2\n      swap1\n      pop\n      jump\t// out\n        /* \"#utility.yul\":5323:5409   */\n    tag_128:\n        /* \"#utility.yul\":5358:5365   */\n      0x00\n        /* \"#utility.yul\":5398:5402   */\n      0xff\n        /* \"#utility.yul\":5391:5396   */\n      dup3\n        /* \"#utility.yul\":5387:5403   */\n      and\n        /* \"#utility.yul\":5376:5403   */\n      swap1\n      pop\n        /* \"#utility.yul\":5366:5409   */\n      swap2\n      swap1\n      pop\n      jump\t// out\n        /* \"#utility.yul\":5415:5546   */\n    tag_110:\n        /* \"#utility.yul\":5473:5482   */\n      0x00\n        /* \"#utility.yul\":5506:5540   */\n      tag_162\n        /* \"#utility.yul\":5534:5539   */\n      dup3\n        /* \"#utility.yul\":5506:5540   */\n      tag_154\n      jump\t// in\n    tag_162:\n        /* \"#utility.yul\":5493:5540   */\n      swap1\n      pop\n        /* \"#utility.yul\":5483:5546   */\n      swap2\n      swap1\n      pop\n      jump\t// out\n        /* \"#utility.yul\":5552:5706   */\n    tag_77:\n        /* \"#utility.yul\":5636:5642   */\n      dup3\n        /* \"#utility.yul\":5631:5634   */\n      dup2\n        /* \"#utility.yul\":5626:5629   */\n      dup4\n        /* \"#utility.yul\":5613:5643   */\n      calldatacopy\n        /* \"#utility.yul\":5698:5699   */\n      0x00\n        /* \"#utility.yul\":5689:5695   */\n      dup4\n        /* \"#utility.yul\":5684:5687   */\n      dup4\n        /* \"#utility.yul\":5680:5696   */\n      add\n        /* \"#utility.yul\":5673:5700   */\n      mstore\n        /* \"#utility.yul\":5603:5706   */\n      pop\n      pop\n      pop\n      jump\t// out\n        /* \"#utility.yul\":5712:6019   */\n    tag_118:\n        /* \"#utility.yul\":5780:5781   */\n      0x00\n        /* \"#utility.yul\":5790:5903   */\n    tag_165:\n        /* \"#utility.yul\":5804:5810   */\n      dup4\n        /* \"#utility.yul\":5801:5802   */\n      dup2\n        /* \"#utility.yul\":5798:5811   */\n      lt\n        /* \"#utility.yul\":5790:5903   */\n      iszero\n      tag_167\n      jumpi\n        /* \"#utility.yul\":5889:5890   */\n      dup1\n        /* \"#utility.yul\":5884:5887   */\n      dup3\n        /* \"#utility.yul\":5880:5891   */\n      add\n        /* \"#utility.yul\":5874:5892   */\n      mload\n        /* \"#utility.yul\":5870:5871   */\n      dup2\n        /* \"#utility.yul\":5865:5868   */\n      dup5\n        /* \"#utility.yul\":5861:5872   */\n      add\n        /* \"#utility.yul\":5854:5893   */\n      mstore\n        /* \"#utility.yul\":5826:5828   */\n      0x20\n        /* \"#utility.yul\":5823:5824   */\n      dup2\n        /* \"#utility.yul\":5819:5829   */\n      add\n        /* \"#utility.yul\":5814:5829   */\n      swap1\n      pop\n        /* \"#utility.yul\":5790:5903   */\n      jump(tag_165)\n    tag_167:\n        /* \"#utility.yul\":5921:5927   */\n      dup4\n        /* \"#utility.yul\":5918:5919   */\n      dup2\n        /* \"#utility.yul\":5915:5928   */\n      gt\n        /* \"#utility.yul\":5912:5914   */\n      iszero\n      tag_168\n      jumpi\n        /* \"#utility.yul\":6001:6002   */\n      0x00\n        /* \"#utility.yul\":5992:5998   */\n      dup5\n        /* \"#utility.yul\":5987:5990   */\n      dup5\n        /* \"#utility.yul\":5983:5999   */\n      add\n        /* \"#utility.yul\":5976:6003   */\n      mstore\n        /* \"#utility.yul\":5912:5914   */\n    tag_168:\n        /* \"#utility.yul\":5761:6019   */\n      pop\n      pop\n      pop\n      pop\n      jump\t// out\n        /* \"#utility.yul\":6025:6345   */\n    tag_39:\n        /* \"#utility.yul\":6069:6075   */\n      0x00\n        /* \"#utility.yul\":6106:6107   */\n      0x02\n        /* \"#utility.yul\":6100:6104   */\n      dup3\n        /* \"#utility.yul\":6096:6108   */\n      div\n        /* \"#utility.yul\":6086:6108   */\n      swap1\n      pop\n        /* \"#utility.yul\":6153:6154   */\n      0x01\n        /* \"#utility.yul\":6147:6151   */\n      dup3\n        /* \"#utility.yul\":6143:6155   */\n      and\n        /* \"#utility.yul\":6174:6192   */\n      dup1\n        /* \"#utility.yul\":6164:6166   */\n      tag_170\n      jumpi\n        /* \"#utility.yul\":6230:6234   */\n      0x7f\n        /* \"#utility.yul\":6222:6228   */\n      dup3\n        /* \"#utility.yul\":6218:6235   */\n      and\n        /* \"#utility.yul\":6208:6235   */\n      swap2\n      pop\n        /* \"#utility.yul\":6164:6166   */\n    tag_170:\n        /* \"#utility.yul\":6292:6294   */\n      0x20\n        /* \"#utility.yul\":6284:6290   */\n      dup3\n        /* \"#utility.yul\":6281:6295   */\n      lt\n        /* \"#utility.yul\":6261:6279   */\n      dup2\n        /* \"#utility.yul\":6258:6296   */\n      eq\n        /* \"#utility.yul\":6255:6257   */\n      iszero\n      tag_171\n      jumpi\n        /* \"#utility.yul\":6311:6329   */\n      tag_172\n      tag_173\n      jump\t// in\n    tag_172:\n        /* \"#utility.yul\":6255:6257   */\n    tag_171:\n        /* \"#utility.yul\":6076:6345   */\n      pop\n      swap2\n      swap1\n      pop\n      jump\t// out\n        /* \"#utility.yul\":6351:6632   */\n    tag_142:\n        /* \"#utility.yul\":6434:6461   */\n      tag_175\n        /* \"#utility.yul\":6456:6460   */\n      dup3\n        /* \"#utility.yul\":6434:6461   */\n      tag_120\n      jump\t// in\n    tag_175:\n        /* \"#utility.yul\":6426:6432   */\n      dup2\n        /* \"#utility.yul\":6422:6462   */\n      add\n        /* \"#utility.yul\":6564:6570   */\n      dup2\n        /* \"#utility.yul\":6552:6562   */\n      dup2\n        /* \"#utility.yul\":6549:6571   */\n      lt\n        /* \"#utility.yul\":6528:6546   */\n      0xffffffffffffffff\n        /* \"#utility.yul\":6516:6526   */\n      dup3\n        /* \"#utility.yul\":6513:6547   */\n      gt\n        /* \"#utility.yul\":6510:6572   */\n      or\n        /* \"#utility.yul\":6507:6509   */\n      iszero\n      tag_176\n      jumpi\n        /* \"#utility.yul\":6575:6593   */\n      tag_177\n      tag_147\n      jump\t// in\n    tag_177:\n        /* \"#utility.yul\":6507:6509   */\n    tag_176:\n        /* \"#utility.yul\":6615:6625   */\n      dup1\n        /* \"#utility.yul\":6611:6613   */\n      0x40\n        /* \"#utility.yul\":6604:6626   */\n      mstore\n        /* \"#utility.yul\":6394:6632   */\n      pop\n      pop\n      pop\n      jump\t// out\n        /* \"#utility.yul\":6638:6818   */\n    tag_178:\n        /* \"#utility.yul\":6686:6763   */\n      0x4e487b7100000000000000000000000000000000000000000000000000000000\n        /* \"#utility.yul\":6683:6684   */\n      0x00\n        /* \"#utility.yul\":6676:6764   */\n      mstore\n        /* \"#utility.yul\":6783:6787   */\n      0x21\n        /* \"#utility.yul\":6780:6781   */\n      0x04\n        /* \"#utility.yul\":6773:6788   */\n      mstore\n        /* \"#utility.yul\":6807:6811   */\n      0x24\n        /* \"#utility.yul\":6804:6805   */\n      0x00\n        /* \"#utility.yul\":6797:6812   */\n      revert\n        /* \"#utility.yul\":6824:7004   */\n    tag_173:\n        /* \"#utility.yul\":6872:6949   */\n      0x4e487b7100000000000000000000000000000000000000000000000000000000\n        /* \"#utility.yul\":6869:6870   */\n      0x00\n        /* \"#utility.yul\":6862:6950   */\n      mstore\n        /* \"#utility.yul\":6969:6973   */\n      0x22\n        /* \"#utility.yul\":6966:6967   */\n      0x04\n        /* \"#utility.yul\":6959:6974   */\n      mstore\n        /* \"#utility.yul\":6993:6997   */\n      0x24\n        /* \"#utility.yul\":6990:6991   */\n      0x00\n        /* \"#utility.yul\":6983:6998   */\n      revert\n        /* \"#utility.yul\":7010:7190   */\n    tag_147:\n        /* \"#utility.yul\":7058:7135   */\n      0x4e487b7100000000000000000000000000000000000000000000000000000000\n        /* \"#utility.yul\":7055:7056   */\n      0x00\n        /* \"#utility.yul\":7048:7136   */\n      mstore\n        /* \"#utility.yul\":7155:7159   */\n      0x41\n        /* \"#utility.yul\":7152:7153   */\n      0x04\n        /* \"#utility.yul\":7145:7160   */\n      mstore\n        /* \"#utility.yul\":7179:7183   */\n      0x24\n        /* \"#utility.yul\":7176:7177   */\n      0x00\n        /* \"#utility.yul\":7169:7184   */\n      revert\n        /* \"#utility.yul\":7196:7298   */\n    tag_120:\n        /* \"#utility.yul\":7237:7243   */\n      0x00\n        /* \"#utility.yul\":7288:7290   */\n      0x1f\n        /* \"#utility.yul\":7284:7291   */\n      not\n        /* \"#utility.yul\":7279:7281   */\n      0x1f\n        /* \"#utility.yul\":7272:7277   */\n      dup4\n        /* \"#utility.yul\":7268:7282   */\n      add\n        /* \"#utility.yul\":7264:7292   */\n      and\n        /* \"#utility.yul\":7254:7292   */\n      swap1\n      pop\n        /* \"#utility.yul\":7244:7298   */\n      swap2\n      swap1\n      pop\n      jump\t// out\n        /* \"#utility.yul\":7304:7419   */\n    tag_157:\n        /* \"#utility.yul\":7387:7388   */\n      0x05\n        /* \"#utility.yul\":7380:7385   */\n      dup2\n        /* \"#utility.yul\":7377:7389   */\n      lt\n        /* \"#utility.yul\":7367:7369   */\n      tag_184\n      jumpi\n        /* \"#utility.yul\":7393:7411   */\n      tag_185\n      tag_178\n      jump\t// in\n    tag_185:\n        /* \"#utility.yul\":7367:7369   */\n    tag_184:\n        /* \"#utility.yul\":7357:7419   */\n      pop\n      jump\t// out\n        /* \"#utility.yul\":7425:7534   */\n    tag_81:\n        /* \"#utility.yul\":7508:7509   */\n      0x05\n        /* \"#utility.yul\":7501:7506   */\n      dup2\n        /* \"#utility.yul\":7498:7510   */\n      lt\n        /* \"#utility.yul\":7488:7490   */\n      tag_187\n      jumpi\n        /* \"#utility.yul\":7524:7525   */\n      0x00\n        /* \"#utility.yul\":7521:7522   */\n      dup1\n        /* \"#utility.yul\":7514:7526   */\n      revert\n        /* \"#utility.yul\":7488:7490   */\n    tag_187:\n        /* \"#utility.yul\":7478:7534   */\n      pop\n      jump\t// out\n        /* \"#utility.yul\":7540:7662   */\n    tag_89:\n        /* \"#utility.yul\":7613:7637   */\n      tag_189\n        /* \"#utility.yul\":7631:7636   */\n      dup2\n        /* \"#utility.yul\":7613:7637   */\n      tag_124\n      jump\t// in\n    tag_189:\n        /* \"#utility.yul\":7606:7611   */\n      dup2\n        /* \"#utility.yul\":7603:7638   */\n      eq\n        /* \"#utility.yul\":7593:7595   */\n      tag_190\n      jumpi\n        /* \"#utility.yul\":7652:7653   */\n      0x00\n        /* \"#utility.yul\":7649:7650   */\n      dup1\n        /* \"#utility.yul\":7642:7654   */\n      revert\n        /* \"#utility.yul\":7593:7595   */\n    tag_190:\n        /* \"#utility.yul\":7583:7662   */\n      pop\n      jump\t// out\n        /* \"#utility.yul\":7668:7786   */\n    tag_93:\n        /* \"#utility.yul\":7739:7761   */\n      tag_192\n        /* \"#utility.yul\":7755:7760   */\n      dup2\n        /* \"#utility.yul\":7739:7761   */\n      tag_128\n      jump\t// in\n    tag_192:\n        /* \"#utility.yul\":7732:7737   */\n      dup2\n        /* \"#utility.yul\":7729:7762   */\n      eq\n        /* \"#utility.yul\":7719:7721   */\n      tag_193\n      jumpi\n        /* \"#utility.yul\":7776:7777   */\n      0x00\n        /* \"#utility.yul\":7773:7774   */\n      dup1\n        /* \"#utility.yul\":7766:7778   */\n      revert\n        /* \"#utility.yul\":7719:7721   */\n    tag_193:\n        /* \"#utility.yul\":7709:7786   */\n      pop\n      jump\t// out\n\n    auxdata: 0xa2646970667358221220fa389ca5b46d157f2fc1fd0d41a370d714a44028f8a25a863d8d0b9c5546b61d64736f6c63430008040033\n}\n",
				"bytecode": {
					"linkReferences": {},
					"object": "608060405234801561001057600080fd5b506109e5806100206000396000f3fe6080604052600436106100435760003560e01c806312065fe01461008557806385831079146100b0578063b22e3e69146100ef578063f0b305db146101185761004a565b3661004a57005b7f88a5966d370b9919b20f3e2c13ff65706f196a4e32cc2c12bf57088f88525874333460405161007b9291906106b8565b60405180910390a1005b34801561009157600080fd5b5061009a610157565b6040516100a7919061071f565b60405180910390f35b3480156100bc57600080fd5b506100d760048036038101906100d2919061061a565b61015f565b6040516100e6939291906106e1565b60405180910390f35b3480156100fb57600080fd5b50610116600480360381019061011191906105b3565b61023b565b005b34801561012457600080fd5b5061013f600480360381019061013a919061061a565b610357565b60405161014e939291906106e1565b60405180910390f35b600047905090565b6000818154811061016f57600080fd5b90600052602060002090600202016000915090508060000180546101929061085c565b80601f01602080910402602001604051908101604052809291908181526020018280546101be9061085c565b801561020b5780601f106101e05761010080835404028352916020019161020b565b820191906000526020600020905b8154815290600101906020018083116101ee57829003601f168201915b5050505050908060010160009054906101000a900460ff16908060010160019054906101000a900460ff16905083565b600060405180606001604052808581526020018460ff168152602001836004811115610290577f4e487b7100000000000000000000000000000000000000000000000000000000600052602160045260246000fd5b815250908060018154018082558091505060019003906000526020600020906002020160009091909190915060008201518160000190805190602001906102d8929190610469565b5060208201518160010160006101000a81548160ff021916908360ff16021790555060408201518160010160016101000a81548160ff0219169083600481111561034b577f4e487b7100000000000000000000000000000000000000000000000000000000600052602160045260246000fd5b02179055505050505050565b60606000806000808581548110610397577f4e487b7100000000000000000000000000000000000000000000000000000000600052603260045260246000fd5b90600052602060002090600202019050806000018160010160009054906101000a900460ff168260010160019054906101000a900460ff168280546103db9061085c565b80601f01602080910402602001604051908101604052809291908181526020018280546104079061085c565b80156104545780601f1061042957610100808354040283529160200191610454565b820191906000526020600020905b81548152906001019060200180831161043757829003601f168201915b50505050509250935093509350509193909250565b8280546104759061085c565b90600052602060002090601f01602090048101928261049757600085556104de565b82601f106104b057805160ff19168380011785556104de565b828001600101855582156104de579182015b828111156104dd5782518255916020019190600101906104c2565b5b5090506104eb91906104ef565b5090565b5b808211156105085760008160009055506001016104f0565b5090565b600061051f61051a8461075f565b61073a565b90508281526020810184848401111561053757600080fd5b61054284828561081a565b509392505050565b60008135905061055981610971565b92915050565b600082601f83011261057057600080fd5b813561058084826020860161050c565b91505092915050565b60008135905061059881610981565b92915050565b6000813590506105ad81610998565b92915050565b6000806000606084860312156105c857600080fd5b600084013567ffffffffffffffff8111156105e257600080fd5b6105ee8682870161055f565b93505060206105ff8682870161059e565b92505060406106108682870161054a565b9150509250925092565b60006020828403121561062c57600080fd5b600061063a84828501610589565b91505092915050565b61064c816107ac565b82525050565b61065b81610808565b82525050565b600061066c82610790565b610676818561079b565b9350610686818560208601610829565b61068f8161094c565b840191505092915050565b6106a3816107f1565b82525050565b6106b2816107fb565b82525050565b60006040820190506106cd6000830185610643565b6106da602083018461069a565b9392505050565b600060608201905081810360008301526106fb8186610661565b905061070a60208301856106a9565b6107176040830184610652565b949350505050565b6000602082019050610734600083018461069a565b92915050565b6000610744610755565b9050610750828261088e565b919050565b6000604051905090565b600067ffffffffffffffff82111561077a5761077961091d565b5b6107838261094c565b9050602081019050919050565b600081519050919050565b600082825260208201905092915050565b60006107b7826107d1565b9050919050565b60008190506107cc8261095d565b919050565b600073ffffffffffffffffffffffffffffffffffffffff82169050919050565b6000819050919050565b600060ff82169050919050565b6000610813826107be565b9050919050565b82818337600083830152505050565b60005b8381101561084757808201518184015260208101905061082c565b83811115610856576000848401525b50505050565b6000600282049050600182168061087457607f821691505b60208210811415610888576108876108ee565b5b50919050565b6108978261094c565b810181811067ffffffffffffffff821117156108b6576108b561091d565b5b80604052505050565b7f4e487b7100000000000000000000000000000000000000000000000000000000600052602160045260246000fd5b7f4e487b7100000000000000000000000000000000000000000000000000000000600052602260045260246000fd5b7f4e487b7100000000000000000000000000000000000000000000000000000000600052604160045260246000fd5b6000601f19601f8301169050919050565b6005811061096e5761096d6108bf565b5b50565b6005811061097e57600080fd5b50565b61098a816107f1565b811461099557600080fd5b50565b6109a1816107fb565b81146109ac57600080fd5b5056fea2646970667358221220fa389ca5b46d157f2fc1fd0d41a370d714a44028f8a25a863d8d0b9c5546b61d64736f6c63430008040033",
					"opcodes": "PUSH1 0x80 PUSH1 0x40 MSTORE CALLVALUE DUP1 ISZERO PUSH2 0x10 JUMPI PUSH1 0x0 DUP1 REVERT JUMPDEST POP PUSH2 0x9E5 DUP1 PUSH2 0x20 PUSH1 0x0 CODECOPY PUSH1 0x0 RETURN INVALID PUSH1 0x80 PUSH1 0x40 MSTORE PUSH1 0x4 CALLDATASIZE LT PUSH2 0x43 JUMPI PUSH1 0x0 CALLDATALOAD PUSH1 0xE0 SHR DUP1 PUSH4 0x12065FE0 EQ PUSH2 0x85 JUMPI DUP1 PUSH4 0x85831079 EQ PUSH2 0xB0 JUMPI DUP1 PUSH4 0xB22E3E69 EQ PUSH2 0xEF JUMPI DUP1 PUSH4 0xF0B305DB EQ PUSH2 0x118 JUMPI PUSH2 0x4A JUMP JUMPDEST CALLDATASIZE PUSH2 0x4A JUMPI STOP JUMPDEST PUSH32 0x88A5966D370B9919B20F3E2C13FF65706F196A4E32CC2C12BF57088F88525874 CALLER CALLVALUE PUSH1 0x40 MLOAD PUSH2 0x7B SWAP3 SWAP2 SWAP1 PUSH2 0x6B8 JUMP JUMPDEST PUSH1 0x40 MLOAD DUP1 SWAP2 SUB SWAP1 LOG1 STOP JUMPDEST CALLVALUE DUP1 ISZERO PUSH2 0x91 JUMPI PUSH1 0x0 DUP1 REVERT JUMPDEST POP PUSH2 0x9A PUSH2 0x157 JUMP JUMPDEST PUSH1 0x40 MLOAD PUSH2 0xA7 SWAP2 SWAP1 PUSH2 0x71F JUMP JUMPDEST PUSH1 0x40 MLOAD DUP1 SWAP2 SUB SWAP1 RETURN JUMPDEST CALLVALUE DUP1 ISZERO PUSH2 0xBC JUMPI PUSH1 0x0 DUP1 REVERT JUMPDEST POP PUSH2 0xD7 PUSH1 0x4 DUP1 CALLDATASIZE SUB DUP2 ADD SWAP1 PUSH2 0xD2 SWAP2 SWAP1 PUSH2 0x61A JUMP JUMPDEST PUSH2 0x15F JUMP JUMPDEST PUSH1 0x40 MLOAD PUSH2 0xE6 SWAP4 SWAP3 SWAP2 SWAP1 PUSH2 0x6E1 JUMP JUMPDEST PUSH1 0x40 MLOAD DUP1 SWAP2 SUB SWAP1 RETURN JUMPDEST CALLVALUE DUP1 ISZERO PUSH2 0xFB JUMPI PUSH1 0x0 DUP1 REVERT JUMPDEST POP PUSH2 0x116 PUSH1 0x4 DUP1 CALLDATASIZE SUB DUP2 ADD SWAP1 PUSH2 0x111 SWAP2 SWAP1 PUSH2 0x5B3 JUMP JUMPDEST PUSH2 0x23B JUMP JUMPDEST STOP JUMPDEST CALLVALUE DUP1 ISZERO PUSH2 0x124 JUMPI PUSH1 0x0 DUP1 REVERT JUMPDEST POP PUSH2 0x13F PUSH1 0x4 DUP1 CALLDATASIZE SUB DUP2 ADD SWAP1 PUSH2 0x13A SWAP2 SWAP1 PUSH2 0x61A JUMP JUMPDEST PUSH2 0x357 JUMP JUMPDEST PUSH1 0x40 MLOAD PUSH2 0x14E SWAP4 SWAP3 SWAP2 SWAP1 PUSH2 0x6E1 JUMP JUMPDEST PUSH1 0x40 MLOAD DUP1 SWAP2 SUB SWAP1 RETURN JUMPDEST PUSH1 0x0 SELFBALANCE SWAP1 POP SWAP1 JUMP JUMPDEST PUSH1 0x0 DUP2 DUP2 SLOAD DUP2 LT PUSH2 0x16F JUMPI PUSH1 0x0 DUP1 REVERT JUMPDEST SWAP1 PUSH1 0x0 MSTORE PUSH1 0x20 PUSH1 0x0 KECCAK256 SWAP1 PUSH1 0x2 MUL ADD PUSH1 0x0 SWAP2 POP SWAP1 POP DUP1 PUSH1 0x0 ADD DUP1 SLOAD PUSH2 0x192 SWAP1 PUSH2 0x85C JUMP JUMPDEST DUP1 PUSH1 0x1F ADD PUSH1 0x20 DUP1 SWAP2 DIV MUL PUSH1 0x20 ADD PUSH1 0x40 MLOAD SWAP1 DUP2 ADD PUSH1 0x40 MSTORE DUP1 SWAP3 SWAP2 SWAP1 DUP2 DUP2 MSTORE PUSH1 0x20 ADD DUP3 DUP1 SLOAD PUSH2 0x1BE SWAP1 PUSH2 0x85C JUMP JUMPDEST DUP1 ISZERO PUSH2 0x20B JUMPI DUP1 PUSH1 0x1F LT PUSH2 0x1E0 JUMPI PUSH2 0x100 DUP1 DUP4 SLOAD DIV MUL DUP4 MSTORE SWAP2 PUSH1 0x20 ADD SWAP2 PUSH2 0x20B JUMP JUMPDEST DUP3 ADD SWAP2 SWAP1 PUSH1 0x0 MSTORE PUSH1 0x20 PUSH1 0x0 KECCAK256 SWAP1 JUMPDEST DUP2 SLOAD DUP2 MSTORE SWAP1 PUSH1 0x1 ADD SWAP1 PUSH1 0x20 ADD DUP1 DUP4 GT PUSH2 0x1EE JUMPI DUP3 SWAP1 SUB PUSH1 0x1F AND DUP3 ADD SWAP2 JUMPDEST POP POP POP POP POP SWAP1 DUP1 PUSH1 0x1 ADD PUSH1 0x0 SWAP1 SLOAD SWAP1 PUSH2 0x100 EXP SWAP1 DIV PUSH1 0xFF AND SWAP1 DUP1 PUSH1 0x1 ADD PUSH1 0x1 SWAP1 SLOAD SWAP1 PUSH2 0x100 EXP SWAP1 DIV PUSH1 0xFF AND SWAP1 POP DUP4 JUMP JUMPDEST PUSH1 0x0 PUSH1 0x40 MLOAD DUP1 PUSH1 0x60 ADD PUSH1 0x40 MSTORE DUP1 DUP6 DUP2 MSTORE PUSH1 0x20 ADD DUP5 PUSH1 0xFF AND DUP2 MSTORE PUSH1 0x20 ADD DUP4 PUSH1 0x4 DUP2 GT ISZERO PUSH2 0x290 JUMPI PUSH32 0x4E487B7100000000000000000000000000000000000000000000000000000000 PUSH1 0x0 MSTORE PUSH1 0x21 PUSH1 0x4 MSTORE PUSH1 0x24 PUSH1 0x0 REVERT JUMPDEST DUP2 MSTORE POP SWAP1 DUP1 PUSH1 0x1 DUP2 SLOAD ADD DUP1 DUP3 SSTORE DUP1 SWAP2 POP POP PUSH1 0x1 SWAP1 SUB SWAP1 PUSH1 0x0 MSTORE PUSH1 0x20 PUSH1 0x0 KECCAK256 SWAP1 PUSH1 0x2 MUL ADD PUSH1 0x0 SWAP1 SWAP2 SWAP1 SWAP2 SWAP1 SWAP2 POP PUSH1 0x0 DUP3 ADD MLOAD DUP2 PUSH1 0x0 ADD SWAP1 DUP1 MLOAD SWAP1 PUSH1 0x20 ADD SWAP1 PUSH2 0x2D8 SWAP3 SWAP2 SWAP1 PUSH2 0x469 JUMP JUMPDEST POP PUSH1 0x20 DUP3 ADD MLOAD DUP2 PUSH1 0x1 ADD PUSH1 0x0 PUSH2 0x100 EXP DUP2 SLOAD DUP2 PUSH1 0xFF MUL NOT AND SWAP1 DUP4 PUSH1 0xFF AND MUL OR SWAP1 SSTORE POP PUSH1 0x40 DUP3 ADD MLOAD DUP2 PUSH1 0x1 ADD PUSH1 0x1 PUSH2 0x100 EXP DUP2 SLOAD DUP2 PUSH1 0xFF MUL NOT AND SWAP1 DUP4 PUSH1 0x4 DUP2 GT ISZERO PUSH2 0x34B JUMPI PUSH32 0x4E487B7100000000000000000000000000000000000000000000000000000000 PUSH1 0x0 MSTORE PUSH1 0x21 PUSH1 0x4 MSTORE PUSH1 0x24 PUSH1 0x0 REVERT JUMPDEST MUL OR SWAP1 SSTORE POP POP POP POP POP POP JUMP JUMPDEST PUSH1 0x60 PUSH1 0x0 DUP1 PUSH1 0x0 DUP1 DUP6 DUP2 SLOAD DUP2 LT PUSH2 0x397 JUMPI PUSH32 0x4E487B7100000000000000000000000000000000000000000000000000000000 PUSH1 0x0 MSTORE PUSH1 0x32 PUSH1 0x4 MSTORE PUSH1 0x24 PUSH1 0x0 REVERT JUMPDEST SWAP1 PUSH1 0x0 MSTORE PUSH1 0x20 PUSH1 0x0 KECCAK256 SWAP1 PUSH1 0x2 MUL ADD SWAP1 POP DUP1 PUSH1 0x0 ADD DUP2 PUSH1 0x1 ADD PUSH1 0x0 SWAP1 SLOAD SWAP1 PUSH2 0x100 EXP SWAP1 DIV PUSH1 0xFF AND DUP3 PUSH1 0x1 ADD PUSH1 0x1 SWAP1 SLOAD SWAP1 PUSH2 0x100 EXP SWAP1 DIV PUSH1 0xFF AND DUP3 DUP1 SLOAD PUSH2 0x3DB SWAP1 PUSH2 0x85C JUMP JUMPDEST DUP1 PUSH1 0x1F ADD PUSH1 0x20 DUP1 SWAP2 DIV MUL PUSH1 0x20 ADD PUSH1 0x40 MLOAD SWAP1 DUP2 ADD PUSH1 0x40 MSTORE DUP1 SWAP3 SWAP2 SWAP1 DUP2 DUP2 MSTORE PUSH1 0x20 ADD DUP3 DUP1 SLOAD PUSH2 0x407 SWAP1 PUSH2 0x85C JUMP JUMPDEST DUP1 ISZERO PUSH2 0x454 JUMPI DUP1 PUSH1 0x1F LT PUSH2 0x429 JUMPI PUSH2 0x100 DUP1 DUP4 SLOAD DIV MUL DUP4 MSTORE SWAP2 PUSH1 0x20 ADD SWAP2 PUSH2 0x454 JUMP JUMPDEST DUP3 ADD SWAP2 SWAP1 PUSH1 0x0 MSTORE PUSH1 0x20 PUSH1 0x0 KECCAK256 SWAP1 JUMPDEST DUP2 SLOAD DUP2 MSTORE SWAP1 PUSH1 0x1 ADD SWAP1 PUSH1 0x20 ADD DUP1 DUP4 GT PUSH2 0x437 JUMPI DUP3 SWAP1 SUB PUSH1 0x1F AND DUP3 ADD SWAP2 JUMPDEST POP POP POP POP POP SWAP3 POP SWAP4 POP SWAP4 POP SWAP4 POP POP SWAP2 SWAP4 SWAP1 SWAP3 POP JUMP JUMPDEST DUP3 DUP1 SLOAD PUSH2 0x475 SWAP1 PUSH2 0x85C JUMP JUMPDEST SWAP1 PUSH1 0x0 MSTORE PUSH1 0x20 PUSH1 0x0 KECCAK256 SWAP1 PUSH1 0x1F ADD PUSH1 0x20 SWAP1 DIV DUP2 ADD SWAP3 DUP3 PUSH2 0x497 JUMPI PUSH1 0x0 DUP6 SSTORE PUSH2 0x4DE JUMP JUMPDEST DUP3 PUSH1 0x1F LT PUSH2 0x4B0 JUMPI DUP1 MLOAD PUSH1 0xFF NOT AND DUP4 DUP1 ADD OR DUP6 SSTORE PUSH2 0x4DE JUMP JUMPDEST DUP3 DUP1 ADD PUSH1 0x1 ADD DUP6 SSTORE DUP3 ISZERO PUSH2 0x4DE JUMPI SWAP2 DUP3 ADD JUMPDEST DUP3 DUP2 GT ISZERO PUSH2 0x4DD JUMPI DUP3 MLOAD DUP3 SSTORE SWAP2 PUSH1 0x20 ADD SWAP2 SWAP1 PUSH1 0x1 ADD SWAP1 PUSH2 0x4C2 JUMP JUMPDEST JUMPDEST POP SWAP1 POP PUSH2 0x4EB SWAP2 SWAP1 PUSH2 0x4EF JUMP JUMPDEST POP SWAP1 JUMP JUMPDEST JUMPDEST DUP1 DUP3 GT ISZERO PUSH2 0x508 JUMPI PUSH1 0x0 DUP2 PUSH1 0x0 SWAP1 SSTORE POP PUSH1 0x1 ADD PUSH2 0x4F0 JUMP JUMPDEST POP SWAP1 JUMP JUMPDEST PUSH1 0x0 PUSH2 0x51F PUSH2 0x51A DUP5 PUSH2 0x75F JUMP JUMPDEST PUSH2 0x73A JUMP JUMPDEST SWAP1 POP DUP3 DUP2 MSTORE PUSH1 0x20 DUP2 ADD DUP5 DUP5 DUP5 ADD GT ISZERO PUSH2 0x537 JUMPI PUSH1 0x0 DUP1 REVERT JUMPDEST PUSH2 0x542 DUP5 DUP3 DUP6 PUSH2 0x81A JUMP JUMPDEST POP SWAP4 SWAP3 POP POP POP JUMP JUMPDEST PUSH1 0x0 DUP2 CALLDATALOAD SWAP1 POP PUSH2 0x559 DUP2 PUSH2 0x971 JUMP JUMPDEST SWAP3 SWAP2 POP POP JUMP JUMPDEST PUSH1 0x0 DUP3 PUSH1 0x1F DUP4 ADD SLT PUSH2 0x570 JUMPI PUSH1 0x0 DUP1 REVERT JUMPDEST DUP2 CALLDATALOAD PUSH2 0x580 DUP5 DUP3 PUSH1 0x20 DUP7 ADD PUSH2 0x50C JUMP JUMPDEST SWAP2 POP POP SWAP3 SWAP2 POP POP JUMP JUMPDEST PUSH1 0x0 DUP2 CALLDATALOAD SWAP1 POP PUSH2 0x598 DUP2 PUSH2 0x981 JUMP JUMPDEST SWAP3 SWAP2 POP POP JUMP JUMPDEST PUSH1 0x0 DUP2 CALLDATALOAD SWAP1 POP PUSH2 0x5AD DUP2 PUSH2 0x998 JUMP JUMPDEST SWAP3 SWAP2 POP POP JUMP JUMPDEST PUSH1 0x0 DUP1 PUSH1 0x0 PUSH1 0x60 DUP5 DUP7 SUB SLT ISZERO PUSH2 0x5C8 JUMPI PUSH1 0x0 DUP1 REVERT JUMPDEST PUSH1 0x0 DUP5 ADD CALLDATALOAD PUSH8 0xFFFFFFFFFFFFFFFF DUP2 GT ISZERO PUSH2 0x5E2 JUMPI PUSH1 0x0 DUP1 REVERT JUMPDEST PUSH2 0x5EE DUP7 DUP3 DUP8 ADD PUSH2 0x55F JUMP JUMPDEST SWAP4 POP POP PUSH1 0x20 PUSH2 0x5FF DUP7 DUP3 DUP8 ADD PUSH2 0x59E JUMP JUMPDEST SWAP3 POP POP PUSH1 0x40 PUSH2 0x610 DUP7 DUP3 DUP8 ADD PUSH2 0x54A JUMP JUMPDEST SWAP2 POP POP SWAP3 POP SWAP3 POP SWAP3 JUMP JUMPDEST PUSH1 0x0 PUSH1 0x20 DUP3 DUP5 SUB SLT ISZERO PUSH2 0x62C JUMPI PUSH1 0x0 DUP1 REVERT JUMPDEST PUSH1 0x0 PUSH2 0x63A DUP5 DUP3 DUP6 ADD PUSH2 0x589 JUMP JUMPDEST SWAP2 POP POP SWAP3 SWAP2 POP POP JUMP JUMPDEST PUSH2 0x64C DUP2 PUSH2 0x7AC JUMP JUMPDEST DUP3 MSTORE POP POP JUMP JUMPDEST PUSH2 0x65B DUP2 PUSH2 0x808 JUMP JUMPDEST DUP3 MSTORE POP POP JUMP JUMPDEST PUSH1 0x0 PUSH2 0x66C DUP3 PUSH2 0x790 JUMP JUMPDEST PUSH2 0x676 DUP2 DUP6 PUSH2 0x79B JUMP JUMPDEST SWAP4 POP PUSH2 0x686 DUP2 DUP6 PUSH1 0x20 DUP7 ADD PUSH2 0x829 JUMP JUMPDEST PUSH2 0x68F DUP2 PUSH2 0x94C JUMP JUMPDEST DUP5 ADD SWAP2 POP POP SWAP3 SWAP2 POP POP JUMP JUMPDEST PUSH2 0x6A3 DUP2 PUSH2 0x7F1 JUMP JUMPDEST DUP3 MSTORE POP POP JUMP JUMPDEST PUSH2 0x6B2 DUP2 PUSH2 0x7FB JUMP JUMPDEST DUP3 MSTORE POP POP JUMP JUMPDEST PUSH1 0x0 PUSH1 0x40 DUP3 ADD SWAP1 POP PUSH2 0x6CD PUSH1 0x0 DUP4 ADD DUP6 PUSH2 0x643 JUMP JUMPDEST PUSH2 0x6DA PUSH1 0x20 DUP4 ADD DUP5 PUSH2 0x69A JUMP JUMPDEST SWAP4 SWAP3 POP POP POP JUMP JUMPDEST PUSH1 0x0 PUSH1 0x60 DUP3 ADD SWAP1 POP DUP2 DUP2 SUB PUSH1 0x0 DUP4 ADD MSTORE PUSH2 0x6FB DUP2 DUP7 PUSH2 0x661 JUMP JUMPDEST SWAP1 POP PUSH2 0x70A PUSH1 0x20 DUP4 ADD DUP6 PUSH2 0x6A9 JUMP JUMPDEST PUSH2 0x717 PUSH1 0x40 DUP4 ADD DUP5 PUSH2 0x652 JUMP JUMPDEST SWAP5 SWAP4 POP POP POP POP JUMP JUMPDEST PUSH1 0x0 PUSH1 0x20 DUP3 ADD SWAP1 POP PUSH2 0x734 PUSH1 0x0 DUP4 ADD DUP5 PUSH2 0x69A JUMP JUMPDEST SWAP3 SWAP2 POP POP JUMP JUMPDEST PUSH1 0x0 PUSH2 0x744 PUSH2 0x755 JUMP JUMPDEST SWAP1 POP PUSH2 0x750 DUP3 DUP3 PUSH2 0x88E JUMP JUMPDEST SWAP2 SWAP1 POP JUMP JUMPDEST PUSH1 0x0 PUSH1 0x40 MLOAD SWAP1 POP SWAP1 JUMP JUMPDEST PUSH1 0x0 PUSH8 0xFFFFFFFFFFFFFFFF DUP3 GT ISZERO PUSH2 0x77A JUMPI PUSH2 0x779 PUSH2 0x91D JUMP JUMPDEST JUMPDEST PUSH2 0x783 DUP3 PUSH2 0x94C JUMP JUMPDEST SWAP1 POP PUSH1 0x20 DUP2 ADD SWAP1 POP SWAP2 SWAP1 POP JUMP JUMPDEST PUSH1 0x0 DUP2 MLOAD SWAP1 POP SWAP2 SWAP1 POP JUMP JUMPDEST PUSH1 0x0 DUP3 DUP3 MSTORE PUSH1 0x20 DUP3 ADD SWAP1 POP SWAP3 SWAP2 POP POP JUMP JUMPDEST PUSH1 0x0 PUSH2 0x7B7 DUP3 PUSH2 0x7D1 JUMP JUMPDEST SWAP1 POP SWAP2 SWAP1 POP JUMP JUMPDEST PUSH1 0x0 DUP2 SWAP1 POP PUSH2 0x7CC DUP3 PUSH2 0x95D JUMP JUMPDEST SWAP2 SWAP1 POP JUMP JUMPDEST PUSH1 0x0 PUSH20 0xFFFFFFFFFFFFFFFFFFFFFFFFFFFFFFFFFFFFFFFF DUP3 AND SWAP1 POP SWAP2 SWAP1 POP JUMP JUMPDEST PUSH1 0x0 DUP2 SWAP1 POP SWAP2 SWAP1 POP JUMP JUMPDEST PUSH1 0x0 PUSH1 0xFF DUP3 AND SWAP1 POP SWAP2 SWAP1 POP JUMP JUMPDEST PUSH1 0x0 PUSH2 0x813 DUP3 PUSH2 0x7BE JUMP JUMPDEST SWAP1 POP SWAP2 SWAP1 POP JUMP JUMPDEST DUP3 DUP2 DUP4 CALLDATACOPY PUSH1 0x0 DUP4 DUP4 ADD MSTORE POP POP POP JUMP JUMPDEST PUSH1 0x0 JUMPDEST DUP4 DUP2 LT ISZERO PUSH2 0x847 JUMPI DUP1 DUP3 ADD MLOAD DUP2 DUP5 ADD MSTORE PUSH1 0x20 DUP2 ADD SWAP1 POP PUSH2 0x82C JUMP JUMPDEST DUP4 DUP2 GT ISZERO PUSH2 0x856 JUMPI PUSH1 0x0 DUP5 DUP5 ADD MSTORE JUMPDEST POP POP POP POP JUMP JUMPDEST PUSH1 0x0 PUSH1 0x2 DUP3 DIV SWAP1 POP PUSH1 0x1 DUP3 AND DUP1 PUSH2 0x874 JUMPI PUSH1 0x7F DUP3 AND SWAP2 POP JUMPDEST PUSH1 0x20 DUP3 LT DUP2 EQ ISZERO PUSH2 0x888 JUMPI PUSH2 0x887 PUSH2 0x8EE JUMP JUMPDEST JUMPDEST POP SWAP2 SWAP1 POP JUMP JUMPDEST PUSH2 0x897 DUP3 PUSH2 0x94C JUMP JUMPDEST DUP2 ADD DUP2 DUP2 LT PUSH8 0xFFFFFFFFFFFFFFFF DUP3 GT OR ISZERO PUSH2 0x8B6 JUMPI PUSH2 0x8B5 PUSH2 0x91D JUMP JUMPDEST JUMPDEST DUP1 PUSH1 0x40 MSTORE POP POP POP JUMP JUMPDEST PUSH32 0x4E487B7100000000000000000000000000000000000000000000000000000000 PUSH1 0x0 MSTORE PUSH1 0x21 PUSH1 0x4 MSTORE PUSH1 0x24 PUSH1 0x0 REVERT JUMPDEST PUSH32 0x4E487B7100000000000000000000000000000000000000000000000000000000 PUSH1 0x0 MSTORE PUSH1 0x22 PUSH1 0x4 MSTORE PUSH1 0x24 PUSH1 0x0 REVERT JUMPDEST PUSH32 0x4E487B7100000000000000000000000000000000000000000000000000000000 PUSH1 0x0 MSTORE PUSH1 0x41 PUSH1 0x4 MSTORE PUSH1 0x24 PUSH1 0x0 REVERT JUMPDEST PUSH1 0x0 PUSH1 0x1F NOT PUSH1 0x1F DUP4 ADD AND SWAP1 POP SWAP2 SWAP1 POP JUMP JUMPDEST PUSH1 0x5 DUP2 LT PUSH2 0x96E JUMPI PUSH2 0x96D PUSH2 0x8BF JUMP JUMPDEST JUMPDEST POP JUMP JUMPDEST PUSH1 0x5 DUP2 LT PUSH2 0x97E JUMPI PUSH1 0x0 DUP1 REVERT JUMPDEST POP JUMP JUMPDEST PUSH2 0x98A DUP2 PUSH2 0x7F1 JUMP JUMPDEST DUP2 EQ PUSH2 0x995 JUMPI PUSH1 0x0 DUP1 REVERT JUMPDEST POP JUMP JUMPDEST PUSH2 0x9A1 DUP2 PUSH2 0x7FB JUMP JUMPDEST DUP2 EQ PUSH2 0x9AC JUMPI PUSH1 0x0 DUP1 REVERT JUMPDEST POP JUMP INVALID LOG2 PUSH5 0x6970667358 0x22 SLT KECCAK256 STATICCALL CODESIZE SWAP13 0xA5 0xB4 PUSH14 0x157F2FC1FD0D41A370D714A44028 0xF8 LOG2 GAS DUP7 RETURNDATASIZE DUP14 SIGNEXTEND SWAP13 SSTORE CHAINID 0xB6 SAR PUSH5 0x736F6C6343 STOP ADDMOD DIV STOP CALLER "
				},
				"gasEstimates": {
					"creation": {
						"codeDepositCost": "506600",
						"executionCost": "543",
						"totalCost": "507143"
					},
					"external": {
						"": "1748",
						"addPokemon(string,uint8,uint8)": "infinite",
						"getBalance()": "317",
						"getPokemon(uint256)": "infinite",
						"pokemons(uint256)": "infinite"
					}
				},
				"methodIdentifiers": {
					"addPokemon(string,uint8,uint8)": "b22e3e69",
					"getBalance()": "12065fe0",
					"getPokemon(uint256)": "f0b305db",
					"pokemons(uint256)": "85831079"
				}
			},
			"userdoc": {
				"kind": "user",
				"methods": {},
				"version": 1
			}
		}
	}
}