{
	"data": {
		"bytecode": {
			"linkReferences": {},
			"object": "608060405234801561001057600080fd5b506102a1806100206000396000f3fe608060405234801561001057600080fd5b506004361061004c5760003560e01c80630ff4c9161461005157806319eb4a90146100815780635e383d211461009f5780637221a26a146100cf575b600080fd5b61006b60048036038101906100669190610172565b6100eb565b60405161007891906101aa565b60405180910390f35b610089610101565b60405161009691906101aa565b60405180910390f35b6100b960048036038101906100b49190610172565b61010d565b6040516100c691906101aa565b60405180910390f35b6100e960048036038101906100e49190610172565b610131565b005b60006096826100fa91906101c5565b9050919050565b60008080549050905090565b6000818154811061011d57600080fd5b906000526020600020016000915090505481565b600081908060018154018082558091505060019003906000526020600020016000909190919091505550565b60008135905061016c81610254565b92915050565b60006020828403121561018457600080fd5b60006101928482850161015d565b91505092915050565b6101a48161021b565b82525050565b60006020820190506101bf600083018461019b565b92915050565b60006101d08261021b565b91506101db8361021b565b9250827fffffffffffffffffffffffffffffffffffffffffffffffffffffffffffffffff038211156102105761020f610225565b5b828201905092915050565b6000819050919050565b7f4e487b7100000000000000000000000000000000000000000000000000000000600052601160045260246000fd5b61025d8161021b565b811461026857600080fd5b5056fea2646970667358221220a2b7c70426096c1e1649bba83ab69ec45d479216320d333078eb360d7701f49864736f6c63430008040033",
			"opcodes": "PUSH1 0x80 PUSH1 0x40 MSTORE CALLVALUE DUP1 ISZERO PUSH2 0x10 JUMPI PUSH1 0x0 DUP1 REVERT JUMPDEST POP PUSH2 0x2A1 DUP1 PUSH2 0x20 PUSH1 0x0 CODECOPY PUSH1 0x0 RETURN INVALID PUSH1 0x80 PUSH1 0x40 MSTORE CALLVALUE DUP1 ISZERO PUSH2 0x10 JUMPI PUSH1 0x0 DUP1 REVERT JUMPDEST POP PUSH1 0x4 CALLDATASIZE LT PUSH2 0x4C JUMPI PUSH1 0x0 CALLDATALOAD PUSH1 0xE0 SHR DUP1 PUSH4 0xFF4C916 EQ PUSH2 0x51 JUMPI DUP1 PUSH4 0x19EB4A90 EQ PUSH2 0x81 JUMPI DUP1 PUSH4 0x5E383D21 EQ PUSH2 0x9F JUMPI DUP1 PUSH4 0x7221A26A EQ PUSH2 0xCF JUMPI JUMPDEST PUSH1 0x0 DUP1 REVERT JUMPDEST PUSH2 0x6B PUSH1 0x4 DUP1 CALLDATASIZE SUB DUP2 ADD SWAP1 PUSH2 0x66 SWAP2 SWAP1 PUSH2 0x172 JUMP JUMPDEST PUSH2 0xEB JUMP JUMPDEST PUSH1 0x40 MLOAD PUSH2 0x78 SWAP2 SWAP1 PUSH2 0x1AA JUMP JUMPDEST PUSH1 0x40 MLOAD DUP1 SWAP2 SUB SWAP1 RETURN JUMPDEST PUSH2 0x89 PUSH2 0x101 JUMP JUMPDEST PUSH1 0x40 MLOAD PUSH2 0x96 SWAP2 SWAP1 PUSH2 0x1AA JUMP JUMPDEST PUSH1 0x40 MLOAD DUP1 SWAP2 SUB SWAP1 RETURN JUMPDEST PUSH2 0xB9 PUSH1 0x4 DUP1 CALLDATASIZE SUB DUP2 ADD SWAP1 PUSH2 0xB4 SWAP2 SWAP1 PUSH2 0x172 JUMP JUMPDEST PUSH2 0x10D JUMP JUMPDEST PUSH1 0x40 MLOAD PUSH2 0xC6 SWAP2 SWAP1 PUSH2 0x1AA JUMP JUMPDEST PUSH1 0x40 MLOAD DUP1 SWAP2 SUB SWAP1 RETURN JUMPDEST PUSH2 0xE9 PUSH1 0x4 DUP1 CALLDATASIZE SUB DUP2 ADD SWAP1 PUSH2 0xE4 SWAP2 SWAP1 PUSH2 0x172 JUMP JUMPDEST PUSH2 0x131 JUMP JUMPDEST STOP JUMPDEST PUSH1 0x0 PUSH1 0x96 DUP3 PUSH2 0xFA SWAP2 SWAP1 PUSH2 0x1C5 JUMP JUMPDEST SWAP1 POP SWAP2 SWAP1 POP JUMP JUMPDEST PUSH1 0x0 DUP1 DUP1 SLOAD SWAP1 POP SWAP1 POP SWAP1 JUMP JUMPDEST PUSH1 0x0 DUP2 DUP2 SLOAD DUP2 LT PUSH2 0x11D JUMPI PUSH1 0x0 DUP1 REVERT JUMPDEST SWAP1 PUSH1 0x0 MSTORE PUSH1 0x20 PUSH1 0x0 KECCAK256 ADD PUSH1 0x0 SWAP2 POP SWAP1 POP SLOAD DUP2 JUMP JUMPDEST PUSH1 0x0 DUP2 SWAP1 DUP1 PUSH1 0x1 DUP2 SLOAD ADD DUP1 DUP3 SSTORE DUP1 SWAP2 POP POP PUSH1 0x1 SWAP1 SUB SWAP1 PUSH1 0x0 MSTORE PUSH1 0x20 PUSH1 0x0 KECCAK256 ADD PUSH1 0x0 SWAP1 SWAP2 SWAP1 SWAP2 SWAP1 SWAP2 POP SSTORE POP JUMP JUMPDEST PUSH1 0x0 DUP2 CALLDATALOAD SWAP1 POP PUSH2 0x16C DUP2 PUSH2 0x254 JUMP JUMPDEST SWAP3 SWAP2 POP POP JUMP JUMPDEST PUSH1 0x0 PUSH1 0x20 DUP3 DUP5 SUB SLT ISZERO PUSH2 0x184 JUMPI PUSH1 0x0 DUP1 REVERT JUMPDEST PUSH1 0x0 PUSH2 0x192 DUP5 DUP3 DUP6 ADD PUSH2 0x15D JUMP JUMPDEST SWAP2 POP POP SWAP3 SWAP2 POP POP JUMP JUMPDEST PUSH2 0x1A4 DUP2 PUSH2 0x21B JUMP JUMPDEST DUP3 MSTORE POP POP JUMP JUMPDEST PUSH1 0x0 PUSH1 0x20 DUP3 ADD SWAP1 POP PUSH2 0x1BF PUSH1 0x0 DUP4 ADD DUP5 PUSH2 0x19B JUMP JUMPDEST SWAP3 SWAP2 POP POP JUMP JUMPDEST PUSH1 0x0 PUSH2 0x1D0 DUP3 PUSH2 0x21B JUMP JUMPDEST SWAP2 POP PUSH2 0x1DB DUP4 PUSH2 0x21B JUMP JUMPDEST SWAP3 POP DUP3 PUSH32 0xFFFFFFFFFFFFFFFFFFFFFFFFFFFFFFFFFFFFFFFFFFFFFFFFFFFFFFFFFFFFFFFF SUB DUP3 GT ISZERO PUSH2 0x210 JUMPI PUSH2 0x20F PUSH2 0x225 JUMP JUMPDEST JUMPDEST DUP3 DUP3 ADD SWAP1 POP SWAP3 SWAP2 POP POP JUMP JUMPDEST PUSH1 0x0 DUP2 SWAP1 POP SWAP2 SWAP1 POP JUMP JUMPDEST PUSH32 0x4E487B7100000000000000000000000000000000000000000000000000000000 PUSH1 0x0 MSTORE PUSH1 0x11 PUSH1 0x4 MSTORE PUSH1 0x24 PUSH1 0x0 REVERT JUMPDEST PUSH2 0x25D DUP2 PUSH2 0x21B JUMP JUMPDEST DUP2 EQ PUSH2 0x268 JUMPI PUSH1 0x0 DUP1 REVERT JUMPDEST POP JUMP INVALID LOG2 PUSH5 0x6970667358 0x22 SLT KECCAK256 LOG2 0xB7 0xC7 DIV 0x26 MULMOD PUSH13 0x1E1649BBA83AB69EC45D479216 ORIGIN 0xD CALLER ADDRESS PUSH25 0xEB360D7701F49864736F6C6343000804003300000000000000 "
		},
		"gasEstimates": {
			"creation": {
				"codeDepositCost": "134600",
				"executionCost": "183",
				"totalCost": "134783"
			},
			"external": {
				"getValue(uint256)": "infinite",
				"getValues()": "1145",
				"storeValue(uint256)": "41373",
				"values(uint256)": "infinite"
			}
		},
		"methodIdentifiers": {
			"getValue(uint256)": "0ff4c916",
			"getValues()": "19eb4a90",
			"storeValue(uint256)": "7221a26a",
			"values(uint256)": "5e383d21"
		}
	},
	"abi": [
		{
			"inputs": [
				{
					"internalType": "uint256",
					"name": "initial",
					"type": "uint256"
				}
			],
			"name": "getValue",
			"outputs": [
				{
					"internalType": "uint256",
					"name": "",
					"type": "uint256"
				}
			],
			"stateMutability": "pure",
			"type": "function"
		},
		{
			"inputs": [],
			"name": "getValues",
			"outputs": [
				{
					"internalType": "uint256",
					"name": "",
					"type": "uint256"
				}
			],
			"stateMutability": "view",
			"type": "function"
		},
		{
			"inputs": [
				{
					"internalType": "uint256",
					"name": "value",
					"type": "uint256"
				}
			],
			"name": "storeValue",
			"outputs": [],
			"stateMutability": "nonpayable",
			"type": "function"
		},
		{
			"inputs": [
				{
					"internalType": "uint256",
					"name": "",
					"type": "uint256"
				}
			],
			"name": "values",
			"outputs": [
				{
					"internalType": "uint256",
					"name": "",
					"type": "uint256"
				}
			],
			"stateMutability": "view",
			"type": "function"
		}
	]
}