{
  "_format": "hh-sol-artifact-1",
  "contractName": "Box",
  "sourceName": "contracts/Box.sol",
  "abi": [
    {
      "inputs": [],
      "stateMutability": "nonpayable",
      "type": "constructor"
    },
    {
      "anonymous": false,
      "inputs": [
        {
          "indexed": true,
          "internalType": "address",
          "name": "previousOwner",
          "type": "address"
        },
        {
          "indexed": true,
          "internalType": "address",
          "name": "newOwner",
          "type": "address"
        }
      ],
      "name": "OwnershipTransferred",
      "type": "event"
    },
    {
      "anonymous": false,
      "inputs": [
        {
          "indexed": false,
          "internalType": "uint256",
          "name": "value",
          "type": "uint256"
        }
      ],
      "name": "ValueChanged",
      "type": "event"
    },
    {
      "inputs": [],
      "name": "owner",
      "outputs": [
        {
          "internalType": "address",
          "name": "",
          "type": "address"
        }
      ],
      "stateMutability": "view",
      "type": "function"
    },
    {
      "inputs": [],
      "name": "renounceOwnership",
      "outputs": [],
      "stateMutability": "nonpayable",
      "type": "function"
    },
    {
      "inputs": [],
      "name": "retrieve",
      "outputs": [
        {
          "internalType": "uint256",
          "name": "",
          "type": "uint256"
        }
      ],
      "stateMutability": "view",
      "type": "function"
    },
    {
      "inputs": [
        {
          "internalType": "uint256",
          "name": "value",
          "type": "uint256"
        }
      ],
      "name": "store",
      "outputs": [],
      "stateMutability": "nonpayable",
      "type": "function"
    },
    {
      "inputs": [
        {
          "internalType": "address",
          "name": "newOwner",
          "type": "address"
        }
      ],
      "name": "transferOwnership",
      "outputs": [],
      "stateMutability": "nonpayable",
      "type": "function"
    }
  ],
  "bytecode": "0x608060405234801561001057600080fd5b5061002d61002261003260201b60201c565b61003a60201b60201c565b6100fe565b600033905090565b60008060009054906101000a900473ffffffffffffffffffffffffffffffffffffffff169050816000806101000a81548173ffffffffffffffffffffffffffffffffffffffff021916908373ffffffffffffffffffffffffffffffffffffffff1602179055508173ffffffffffffffffffffffffffffffffffffffff168173ffffffffffffffffffffffffffffffffffffffff167f8be0079c531659141344cd1fd0a4f28419497f9722a3daafe3b4186f6b6457e060405160405180910390a35050565b6108518061010d6000396000f3fe608060405234801561001057600080fd5b50600436106100575760003560e01c80632e64cec11461005c5780636057361d1461007a578063715018a6146100965780638da5cb5b146100a0578063f2fde38b146100be575b600080fd5b6100646100da565b60405161007191906106be565b60405180910390f35b610094600480360381019061008f919061056d565b6100e4565b005b61009e6101e0565b005b6100a8610268565b6040516100b59190610633565b60405180910390f35b6100d860048036038101906100d39190610544565b610291565b005b6000600154905090565b6100ec610389565b73ffffffffffffffffffffffffffffffffffffffff1661010a610268565b73ffffffffffffffffffffffffffffffffffffffff1614610160576040517f08c379a00000000000000000000000000000000000000000000000000000000081526004016101579061069e565b60405180910390fd5b61019f6040518060400160405280600981526020017f76616c75653a202573000000000000000000000000000000000000000000000081525082610391565b806001819055507f93fe6d397c74fdf1402a8b72e47b68512f0510d7b98a4bc4cbdf6ac7108b3c59816040516101d591906106be565b60405180910390a150565b6101e8610389565b73ffffffffffffffffffffffffffffffffffffffff16610206610268565b73ffffffffffffffffffffffffffffffffffffffff161461025c576040517f08c379a00000000000000000000000000000000000000000000000000000000081526004016102539061069e565b60405180910390fd5b610266600061042d565b565b60008060009054906101000a900473ffffffffffffffffffffffffffffffffffffffff16905090565b610299610389565b73ffffffffffffffffffffffffffffffffffffffff166102b7610268565b73ffffffffffffffffffffffffffffffffffffffff161461030d576040517f08c379a00000000000000000000000000000000000000000000000000000000081526004016103049061069e565b60405180910390fd5b600073ffffffffffffffffffffffffffffffffffffffff168173ffffffffffffffffffffffffffffffffffffffff16141561037d576040517f08c379a00000000000000000000000000000000000000000000000000000000081526004016103749061067e565b60405180910390fd5b6103868161042d565b50565b600033905090565b61042982826040516024016103a792919061064e565b6040516020818303038152906040527f9710a9d0000000000000000000000000000000000000000000000000000000007bffffffffffffffffffffffffffffffffffffffffffffffffffffffff19166020820180517bffffffffffffffffffffffffffffffffffffffffffffffffffffffff83818316178352505050506104f1565b5050565b60008060009054906101000a900473ffffffffffffffffffffffffffffffffffffffff169050816000806101000a81548173ffffffffffffffffffffffffffffffffffffffff021916908373ffffffffffffffffffffffffffffffffffffffff1602179055508173ffffffffffffffffffffffffffffffffffffffff168173ffffffffffffffffffffffffffffffffffffffff167f8be0079c531659141344cd1fd0a4f28419497f9722a3daafe3b4186f6b6457e060405160405180910390a35050565b60008151905060006a636f6e736f6c652e6c6f679050602083016000808483855afa5050505050565b600081359050610529816107ed565b92915050565b60008135905061053e81610804565b92915050565b60006020828403121561055657600080fd5b60006105648482850161051a565b91505092915050565b60006020828403121561057f57600080fd5b600061058d8482850161052f565b91505092915050565b61059f816106f5565b82525050565b60006105b0826106d9565b6105ba81856106e4565b93506105ca818560208601610731565b6105d381610764565b840191505092915050565b60006105eb6026836106e4565b91506105f682610775565b604082019050919050565b600061060e6020836106e4565b9150610619826107c4565b602082019050919050565b61062d81610727565b82525050565b60006020820190506106486000830184610596565b92915050565b6000604082019050818103600083015261066881856105a5565b90506106776020830184610624565b9392505050565b60006020820190508181036000830152610697816105de565b9050919050565b600060208201905081810360008301526106b781610601565b9050919050565b60006020820190506106d36000830184610624565b92915050565b600081519050919050565b600082825260208201905092915050565b600061070082610707565b9050919050565b600073ffffffffffffffffffffffffffffffffffffffff82169050919050565b6000819050919050565b60005b8381101561074f578082015181840152602081019050610734565b8381111561075e576000848401525b50505050565b6000601f19601f8301169050919050565b7f4f776e61626c653a206e6577206f776e657220697320746865207a65726f206160008201527f6464726573730000000000000000000000000000000000000000000000000000602082015250565b7f4f776e61626c653a2063616c6c6572206973206e6f7420746865206f776e6572600082015250565b6107f6816106f5565b811461080157600080fd5b50565b61080d81610727565b811461081857600080fd5b5056fea264697066735822122090c675093e572d7c7e20d75000dfff1e4504c842a54aee352e8f81f40e9cdcdd64736f6c63430008040033",
  "linkReferences": {},
  "deployedLinkReferences": {}
}