{
	"data": {
		"bytecode": {
			"linkReferences": {},
			"object": "608060405260018060006101000a81548160ff02191690831515021790555034801561002a57600080fd5b506102288061003a6000396000f3fe608060405234801561001057600080fd5b50600436106100575760003560e01c80634df7e3d01461005c5780634e70b1dc1461007a57806360fe47b1146100985780636d4ce63c146100b4578063f3d33cf4146100d2575b600080fd5b6100646100f0565b604051610071919061018f565b60405180910390f35b610082610103565b60405161008f91906101aa565b60405180910390f35b6100b260048036038101906100ad9190610148565b610109565b005b6100bc610113565b6040516100c991906101aa565b60405180910390f35b6100da61011c565b6040516100e7919061018f565b60405180910390f35b600160009054906101000a900460ff1681565b60005481565b8060008190555050565b60008054905090565b6000600160009054906101000a900460ff16905090565b600081359050610142816101db565b92915050565b60006020828403121561015a57600080fd5b600061016884828501610133565b91505092915050565b61017a816101c5565b82525050565b610189816101d1565b82525050565b60006020820190506101a46000830184610171565b92915050565b60006020820190506101bf6000830184610180565b92915050565b60008115159050919050565b6000819050919050565b6101e4816101d1565b81146101ef57600080fd5b5056fea264697066735822122020874a3cc19ea9691216fdf664aacecaddd052ba764973370a6c20f94b578c2764736f6c63430008040033",
			"opcodes": "PUSH1 0x80 PUSH1 0x40 MSTORE PUSH1 0x1 DUP1 PUSH1 0x0 PUSH2 0x100 EXP DUP2 SLOAD DUP2 PUSH1 0xFF MUL NOT AND SWAP1 DUP4 ISZERO ISZERO MUL OR SWAP1 SSTORE POP CALLVALUE DUP1 ISZERO PUSH2 0x2A JUMPI PUSH1 0x0 DUP1 REVERT JUMPDEST POP PUSH2 0x228 DUP1 PUSH2 0x3A PUSH1 0x0 CODECOPY PUSH1 0x0 RETURN INVALID PUSH1 0x80 PUSH1 0x40 MSTORE CALLVALUE DUP1 ISZERO PUSH2 0x10 JUMPI PUSH1 0x0 DUP1 REVERT JUMPDEST POP PUSH1 0x4 CALLDATASIZE LT PUSH2 0x57 JUMPI PUSH1 0x0 CALLDATALOAD PUSH1 0xE0 SHR DUP1 PUSH4 0x4DF7E3D0 EQ PUSH2 0x5C JUMPI DUP1 PUSH4 0x4E70B1DC EQ PUSH2 0x7A JUMPI DUP1 PUSH4 0x60FE47B1 EQ PUSH2 0x98 JUMPI DUP1 PUSH4 0x6D4CE63C EQ PUSH2 0xB4 JUMPI DUP1 PUSH4 0xF3D33CF4 EQ PUSH2 0xD2 JUMPI JUMPDEST PUSH1 0x0 DUP1 REVERT JUMPDEST PUSH2 0x64 PUSH2 0xF0 JUMP JUMPDEST PUSH1 0x40 MLOAD PUSH2 0x71 SWAP2 SWAP1 PUSH2 0x18F JUMP JUMPDEST PUSH1 0x40 MLOAD DUP1 SWAP2 SUB SWAP1 RETURN JUMPDEST PUSH2 0x82 PUSH2 0x103 JUMP JUMPDEST PUSH1 0x40 MLOAD PUSH2 0x8F SWAP2 SWAP1 PUSH2 0x1AA JUMP JUMPDEST PUSH1 0x40 MLOAD DUP1 SWAP2 SUB SWAP1 RETURN JUMPDEST PUSH2 0xB2 PUSH1 0x4 DUP1 CALLDATASIZE SUB DUP2 ADD SWAP1 PUSH2 0xAD SWAP2 SWAP1 PUSH2 0x148 JUMP JUMPDEST PUSH2 0x109 JUMP JUMPDEST STOP JUMPDEST PUSH2 0xBC PUSH2 0x113 JUMP JUMPDEST PUSH1 0x40 MLOAD PUSH2 0xC9 SWAP2 SWAP1 PUSH2 0x1AA JUMP JUMPDEST PUSH1 0x40 MLOAD DUP1 SWAP2 SUB SWAP1 RETURN JUMPDEST PUSH2 0xDA PUSH2 0x11C JUMP JUMPDEST PUSH1 0x40 MLOAD PUSH2 0xE7 SWAP2 SWAP1 PUSH2 0x18F JUMP JUMPDEST PUSH1 0x40 MLOAD DUP1 SWAP2 SUB SWAP1 RETURN JUMPDEST PUSH1 0x1 PUSH1 0x0 SWAP1 SLOAD SWAP1 PUSH2 0x100 EXP SWAP1 DIV PUSH1 0xFF AND DUP2 JUMP JUMPDEST PUSH1 0x0 SLOAD DUP2 JUMP JUMPDEST DUP1 PUSH1 0x0 DUP2 SWAP1 SSTORE POP POP JUMP JUMPDEST PUSH1 0x0 DUP1 SLOAD SWAP1 POP SWAP1 JUMP JUMPDEST PUSH1 0x0 PUSH1 0x1 PUSH1 0x0 SWAP1 SLOAD SWAP1 PUSH2 0x100 EXP SWAP1 DIV PUSH1 0xFF AND SWAP1 POP SWAP1 JUMP JUMPDEST PUSH1 0x0 DUP2 CALLDATALOAD SWAP1 POP PUSH2 0x142 DUP2 PUSH2 0x1DB JUMP JUMPDEST SWAP3 SWAP2 POP POP JUMP JUMPDEST PUSH1 0x0 PUSH1 0x20 DUP3 DUP5 SUB SLT ISZERO PUSH2 0x15A JUMPI PUSH1 0x0 DUP1 REVERT JUMPDEST PUSH1 0x0 PUSH2 0x168 DUP5 DUP3 DUP6 ADD PUSH2 0x133 JUMP JUMPDEST SWAP2 POP POP SWAP3 SWAP2 POP POP JUMP JUMPDEST PUSH2 0x17A DUP2 PUSH2 0x1C5 JUMP JUMPDEST DUP3 MSTORE POP POP JUMP JUMPDEST PUSH2 0x189 DUP2 PUSH2 0x1D1 JUMP JUMPDEST DUP3 MSTORE POP POP JUMP JUMPDEST PUSH1 0x0 PUSH1 0x20 DUP3 ADD SWAP1 POP PUSH2 0x1A4 PUSH1 0x0 DUP4 ADD DUP5 PUSH2 0x171 JUMP JUMPDEST SWAP3 SWAP2 POP POP JUMP JUMPDEST PUSH1 0x0 PUSH1 0x20 DUP3 ADD SWAP1 POP PUSH2 0x1BF PUSH1 0x0 DUP4 ADD DUP5 PUSH2 0x180 JUMP JUMPDEST SWAP3 SWAP2 POP POP JUMP JUMPDEST PUSH1 0x0 DUP2 ISZERO ISZERO SWAP1 POP SWAP2 SWAP1 POP JUMP JUMPDEST PUSH1 0x0 DUP2 SWAP1 POP SWAP2 SWAP1 POP JUMP JUMPDEST PUSH2 0x1E4 DUP2 PUSH2 0x1D1 JUMP JUMPDEST DUP2 EQ PUSH2 0x1EF JUMPI PUSH1 0x0 DUP1 REVERT JUMPDEST POP JUMP INVALID LOG2 PUSH5 0x6970667358 0x22 SLT KECCAK256 KECCAK256 DUP8 0x4A EXTCODECOPY 0xC1 SWAP15 0xA9 PUSH10 0x1216FDF664AACECADDD0 MSTORE 0xBA PUSH23 0x4973370A6C20F94B578C2764736F6C6343000804003300 "
		},
		"gasEstimates": {
			"creation": {
				"codeDepositCost": "110400",
				"executionCost": "21026",
				"totalCost": "131426"
			},
			"external": {
				"b()": "1149",
				"get()": "1181",
				"get_b()": "1245",
				"num()": "1129",
				"set(uint256)": "20442"
			}
		},
		"methodIdentifiers": {
			"b()": "4df7e3d0",
			"get()": "6d4ce63c",
			"get_b()": "f3d33cf4",
			"num()": "4e70b1dc",
			"set(uint256)": "60fe47b1"
		}
	},
	"abi": [
		{
			"inputs": [],
			"name": "b",
			"outputs": [
				{
					"internalType": "bool",
					"name": "",
					"type": "bool"
				}
			],
			"stateMutability": "view",
			"type": "function"
		},
		{
			"inputs": [],
			"name": "get",
			"outputs": [
				{
					"internalType": "uint256",
					"name": "",
					"type": "uint256"
				}
			],
			"stateMutability": "view",
			"type": "function"
		},
		{
			"inputs": [],
			"name": "get_b",
			"outputs": [
				{
					"internalType": "bool",
					"name": "",
					"type": "bool"
				}
			],
			"stateMutability": "view",
			"type": "function"
		},
		{
			"inputs": [],
			"name": "num",
			"outputs": [
				{
					"internalType": "uint256",
					"name": "",
					"type": "uint256"
				}
			],
			"stateMutability": "view",
			"type": "function"
		},
		{
			"inputs": [
				{
					"internalType": "uint256",
					"name": "_num",
					"type": "uint256"
				}
			],
			"name": "set",
			"outputs": [],
			"stateMutability": "nonpayable",
			"type": "function"
		}
	]
}