{
	".learneth/Solidity Beginner Course/5.2 Functions - View and Pure/viewAndPure_answer.sol": {
		"ViewAndPure": {
			"abi": [
				{
					"inputs": [
						{
							"internalType": "uint256",
							"name": "i",
							"type": "uint256"
						},
						{
							"internalType": "uint256",
							"name": "j",
							"type": "uint256"
						}
					],
					"name": "add",
					"outputs": [
						{
							"internalType": "uint256",
							"name": "",
							"type": "uint256"
						}
					],
					"stateMutability": "pure",
					"type": "function"
				},
				{
					"inputs": [
						{
							"internalType": "uint256",
							"name": "y",
							"type": "uint256"
						}
					],
					"name": "addToX",
					"outputs": [
						{
							"internalType": "uint256",
							"name": "",
							"type": "uint256"
						}
					],
					"stateMutability": "view",
					"type": "function"
				},
				{
					"inputs": [
						{
							"internalType": "uint256",
							"name": "y",
							"type": "uint256"
						}
					],
					"name": "addToX2",
					"outputs": [],
					"stateMutability": "nonpayable",
					"type": "function"
				},
				{
					"inputs": [],
					"name": "x",
					"outputs": [
						{
							"internalType": "uint256",
							"name": "",
							"type": "uint256"
						}
					],
					"stateMutability": "view",
					"type": "function"
				}
			],
			"devdoc": {
				"kind": "dev",
				"methods": {},
				"version": 1
			},
			"evm": {
				"assembly": "    /* \".learneth/Solidity Beginner Course/5.2 Functions - View and Pure/viewAndPure_answer.sol\":57:442  contract ViewAndPure {... */\n  mstore(0x40, 0x80)\n    /* \".learneth/Solidity Beginner Course/5.2 Functions - View and Pure/viewAndPure_answer.sol\":100:101  1 */\n  0x01\n    /* \".learneth/Solidity Beginner Course/5.2 Functions - View and Pure/viewAndPure_answer.sol\":84:101  uint public x = 1 */\n  0x00\n  sstore\n    /* \".learneth/Solidity Beginner Course/5.2 Functions - View and Pure/viewAndPure_answer.sol\":57:442  contract ViewAndPure {... */\n  callvalue\n  dup1\n  iszero\n  tag_1\n  jumpi\n  0x00\n  dup1\n  revert\ntag_1:\n  pop\n  dataSize(sub_0)\n  dup1\n  dataOffset(sub_0)\n  0x00\n  codecopy\n  0x00\n  return\nstop\n\nsub_0: assembly {\n        /* \".learneth/Solidity Beginner Course/5.2 Functions - View and Pure/viewAndPure_answer.sol\":57:442  contract ViewAndPure {... */\n      mstore(0x40, 0x80)\n      callvalue\n      dup1\n      iszero\n      tag_1\n      jumpi\n      0x00\n      dup1\n      revert\n    tag_1:\n      pop\n      jumpi(tag_2, lt(calldatasize, 0x04))\n      shr(0xe0, calldataload(0x00))\n      dup1\n      0x0c55699c\n      eq\n      tag_3\n      jumpi\n      dup1\n      0x5965da77\n      eq\n      tag_4\n      jumpi\n      dup1\n      0x771602f7\n      eq\n      tag_5\n      jumpi\n      dup1\n      0xfe39fe8e\n      eq\n      tag_6\n      jumpi\n    tag_2:\n      0x00\n      dup1\n      revert\n        /* \".learneth/Solidity Beginner Course/5.2 Functions - View and Pure/viewAndPure_answer.sol\":84:101  uint public x = 1 */\n    tag_3:\n      tag_7\n      tag_8\n      jump\t// in\n    tag_7:\n      mload(0x40)\n      tag_9\n      swap2\n      swap1\n      tag_10\n      jump\t// in\n    tag_9:\n      mload(0x40)\n      dup1\n      swap2\n      sub\n      swap1\n      return\n        /* \".learneth/Solidity Beginner Course/5.2 Functions - View and Pure/viewAndPure_answer.sol\":148:228  function addToX(uint y) public view returns (uint) {... */\n    tag_4:\n      tag_11\n      0x04\n      dup1\n      calldatasize\n      sub\n      dup2\n      add\n      swap1\n      tag_12\n      swap2\n      swap1\n      tag_13\n      jump\t// in\n    tag_12:\n      tag_14\n      jump\t// in\n    tag_11:\n      mload(0x40)\n      tag_15\n      swap2\n      swap1\n      tag_10\n      jump\t// in\n    tag_15:\n      mload(0x40)\n      dup1\n      swap2\n      sub\n      swap1\n      return\n        /* \".learneth/Solidity Beginner Course/5.2 Functions - View and Pure/viewAndPure_answer.sol\":287:372  function add(uint i, uint j) public pure returns (uint) {... */\n    tag_5:\n      tag_16\n      0x04\n      dup1\n      calldatasize\n      sub\n      dup2\n      add\n      swap1\n      tag_17\n      swap2\n      swap1\n      tag_18\n      jump\t// in\n    tag_17:\n      tag_19\n      jump\t// in\n    tag_16:\n      mload(0x40)\n      tag_20\n      swap2\n      swap1\n      tag_10\n      jump\t// in\n    tag_20:\n      mload(0x40)\n      dup1\n      swap2\n      sub\n      swap1\n      return\n        /* \".learneth/Solidity Beginner Course/5.2 Functions - View and Pure/viewAndPure_answer.sol\":382:440  function addToX2(uint y) public {... */\n    tag_6:\n      tag_21\n      0x04\n      dup1\n      calldatasize\n      sub\n      dup2\n      add\n      swap1\n      tag_22\n      swap2\n      swap1\n      tag_13\n      jump\t// in\n    tag_22:\n      tag_23\n      jump\t// in\n    tag_21:\n      stop\n        /* \".learneth/Solidity Beginner Course/5.2 Functions - View and Pure/viewAndPure_answer.sol\":84:101  uint public x = 1 */\n    tag_8:\n      sload(0x00)\n      dup2\n      jump\t// out\n        /* \".learneth/Solidity Beginner Course/5.2 Functions - View and Pure/viewAndPure_answer.sol\":148:228  function addToX(uint y) public view returns (uint) {... */\n    tag_14:\n        /* \".learneth/Solidity Beginner Course/5.2 Functions - View and Pure/viewAndPure_answer.sol\":193:197  uint */\n      0x00\n        /* \".learneth/Solidity Beginner Course/5.2 Functions - View and Pure/viewAndPure_answer.sol\":220:221  y */\n      dup2\n        /* \".learneth/Solidity Beginner Course/5.2 Functions - View and Pure/viewAndPure_answer.sol\":216:217  x */\n      sload(0x00)\n        /* \".learneth/Solidity Beginner Course/5.2 Functions - View and Pure/viewAndPure_answer.sol\":216:221  x + y */\n      tag_25\n      swap2\n      swap1\n      tag_26\n      jump\t// in\n    tag_25:\n        /* \".learneth/Solidity Beginner Course/5.2 Functions - View and Pure/viewAndPure_answer.sol\":209:221  return x + y */\n      swap1\n      pop\n        /* \".learneth/Solidity Beginner Course/5.2 Functions - View and Pure/viewAndPure_answer.sol\":148:228  function addToX(uint y) public view returns (uint) {... */\n      swap2\n      swap1\n      pop\n      jump\t// out\n        /* \".learneth/Solidity Beginner Course/5.2 Functions - View and Pure/viewAndPure_answer.sol\":287:372  function add(uint i, uint j) public pure returns (uint) {... */\n    tag_19:\n        /* \".learneth/Solidity Beginner Course/5.2 Functions - View and Pure/viewAndPure_answer.sol\":337:341  uint */\n      0x00\n        /* \".learneth/Solidity Beginner Course/5.2 Functions - View and Pure/viewAndPure_answer.sol\":364:365  j */\n      dup2\n        /* \".learneth/Solidity Beginner Course/5.2 Functions - View and Pure/viewAndPure_answer.sol\":360:361  i */\n      dup4\n        /* \".learneth/Solidity Beginner Course/5.2 Functions - View and Pure/viewAndPure_answer.sol\":360:365  i + j */\n      tag_28\n      swap2\n      swap1\n      tag_26\n      jump\t// in\n    tag_28:\n        /* \".learneth/Solidity Beginner Course/5.2 Functions - View and Pure/viewAndPure_answer.sol\":353:365  return i + j */\n      swap1\n      pop\n        /* \".learneth/Solidity Beginner Course/5.2 Functions - View and Pure/viewAndPure_answer.sol\":287:372  function add(uint i, uint j) public pure returns (uint) {... */\n      swap3\n      swap2\n      pop\n      pop\n      jump\t// out\n        /* \".learneth/Solidity Beginner Course/5.2 Functions - View and Pure/viewAndPure_answer.sol\":382:440  function addToX2(uint y) public {... */\n    tag_23:\n        /* \".learneth/Solidity Beginner Course/5.2 Functions - View and Pure/viewAndPure_answer.sol\":432:433  y */\n      dup1\n        /* \".learneth/Solidity Beginner Course/5.2 Functions - View and Pure/viewAndPure_answer.sol\":428:429  x */\n      sload(0x00)\n        /* \".learneth/Solidity Beginner Course/5.2 Functions - View and Pure/viewAndPure_answer.sol\":428:433  x + y */\n      tag_30\n      swap2\n      swap1\n      tag_26\n      jump\t// in\n    tag_30:\n        /* \".learneth/Solidity Beginner Course/5.2 Functions - View and Pure/viewAndPure_answer.sol\":424:425  x */\n      0x00\n        /* \".learneth/Solidity Beginner Course/5.2 Functions - View and Pure/viewAndPure_answer.sol\":424:433  x = x + y */\n      dup2\n      swap1\n      sstore\n      pop\n        /* \".learneth/Solidity Beginner Course/5.2 Functions - View and Pure/viewAndPure_answer.sol\":382:440  function addToX2(uint y) public {... */\n      pop\n      jump\t// out\n        /* \"#utility.yul\":7:146   */\n    tag_32:\n        /* \"#utility.yul\":53:58   */\n      0x00\n        /* \"#utility.yul\":91:97   */\n      dup2\n        /* \"#utility.yul\":78:98   */\n      calldataload\n        /* \"#utility.yul\":69:98   */\n      swap1\n      pop\n        /* \"#utility.yul\":107:140   */\n      tag_34\n        /* \"#utility.yul\":134:139   */\n      dup2\n        /* \"#utility.yul\":107:140   */\n      tag_35\n      jump\t// in\n    tag_34:\n        /* \"#utility.yul\":59:146   */\n      swap3\n      swap2\n      pop\n      pop\n      jump\t// out\n        /* \"#utility.yul\":152:414   */\n    tag_13:\n        /* \"#utility.yul\":211:217   */\n      0x00\n        /* \"#utility.yul\":260:262   */\n      0x20\n        /* \"#utility.yul\":248:257   */\n      dup3\n        /* \"#utility.yul\":239:246   */\n      dup5\n        /* \"#utility.yul\":235:258   */\n      sub\n        /* \"#utility.yul\":231:263   */\n      slt\n        /* \"#utility.yul\":228:230   */\n      iszero\n      tag_37\n      jumpi\n        /* \"#utility.yul\":276:277   */\n      0x00\n        /* \"#utility.yul\":273:274   */\n      dup1\n        /* \"#utility.yul\":266:278   */\n      revert\n        /* \"#utility.yul\":228:230   */\n    tag_37:\n        /* \"#utility.yul\":319:320   */\n      0x00\n        /* \"#utility.yul\":344:397   */\n      tag_38\n        /* \"#utility.yul\":389:396   */\n      dup5\n        /* \"#utility.yul\":380:386   */\n      dup3\n        /* \"#utility.yul\":369:378   */\n      dup6\n        /* \"#utility.yul\":365:387   */\n      add\n        /* \"#utility.yul\":344:397   */\n      tag_32\n      jump\t// in\n    tag_38:\n        /* \"#utility.yul\":334:397   */\n      swap2\n      pop\n        /* \"#utility.yul\":290:407   */\n      pop\n        /* \"#utility.yul\":218:414   */\n      swap3\n      swap2\n      pop\n      pop\n      jump\t// out\n        /* \"#utility.yul\":420:827   */\n    tag_18:\n        /* \"#utility.yul\":488:494   */\n      0x00\n        /* \"#utility.yul\":496:502   */\n      dup1\n        /* \"#utility.yul\":545:547   */\n      0x40\n        /* \"#utility.yul\":533:542   */\n      dup4\n        /* \"#utility.yul\":524:531   */\n      dup6\n        /* \"#utility.yul\":520:543   */\n      sub\n        /* \"#utility.yul\":516:548   */\n      slt\n        /* \"#utility.yul\":513:515   */\n      iszero\n      tag_40\n      jumpi\n        /* \"#utility.yul\":561:562   */\n      0x00\n        /* \"#utility.yul\":558:559   */\n      dup1\n        /* \"#utility.yul\":551:563   */\n      revert\n        /* \"#utility.yul\":513:515   */\n    tag_40:\n        /* \"#utility.yul\":604:605   */\n      0x00\n        /* \"#utility.yul\":629:682   */\n      tag_41\n        /* \"#utility.yul\":674:681   */\n      dup6\n        /* \"#utility.yul\":665:671   */\n      dup3\n        /* \"#utility.yul\":654:663   */\n      dup7\n        /* \"#utility.yul\":650:672   */\n      add\n        /* \"#utility.yul\":629:682   */\n      tag_32\n      jump\t// in\n    tag_41:\n        /* \"#utility.yul\":619:682   */\n      swap3\n      pop\n        /* \"#utility.yul\":575:692   */\n      pop\n        /* \"#utility.yul\":731:733   */\n      0x20\n        /* \"#utility.yul\":757:810   */\n      tag_42\n        /* \"#utility.yul\":802:809   */\n      dup6\n        /* \"#utility.yul\":793:799   */\n      dup3\n        /* \"#utility.yul\":782:791   */\n      dup7\n        /* \"#utility.yul\":778:800   */\n      add\n        /* \"#utility.yul\":757:810   */\n      tag_32\n      jump\t// in\n    tag_42:\n        /* \"#utility.yul\":747:810   */\n      swap2\n      pop\n        /* \"#utility.yul\":702:820   */\n      pop\n        /* \"#utility.yul\":503:827   */\n      swap3\n      pop\n      swap3\n      swap1\n      pop\n      jump\t// out\n        /* \"#utility.yul\":833:951   */\n    tag_43:\n        /* \"#utility.yul\":920:944   */\n      tag_45\n        /* \"#utility.yul\":938:943   */\n      dup2\n        /* \"#utility.yul\":920:944   */\n      tag_46\n      jump\t// in\n    tag_45:\n        /* \"#utility.yul\":915:918   */\n      dup3\n        /* \"#utility.yul\":908:945   */\n      mstore\n        /* \"#utility.yul\":898:951   */\n      pop\n      pop\n      jump\t// out\n        /* \"#utility.yul\":957:1179   */\n    tag_10:\n        /* \"#utility.yul\":1050:1054   */\n      0x00\n        /* \"#utility.yul\":1088:1090   */\n      0x20\n        /* \"#utility.yul\":1077:1086   */\n      dup3\n        /* \"#utility.yul\":1073:1091   */\n      add\n        /* \"#utility.yul\":1065:1091   */\n      swap1\n      pop\n        /* \"#utility.yul\":1101:1172   */\n      tag_48\n        /* \"#utility.yul\":1169:1170   */\n      0x00\n        /* \"#utility.yul\":1158:1167   */\n      dup4\n        /* \"#utility.yul\":1154:1171   */\n      add\n        /* \"#utility.yul\":1145:1151   */\n      dup5\n        /* \"#utility.yul\":1101:1172   */\n      tag_43\n      jump\t// in\n    tag_48:\n        /* \"#utility.yul\":1055:1179   */\n      swap3\n      swap2\n      pop\n      pop\n      jump\t// out\n        /* \"#utility.yul\":1185:1490   */\n    tag_26:\n        /* \"#utility.yul\":1225:1228   */\n      0x00\n        /* \"#utility.yul\":1244:1264   */\n      tag_50\n        /* \"#utility.yul\":1262:1263   */\n      dup3\n        /* \"#utility.yul\":1244:1264   */\n      tag_46\n      jump\t// in\n    tag_50:\n        /* \"#utility.yul\":1239:1264   */\n      swap2\n      pop\n        /* \"#utility.yul\":1278:1298   */\n      tag_51\n        /* \"#utility.yul\":1296:1297   */\n      dup4\n        /* \"#utility.yul\":1278:1298   */\n      tag_46\n      jump\t// in\n    tag_51:\n        /* \"#utility.yul\":1273:1298   */\n      swap3\n      pop\n        /* \"#utility.yul\":1432:1433   */\n      dup3\n        /* \"#utility.yul\":1364:1430   */\n      0xffffffffffffffffffffffffffffffffffffffffffffffffffffffffffffffff\n        /* \"#utility.yul\":1360:1434   */\n      sub\n        /* \"#utility.yul\":1357:1358   */\n      dup3\n        /* \"#utility.yul\":1354:1435   */\n      gt\n        /* \"#utility.yul\":1351:1353   */\n      iszero\n      tag_52\n      jumpi\n        /* \"#utility.yul\":1438:1456   */\n      tag_53\n      tag_54\n      jump\t// in\n    tag_53:\n        /* \"#utility.yul\":1351:1353   */\n    tag_52:\n        /* \"#utility.yul\":1482:1483   */\n      dup3\n        /* \"#utility.yul\":1479:1480   */\n      dup3\n        /* \"#utility.yul\":1475:1484   */\n      add\n        /* \"#utility.yul\":1468:1484   */\n      swap1\n      pop\n        /* \"#utility.yul\":1229:1490   */\n      swap3\n      swap2\n      pop\n      pop\n      jump\t// out\n        /* \"#utility.yul\":1496:1573   */\n    tag_46:\n        /* \"#utility.yul\":1533:1540   */\n      0x00\n        /* \"#utility.yul\":1562:1567   */\n      dup2\n        /* \"#utility.yul\":1551:1567   */\n      swap1\n      pop\n        /* \"#utility.yul\":1541:1573   */\n      swap2\n      swap1\n      pop\n      jump\t// out\n        /* \"#utility.yul\":1579:1759   */\n    tag_54:\n        /* \"#utility.yul\":1627:1704   */\n      0x4e487b7100000000000000000000000000000000000000000000000000000000\n        /* \"#utility.yul\":1624:1625   */\n      0x00\n        /* \"#utility.yul\":1617:1705   */\n      mstore\n        /* \"#utility.yul\":1724:1728   */\n      0x11\n        /* \"#utility.yul\":1721:1722   */\n      0x04\n        /* \"#utility.yul\":1714:1729   */\n      mstore\n        /* \"#utility.yul\":1748:1752   */\n      0x24\n        /* \"#utility.yul\":1745:1746   */\n      0x00\n        /* \"#utility.yul\":1738:1753   */\n      revert\n        /* \"#utility.yul\":1765:1887   */\n    tag_35:\n        /* \"#utility.yul\":1838:1862   */\n      tag_58\n        /* \"#utility.yul\":1856:1861   */\n      dup2\n        /* \"#utility.yul\":1838:1862   */\n      tag_46\n      jump\t// in\n    tag_58:\n        /* \"#utility.yul\":1831:1836   */\n      dup2\n        /* \"#utility.yul\":1828:1863   */\n      eq\n        /* \"#utility.yul\":1818:1820   */\n      tag_59\n      jumpi\n        /* \"#utility.yul\":1877:1878   */\n      0x00\n        /* \"#utility.yul\":1874:1875   */\n      dup1\n        /* \"#utility.yul\":1867:1879   */\n      revert\n        /* \"#utility.yul\":1818:1820   */\n    tag_59:\n        /* \"#utility.yul\":1808:1887   */\n      pop\n      jump\t// out\n\n    auxdata: 0xa26469706673582212200e2d92b2ed3091b73fabc18d8b93de578a03c6b7cf54d9137d5ba5bd344ba0e664736f6c63430008040033\n}\n",
				"bytecode": {
					"linkReferences": {},
					"object": "6080604052600160005534801561001557600080fd5b506102b5806100256000396000f3fe608060405234801561001057600080fd5b506004361061004c5760003560e01c80630c55699c146100515780635965da771461006f578063771602f71461009f578063fe39fe8e146100cf575b600080fd5b6100596100eb565b60405161006691906101be565b60405180910390f35b6100896004803603810190610084919061014a565b6100f1565b60405161009691906101be565b60405180910390f35b6100b960048036038101906100b49190610173565b610108565b6040516100c691906101be565b60405180910390f35b6100e960048036038101906100e4919061014a565b61011e565b005b60005481565b60008160005461010191906101d9565b9050919050565b6000818361011691906101d9565b905092915050565b8060005461012c91906101d9565b60008190555050565b60008135905061014481610268565b92915050565b60006020828403121561015c57600080fd5b600061016a84828501610135565b91505092915050565b6000806040838503121561018657600080fd5b600061019485828601610135565b92505060206101a585828601610135565b9150509250929050565b6101b88161022f565b82525050565b60006020820190506101d360008301846101af565b92915050565b60006101e48261022f565b91506101ef8361022f565b9250827fffffffffffffffffffffffffffffffffffffffffffffffffffffffffffffffff0382111561022457610223610239565b5b828201905092915050565b6000819050919050565b7f4e487b7100000000000000000000000000000000000000000000000000000000600052601160045260246000fd5b6102718161022f565b811461027c57600080fd5b5056fea26469706673582212200e2d92b2ed3091b73fabc18d8b93de578a03c6b7cf54d9137d5ba5bd344ba0e664736f6c63430008040033",
					"opcodes": "PUSH1 0x80 PUSH1 0x40 MSTORE PUSH1 0x1 PUSH1 0x0 SSTORE CALLVALUE DUP1 ISZERO PUSH2 0x15 JUMPI PUSH1 0x0 DUP1 REVERT JUMPDEST POP PUSH2 0x2B5 DUP1 PUSH2 0x25 PUSH1 0x0 CODECOPY PUSH1 0x0 RETURN INVALID PUSH1 0x80 PUSH1 0x40 MSTORE CALLVALUE DUP1 ISZERO PUSH2 0x10 JUMPI PUSH1 0x0 DUP1 REVERT JUMPDEST POP PUSH1 0x4 CALLDATASIZE LT PUSH2 0x4C JUMPI PUSH1 0x0 CALLDATALOAD PUSH1 0xE0 SHR DUP1 PUSH4 0xC55699C EQ PUSH2 0x51 JUMPI DUP1 PUSH4 0x5965DA77 EQ PUSH2 0x6F JUMPI DUP1 PUSH4 0x771602F7 EQ PUSH2 0x9F JUMPI DUP1 PUSH4 0xFE39FE8E EQ PUSH2 0xCF JUMPI JUMPDEST PUSH1 0x0 DUP1 REVERT JUMPDEST PUSH2 0x59 PUSH2 0xEB JUMP JUMPDEST PUSH1 0x40 MLOAD PUSH2 0x66 SWAP2 SWAP1 PUSH2 0x1BE JUMP JUMPDEST PUSH1 0x40 MLOAD DUP1 SWAP2 SUB SWAP1 RETURN JUMPDEST PUSH2 0x89 PUSH1 0x4 DUP1 CALLDATASIZE SUB DUP2 ADD SWAP1 PUSH2 0x84 SWAP2 SWAP1 PUSH2 0x14A JUMP JUMPDEST PUSH2 0xF1 JUMP JUMPDEST PUSH1 0x40 MLOAD PUSH2 0x96 SWAP2 SWAP1 PUSH2 0x1BE JUMP JUMPDEST PUSH1 0x40 MLOAD DUP1 SWAP2 SUB SWAP1 RETURN JUMPDEST PUSH2 0xB9 PUSH1 0x4 DUP1 CALLDATASIZE SUB DUP2 ADD SWAP1 PUSH2 0xB4 SWAP2 SWAP1 PUSH2 0x173 JUMP JUMPDEST PUSH2 0x108 JUMP JUMPDEST PUSH1 0x40 MLOAD PUSH2 0xC6 SWAP2 SWAP1 PUSH2 0x1BE JUMP JUMPDEST PUSH1 0x40 MLOAD DUP1 SWAP2 SUB SWAP1 RETURN JUMPDEST PUSH2 0xE9 PUSH1 0x4 DUP1 CALLDATASIZE SUB DUP2 ADD SWAP1 PUSH2 0xE4 SWAP2 SWAP1 PUSH2 0x14A JUMP JUMPDEST PUSH2 0x11E JUMP JUMPDEST STOP JUMPDEST PUSH1 0x0 SLOAD DUP2 JUMP JUMPDEST PUSH1 0x0 DUP2 PUSH1 0x0 SLOAD PUSH2 0x101 SWAP2 SWAP1 PUSH2 0x1D9 JUMP JUMPDEST SWAP1 POP SWAP2 SWAP1 POP JUMP JUMPDEST PUSH1 0x0 DUP2 DUP4 PUSH2 0x116 SWAP2 SWAP1 PUSH2 0x1D9 JUMP JUMPDEST SWAP1 POP SWAP3 SWAP2 POP POP JUMP JUMPDEST DUP1 PUSH1 0x0 SLOAD PUSH2 0x12C SWAP2 SWAP1 PUSH2 0x1D9 JUMP JUMPDEST PUSH1 0x0 DUP2 SWAP1 SSTORE POP POP JUMP JUMPDEST PUSH1 0x0 DUP2 CALLDATALOAD SWAP1 POP PUSH2 0x144 DUP2 PUSH2 0x268 JUMP JUMPDEST SWAP3 SWAP2 POP POP JUMP JUMPDEST PUSH1 0x0 PUSH1 0x20 DUP3 DUP5 SUB SLT ISZERO PUSH2 0x15C JUMPI PUSH1 0x0 DUP1 REVERT JUMPDEST PUSH1 0x0 PUSH2 0x16A DUP5 DUP3 DUP6 ADD PUSH2 0x135 JUMP JUMPDEST SWAP2 POP POP SWAP3 SWAP2 POP POP JUMP JUMPDEST PUSH1 0x0 DUP1 PUSH1 0x40 DUP4 DUP6 SUB SLT ISZERO PUSH2 0x186 JUMPI PUSH1 0x0 DUP1 REVERT JUMPDEST PUSH1 0x0 PUSH2 0x194 DUP6 DUP3 DUP7 ADD PUSH2 0x135 JUMP JUMPDEST SWAP3 POP POP PUSH1 0x20 PUSH2 0x1A5 DUP6 DUP3 DUP7 ADD PUSH2 0x135 JUMP JUMPDEST SWAP2 POP POP SWAP3 POP SWAP3 SWAP1 POP JUMP JUMPDEST PUSH2 0x1B8 DUP2 PUSH2 0x22F JUMP JUMPDEST DUP3 MSTORE POP POP JUMP JUMPDEST PUSH1 0x0 PUSH1 0x20 DUP3 ADD SWAP1 POP PUSH2 0x1D3 PUSH1 0x0 DUP4 ADD DUP5 PUSH2 0x1AF JUMP JUMPDEST SWAP3 SWAP2 POP POP JUMP JUMPDEST PUSH1 0x0 PUSH2 0x1E4 DUP3 PUSH2 0x22F JUMP JUMPDEST SWAP2 POP PUSH2 0x1EF DUP4 PUSH2 0x22F JUMP JUMPDEST SWAP3 POP DUP3 PUSH32 0xFFFFFFFFFFFFFFFFFFFFFFFFFFFFFFFFFFFFFFFFFFFFFFFFFFFFFFFFFFFFFFFF SUB DUP3 GT ISZERO PUSH2 0x224 JUMPI PUSH2 0x223 PUSH2 0x239 JUMP JUMPDEST JUMPDEST DUP3 DUP3 ADD SWAP1 POP SWAP3 SWAP2 POP POP JUMP JUMPDEST PUSH1 0x0 DUP2 SWAP1 POP SWAP2 SWAP1 POP JUMP JUMPDEST PUSH32 0x4E487B7100000000000000000000000000000000000000000000000000000000 PUSH1 0x0 MSTORE PUSH1 0x11 PUSH1 0x4 MSTORE PUSH1 0x24 PUSH1 0x0 REVERT JUMPDEST PUSH2 0x271 DUP2 PUSH2 0x22F JUMP JUMPDEST DUP2 EQ PUSH2 0x27C JUMPI PUSH1 0x0 DUP1 REVERT JUMPDEST POP JUMP INVALID LOG2 PUSH5 0x6970667358 0x22 SLT KECCAK256 0xE 0x2D SWAP3 0xB2 0xED ADDRESS SWAP2 0xB7 EXTCODEHASH 0xAB 0xC1 DUP14 DUP12 SWAP4 0xDE JUMPI DUP11 SUB 0xC6 0xB7 0xCF SLOAD 0xD9 SGT PUSH30 0x5BA5BD344BA0E664736F6C63430008040033000000000000000000000000 "
				},
				"gasEstimates": {
					"creation": {
						"codeDepositCost": "138600",
						"executionCost": "20189",
						"totalCost": "158789"
					},
					"external": {
						"add(uint256,uint256)": "infinite",
						"addToX(uint256)": "infinite",
						"addToX2(uint256)": "infinite",
						"x()": "1107"
					}
				},
				"methodIdentifiers": {
					"add(uint256,uint256)": "771602f7",
					"addToX(uint256)": "5965da77",
					"addToX2(uint256)": "fe39fe8e",
					"x()": "0c55699c"
				}
			},
			"userdoc": {
				"kind": "user",
				"methods": {},
				"version": 1
			}
		}
	}
}