{
	".learneth/Solidity Beginner Course/5.4 Functions - Inputs and Outputs/inputsAndOutputs_answer.sol": {
		"Function": {
			"abi": [
				{
					"inputs": [
						{
							"internalType": "uint256",
							"name": "",
							"type": "uint256"
						}
					],
					"name": "arr",
					"outputs": [
						{
							"internalType": "uint256",
							"name": "",
							"type": "uint256"
						}
					],
					"stateMutability": "view",
					"type": "function"
				},
				{
					"inputs": [
						{
							"internalType": "uint256[]",
							"name": "_arr",
							"type": "uint256[]"
						}
					],
					"name": "arrayInput",
					"outputs": [],
					"stateMutability": "nonpayable",
					"type": "function"
				},
				{
					"inputs": [],
					"name": "arrayOutput",
					"outputs": [
						{
							"internalType": "uint256[]",
							"name": "",
							"type": "uint256[]"
						}
					],
					"stateMutability": "view",
					"type": "function"
				},
				{
					"inputs": [],
					"name": "assigned",
					"outputs": [
						{
							"internalType": "uint256",
							"name": "x",
							"type": "uint256"
						},
						{
							"internalType": "bool",
							"name": "b",
							"type": "bool"
						},
						{
							"internalType": "uint256",
							"name": "y",
							"type": "uint256"
						}
					],
					"stateMutability": "pure",
					"type": "function"
				},
				{
					"inputs": [],
					"name": "destructingAssigments",
					"outputs": [
						{
							"internalType": "uint256",
							"name": "",
							"type": "uint256"
						},
						{
							"internalType": "bool",
							"name": "",
							"type": "bool"
						},
						{
							"internalType": "uint256",
							"name": "",
							"type": "uint256"
						},
						{
							"internalType": "uint256",
							"name": "",
							"type": "uint256"
						},
						{
							"internalType": "uint256",
							"name": "",
							"type": "uint256"
						}
					],
					"stateMutability": "pure",
					"type": "function"
				},
				{
					"inputs": [],
					"name": "named",
					"outputs": [
						{
							"internalType": "uint256",
							"name": "x",
							"type": "uint256"
						},
						{
							"internalType": "bool",
							"name": "b",
							"type": "bool"
						},
						{
							"internalType": "uint256",
							"name": "y",
							"type": "uint256"
						}
					],
					"stateMutability": "pure",
					"type": "function"
				},
				{
					"inputs": [],
					"name": "returnMany",
					"outputs": [
						{
							"internalType": "uint256",
							"name": "",
							"type": "uint256"
						},
						{
							"internalType": "bool",
							"name": "",
							"type": "bool"
						},
						{
							"internalType": "uint256",
							"name": "",
							"type": "uint256"
						}
					],
					"stateMutability": "pure",
					"type": "function"
				},
				{
					"inputs": [],
					"name": "returnTwo",
					"outputs": [
						{
							"internalType": "int256",
							"name": "i",
							"type": "int256"
						},
						{
							"internalType": "bool",
							"name": "b",
							"type": "bool"
						}
					],
					"stateMutability": "pure",
					"type": "function"
				}
			],
			"devdoc": {
				"kind": "dev",
				"methods": {},
				"version": 1
			},
			"evm": {
				"assembly": "    /* \".learneth/Solidity Beginner Course/5.4 Functions - Inputs and Outputs/inputsAndOutputs_answer.sol\":57:1735  contract Function {... */\n  mstore(0x40, 0x80)\n  callvalue\n  dup1\n  iszero\n  tag_1\n  jumpi\n  0x00\n  dup1\n  revert\ntag_1:\n  pop\n  dataSize(sub_0)\n  dup1\n  dataOffset(sub_0)\n  0x00\n  codecopy\n  0x00\n  return\nstop\n\nsub_0: assembly {\n        /* \".learneth/Solidity Beginner Course/5.4 Functions - Inputs and Outputs/inputsAndOutputs_answer.sol\":57:1735  contract Function {... */\n      mstore(0x40, 0x80)\n      callvalue\n      dup1\n      iszero\n      tag_1\n      jumpi\n      0x00\n      dup1\n      revert\n    tag_1:\n      pop\n      jumpi(tag_2, lt(calldatasize, 0x04))\n      shr(0xe0, calldataload(0x00))\n      dup1\n      0x86887544\n      gt\n      tag_11\n      jumpi\n      dup1\n      0x86887544\n      eq\n      tag_7\n      jumpi\n      dup1\n      0x946e182c\n      eq\n      tag_8\n      jumpi\n      dup1\n      0xadb4d990\n      eq\n      tag_9\n      jumpi\n      dup1\n      0xf4bb6e6b\n      eq\n      tag_10\n      jumpi\n      jump(tag_2)\n    tag_11:\n      dup1\n      0x1990532b\n      eq\n      tag_3\n      jumpi\n      dup1\n      0x45f907a8\n      eq\n      tag_4\n      jumpi\n      dup1\n      0x53a6aadb\n      eq\n      tag_5\n      jumpi\n      dup1\n      0x71e5ee5f\n      eq\n      tag_6\n      jumpi\n    tag_2:\n      0x00\n      dup1\n      revert\n        /* \".learneth/Solidity Beginner Course/5.4 Functions - Inputs and Outputs/inputsAndOutputs_answer.sol\":1473:1559  function arrayOutput() public view returns (uint[] memory) {... */\n    tag_3:\n      tag_12\n      tag_13\n      jump\t// in\n    tag_12:\n      mload(0x40)\n      tag_14\n      swap2\n      swap1\n      tag_15\n      jump\t// in\n    tag_14:\n      mload(0x40)\n      dup1\n      swap2\n      sub\n      swap1\n      return\n        /* \".learneth/Solidity Beginner Course/5.4 Functions - Inputs and Outputs/inputsAndOutputs_answer.sol\":338:510  function named()... */\n    tag_4:\n      tag_16\n      tag_17\n      jump\t// in\n    tag_16:\n      mload(0x40)\n      tag_18\n      swap4\n      swap3\n      swap2\n      swap1\n      tag_19\n      jump\t// in\n    tag_18:\n      mload(0x40)\n      dup1\n      swap2\n      sub\n      swap1\n      return\n        /* \".learneth/Solidity Beginner Course/5.4 Functions - Inputs and Outputs/inputsAndOutputs_answer.sol\":926:1273  function destructingAssigments()... */\n    tag_5:\n      tag_20\n      tag_21\n      jump\t// in\n    tag_20:\n      mload(0x40)\n      tag_22\n      swap6\n      swap5\n      swap4\n      swap3\n      swap2\n      swap1\n      tag_23\n      jump\t// in\n    tag_22:\n      mload(0x40)\n      dup1\n      swap2\n      sub\n      swap1\n      return\n        /* \".learneth/Solidity Beginner Course/5.4 Functions - Inputs and Outputs/inputsAndOutputs_answer.sol\":1449:1466  uint[] public arr */\n    tag_6:\n      tag_24\n      0x04\n      dup1\n      calldatasize\n      sub\n      dup2\n      add\n      swap1\n      tag_25\n      swap2\n      swap1\n      tag_26\n      jump\t// in\n    tag_25:\n      tag_27\n      jump\t// in\n    tag_24:\n      mload(0x40)\n      tag_28\n      swap2\n      swap1\n      tag_29\n      jump\t// in\n    tag_28:\n      mload(0x40)\n      dup1\n      swap2\n      sub\n      swap1\n      return\n        /* \".learneth/Solidity Beginner Course/5.4 Functions - Inputs and Outputs/inputsAndOutputs_answer.sol\":126:297  function returnMany()... */\n    tag_7:\n      tag_30\n      tag_31\n      jump\t// in\n    tag_30:\n      mload(0x40)\n      tag_32\n      swap4\n      swap3\n      swap2\n      swap1\n      tag_19\n      jump\t// in\n    tag_32:\n      mload(0x40)\n      dup1\n      swap2\n      sub\n      swap1\n      return\n        /* \".learneth/Solidity Beginner Course/5.4 Functions - Inputs and Outputs/inputsAndOutputs_answer.sol\":1569:1733  function returnTwo() ... */\n    tag_8:\n      tag_33\n      tag_34\n      jump\t// in\n    tag_33:\n      mload(0x40)\n      tag_35\n      swap3\n      swap2\n      swap1\n      tag_36\n      jump\t// in\n    tag_35:\n      mload(0x40)\n      dup1\n      swap2\n      sub\n      swap1\n      return\n        /* \".learneth/Solidity Beginner Course/5.4 Functions - Inputs and Outputs/inputsAndOutputs_answer.sol\":625:819  function assigned()... */\n    tag_9:\n      tag_37\n      tag_38\n      jump\t// in\n    tag_37:\n      mload(0x40)\n      tag_39\n      swap4\n      swap3\n      swap2\n      swap1\n      tag_19\n      jump\t// in\n    tag_39:\n      mload(0x40)\n      dup1\n      swap2\n      sub\n      swap1\n      return\n        /* \".learneth/Solidity Beginner Course/5.4 Functions - Inputs and Outputs/inputsAndOutputs_answer.sol\":1362:1411  function arrayInput(uint[] memory _arr) public {} */\n    tag_10:\n      tag_40\n      0x04\n      dup1\n      calldatasize\n      sub\n      dup2\n      add\n      swap1\n      tag_41\n      swap2\n      swap1\n      tag_42\n      jump\t// in\n    tag_41:\n      tag_43\n      jump\t// in\n    tag_40:\n      stop\n        /* \".learneth/Solidity Beginner Course/5.4 Functions - Inputs and Outputs/inputsAndOutputs_answer.sol\":1473:1559  function arrayOutput() public view returns (uint[] memory) {... */\n    tag_13:\n        /* \".learneth/Solidity Beginner Course/5.4 Functions - Inputs and Outputs/inputsAndOutputs_answer.sol\":1517:1530  uint[] memory */\n      0x60\n        /* \".learneth/Solidity Beginner Course/5.4 Functions - Inputs and Outputs/inputsAndOutputs_answer.sol\":1549:1552  arr */\n      0x00\n        /* \".learneth/Solidity Beginner Course/5.4 Functions - Inputs and Outputs/inputsAndOutputs_answer.sol\":1542:1552  return arr */\n      dup1\n      sload\n      dup1\n      0x20\n      mul\n      0x20\n      add\n      mload(0x40)\n      swap1\n      dup2\n      add\n      0x40\n      mstore\n      dup1\n      swap3\n      swap2\n      swap1\n      dup2\n      dup2\n      mstore\n      0x20\n      add\n      dup3\n      dup1\n      sload\n      dup1\n      iszero\n      tag_45\n      jumpi\n      0x20\n      mul\n      dup3\n      add\n      swap2\n      swap1\n      0x00\n      mstore\n      keccak256(0x00, 0x20)\n      swap1\n    tag_46:\n      dup2\n      sload\n      dup2\n      mstore\n      0x20\n      add\n      swap1\n      0x01\n      add\n      swap1\n      dup1\n      dup4\n      gt\n      tag_46\n      jumpi\n    tag_45:\n      pop\n      pop\n      pop\n      pop\n      pop\n      swap1\n      pop\n        /* \".learneth/Solidity Beginner Course/5.4 Functions - Inputs and Outputs/inputsAndOutputs_answer.sol\":1473:1559  function arrayOutput() public view returns (uint[] memory) {... */\n      swap1\n      jump\t// out\n        /* \".learneth/Solidity Beginner Course/5.4 Functions - Inputs and Outputs/inputsAndOutputs_answer.sol\":338:510  function named()... */\n    tag_17:\n        /* \".learneth/Solidity Beginner Course/5.4 Functions - Inputs and Outputs/inputsAndOutputs_answer.sol\":413:419  uint x */\n      0x00\n        /* \".learneth/Solidity Beginner Course/5.4 Functions - Inputs and Outputs/inputsAndOutputs_answer.sol\":433:439  bool b */\n      dup1\n        /* \".learneth/Solidity Beginner Course/5.4 Functions - Inputs and Outputs/inputsAndOutputs_answer.sol\":453:459  uint y */\n      0x00\n        /* \".learneth/Solidity Beginner Course/5.4 Functions - Inputs and Outputs/inputsAndOutputs_answer.sol\":492:493  1 */\n      0x01\n        /* \".learneth/Solidity Beginner Course/5.4 Functions - Inputs and Outputs/inputsAndOutputs_answer.sol\":495:499  true */\n      dup1\n        /* \".learneth/Solidity Beginner Course/5.4 Functions - Inputs and Outputs/inputsAndOutputs_answer.sol\":501:502  2 */\n      0x02\n        /* \".learneth/Solidity Beginner Course/5.4 Functions - Inputs and Outputs/inputsAndOutputs_answer.sol\":484:503  return (1, true, 2) */\n      swap3\n      pop\n      swap3\n      pop\n      swap3\n      pop\n        /* \".learneth/Solidity Beginner Course/5.4 Functions - Inputs and Outputs/inputsAndOutputs_answer.sol\":338:510  function named()... */\n      swap1\n      swap2\n      swap3\n      jump\t// out\n        /* \".learneth/Solidity Beginner Course/5.4 Functions - Inputs and Outputs/inputsAndOutputs_answer.sol\":926:1273  function destructingAssigments()... */\n    tag_21:\n        /* \".learneth/Solidity Beginner Course/5.4 Functions - Inputs and Outputs/inputsAndOutputs_answer.sol\":1017:1021  uint */\n      0x00\n        /* \".learneth/Solidity Beginner Course/5.4 Functions - Inputs and Outputs/inputsAndOutputs_answer.sol\":1035:1039  bool */\n      dup1\n        /* \".learneth/Solidity Beginner Course/5.4 Functions - Inputs and Outputs/inputsAndOutputs_answer.sol\":1053:1057  uint */\n      0x00\n        /* \".learneth/Solidity Beginner Course/5.4 Functions - Inputs and Outputs/inputsAndOutputs_answer.sol\":1071:1075  uint */\n      dup1\n        /* \".learneth/Solidity Beginner Course/5.4 Functions - Inputs and Outputs/inputsAndOutputs_answer.sol\":1089:1093  uint */\n      0x00\n        /* \".learneth/Solidity Beginner Course/5.4 Functions - Inputs and Outputs/inputsAndOutputs_answer.sol\":1119:1125  uint i */\n      dup1\n        /* \".learneth/Solidity Beginner Course/5.4 Functions - Inputs and Outputs/inputsAndOutputs_answer.sol\":1127:1133  bool b */\n      0x00\n        /* \".learneth/Solidity Beginner Course/5.4 Functions - Inputs and Outputs/inputsAndOutputs_answer.sol\":1135:1141  uint j */\n      dup1\n        /* \".learneth/Solidity Beginner Course/5.4 Functions - Inputs and Outputs/inputsAndOutputs_answer.sol\":1145:1157  returnMany() */\n      tag_49\n        /* \".learneth/Solidity Beginner Course/5.4 Functions - Inputs and Outputs/inputsAndOutputs_answer.sol\":1145:1155  returnMany */\n      tag_31\n        /* \".learneth/Solidity Beginner Course/5.4 Functions - Inputs and Outputs/inputsAndOutputs_answer.sol\":1145:1157  returnMany() */\n      jump\t// in\n    tag_49:\n        /* \".learneth/Solidity Beginner Course/5.4 Functions - Inputs and Outputs/inputsAndOutputs_answer.sol\":1118:1157  (uint i, bool b, uint j) = returnMany() */\n      swap3\n      pop\n      swap3\n      pop\n      swap3\n      pop\n        /* \".learneth/Solidity Beginner Course/5.4 Functions - Inputs and Outputs/inputsAndOutputs_answer.sol\":1204:1210  uint x */\n      0x00\n        /* \".learneth/Solidity Beginner Course/5.4 Functions - Inputs and Outputs/inputsAndOutputs_answer.sol\":1214:1220  uint y */\n      dup1\n        /* \".learneth/Solidity Beginner Course/5.4 Functions - Inputs and Outputs/inputsAndOutputs_answer.sol\":1225:1226  4 */\n      0x04\n        /* \".learneth/Solidity Beginner Course/5.4 Functions - Inputs and Outputs/inputsAndOutputs_answer.sol\":1228:1229  5 */\n      0x05\n        /* \".learneth/Solidity Beginner Course/5.4 Functions - Inputs and Outputs/inputsAndOutputs_answer.sol\":1231:1232  6 */\n      0x06\n        /* \".learneth/Solidity Beginner Course/5.4 Functions - Inputs and Outputs/inputsAndOutputs_answer.sol\":1203:1233  (uint x, , uint y) = (4, 5, 6) */\n      swap3\n      pop\n      pop\n      swap2\n      pop\n        /* \".learneth/Solidity Beginner Course/5.4 Functions - Inputs and Outputs/inputsAndOutputs_answer.sol\":1252:1253  i */\n      dup5\n        /* \".learneth/Solidity Beginner Course/5.4 Functions - Inputs and Outputs/inputsAndOutputs_answer.sol\":1255:1256  b */\n      dup5\n        /* \".learneth/Solidity Beginner Course/5.4 Functions - Inputs and Outputs/inputsAndOutputs_answer.sol\":1258:1259  j */\n      dup5\n        /* \".learneth/Solidity Beginner Course/5.4 Functions - Inputs and Outputs/inputsAndOutputs_answer.sol\":1261:1262  x */\n      dup5\n        /* \".learneth/Solidity Beginner Course/5.4 Functions - Inputs and Outputs/inputsAndOutputs_answer.sol\":1264:1265  y */\n      dup5\n        /* \".learneth/Solidity Beginner Course/5.4 Functions - Inputs and Outputs/inputsAndOutputs_answer.sol\":1244:1266  return (i, b, j, x, y) */\n      swap10\n      pop\n      swap10\n      pop\n      swap10\n      pop\n      swap10\n      pop\n      swap10\n      pop\n      pop\n      pop\n      pop\n      pop\n      pop\n        /* \".learneth/Solidity Beginner Course/5.4 Functions - Inputs and Outputs/inputsAndOutputs_answer.sol\":926:1273  function destructingAssigments()... */\n      swap1\n      swap2\n      swap3\n      swap4\n      swap5\n      jump\t// out\n        /* \".learneth/Solidity Beginner Course/5.4 Functions - Inputs and Outputs/inputsAndOutputs_answer.sol\":1449:1466  uint[] public arr */\n    tag_27:\n      0x00\n      dup2\n      dup2\n      sload\n      dup2\n      lt\n      tag_50\n      jumpi\n      0x00\n      dup1\n      revert\n    tag_50:\n      swap1\n      0x00\n      mstore\n      keccak256(0x00, 0x20)\n      add\n      0x00\n      swap2\n      pop\n      swap1\n      pop\n      sload\n      dup2\n      jump\t// out\n        /* \".learneth/Solidity Beginner Course/5.4 Functions - Inputs and Outputs/inputsAndOutputs_answer.sol\":126:297  function returnMany()... */\n    tag_31:\n        /* \".learneth/Solidity Beginner Course/5.4 Functions - Inputs and Outputs/inputsAndOutputs_answer.sol\":206:210  uint */\n      0x00\n        /* \".learneth/Solidity Beginner Course/5.4 Functions - Inputs and Outputs/inputsAndOutputs_answer.sol\":224:228  bool */\n      dup1\n        /* \".learneth/Solidity Beginner Course/5.4 Functions - Inputs and Outputs/inputsAndOutputs_answer.sol\":242:246  uint */\n      0x00\n        /* \".learneth/Solidity Beginner Course/5.4 Functions - Inputs and Outputs/inputsAndOutputs_answer.sol\":279:280  1 */\n      0x01\n        /* \".learneth/Solidity Beginner Course/5.4 Functions - Inputs and Outputs/inputsAndOutputs_answer.sol\":282:286  true */\n      dup1\n        /* \".learneth/Solidity Beginner Course/5.4 Functions - Inputs and Outputs/inputsAndOutputs_answer.sol\":288:289  2 */\n      0x02\n        /* \".learneth/Solidity Beginner Course/5.4 Functions - Inputs and Outputs/inputsAndOutputs_answer.sol\":271:290  return (1, true, 2) */\n      swap3\n      pop\n      swap3\n      pop\n      swap3\n      pop\n        /* \".learneth/Solidity Beginner Course/5.4 Functions - Inputs and Outputs/inputsAndOutputs_answer.sol\":126:297  function returnMany()... */\n      swap1\n      swap2\n      swap3\n      jump\t// out\n        /* \".learneth/Solidity Beginner Course/5.4 Functions - Inputs and Outputs/inputsAndOutputs_answer.sol\":1569:1733  function returnTwo() ... */\n    tag_34:\n        /* \".learneth/Solidity Beginner Course/5.4 Functions - Inputs and Outputs/inputsAndOutputs_answer.sol\":1651:1656  int i */\n      0x00\n        /* \".learneth/Solidity Beginner Course/5.4 Functions - Inputs and Outputs/inputsAndOutputs_answer.sol\":1670:1676  bool b */\n      dup1\n        /* \".learneth/Solidity Beginner Course/5.4 Functions - Inputs and Outputs/inputsAndOutputs_answer.sol\":1706:1708  -2 */\n      0xfffffffffffffffffffffffffffffffffffffffffffffffffffffffffffffffe\n        /* \".learneth/Solidity Beginner Course/5.4 Functions - Inputs and Outputs/inputsAndOutputs_answer.sol\":1702:1708  i = -2 */\n      swap2\n      pop\n        /* \".learneth/Solidity Beginner Course/5.4 Functions - Inputs and Outputs/inputsAndOutputs_answer.sol\":1722:1726  true */\n      0x01\n        /* \".learneth/Solidity Beginner Course/5.4 Functions - Inputs and Outputs/inputsAndOutputs_answer.sol\":1718:1726  b = true */\n      swap1\n      pop\n        /* \".learneth/Solidity Beginner Course/5.4 Functions - Inputs and Outputs/inputsAndOutputs_answer.sol\":1569:1733  function returnTwo() ... */\n      swap1\n      swap2\n      jump\t// out\n        /* \".learneth/Solidity Beginner Course/5.4 Functions - Inputs and Outputs/inputsAndOutputs_answer.sol\":625:819  function assigned()... */\n    tag_38:\n        /* \".learneth/Solidity Beginner Course/5.4 Functions - Inputs and Outputs/inputsAndOutputs_answer.sol\":703:709  uint x */\n      0x00\n        /* \".learneth/Solidity Beginner Course/5.4 Functions - Inputs and Outputs/inputsAndOutputs_answer.sol\":723:729  bool b */\n      dup1\n        /* \".learneth/Solidity Beginner Course/5.4 Functions - Inputs and Outputs/inputsAndOutputs_answer.sol\":743:749  uint y */\n      0x00\n        /* \".learneth/Solidity Beginner Course/5.4 Functions - Inputs and Outputs/inputsAndOutputs_answer.sol\":778:779  1 */\n      0x01\n        /* \".learneth/Solidity Beginner Course/5.4 Functions - Inputs and Outputs/inputsAndOutputs_answer.sol\":774:779  x = 1 */\n      swap3\n      pop\n        /* \".learneth/Solidity Beginner Course/5.4 Functions - Inputs and Outputs/inputsAndOutputs_answer.sol\":793:797  true */\n      0x01\n        /* \".learneth/Solidity Beginner Course/5.4 Functions - Inputs and Outputs/inputsAndOutputs_answer.sol\":789:797  b = true */\n      swap2\n      pop\n        /* \".learneth/Solidity Beginner Course/5.4 Functions - Inputs and Outputs/inputsAndOutputs_answer.sol\":811:812  2 */\n      0x02\n        /* \".learneth/Solidity Beginner Course/5.4 Functions - Inputs and Outputs/inputsAndOutputs_answer.sol\":807:812  y = 2 */\n      swap1\n      pop\n        /* \".learneth/Solidity Beginner Course/5.4 Functions - Inputs and Outputs/inputsAndOutputs_answer.sol\":625:819  function assigned()... */\n      swap1\n      swap2\n      swap3\n      jump\t// out\n        /* \".learneth/Solidity Beginner Course/5.4 Functions - Inputs and Outputs/inputsAndOutputs_answer.sol\":1362:1411  function arrayInput(uint[] memory _arr) public {} */\n    tag_43:\n      pop\n      jump\t// out\n        /* \"#utility.yul\":24:679   */\n    tag_57:\n        /* \"#utility.yul\":120:125   */\n      0x00\n        /* \"#utility.yul\":145:226   */\n      tag_59\n        /* \"#utility.yul\":161:225   */\n      tag_60\n        /* \"#utility.yul\":218:224   */\n      dup5\n        /* \"#utility.yul\":161:225   */\n      tag_61\n      jump\t// in\n    tag_60:\n        /* \"#utility.yul\":145:226   */\n      tag_62\n      jump\t// in\n    tag_59:\n        /* \"#utility.yul\":136:226   */\n      swap1\n      pop\n        /* \"#utility.yul\":246:251   */\n      dup1\n        /* \"#utility.yul\":275:281   */\n      dup4\n        /* \"#utility.yul\":268:273   */\n      dup3\n        /* \"#utility.yul\":261:282   */\n      mstore\n        /* \"#utility.yul\":309:313   */\n      0x20\n        /* \"#utility.yul\":302:307   */\n      dup3\n        /* \"#utility.yul\":298:314   */\n      add\n        /* \"#utility.yul\":291:314   */\n      swap1\n      pop\n        /* \"#utility.yul\":335:341   */\n      dup3\n        /* \"#utility.yul\":385:388   */\n      dup6\n        /* \"#utility.yul\":377:381   */\n      0x20\n        /* \"#utility.yul\":369:375   */\n      dup7\n        /* \"#utility.yul\":365:382   */\n      mul\n        /* \"#utility.yul\":360:363   */\n      dup3\n        /* \"#utility.yul\":356:383   */\n      add\n        /* \"#utility.yul\":353:389   */\n      gt\n        /* \"#utility.yul\":350:352   */\n      iszero\n      tag_63\n      jumpi\n        /* \"#utility.yul\":414:415   */\n      0x00\n        /* \"#utility.yul\":411:412   */\n      dup1\n        /* \"#utility.yul\":404:416   */\n      revert\n        /* \"#utility.yul\":350:352   */\n    tag_63:\n        /* \"#utility.yul\":450:451   */\n      0x00\n        /* \"#utility.yul\":435:673   */\n    tag_64:\n        /* \"#utility.yul\":460:466   */\n      dup6\n        /* \"#utility.yul\":457:458   */\n      dup2\n        /* \"#utility.yul\":454:467   */\n      lt\n        /* \"#utility.yul\":435:673   */\n      iszero\n      tag_66\n      jumpi\n        /* \"#utility.yul\":528:531   */\n      dup2\n        /* \"#utility.yul\":557:594   */\n      tag_67\n        /* \"#utility.yul\":590:593   */\n      dup9\n        /* \"#utility.yul\":578:588   */\n      dup3\n        /* \"#utility.yul\":557:594   */\n      tag_68\n      jump\t// in\n    tag_67:\n        /* \"#utility.yul\":552:555   */\n      dup5\n        /* \"#utility.yul\":545:595   */\n      mstore\n        /* \"#utility.yul\":624:628   */\n      0x20\n        /* \"#utility.yul\":619:622   */\n      dup5\n        /* \"#utility.yul\":615:629   */\n      add\n        /* \"#utility.yul\":608:629   */\n      swap4\n      pop\n        /* \"#utility.yul\":658:662   */\n      0x20\n        /* \"#utility.yul\":653:656   */\n      dup4\n        /* \"#utility.yul\":649:663   */\n      add\n        /* \"#utility.yul\":642:663   */\n      swap3\n      pop\n        /* \"#utility.yul\":495:673   */\n      pop\n        /* \"#utility.yul\":482:483   */\n      0x01\n        /* \"#utility.yul\":479:480   */\n      dup2\n        /* \"#utility.yul\":475:484   */\n      add\n        /* \"#utility.yul\":470:484   */\n      swap1\n      pop\n        /* \"#utility.yul\":435:673   */\n      jump(tag_64)\n    tag_66:\n        /* \"#utility.yul\":439:453   */\n      pop\n        /* \"#utility.yul\":126:679   */\n      pop\n      pop\n      swap4\n      swap3\n      pop\n      pop\n      pop\n      jump\t// out\n        /* \"#utility.yul\":702:1005   */\n    tag_69:\n        /* \"#utility.yul\":773:778   */\n      0x00\n        /* \"#utility.yul\":822:825   */\n      dup3\n        /* \"#utility.yul\":815:819   */\n      0x1f\n        /* \"#utility.yul\":807:813   */\n      dup4\n        /* \"#utility.yul\":803:820   */\n      add\n        /* \"#utility.yul\":799:826   */\n      slt\n        /* \"#utility.yul\":789:791   */\n      tag_71\n      jumpi\n        /* \"#utility.yul\":840:841   */\n      0x00\n        /* \"#utility.yul\":837:838   */\n      dup1\n        /* \"#utility.yul\":830:842   */\n      revert\n        /* \"#utility.yul\":789:791   */\n    tag_71:\n        /* \"#utility.yul\":880:886   */\n      dup2\n        /* \"#utility.yul\":867:887   */\n      calldataload\n        /* \"#utility.yul\":905:999   */\n      tag_72\n        /* \"#utility.yul\":995:998   */\n      dup5\n        /* \"#utility.yul\":987:993   */\n      dup3\n        /* \"#utility.yul\":980:984   */\n      0x20\n        /* \"#utility.yul\":972:978   */\n      dup7\n        /* \"#utility.yul\":968:985   */\n      add\n        /* \"#utility.yul\":905:999   */\n      tag_57\n      jump\t// in\n    tag_72:\n        /* \"#utility.yul\":896:999   */\n      swap2\n      pop\n        /* \"#utility.yul\":779:1005   */\n      pop\n      swap3\n      swap2\n      pop\n      pop\n      jump\t// out\n        /* \"#utility.yul\":1011:1150   */\n    tag_68:\n        /* \"#utility.yul\":1057:1062   */\n      0x00\n        /* \"#utility.yul\":1095:1101   */\n      dup2\n        /* \"#utility.yul\":1082:1102   */\n      calldataload\n        /* \"#utility.yul\":1073:1102   */\n      swap1\n      pop\n        /* \"#utility.yul\":1111:1144   */\n      tag_74\n        /* \"#utility.yul\":1138:1143   */\n      dup2\n        /* \"#utility.yul\":1111:1144   */\n      tag_75\n      jump\t// in\n    tag_74:\n        /* \"#utility.yul\":1063:1150   */\n      swap3\n      swap2\n      pop\n      pop\n      jump\t// out\n        /* \"#utility.yul\":1156:1561   */\n    tag_42:\n        /* \"#utility.yul\":1240:1246   */\n      0x00\n        /* \"#utility.yul\":1289:1291   */\n      0x20\n        /* \"#utility.yul\":1277:1286   */\n      dup3\n        /* \"#utility.yul\":1268:1275   */\n      dup5\n        /* \"#utility.yul\":1264:1287   */\n      sub\n        /* \"#utility.yul\":1260:1292   */\n      slt\n        /* \"#utility.yul\":1257:1259   */\n      iszero\n      tag_77\n      jumpi\n        /* \"#utility.yul\":1305:1306   */\n      0x00\n        /* \"#utility.yul\":1302:1303   */\n      dup1\n        /* \"#utility.yul\":1295:1307   */\n      revert\n        /* \"#utility.yul\":1257:1259   */\n    tag_77:\n        /* \"#utility.yul\":1376:1377   */\n      0x00\n        /* \"#utility.yul\":1365:1374   */\n      dup3\n        /* \"#utility.yul\":1361:1378   */\n      add\n        /* \"#utility.yul\":1348:1379   */\n      calldataload\n        /* \"#utility.yul\":1406:1424   */\n      0xffffffffffffffff\n        /* \"#utility.yul\":1398:1404   */\n      dup2\n        /* \"#utility.yul\":1395:1425   */\n      gt\n        /* \"#utility.yul\":1392:1394   */\n      iszero\n      tag_78\n      jumpi\n        /* \"#utility.yul\":1438:1439   */\n      0x00\n        /* \"#utility.yul\":1435:1436   */\n      dup1\n        /* \"#utility.yul\":1428:1440   */\n      revert\n        /* \"#utility.yul\":1392:1394   */\n    tag_78:\n        /* \"#utility.yul\":1466:1544   */\n      tag_79\n        /* \"#utility.yul\":1536:1543   */\n      dup5\n        /* \"#utility.yul\":1527:1533   */\n      dup3\n        /* \"#utility.yul\":1516:1525   */\n      dup6\n        /* \"#utility.yul\":1512:1534   */\n      add\n        /* \"#utility.yul\":1466:1544   */\n      tag_69\n      jump\t// in\n    tag_79:\n        /* \"#utility.yul\":1456:1544   */\n      swap2\n      pop\n        /* \"#utility.yul\":1319:1554   */\n      pop\n        /* \"#utility.yul\":1247:1561   */\n      swap3\n      swap2\n      pop\n      pop\n      jump\t// out\n        /* \"#utility.yul\":1567:1829   */\n    tag_26:\n        /* \"#utility.yul\":1626:1632   */\n      0x00\n        /* \"#utility.yul\":1675:1677   */\n      0x20\n        /* \"#utility.yul\":1663:1672   */\n      dup3\n        /* \"#utility.yul\":1654:1661   */\n      dup5\n        /* \"#utility.yul\":1650:1673   */\n      sub\n        /* \"#utility.yul\":1646:1678   */\n      slt\n        /* \"#utility.yul\":1643:1645   */\n      iszero\n      tag_81\n      jumpi\n        /* \"#utility.yul\":1691:1692   */\n      0x00\n        /* \"#utility.yul\":1688:1689   */\n      dup1\n        /* \"#utility.yul\":1681:1693   */\n      revert\n        /* \"#utility.yul\":1643:1645   */\n    tag_81:\n        /* \"#utility.yul\":1734:1735   */\n      0x00\n        /* \"#utility.yul\":1759:1812   */\n      tag_82\n        /* \"#utility.yul\":1804:1811   */\n      dup5\n        /* \"#utility.yul\":1795:1801   */\n      dup3\n        /* \"#utility.yul\":1784:1793   */\n      dup6\n        /* \"#utility.yul\":1780:1802   */\n      add\n        /* \"#utility.yul\":1759:1812   */\n      tag_68\n      jump\t// in\n    tag_82:\n        /* \"#utility.yul\":1749:1812   */\n      swap2\n      pop\n        /* \"#utility.yul\":1705:1822   */\n      pop\n        /* \"#utility.yul\":1633:1829   */\n      swap3\n      swap2\n      pop\n      pop\n      jump\t// out\n        /* \"#utility.yul\":1835:2014   */\n    tag_83:\n        /* \"#utility.yul\":1904:1914   */\n      0x00\n        /* \"#utility.yul\":1925:1971   */\n      tag_85\n        /* \"#utility.yul\":1967:1970   */\n      dup4\n        /* \"#utility.yul\":1959:1965   */\n      dup4\n        /* \"#utility.yul\":1925:1971   */\n      tag_86\n      jump\t// in\n    tag_85:\n        /* \"#utility.yul\":2003:2007   */\n      0x20\n        /* \"#utility.yul\":1998:2001   */\n      dup4\n        /* \"#utility.yul\":1994:2008   */\n      add\n        /* \"#utility.yul\":1980:2008   */\n      swap1\n      pop\n        /* \"#utility.yul\":1915:2014   */\n      swap3\n      swap2\n      pop\n      pop\n      jump\t// out\n        /* \"#utility.yul\":2050:2782   */\n    tag_87:\n        /* \"#utility.yul\":2169:2172   */\n      0x00\n        /* \"#utility.yul\":2198:2252   */\n      tag_89\n        /* \"#utility.yul\":2246:2251   */\n      dup3\n        /* \"#utility.yul\":2198:2252   */\n      tag_90\n      jump\t// in\n    tag_89:\n        /* \"#utility.yul\":2268:2354   */\n      tag_91\n        /* \"#utility.yul\":2347:2353   */\n      dup2\n        /* \"#utility.yul\":2342:2345   */\n      dup6\n        /* \"#utility.yul\":2268:2354   */\n      tag_92\n      jump\t// in\n    tag_91:\n        /* \"#utility.yul\":2261:2354   */\n      swap4\n      pop\n        /* \"#utility.yul\":2378:2434   */\n      tag_93\n        /* \"#utility.yul\":2428:2433   */\n      dup4\n        /* \"#utility.yul\":2378:2434   */\n      tag_94\n      jump\t// in\n    tag_93:\n        /* \"#utility.yul\":2457:2464   */\n      dup1\n        /* \"#utility.yul\":2488:2489   */\n      0x00\n        /* \"#utility.yul\":2473:2757   */\n    tag_95:\n        /* \"#utility.yul\":2498:2504   */\n      dup4\n        /* \"#utility.yul\":2495:2496   */\n      dup2\n        /* \"#utility.yul\":2492:2505   */\n      lt\n        /* \"#utility.yul\":2473:2757   */\n      iszero\n      tag_97\n      jumpi\n        /* \"#utility.yul\":2574:2580   */\n      dup2\n        /* \"#utility.yul\":2568:2581   */\n      mload\n        /* \"#utility.yul\":2601:2664   */\n      tag_98\n        /* \"#utility.yul\":2660:2663   */\n      dup9\n        /* \"#utility.yul\":2645:2658   */\n      dup3\n        /* \"#utility.yul\":2601:2664   */\n      tag_83\n      jump\t// in\n    tag_98:\n        /* \"#utility.yul\":2594:2664   */\n      swap8\n      pop\n        /* \"#utility.yul\":2687:2747   */\n      tag_99\n        /* \"#utility.yul\":2740:2746   */\n      dup4\n        /* \"#utility.yul\":2687:2747   */\n      tag_100\n      jump\t// in\n    tag_99:\n        /* \"#utility.yul\":2677:2747   */\n      swap3\n      pop\n        /* \"#utility.yul\":2533:2757   */\n      pop\n        /* \"#utility.yul\":2520:2521   */\n      0x01\n        /* \"#utility.yul\":2517:2518   */\n      dup2\n        /* \"#utility.yul\":2513:2522   */\n      add\n        /* \"#utility.yul\":2508:2522   */\n      swap1\n      pop\n        /* \"#utility.yul\":2473:2757   */\n      jump(tag_95)\n    tag_97:\n        /* \"#utility.yul\":2477:2491   */\n      pop\n        /* \"#utility.yul\":2773:2776   */\n      dup6\n        /* \"#utility.yul\":2766:2776   */\n      swap4\n      pop\n        /* \"#utility.yul\":2174:2782   */\n      pop\n      pop\n      pop\n      swap3\n      swap2\n      pop\n      pop\n      jump\t// out\n        /* \"#utility.yul\":2788:2897   */\n    tag_101:\n        /* \"#utility.yul\":2869:2890   */\n      tag_103\n        /* \"#utility.yul\":2884:2889   */\n      dup2\n        /* \"#utility.yul\":2869:2890   */\n      tag_104\n      jump\t// in\n    tag_103:\n        /* \"#utility.yul\":2864:2867   */\n      dup3\n        /* \"#utility.yul\":2857:2891   */\n      mstore\n        /* \"#utility.yul\":2847:2897   */\n      pop\n      pop\n      jump\t// out\n        /* \"#utility.yul\":2903:3018   */\n    tag_105:\n        /* \"#utility.yul\":2988:3011   */\n      tag_107\n        /* \"#utility.yul\":3005:3010   */\n      dup2\n        /* \"#utility.yul\":2988:3011   */\n      tag_108\n      jump\t// in\n    tag_107:\n        /* \"#utility.yul\":2983:2986   */\n      dup3\n        /* \"#utility.yul\":2976:3012   */\n      mstore\n        /* \"#utility.yul\":2966:3018   */\n      pop\n      pop\n      jump\t// out\n        /* \"#utility.yul\":3024:3132   */\n    tag_86:\n        /* \"#utility.yul\":3101:3125   */\n      tag_110\n        /* \"#utility.yul\":3119:3124   */\n      dup2\n        /* \"#utility.yul\":3101:3125   */\n      tag_111\n      jump\t// in\n    tag_110:\n        /* \"#utility.yul\":3096:3099   */\n      dup3\n        /* \"#utility.yul\":3089:3126   */\n      mstore\n        /* \"#utility.yul\":3079:3132   */\n      pop\n      pop\n      jump\t// out\n        /* \"#utility.yul\":3138:3256   */\n    tag_112:\n        /* \"#utility.yul\":3225:3249   */\n      tag_114\n        /* \"#utility.yul\":3243:3248   */\n      dup2\n        /* \"#utility.yul\":3225:3249   */\n      tag_111\n      jump\t// in\n    tag_114:\n        /* \"#utility.yul\":3220:3223   */\n      dup3\n        /* \"#utility.yul\":3213:3250   */\n      mstore\n        /* \"#utility.yul\":3203:3256   */\n      pop\n      pop\n      jump\t// out\n        /* \"#utility.yul\":3262:3635   */\n    tag_15:\n        /* \"#utility.yul\":3405:3409   */\n      0x00\n        /* \"#utility.yul\":3443:3445   */\n      0x20\n        /* \"#utility.yul\":3432:3441   */\n      dup3\n        /* \"#utility.yul\":3428:3446   */\n      add\n        /* \"#utility.yul\":3420:3446   */\n      swap1\n      pop\n        /* \"#utility.yul\":3492:3501   */\n      dup2\n        /* \"#utility.yul\":3486:3490   */\n      dup2\n        /* \"#utility.yul\":3482:3502   */\n      sub\n        /* \"#utility.yul\":3478:3479   */\n      0x00\n        /* \"#utility.yul\":3467:3476   */\n      dup4\n        /* \"#utility.yul\":3463:3480   */\n      add\n        /* \"#utility.yul\":3456:3503   */\n      mstore\n        /* \"#utility.yul\":3520:3628   */\n      tag_116\n        /* \"#utility.yul\":3623:3627   */\n      dup2\n        /* \"#utility.yul\":3614:3620   */\n      dup5\n        /* \"#utility.yul\":3520:3628   */\n      tag_87\n      jump\t// in\n    tag_116:\n        /* \"#utility.yul\":3512:3628   */\n      swap1\n      pop\n        /* \"#utility.yul\":3410:3635   */\n      swap3\n      swap2\n      pop\n      pop\n      jump\t// out\n        /* \"#utility.yul\":3641:3957   */\n    tag_36:\n        /* \"#utility.yul\":3754:3758   */\n      0x00\n        /* \"#utility.yul\":3792:3794   */\n      0x40\n        /* \"#utility.yul\":3781:3790   */\n      dup3\n        /* \"#utility.yul\":3777:3795   */\n      add\n        /* \"#utility.yul\":3769:3795   */\n      swap1\n      pop\n        /* \"#utility.yul\":3805:3874   */\n      tag_118\n        /* \"#utility.yul\":3871:3872   */\n      0x00\n        /* \"#utility.yul\":3860:3869   */\n      dup4\n        /* \"#utility.yul\":3856:3873   */\n      add\n        /* \"#utility.yul\":3847:3853   */\n      dup6\n        /* \"#utility.yul\":3805:3874   */\n      tag_105\n      jump\t// in\n    tag_118:\n        /* \"#utility.yul\":3884:3950   */\n      tag_119\n        /* \"#utility.yul\":3946:3948   */\n      0x20\n        /* \"#utility.yul\":3935:3944   */\n      dup4\n        /* \"#utility.yul\":3931:3949   */\n      add\n        /* \"#utility.yul\":3922:3928   */\n      dup5\n        /* \"#utility.yul\":3884:3950   */\n      tag_101\n      jump\t// in\n    tag_119:\n        /* \"#utility.yul\":3759:3957   */\n      swap4\n      swap3\n      pop\n      pop\n      pop\n      jump\t// out\n        /* \"#utility.yul\":3963:4185   */\n    tag_29:\n        /* \"#utility.yul\":4056:4060   */\n      0x00\n        /* \"#utility.yul\":4094:4096   */\n      0x20\n        /* \"#utility.yul\":4083:4092   */\n      dup3\n        /* \"#utility.yul\":4079:4097   */\n      add\n        /* \"#utility.yul\":4071:4097   */\n      swap1\n      pop\n        /* \"#utility.yul\":4107:4178   */\n      tag_121\n        /* \"#utility.yul\":4175:4176   */\n      0x00\n        /* \"#utility.yul\":4164:4173   */\n      dup4\n        /* \"#utility.yul\":4160:4177   */\n      add\n        /* \"#utility.yul\":4151:4157   */\n      dup5\n        /* \"#utility.yul\":4107:4178   */\n      tag_112\n      jump\t// in\n    tag_121:\n        /* \"#utility.yul\":4061:4185   */\n      swap3\n      swap2\n      pop\n      pop\n      jump\t// out\n        /* \"#utility.yul\":4191:4621   */\n    tag_19:\n        /* \"#utility.yul\":4334:4338   */\n      0x00\n        /* \"#utility.yul\":4372:4374   */\n      0x60\n        /* \"#utility.yul\":4361:4370   */\n      dup3\n        /* \"#utility.yul\":4357:4375   */\n      add\n        /* \"#utility.yul\":4349:4375   */\n      swap1\n      pop\n        /* \"#utility.yul\":4385:4456   */\n      tag_123\n        /* \"#utility.yul\":4453:4454   */\n      0x00\n        /* \"#utility.yul\":4442:4451   */\n      dup4\n        /* \"#utility.yul\":4438:4455   */\n      add\n        /* \"#utility.yul\":4429:4435   */\n      dup7\n        /* \"#utility.yul\":4385:4456   */\n      tag_112\n      jump\t// in\n    tag_123:\n        /* \"#utility.yul\":4466:4532   */\n      tag_124\n        /* \"#utility.yul\":4528:4530   */\n      0x20\n        /* \"#utility.yul\":4517:4526   */\n      dup4\n        /* \"#utility.yul\":4513:4531   */\n      add\n        /* \"#utility.yul\":4504:4510   */\n      dup6\n        /* \"#utility.yul\":4466:4532   */\n      tag_101\n      jump\t// in\n    tag_124:\n        /* \"#utility.yul\":4542:4614   */\n      tag_125\n        /* \"#utility.yul\":4610:4612   */\n      0x40\n        /* \"#utility.yul\":4599:4608   */\n      dup4\n        /* \"#utility.yul\":4595:4613   */\n      add\n        /* \"#utility.yul\":4586:4592   */\n      dup5\n        /* \"#utility.yul\":4542:4614   */\n      tag_112\n      jump\t// in\n    tag_125:\n        /* \"#utility.yul\":4339:4621   */\n      swap5\n      swap4\n      pop\n      pop\n      pop\n      pop\n      jump\t// out\n        /* \"#utility.yul\":4627:5279   */\n    tag_23:\n        /* \"#utility.yul\":4826:4830   */\n      0x00\n        /* \"#utility.yul\":4864:4867   */\n      0xa0\n        /* \"#utility.yul\":4853:4862   */\n      dup3\n        /* \"#utility.yul\":4849:4868   */\n      add\n        /* \"#utility.yul\":4841:4868   */\n      swap1\n      pop\n        /* \"#utility.yul\":4878:4949   */\n      tag_127\n        /* \"#utility.yul\":4946:4947   */\n      0x00\n        /* \"#utility.yul\":4935:4944   */\n      dup4\n        /* \"#utility.yul\":4931:4948   */\n      add\n        /* \"#utility.yul\":4922:4928   */\n      dup9\n        /* \"#utility.yul\":4878:4949   */\n      tag_112\n      jump\t// in\n    tag_127:\n        /* \"#utility.yul\":4959:5025   */\n      tag_128\n        /* \"#utility.yul\":5021:5023   */\n      0x20\n        /* \"#utility.yul\":5010:5019   */\n      dup4\n        /* \"#utility.yul\":5006:5024   */\n      add\n        /* \"#utility.yul\":4997:5003   */\n      dup8\n        /* \"#utility.yul\":4959:5025   */\n      tag_101\n      jump\t// in\n    tag_128:\n        /* \"#utility.yul\":5035:5107   */\n      tag_129\n        /* \"#utility.yul\":5103:5105   */\n      0x40\n        /* \"#utility.yul\":5092:5101   */\n      dup4\n        /* \"#utility.yul\":5088:5106   */\n      add\n        /* \"#utility.yul\":5079:5085   */\n      dup7\n        /* \"#utility.yul\":5035:5107   */\n      tag_112\n      jump\t// in\n    tag_129:\n        /* \"#utility.yul\":5117:5189   */\n      tag_130\n        /* \"#utility.yul\":5185:5187   */\n      0x60\n        /* \"#utility.yul\":5174:5183   */\n      dup4\n        /* \"#utility.yul\":5170:5188   */\n      add\n        /* \"#utility.yul\":5161:5167   */\n      dup6\n        /* \"#utility.yul\":5117:5189   */\n      tag_112\n      jump\t// in\n    tag_130:\n        /* \"#utility.yul\":5199:5272   */\n      tag_131\n        /* \"#utility.yul\":5267:5270   */\n      0x80\n        /* \"#utility.yul\":5256:5265   */\n      dup4\n        /* \"#utility.yul\":5252:5271   */\n      add\n        /* \"#utility.yul\":5243:5249   */\n      dup5\n        /* \"#utility.yul\":5199:5272   */\n      tag_112\n      jump\t// in\n    tag_131:\n        /* \"#utility.yul\":4831:5279   */\n      swap7\n      swap6\n      pop\n      pop\n      pop\n      pop\n      pop\n      pop\n      jump\t// out\n        /* \"#utility.yul\":5285:5414   */\n    tag_62:\n        /* \"#utility.yul\":5319:5325   */\n      0x00\n        /* \"#utility.yul\":5346:5366   */\n      tag_133\n      tag_134\n      jump\t// in\n    tag_133:\n        /* \"#utility.yul\":5336:5366   */\n      swap1\n      pop\n        /* \"#utility.yul\":5375:5408   */\n      tag_135\n        /* \"#utility.yul\":5403:5407   */\n      dup3\n        /* \"#utility.yul\":5395:5401   */\n      dup3\n        /* \"#utility.yul\":5375:5408   */\n      tag_136\n      jump\t// in\n    tag_135:\n        /* \"#utility.yul\":5326:5414   */\n      swap2\n      swap1\n      pop\n      jump\t// out\n        /* \"#utility.yul\":5420:5495   */\n    tag_134:\n        /* \"#utility.yul\":5453:5459   */\n      0x00\n        /* \"#utility.yul\":5486:5488   */\n      0x40\n        /* \"#utility.yul\":5480:5489   */\n      mload\n        /* \"#utility.yul\":5470:5489   */\n      swap1\n      pop\n        /* \"#utility.yul\":5460:5495   */\n      swap1\n      jump\t// out\n        /* \"#utility.yul\":5501:5812   */\n    tag_61:\n        /* \"#utility.yul\":5578:5582   */\n      0x00\n        /* \"#utility.yul\":5668:5686   */\n      0xffffffffffffffff\n        /* \"#utility.yul\":5660:5666   */\n      dup3\n        /* \"#utility.yul\":5657:5687   */\n      gt\n        /* \"#utility.yul\":5654:5656   */\n      iszero\n      tag_139\n      jumpi\n        /* \"#utility.yul\":5690:5708   */\n      tag_140\n      tag_141\n      jump\t// in\n    tag_140:\n        /* \"#utility.yul\":5654:5656   */\n    tag_139:\n        /* \"#utility.yul\":5740:5744   */\n      0x20\n        /* \"#utility.yul\":5732:5738   */\n      dup3\n        /* \"#utility.yul\":5728:5745   */\n      mul\n        /* \"#utility.yul\":5720:5745   */\n      swap1\n      pop\n        /* \"#utility.yul\":5800:5804   */\n      0x20\n        /* \"#utility.yul\":5794:5798   */\n      dup2\n        /* \"#utility.yul\":5790:5805   */\n      add\n        /* \"#utility.yul\":5782:5805   */\n      swap1\n      pop\n        /* \"#utility.yul\":5583:5812   */\n      swap2\n      swap1\n      pop\n      jump\t// out\n        /* \"#utility.yul\":5818:5950   */\n    tag_94:\n        /* \"#utility.yul\":5885:5889   */\n      0x00\n        /* \"#utility.yul\":5908:5911   */\n      dup2\n        /* \"#utility.yul\":5900:5911   */\n      swap1\n      pop\n        /* \"#utility.yul\":5938:5942   */\n      0x20\n        /* \"#utility.yul\":5933:5936   */\n      dup3\n        /* \"#utility.yul\":5929:5943   */\n      add\n        /* \"#utility.yul\":5921:5943   */\n      swap1\n      pop\n        /* \"#utility.yul\":5890:5950   */\n      swap2\n      swap1\n      pop\n      jump\t// out\n        /* \"#utility.yul\":5956:6070   */\n    tag_90:\n        /* \"#utility.yul\":6023:6029   */\n      0x00\n        /* \"#utility.yul\":6057:6062   */\n      dup2\n        /* \"#utility.yul\":6051:6063   */\n      mload\n        /* \"#utility.yul\":6041:6063   */\n      swap1\n      pop\n        /* \"#utility.yul\":6030:6070   */\n      swap2\n      swap1\n      pop\n      jump\t// out\n        /* \"#utility.yul\":6076:6189   */\n    tag_100:\n        /* \"#utility.yul\":6146:6150   */\n      0x00\n        /* \"#utility.yul\":6178:6182   */\n      0x20\n        /* \"#utility.yul\":6173:6176   */\n      dup3\n        /* \"#utility.yul\":6169:6183   */\n      add\n        /* \"#utility.yul\":6161:6183   */\n      swap1\n      pop\n        /* \"#utility.yul\":6151:6189   */\n      swap2\n      swap1\n      pop\n      jump\t// out\n        /* \"#utility.yul\":6195:6379   */\n    tag_92:\n        /* \"#utility.yul\":6294:6305   */\n      0x00\n        /* \"#utility.yul\":6328:6334   */\n      dup3\n        /* \"#utility.yul\":6323:6326   */\n      dup3\n        /* \"#utility.yul\":6316:6335   */\n      mstore\n        /* \"#utility.yul\":6368:6372   */\n      0x20\n        /* \"#utility.yul\":6363:6366   */\n      dup3\n        /* \"#utility.yul\":6359:6373   */\n      add\n        /* \"#utility.yul\":6344:6373   */\n      swap1\n      pop\n        /* \"#utility.yul\":6306:6379   */\n      swap3\n      swap2\n      pop\n      pop\n      jump\t// out\n        /* \"#utility.yul\":6385:6475   */\n    tag_104:\n        /* \"#utility.yul\":6419:6426   */\n      0x00\n        /* \"#utility.yul\":6462:6467   */\n      dup2\n        /* \"#utility.yul\":6455:6468   */\n      iszero\n        /* \"#utility.yul\":6448:6469   */\n      iszero\n        /* \"#utility.yul\":6437:6469   */\n      swap1\n      pop\n        /* \"#utility.yul\":6427:6475   */\n      swap2\n      swap1\n      pop\n      jump\t// out\n        /* \"#utility.yul\":6481:6557   */\n    tag_108:\n        /* \"#utility.yul\":6517:6524   */\n      0x00\n        /* \"#utility.yul\":6546:6551   */\n      dup2\n        /* \"#utility.yul\":6535:6551   */\n      swap1\n      pop\n        /* \"#utility.yul\":6525:6557   */\n      swap2\n      swap1\n      pop\n      jump\t// out\n        /* \"#utility.yul\":6563:6640   */\n    tag_111:\n        /* \"#utility.yul\":6600:6607   */\n      0x00\n        /* \"#utility.yul\":6629:6634   */\n      dup2\n        /* \"#utility.yul\":6618:6634   */\n      swap1\n      pop\n        /* \"#utility.yul\":6608:6640   */\n      swap2\n      swap1\n      pop\n      jump\t// out\n        /* \"#utility.yul\":6646:6927   */\n    tag_136:\n        /* \"#utility.yul\":6729:6756   */\n      tag_150\n        /* \"#utility.yul\":6751:6755   */\n      dup3\n        /* \"#utility.yul\":6729:6756   */\n      tag_151\n      jump\t// in\n    tag_150:\n        /* \"#utility.yul\":6721:6727   */\n      dup2\n        /* \"#utility.yul\":6717:6757   */\n      add\n        /* \"#utility.yul\":6859:6865   */\n      dup2\n        /* \"#utility.yul\":6847:6857   */\n      dup2\n        /* \"#utility.yul\":6844:6866   */\n      lt\n        /* \"#utility.yul\":6823:6841   */\n      0xffffffffffffffff\n        /* \"#utility.yul\":6811:6821   */\n      dup3\n        /* \"#utility.yul\":6808:6842   */\n      gt\n        /* \"#utility.yul\":6805:6867   */\n      or\n        /* \"#utility.yul\":6802:6804   */\n      iszero\n      tag_152\n      jumpi\n        /* \"#utility.yul\":6870:6888   */\n      tag_153\n      tag_141\n      jump\t// in\n    tag_153:\n        /* \"#utility.yul\":6802:6804   */\n    tag_152:\n        /* \"#utility.yul\":6910:6920   */\n      dup1\n        /* \"#utility.yul\":6906:6908   */\n      0x40\n        /* \"#utility.yul\":6899:6921   */\n      mstore\n        /* \"#utility.yul\":6689:6927   */\n      pop\n      pop\n      pop\n      jump\t// out\n        /* \"#utility.yul\":6933:7113   */\n    tag_141:\n        /* \"#utility.yul\":6981:7058   */\n      0x4e487b7100000000000000000000000000000000000000000000000000000000\n        /* \"#utility.yul\":6978:6979   */\n      0x00\n        /* \"#utility.yul\":6971:7059   */\n      mstore\n        /* \"#utility.yul\":7078:7082   */\n      0x41\n        /* \"#utility.yul\":7075:7076   */\n      0x04\n        /* \"#utility.yul\":7068:7083   */\n      mstore\n        /* \"#utility.yul\":7102:7106   */\n      0x24\n        /* \"#utility.yul\":7099:7100   */\n      0x00\n        /* \"#utility.yul\":7092:7107   */\n      revert\n        /* \"#utility.yul\":7119:7221   */\n    tag_151:\n        /* \"#utility.yul\":7160:7166   */\n      0x00\n        /* \"#utility.yul\":7211:7213   */\n      0x1f\n        /* \"#utility.yul\":7207:7214   */\n      not\n        /* \"#utility.yul\":7202:7204   */\n      0x1f\n        /* \"#utility.yul\":7195:7200   */\n      dup4\n        /* \"#utility.yul\":7191:7205   */\n      add\n        /* \"#utility.yul\":7187:7215   */\n      and\n        /* \"#utility.yul\":7177:7215   */\n      swap1\n      pop\n        /* \"#utility.yul\":7167:7221   */\n      swap2\n      swap1\n      pop\n      jump\t// out\n        /* \"#utility.yul\":7227:7349   */\n    tag_75:\n        /* \"#utility.yul\":7300:7324   */\n      tag_157\n        /* \"#utility.yul\":7318:7323   */\n      dup2\n        /* \"#utility.yul\":7300:7324   */\n      tag_111\n      jump\t// in\n    tag_157:\n        /* \"#utility.yul\":7293:7298   */\n      dup2\n        /* \"#utility.yul\":7290:7325   */\n      eq\n        /* \"#utility.yul\":7280:7282   */\n      tag_158\n      jumpi\n        /* \"#utility.yul\":7339:7340   */\n      0x00\n        /* \"#utility.yul\":7336:7337   */\n      dup1\n        /* \"#utility.yul\":7329:7341   */\n      revert\n        /* \"#utility.yul\":7280:7282   */\n    tag_158:\n        /* \"#utility.yul\":7270:7349   */\n      pop\n      jump\t// out\n\n    auxdata: 0xa264697066735822122057cfa463d34a938e05a8b172ea94cf26c93482ea1b3699b96119f1ab645de0bb64736f6c63430008040033\n}\n",
				"bytecode": {
					"linkReferences": {},
					"object": "608060405234801561001057600080fd5b506106e7806100206000396000f3fe608060405234801561001057600080fd5b50600436106100885760003560e01c8063868875441161005b578063868875441461011d578063946e182c1461013d578063adb4d9901461015c578063f4bb6e6b1461017c57610088565b80631990532b1461008d57806345f907a8146100ab57806353a6aadb146100cb57806371e5ee5f146100ed575b600080fd5b610095610198565b6040516100a2919061048f565b60405180910390f35b6100b36101f0565b6040516100c2939291906104f5565b60405180910390f35b6100d3610205565b6040516100e495949392919061052c565b60405180910390f35b610107600480360381019061010291906103b4565b610248565b60405161011491906104da565b60405180910390f35b61012561026c565b604051610134939291906104f5565b60405180910390f35b610145610281565b6040516101539291906104b1565b60405180910390f35b6101646102af565b604051610173939291906104f5565b60405180910390f35b61019660048036038101906101919190610373565b6102c5565b005b606060008054806020026020016040519081016040528092919081815260200182805480156101e657602002820191906000526020600020905b8154815260200190600101908083116101d2575b5050505050905090565b60008060006001806002925092509250909192565b60008060008060008060008061021961026c565b925092509250600080600460056006925050915084848484849950995099509950995050505050509091929394565b6000818154811061025857600080fd5b906000526020600020016000915090505481565b60008060006001806002925092509250909192565b6000807ffffffffffffffffffffffffffffffffffffffffffffffffffffffffffffffffe9150600190509091565b6000806000600192506001915060029050909192565b50565b60006102db6102d6846105a4565b61057f565b905080838252602082019050828560208602820111156102fa57600080fd5b60005b8581101561032a5781610310888261035e565b8452602084019350602083019250506001810190506102fd565b5050509392505050565b600082601f83011261034557600080fd5b81356103558482602086016102c8565b91505092915050565b60008135905061036d8161069a565b92915050565b60006020828403121561038557600080fd5b600082013567ffffffffffffffff81111561039f57600080fd5b6103ab84828501610334565b91505092915050565b6000602082840312156103c657600080fd5b60006103d48482850161035e565b91505092915050565b60006103e98383610471565b60208301905092915050565b6000610400826105e0565b61040a81856105f8565b9350610415836105d0565b8060005b8381101561044657815161042d88826103dd565b9750610438836105eb565b925050600181019050610419565b5085935050505092915050565b61045c81610609565b82525050565b61046b81610615565b82525050565b61047a8161061f565b82525050565b6104898161061f565b82525050565b600060208201905081810360008301526104a981846103f5565b905092915050565b60006040820190506104c66000830185610462565b6104d36020830184610453565b9392505050565b60006020820190506104ef6000830184610480565b92915050565b600060608201905061050a6000830186610480565b6105176020830185610453565b6105246040830184610480565b949350505050565b600060a0820190506105416000830188610480565b61054e6020830187610453565b61055b6040830186610480565b6105686060830185610480565b6105756080830184610480565b9695505050505050565b600061058961059a565b90506105958282610629565b919050565b6000604051905090565b600067ffffffffffffffff8211156105bf576105be61065a565b5b602082029050602081019050919050565b6000819050602082019050919050565b600081519050919050565b6000602082019050919050565b600082825260208201905092915050565b60008115159050919050565b6000819050919050565b6000819050919050565b61063282610689565b810181811067ffffffffffffffff821117156106515761065061065a565b5b80604052505050565b7f4e487b7100000000000000000000000000000000000000000000000000000000600052604160045260246000fd5b6000601f19601f8301169050919050565b6106a38161061f565b81146106ae57600080fd5b5056fea264697066735822122057cfa463d34a938e05a8b172ea94cf26c93482ea1b3699b96119f1ab645de0bb64736f6c63430008040033",
					"opcodes": "PUSH1 0x80 PUSH1 0x40 MSTORE CALLVALUE DUP1 ISZERO PUSH2 0x10 JUMPI PUSH1 0x0 DUP1 REVERT JUMPDEST POP PUSH2 0x6E7 DUP1 PUSH2 0x20 PUSH1 0x0 CODECOPY PUSH1 0x0 RETURN INVALID PUSH1 0x80 PUSH1 0x40 MSTORE CALLVALUE DUP1 ISZERO PUSH2 0x10 JUMPI PUSH1 0x0 DUP1 REVERT JUMPDEST POP PUSH1 0x4 CALLDATASIZE LT PUSH2 0x88 JUMPI PUSH1 0x0 CALLDATALOAD PUSH1 0xE0 SHR DUP1 PUSH4 0x86887544 GT PUSH2 0x5B JUMPI DUP1 PUSH4 0x86887544 EQ PUSH2 0x11D JUMPI DUP1 PUSH4 0x946E182C EQ PUSH2 0x13D JUMPI DUP1 PUSH4 0xADB4D990 EQ PUSH2 0x15C JUMPI DUP1 PUSH4 0xF4BB6E6B EQ PUSH2 0x17C JUMPI PUSH2 0x88 JUMP JUMPDEST DUP1 PUSH4 0x1990532B EQ PUSH2 0x8D JUMPI DUP1 PUSH4 0x45F907A8 EQ PUSH2 0xAB JUMPI DUP1 PUSH4 0x53A6AADB EQ PUSH2 0xCB JUMPI DUP1 PUSH4 0x71E5EE5F EQ PUSH2 0xED JUMPI JUMPDEST PUSH1 0x0 DUP1 REVERT JUMPDEST PUSH2 0x95 PUSH2 0x198 JUMP JUMPDEST PUSH1 0x40 MLOAD PUSH2 0xA2 SWAP2 SWAP1 PUSH2 0x48F JUMP JUMPDEST PUSH1 0x40 MLOAD DUP1 SWAP2 SUB SWAP1 RETURN JUMPDEST PUSH2 0xB3 PUSH2 0x1F0 JUMP JUMPDEST PUSH1 0x40 MLOAD PUSH2 0xC2 SWAP4 SWAP3 SWAP2 SWAP1 PUSH2 0x4F5 JUMP JUMPDEST PUSH1 0x40 MLOAD DUP1 SWAP2 SUB SWAP1 RETURN JUMPDEST PUSH2 0xD3 PUSH2 0x205 JUMP JUMPDEST PUSH1 0x40 MLOAD PUSH2 0xE4 SWAP6 SWAP5 SWAP4 SWAP3 SWAP2 SWAP1 PUSH2 0x52C JUMP JUMPDEST PUSH1 0x40 MLOAD DUP1 SWAP2 SUB SWAP1 RETURN JUMPDEST PUSH2 0x107 PUSH1 0x4 DUP1 CALLDATASIZE SUB DUP2 ADD SWAP1 PUSH2 0x102 SWAP2 SWAP1 PUSH2 0x3B4 JUMP JUMPDEST PUSH2 0x248 JUMP JUMPDEST PUSH1 0x40 MLOAD PUSH2 0x114 SWAP2 SWAP1 PUSH2 0x4DA JUMP JUMPDEST PUSH1 0x40 MLOAD DUP1 SWAP2 SUB SWAP1 RETURN JUMPDEST PUSH2 0x125 PUSH2 0x26C JUMP JUMPDEST PUSH1 0x40 MLOAD PUSH2 0x134 SWAP4 SWAP3 SWAP2 SWAP1 PUSH2 0x4F5 JUMP JUMPDEST PUSH1 0x40 MLOAD DUP1 SWAP2 SUB SWAP1 RETURN JUMPDEST PUSH2 0x145 PUSH2 0x281 JUMP JUMPDEST PUSH1 0x40 MLOAD PUSH2 0x153 SWAP3 SWAP2 SWAP1 PUSH2 0x4B1 JUMP JUMPDEST PUSH1 0x40 MLOAD DUP1 SWAP2 SUB SWAP1 RETURN JUMPDEST PUSH2 0x164 PUSH2 0x2AF JUMP JUMPDEST PUSH1 0x40 MLOAD PUSH2 0x173 SWAP4 SWAP3 SWAP2 SWAP1 PUSH2 0x4F5 JUMP JUMPDEST PUSH1 0x40 MLOAD DUP1 SWAP2 SUB SWAP1 RETURN JUMPDEST PUSH2 0x196 PUSH1 0x4 DUP1 CALLDATASIZE SUB DUP2 ADD SWAP1 PUSH2 0x191 SWAP2 SWAP1 PUSH2 0x373 JUMP JUMPDEST PUSH2 0x2C5 JUMP JUMPDEST STOP JUMPDEST PUSH1 0x60 PUSH1 0x0 DUP1 SLOAD DUP1 PUSH1 0x20 MUL PUSH1 0x20 ADD PUSH1 0x40 MLOAD SWAP1 DUP2 ADD PUSH1 0x40 MSTORE DUP1 SWAP3 SWAP2 SWAP1 DUP2 DUP2 MSTORE PUSH1 0x20 ADD DUP3 DUP1 SLOAD DUP1 ISZERO PUSH2 0x1E6 JUMPI PUSH1 0x20 MUL DUP3 ADD SWAP2 SWAP1 PUSH1 0x0 MSTORE PUSH1 0x20 PUSH1 0x0 KECCAK256 SWAP1 JUMPDEST DUP2 SLOAD DUP2 MSTORE PUSH1 0x20 ADD SWAP1 PUSH1 0x1 ADD SWAP1 DUP1 DUP4 GT PUSH2 0x1D2 JUMPI JUMPDEST POP POP POP POP POP SWAP1 POP SWAP1 JUMP JUMPDEST PUSH1 0x0 DUP1 PUSH1 0x0 PUSH1 0x1 DUP1 PUSH1 0x2 SWAP3 POP SWAP3 POP SWAP3 POP SWAP1 SWAP2 SWAP3 JUMP JUMPDEST PUSH1 0x0 DUP1 PUSH1 0x0 DUP1 PUSH1 0x0 DUP1 PUSH1 0x0 DUP1 PUSH2 0x219 PUSH2 0x26C JUMP JUMPDEST SWAP3 POP SWAP3 POP SWAP3 POP PUSH1 0x0 DUP1 PUSH1 0x4 PUSH1 0x5 PUSH1 0x6 SWAP3 POP POP SWAP2 POP DUP5 DUP5 DUP5 DUP5 DUP5 SWAP10 POP SWAP10 POP SWAP10 POP SWAP10 POP SWAP10 POP POP POP POP POP POP SWAP1 SWAP2 SWAP3 SWAP4 SWAP5 JUMP JUMPDEST PUSH1 0x0 DUP2 DUP2 SLOAD DUP2 LT PUSH2 0x258 JUMPI PUSH1 0x0 DUP1 REVERT JUMPDEST SWAP1 PUSH1 0x0 MSTORE PUSH1 0x20 PUSH1 0x0 KECCAK256 ADD PUSH1 0x0 SWAP2 POP SWAP1 POP SLOAD DUP2 JUMP JUMPDEST PUSH1 0x0 DUP1 PUSH1 0x0 PUSH1 0x1 DUP1 PUSH1 0x2 SWAP3 POP SWAP3 POP SWAP3 POP SWAP1 SWAP2 SWAP3 JUMP JUMPDEST PUSH1 0x0 DUP1 PUSH32 0xFFFFFFFFFFFFFFFFFFFFFFFFFFFFFFFFFFFFFFFFFFFFFFFFFFFFFFFFFFFFFFFE SWAP2 POP PUSH1 0x1 SWAP1 POP SWAP1 SWAP2 JUMP JUMPDEST PUSH1 0x0 DUP1 PUSH1 0x0 PUSH1 0x1 SWAP3 POP PUSH1 0x1 SWAP2 POP PUSH1 0x2 SWAP1 POP SWAP1 SWAP2 SWAP3 JUMP JUMPDEST POP JUMP JUMPDEST PUSH1 0x0 PUSH2 0x2DB PUSH2 0x2D6 DUP5 PUSH2 0x5A4 JUMP JUMPDEST PUSH2 0x57F JUMP JUMPDEST SWAP1 POP DUP1 DUP4 DUP3 MSTORE PUSH1 0x20 DUP3 ADD SWAP1 POP DUP3 DUP6 PUSH1 0x20 DUP7 MUL DUP3 ADD GT ISZERO PUSH2 0x2FA JUMPI PUSH1 0x0 DUP1 REVERT JUMPDEST PUSH1 0x0 JUMPDEST DUP6 DUP2 LT ISZERO PUSH2 0x32A JUMPI DUP2 PUSH2 0x310 DUP9 DUP3 PUSH2 0x35E JUMP JUMPDEST DUP5 MSTORE PUSH1 0x20 DUP5 ADD SWAP4 POP PUSH1 0x20 DUP4 ADD SWAP3 POP POP PUSH1 0x1 DUP2 ADD SWAP1 POP PUSH2 0x2FD JUMP JUMPDEST POP POP POP SWAP4 SWAP3 POP POP POP JUMP JUMPDEST PUSH1 0x0 DUP3 PUSH1 0x1F DUP4 ADD SLT PUSH2 0x345 JUMPI PUSH1 0x0 DUP1 REVERT JUMPDEST DUP2 CALLDATALOAD PUSH2 0x355 DUP5 DUP3 PUSH1 0x20 DUP7 ADD PUSH2 0x2C8 JUMP JUMPDEST SWAP2 POP POP SWAP3 SWAP2 POP POP JUMP JUMPDEST PUSH1 0x0 DUP2 CALLDATALOAD SWAP1 POP PUSH2 0x36D DUP2 PUSH2 0x69A JUMP JUMPDEST SWAP3 SWAP2 POP POP JUMP JUMPDEST PUSH1 0x0 PUSH1 0x20 DUP3 DUP5 SUB SLT ISZERO PUSH2 0x385 JUMPI PUSH1 0x0 DUP1 REVERT JUMPDEST PUSH1 0x0 DUP3 ADD CALLDATALOAD PUSH8 0xFFFFFFFFFFFFFFFF DUP2 GT ISZERO PUSH2 0x39F JUMPI PUSH1 0x0 DUP1 REVERT JUMPDEST PUSH2 0x3AB DUP5 DUP3 DUP6 ADD PUSH2 0x334 JUMP JUMPDEST SWAP2 POP POP SWAP3 SWAP2 POP POP JUMP JUMPDEST PUSH1 0x0 PUSH1 0x20 DUP3 DUP5 SUB SLT ISZERO PUSH2 0x3C6 JUMPI PUSH1 0x0 DUP1 REVERT JUMPDEST PUSH1 0x0 PUSH2 0x3D4 DUP5 DUP3 DUP6 ADD PUSH2 0x35E JUMP JUMPDEST SWAP2 POP POP SWAP3 SWAP2 POP POP JUMP JUMPDEST PUSH1 0x0 PUSH2 0x3E9 DUP4 DUP4 PUSH2 0x471 JUMP JUMPDEST PUSH1 0x20 DUP4 ADD SWAP1 POP SWAP3 SWAP2 POP POP JUMP JUMPDEST PUSH1 0x0 PUSH2 0x400 DUP3 PUSH2 0x5E0 JUMP JUMPDEST PUSH2 0x40A DUP2 DUP6 PUSH2 0x5F8 JUMP JUMPDEST SWAP4 POP PUSH2 0x415 DUP4 PUSH2 0x5D0 JUMP JUMPDEST DUP1 PUSH1 0x0 JUMPDEST DUP4 DUP2 LT ISZERO PUSH2 0x446 JUMPI DUP2 MLOAD PUSH2 0x42D DUP9 DUP3 PUSH2 0x3DD JUMP JUMPDEST SWAP8 POP PUSH2 0x438 DUP4 PUSH2 0x5EB JUMP JUMPDEST SWAP3 POP POP PUSH1 0x1 DUP2 ADD SWAP1 POP PUSH2 0x419 JUMP JUMPDEST POP DUP6 SWAP4 POP POP POP POP SWAP3 SWAP2 POP POP JUMP JUMPDEST PUSH2 0x45C DUP2 PUSH2 0x609 JUMP JUMPDEST DUP3 MSTORE POP POP JUMP JUMPDEST PUSH2 0x46B DUP2 PUSH2 0x615 JUMP JUMPDEST DUP3 MSTORE POP POP JUMP JUMPDEST PUSH2 0x47A DUP2 PUSH2 0x61F JUMP JUMPDEST DUP3 MSTORE POP POP JUMP JUMPDEST PUSH2 0x489 DUP2 PUSH2 0x61F JUMP JUMPDEST DUP3 MSTORE POP POP JUMP JUMPDEST PUSH1 0x0 PUSH1 0x20 DUP3 ADD SWAP1 POP DUP2 DUP2 SUB PUSH1 0x0 DUP4 ADD MSTORE PUSH2 0x4A9 DUP2 DUP5 PUSH2 0x3F5 JUMP JUMPDEST SWAP1 POP SWAP3 SWAP2 POP POP JUMP JUMPDEST PUSH1 0x0 PUSH1 0x40 DUP3 ADD SWAP1 POP PUSH2 0x4C6 PUSH1 0x0 DUP4 ADD DUP6 PUSH2 0x462 JUMP JUMPDEST PUSH2 0x4D3 PUSH1 0x20 DUP4 ADD DUP5 PUSH2 0x453 JUMP JUMPDEST SWAP4 SWAP3 POP POP POP JUMP JUMPDEST PUSH1 0x0 PUSH1 0x20 DUP3 ADD SWAP1 POP PUSH2 0x4EF PUSH1 0x0 DUP4 ADD DUP5 PUSH2 0x480 JUMP JUMPDEST SWAP3 SWAP2 POP POP JUMP JUMPDEST PUSH1 0x0 PUSH1 0x60 DUP3 ADD SWAP1 POP PUSH2 0x50A PUSH1 0x0 DUP4 ADD DUP7 PUSH2 0x480 JUMP JUMPDEST PUSH2 0x517 PUSH1 0x20 DUP4 ADD DUP6 PUSH2 0x453 JUMP JUMPDEST PUSH2 0x524 PUSH1 0x40 DUP4 ADD DUP5 PUSH2 0x480 JUMP JUMPDEST SWAP5 SWAP4 POP POP POP POP JUMP JUMPDEST PUSH1 0x0 PUSH1 0xA0 DUP3 ADD SWAP1 POP PUSH2 0x541 PUSH1 0x0 DUP4 ADD DUP9 PUSH2 0x480 JUMP JUMPDEST PUSH2 0x54E PUSH1 0x20 DUP4 ADD DUP8 PUSH2 0x453 JUMP JUMPDEST PUSH2 0x55B PUSH1 0x40 DUP4 ADD DUP7 PUSH2 0x480 JUMP JUMPDEST PUSH2 0x568 PUSH1 0x60 DUP4 ADD DUP6 PUSH2 0x480 JUMP JUMPDEST PUSH2 0x575 PUSH1 0x80 DUP4 ADD DUP5 PUSH2 0x480 JUMP JUMPDEST SWAP7 SWAP6 POP POP POP POP POP POP JUMP JUMPDEST PUSH1 0x0 PUSH2 0x589 PUSH2 0x59A JUMP JUMPDEST SWAP1 POP PUSH2 0x595 DUP3 DUP3 PUSH2 0x629 JUMP JUMPDEST SWAP2 SWAP1 POP JUMP JUMPDEST PUSH1 0x0 PUSH1 0x40 MLOAD SWAP1 POP SWAP1 JUMP JUMPDEST PUSH1 0x0 PUSH8 0xFFFFFFFFFFFFFFFF DUP3 GT ISZERO PUSH2 0x5BF JUMPI PUSH2 0x5BE PUSH2 0x65A JUMP JUMPDEST JUMPDEST PUSH1 0x20 DUP3 MUL SWAP1 POP PUSH1 0x20 DUP2 ADD SWAP1 POP SWAP2 SWAP1 POP JUMP JUMPDEST PUSH1 0x0 DUP2 SWAP1 POP PUSH1 0x20 DUP3 ADD SWAP1 POP SWAP2 SWAP1 POP JUMP JUMPDEST PUSH1 0x0 DUP2 MLOAD SWAP1 POP SWAP2 SWAP1 POP JUMP JUMPDEST PUSH1 0x0 PUSH1 0x20 DUP3 ADD SWAP1 POP SWAP2 SWAP1 POP JUMP JUMPDEST PUSH1 0x0 DUP3 DUP3 MSTORE PUSH1 0x20 DUP3 ADD SWAP1 POP SWAP3 SWAP2 POP POP JUMP JUMPDEST PUSH1 0x0 DUP2 ISZERO ISZERO SWAP1 POP SWAP2 SWAP1 POP JUMP JUMPDEST PUSH1 0x0 DUP2 SWAP1 POP SWAP2 SWAP1 POP JUMP JUMPDEST PUSH1 0x0 DUP2 SWAP1 POP SWAP2 SWAP1 POP JUMP JUMPDEST PUSH2 0x632 DUP3 PUSH2 0x689 JUMP JUMPDEST DUP2 ADD DUP2 DUP2 LT PUSH8 0xFFFFFFFFFFFFFFFF DUP3 GT OR ISZERO PUSH2 0x651 JUMPI PUSH2 0x650 PUSH2 0x65A JUMP JUMPDEST JUMPDEST DUP1 PUSH1 0x40 MSTORE POP POP POP JUMP JUMPDEST PUSH32 0x4E487B7100000000000000000000000000000000000000000000000000000000 PUSH1 0x0 MSTORE PUSH1 0x41 PUSH1 0x4 MSTORE PUSH1 0x24 PUSH1 0x0 REVERT JUMPDEST PUSH1 0x0 PUSH1 0x1F NOT PUSH1 0x1F DUP4 ADD AND SWAP1 POP SWAP2 SWAP1 POP JUMP JUMPDEST PUSH2 0x6A3 DUP2 PUSH2 0x61F JUMP JUMPDEST DUP2 EQ PUSH2 0x6AE JUMPI PUSH1 0x0 DUP1 REVERT JUMPDEST POP JUMP INVALID LOG2 PUSH5 0x6970667358 0x22 SLT KECCAK256 JUMPI 0xCF LOG4 PUSH4 0xD34A938E SDIV 0xA8 0xB1 PUSH19 0xEA94CF26C93482EA1B3699B96119F1AB645DE0 0xBB PUSH5 0x736F6C6343 STOP ADDMOD DIV STOP CALLER "
				},
				"gasEstimates": {
					"creation": {
						"codeDepositCost": "353400",
						"executionCost": "393",
						"totalCost": "353793"
					},
					"external": {
						"arr(uint256)": "infinite",
						"arrayInput(uint256[])": "infinite",
						"arrayOutput()": "infinite",
						"assigned()": "infinite",
						"destructingAssigments()": "infinite",
						"named()": "infinite",
						"returnMany()": "infinite",
						"returnTwo()": "479"
					}
				},
				"methodIdentifiers": {
					"arr(uint256)": "71e5ee5f",
					"arrayInput(uint256[])": "f4bb6e6b",
					"arrayOutput()": "1990532b",
					"assigned()": "adb4d990",
					"destructingAssigments()": "53a6aadb",
					"named()": "45f907a8",
					"returnMany()": "86887544",
					"returnTwo()": "946e182c"
				}
			},
			"userdoc": {
				"kind": "user",
				"methods": {},
				"version": 1
			}
		}
	}
}