{
	".learneth/Solidity Beginner Course/10.2 Transactions - Gas and Gas Price/gasAndGasPrice_answer.sol": {
		"Gas": {
			"abi": [
				{
					"inputs": [],
					"name": "cost",
					"outputs": [
						{
							"internalType": "uint256",
							"name": "",
							"type": "uint256"
						}
					],
					"stateMutability": "view",
					"type": "function"
				},
				{
					"inputs": [],
					"name": "forever",
					"outputs": [],
					"stateMutability": "nonpayable",
					"type": "function"
				},
				{
					"inputs": [],
					"name": "i",
					"outputs": [
						{
							"internalType": "uint256",
							"name": "",
							"type": "uint256"
						}
					],
					"stateMutability": "view",
					"type": "function"
				}
			],
			"devdoc": {
				"kind": "dev",
				"methods": {},
				"version": 1
			},
			"evm": {
				"assembly": "    /* \".learneth/Solidity Beginner Course/10.2 Transactions - Gas and Gas Price/gasAndGasPrice_answer.sol\":57:463  contract Gas {... */\n  mstore(0x40, 0x80)\n    /* \".learneth/Solidity Beginner Course/10.2 Transactions - Gas and Gas Price/gasAndGasPrice_answer.sol\":92:93  0 */\n  0x00\n    /* \".learneth/Solidity Beginner Course/10.2 Transactions - Gas and Gas Price/gasAndGasPrice_answer.sol\":76:93  uint public i = 0 */\n  dup1\n  sstore\n    /* \".learneth/Solidity Beginner Course/10.2 Transactions - Gas and Gas Price/gasAndGasPrice_answer.sol\":118:124  170367 */\n  0x02997f\n    /* \".learneth/Solidity Beginner Course/10.2 Transactions - Gas and Gas Price/gasAndGasPrice_answer.sol\":99:124  uint public cost = 170367 */\n  0x01\n  sstore\n    /* \".learneth/Solidity Beginner Course/10.2 Transactions - Gas and Gas Price/gasAndGasPrice_answer.sol\":57:463  contract Gas {... */\n  callvalue\n  dup1\n  iszero\n  tag_1\n  jumpi\n  0x00\n  dup1\n  revert\ntag_1:\n  pop\n  dataSize(sub_0)\n  dup1\n  dataOffset(sub_0)\n  0x00\n  codecopy\n  0x00\n  return\nstop\n\nsub_0: assembly {\n        /* \".learneth/Solidity Beginner Course/10.2 Transactions - Gas and Gas Price/gasAndGasPrice_answer.sol\":57:463  contract Gas {... */\n      mstore(0x40, 0x80)\n      callvalue\n      dup1\n      iszero\n      tag_1\n      jumpi\n      0x00\n      dup1\n      revert\n    tag_1:\n      pop\n      jumpi(tag_2, lt(calldatasize, 0x04))\n      shr(0xe0, calldataload(0x00))\n      dup1\n      0x13faede6\n      eq\n      tag_3\n      jumpi\n      dup1\n      0x9ff9a603\n      eq\n      tag_4\n      jumpi\n      dup1\n      0xe5aa3d58\n      eq\n      tag_5\n      jumpi\n    tag_2:\n      0x00\n      dup1\n      revert\n        /* \".learneth/Solidity Beginner Course/10.2 Transactions - Gas and Gas Price/gasAndGasPrice_answer.sol\":99:124  uint public cost = 170367 */\n    tag_3:\n      tag_6\n      tag_7\n      jump\t// in\n    tag_6:\n      mload(0x40)\n      tag_8\n      swap2\n      swap1\n      tag_9\n      jump\t// in\n    tag_8:\n      mload(0x40)\n      dup1\n      swap2\n      sub\n      swap1\n      return\n        /* \".learneth/Solidity Beginner Course/10.2 Transactions - Gas and Gas Price/gasAndGasPrice_answer.sol\":277:461  function forever() public {... */\n    tag_4:\n      tag_10\n      tag_11\n      jump\t// in\n    tag_10:\n      stop\n        /* \".learneth/Solidity Beginner Course/10.2 Transactions - Gas and Gas Price/gasAndGasPrice_answer.sol\":76:93  uint public i = 0 */\n    tag_5:\n      tag_12\n      tag_13\n      jump\t// in\n    tag_12:\n      mload(0x40)\n      tag_14\n      swap2\n      swap1\n      tag_9\n      jump\t// in\n    tag_14:\n      mload(0x40)\n      dup1\n      swap2\n      sub\n      swap1\n      return\n        /* \".learneth/Solidity Beginner Course/10.2 Transactions - Gas and Gas Price/gasAndGasPrice_answer.sol\":99:124  uint public cost = 170367 */\n    tag_7:\n      sload(0x01)\n      dup2\n      jump\t// out\n        /* \".learneth/Solidity Beginner Course/10.2 Transactions - Gas and Gas Price/gasAndGasPrice_answer.sol\":277:461  function forever() public {... */\n    tag_11:\n        /* \".learneth/Solidity Beginner Course/10.2 Transactions - Gas and Gas Price/gasAndGasPrice_answer.sol\":411:455  while (true) {... */\n    tag_16:\n        /* \".learneth/Solidity Beginner Course/10.2 Transactions - Gas and Gas Price/gasAndGasPrice_answer.sol\":418:422  true */\n      0x01\n        /* \".learneth/Solidity Beginner Course/10.2 Transactions - Gas and Gas Price/gasAndGasPrice_answer.sol\":411:455  while (true) {... */\n      iszero\n      tag_17\n      jumpi\n        /* \".learneth/Solidity Beginner Course/10.2 Transactions - Gas and Gas Price/gasAndGasPrice_answer.sol\":443:444  1 */\n      0x01\n        /* \".learneth/Solidity Beginner Course/10.2 Transactions - Gas and Gas Price/gasAndGasPrice_answer.sol\":438:439  i */\n      0x00\n      dup1\n        /* \".learneth/Solidity Beginner Course/10.2 Transactions - Gas and Gas Price/gasAndGasPrice_answer.sol\":438:444  i += 1 */\n      dup3\n      dup3\n      sload\n      tag_18\n      swap2\n      swap1\n      tag_19\n      jump\t// in\n    tag_18:\n      swap3\n      pop\n      pop\n      dup2\n      swap1\n      sstore\n      pop\n        /* \".learneth/Solidity Beginner Course/10.2 Transactions - Gas and Gas Price/gasAndGasPrice_answer.sol\":411:455  while (true) {... */\n      jump(tag_16)\n    tag_17:\n        /* \".learneth/Solidity Beginner Course/10.2 Transactions - Gas and Gas Price/gasAndGasPrice_answer.sol\":277:461  function forever() public {... */\n      jump\t// out\n        /* \".learneth/Solidity Beginner Course/10.2 Transactions - Gas and Gas Price/gasAndGasPrice_answer.sol\":76:93  uint public i = 0 */\n    tag_13:\n      sload(0x00)\n      dup2\n      jump\t// out\n        /* \"#utility.yul\":7:125   */\n    tag_21:\n        /* \"#utility.yul\":94:118   */\n      tag_23\n        /* \"#utility.yul\":112:117   */\n      dup2\n        /* \"#utility.yul\":94:118   */\n      tag_24\n      jump\t// in\n    tag_23:\n        /* \"#utility.yul\":89:92   */\n      dup3\n        /* \"#utility.yul\":82:119   */\n      mstore\n        /* \"#utility.yul\":72:125   */\n      pop\n      pop\n      jump\t// out\n        /* \"#utility.yul\":131:353   */\n    tag_9:\n        /* \"#utility.yul\":224:228   */\n      0x00\n        /* \"#utility.yul\":262:264   */\n      0x20\n        /* \"#utility.yul\":251:260   */\n      dup3\n        /* \"#utility.yul\":247:265   */\n      add\n        /* \"#utility.yul\":239:265   */\n      swap1\n      pop\n        /* \"#utility.yul\":275:346   */\n      tag_26\n        /* \"#utility.yul\":343:344   */\n      0x00\n        /* \"#utility.yul\":332:341   */\n      dup4\n        /* \"#utility.yul\":328:345   */\n      add\n        /* \"#utility.yul\":319:325   */\n      dup5\n        /* \"#utility.yul\":275:346   */\n      tag_21\n      jump\t// in\n    tag_26:\n        /* \"#utility.yul\":229:353   */\n      swap3\n      swap2\n      pop\n      pop\n      jump\t// out\n        /* \"#utility.yul\":359:664   */\n    tag_19:\n        /* \"#utility.yul\":399:402   */\n      0x00\n        /* \"#utility.yul\":418:438   */\n      tag_28\n        /* \"#utility.yul\":436:437   */\n      dup3\n        /* \"#utility.yul\":418:438   */\n      tag_24\n      jump\t// in\n    tag_28:\n        /* \"#utility.yul\":413:438   */\n      swap2\n      pop\n        /* \"#utility.yul\":452:472   */\n      tag_29\n        /* \"#utility.yul\":470:471   */\n      dup4\n        /* \"#utility.yul\":452:472   */\n      tag_24\n      jump\t// in\n    tag_29:\n        /* \"#utility.yul\":447:472   */\n      swap3\n      pop\n        /* \"#utility.yul\":606:607   */\n      dup3\n        /* \"#utility.yul\":538:604   */\n      0xffffffffffffffffffffffffffffffffffffffffffffffffffffffffffffffff\n        /* \"#utility.yul\":534:608   */\n      sub\n        /* \"#utility.yul\":531:532   */\n      dup3\n        /* \"#utility.yul\":528:609   */\n      gt\n        /* \"#utility.yul\":525:527   */\n      iszero\n      tag_30\n      jumpi\n        /* \"#utility.yul\":612:630   */\n      tag_31\n      tag_32\n      jump\t// in\n    tag_31:\n        /* \"#utility.yul\":525:527   */\n    tag_30:\n        /* \"#utility.yul\":656:657   */\n      dup3\n        /* \"#utility.yul\":653:654   */\n      dup3\n        /* \"#utility.yul\":649:658   */\n      add\n        /* \"#utility.yul\":642:658   */\n      swap1\n      pop\n        /* \"#utility.yul\":403:664   */\n      swap3\n      swap2\n      pop\n      pop\n      jump\t// out\n        /* \"#utility.yul\":670:747   */\n    tag_24:\n        /* \"#utility.yul\":707:714   */\n      0x00\n        /* \"#utility.yul\":736:741   */\n      dup2\n        /* \"#utility.yul\":725:741   */\n      swap1\n      pop\n        /* \"#utility.yul\":715:747   */\n      swap2\n      swap1\n      pop\n      jump\t// out\n        /* \"#utility.yul\":753:933   */\n    tag_32:\n        /* \"#utility.yul\":801:878   */\n      0x4e487b7100000000000000000000000000000000000000000000000000000000\n        /* \"#utility.yul\":798:799   */\n      0x00\n        /* \"#utility.yul\":791:879   */\n      mstore\n        /* \"#utility.yul\":898:902   */\n      0x11\n        /* \"#utility.yul\":895:896   */\n      0x04\n        /* \"#utility.yul\":888:903   */\n      mstore\n        /* \"#utility.yul\":922:926   */\n      0x24\n        /* \"#utility.yul\":919:920   */\n      0x00\n        /* \"#utility.yul\":912:927   */\n      revert\n\n    auxdata: 0xa26469706673582212205807c21c7210e6ab0cb34100da398a1064f546acae4c94c2ac7a83290a93840a64736f6c63430008040033\n}\n",
				"bytecode": {
					"linkReferences": {},
					"object": "6080604052600080556202997f60015534801561001b57600080fd5b506101af8061002b6000396000f3fe608060405234801561001057600080fd5b50600436106100415760003560e01c806313faede6146100465780639ff9a60314610064578063e5aa3d581461006e575b600080fd5b61004e61008c565b60405161005b91906100cf565b60405180910390f35b61006c610092565b005b6100766100ba565b60405161008391906100cf565b60405180910390f35b60015481565b5b6001156100b85760016000808282546100ac91906100ea565b92505081905550610093565b565b60005481565b6100c981610140565b82525050565b60006020820190506100e460008301846100c0565b92915050565b60006100f582610140565b915061010083610140565b9250827fffffffffffffffffffffffffffffffffffffffffffffffffffffffffffffffff038211156101355761013461014a565b5b828201905092915050565b6000819050919050565b7f4e487b7100000000000000000000000000000000000000000000000000000000600052601160045260246000fdfea26469706673582212205807c21c7210e6ab0cb34100da398a1064f546acae4c94c2ac7a83290a93840a64736f6c63430008040033",
					"opcodes": "PUSH1 0x80 PUSH1 0x40 MSTORE PUSH1 0x0 DUP1 SSTORE PUSH3 0x2997F PUSH1 0x1 SSTORE CALLVALUE DUP1 ISZERO PUSH2 0x1B JUMPI PUSH1 0x0 DUP1 REVERT JUMPDEST POP PUSH2 0x1AF DUP1 PUSH2 0x2B PUSH1 0x0 CODECOPY PUSH1 0x0 RETURN INVALID PUSH1 0x80 PUSH1 0x40 MSTORE CALLVALUE DUP1 ISZERO PUSH2 0x10 JUMPI PUSH1 0x0 DUP1 REVERT JUMPDEST POP PUSH1 0x4 CALLDATASIZE LT PUSH2 0x41 JUMPI PUSH1 0x0 CALLDATALOAD PUSH1 0xE0 SHR DUP1 PUSH4 0x13FAEDE6 EQ PUSH2 0x46 JUMPI DUP1 PUSH4 0x9FF9A603 EQ PUSH2 0x64 JUMPI DUP1 PUSH4 0xE5AA3D58 EQ PUSH2 0x6E JUMPI JUMPDEST PUSH1 0x0 DUP1 REVERT JUMPDEST PUSH2 0x4E PUSH2 0x8C JUMP JUMPDEST PUSH1 0x40 MLOAD PUSH2 0x5B SWAP2 SWAP1 PUSH2 0xCF JUMP JUMPDEST PUSH1 0x40 MLOAD DUP1 SWAP2 SUB SWAP1 RETURN JUMPDEST PUSH2 0x6C PUSH2 0x92 JUMP JUMPDEST STOP JUMPDEST PUSH2 0x76 PUSH2 0xBA JUMP JUMPDEST PUSH1 0x40 MLOAD PUSH2 0x83 SWAP2 SWAP1 PUSH2 0xCF JUMP JUMPDEST PUSH1 0x40 MLOAD DUP1 SWAP2 SUB SWAP1 RETURN JUMPDEST PUSH1 0x1 SLOAD DUP2 JUMP JUMPDEST JUMPDEST PUSH1 0x1 ISZERO PUSH2 0xB8 JUMPI PUSH1 0x1 PUSH1 0x0 DUP1 DUP3 DUP3 SLOAD PUSH2 0xAC SWAP2 SWAP1 PUSH2 0xEA JUMP JUMPDEST SWAP3 POP POP DUP2 SWAP1 SSTORE POP PUSH2 0x93 JUMP JUMPDEST JUMP JUMPDEST PUSH1 0x0 SLOAD DUP2 JUMP JUMPDEST PUSH2 0xC9 DUP2 PUSH2 0x140 JUMP JUMPDEST DUP3 MSTORE POP POP JUMP JUMPDEST PUSH1 0x0 PUSH1 0x20 DUP3 ADD SWAP1 POP PUSH2 0xE4 PUSH1 0x0 DUP4 ADD DUP5 PUSH2 0xC0 JUMP JUMPDEST SWAP3 SWAP2 POP POP JUMP JUMPDEST PUSH1 0x0 PUSH2 0xF5 DUP3 PUSH2 0x140 JUMP JUMPDEST SWAP2 POP PUSH2 0x100 DUP4 PUSH2 0x140 JUMP JUMPDEST SWAP3 POP DUP3 PUSH32 0xFFFFFFFFFFFFFFFFFFFFFFFFFFFFFFFFFFFFFFFFFFFFFFFFFFFFFFFFFFFFFFFF SUB DUP3 GT ISZERO PUSH2 0x135 JUMPI PUSH2 0x134 PUSH2 0x14A JUMP JUMPDEST JUMPDEST DUP3 DUP3 ADD SWAP1 POP SWAP3 SWAP2 POP POP JUMP JUMPDEST PUSH1 0x0 DUP2 SWAP1 POP SWAP2 SWAP1 POP JUMP JUMPDEST PUSH32 0x4E487B7100000000000000000000000000000000000000000000000000000000 PUSH1 0x0 MSTORE PUSH1 0x11 PUSH1 0x4 MSTORE PUSH1 0x24 PUSH1 0x0 REVERT INVALID LOG2 PUSH5 0x6970667358 0x22 SLT KECCAK256 PC SMOD 0xC2 SHR PUSH19 0x10E6AB0CB34100DA398A1064F546ACAE4C94C2 0xAC PUSH27 0x83290A93840A64736F6C6343000804003300000000000000000000 "
				},
				"gasEstimates": {
					"creation": {
						"codeDepositCost": "86200",
						"executionCost": "25147",
						"totalCost": "111347"
					},
					"external": {
						"cost()": "1107",
						"forever()": "infinite",
						"i()": "1151"
					}
				},
				"methodIdentifiers": {
					"cost()": "13faede6",
					"forever()": "9ff9a603",
					"i()": "e5aa3d58"
				}
			},
			"userdoc": {
				"kind": "user",
				"methods": {},
				"version": 1
			}
		}
	}
}